:020000040000FA
:100000000C9496060C94E9290C94BE290C9493291F
:100010000C9468290C943D290C9412290C94E7281F
:100020000C94BC280C94C7060C94C7060C94C70605
:100030000C94C7060C94C7060C94C7060C94C7060C
:100040000C94C7060C94C7060C94C7060C94C706FC
:100050000C94C7060C94C7060C94C7060C9472281F
:100060000C94C7060C943E2A0C94142A0C94C706D0
:100070000C94C7060C94C7060C94C7060C94C706CC
:100080000C94C7060C94C7060C94C7060C94C706BC
:100090000C94C7060C94C7060C94C7060C94742ADB
:1000A0000C94C7060C94C7060C94C7060C94C7069C
:1000B0000C94C7060C94C7060C94C7060C94C7068C
:1000C0000C94C7060C94C7060C94C7060C94C7067C
:1000D0000C94C7060C94C7060C94C7060C94C7066C
:1000E0000C94C70607634236B79BD8A71A396856DF
:1000F00018AEBAAB558C1D3CB7CC5763BD6DEDFD4A
:10010000753EF6177231BF000000803F0800000006
:10011000BE922449123EABAAAA2ABECDCCCC4C3EFC
:1001200000000080BEABAAAAAA3E00000000BF00EB
:100130000000803F0000000000084178D3BB4387E7
:10014000D1133D190E3CC3BD4282AD2B3E68EC82FB
:1001500076BED98FE1A93E4C80EFFFBE01C4FF7F80
:100160003F00000000000C94A8070C94A5130C9409
:10017000D5070C9446180C9476160C94C11A0C945E
:10018000F5170C943F0B0C94DF170C94B4070C94E8
:100190001C0B0C9426280C94730B0C94BD070C9428
:1001A00029180C9464170C94C9230C94F7170C9419
:1001B000DB230C94630A0C948D0D0C9480090C9431
:1001C00089170C947D180C94AD090C941B0B0C949E
:1001D000C1070C9467180C94D6080C94460B0C9429
:1001E0005F130C942F100C9481180C94C8170C9466
:1001F000E2070C94CB070C9483180C94AC070C9476
:10020000D0090C944D090C94DE230C9450180C94D6
:10021000E30D0C94DE090C9408170C94160A0C9448
:10022000B7070C9470160C94C21A0C9411180C9405
:10023000C0230C94980C0C94AD2B0C94BC090C941A
:10024000D70D0C94A2070C946D170C94CF070C9447
:100250004D0E0C94B0070C9436170C94EF260C94AA
:10026000C7070C94CC230C941A0B0C94A1170C9474
:10027000D5230C94D8230C94E7070C941D0B0C94F5
:10028000BE170C947F180C947C160C94F9170C94E0
:10029000AB180C9468390C94D2230C94CF230C9493
:1002A0002C0B0C94E3070C94D9070C94C9060C94FE
:1002B000D3060C9436070C94DD076364696E6F7087
:1002C000737578585B00463320546F6F204C4F573E
:1002D000204672657100463220546F6F204C4F5794
:1002E000204672657100463120546F6F204C4F5785
:1002F000204672657100463020546F6F204C4F5776
:1003000020467265712000463320546F6F204849A3
:100310004748204672657100463220546F6F20486E
:10032000494748204672657100463120546F6F205E
:1003300048494748204672657100463020546F6F27
:10034000204849474820467265710020202020201F
:1003500020202020202020202020200020202000DD
:100360004F464600436820467265712E487A202029
:1003700020202064426D2050686173657D005357D2
:1003800020760048572076312E31004444532041D6
:10039000443939353920627920475241202620419D
:1003A00046434800556E6B6E6F776E20636F6D6DC0
:1003B000616E643A004320E2809420536574207497
:1003C00068652063757272656E74206F75747075E0
:1003D00074204368616E6E656C3A20283020E2809C
:1003E000942033290A4620E28094205365747320B8
:1003F0004672657175656E637920696E20487A2052
:100400002831303030303020E280942032323530A4
:100410003030303030290A4120E280942053657416
:10042000732074686520706F7765722028416D7045
:100430006C697475646529206C6576656C206F66DF
:10044000207468652073656C6563746564206368F7
:10045000616E6E656C20696E2064426D20282D36B9
:100460003020E28094202D37290A5020E280942009
:100470005365747320746865205068617365206FDC
:1004800066207468652073656C65637465642063B9
:1004900068616E6E656C20696E2064426D20283044
:1004A00020E2809420333630290A4D20E2809420C7
:1004B00047657473204D6F64656C0A45202D204597
:1004C0006E61626C65204F7574707574732028417D
:1004D0004C4C290A44202D2044697361626C6520CC
:1004E0004F7574707574732028414C4C290A56203E
:1004F000E280942047657473204669726D7761725B
:10050000652056657273696F6E0A6820E2809420D8
:10051000546869732048656C700A3B20E28094201F
:10052000436F6D6D616E64732053657061726174A9
:100530006F720A4578616D706C653A0A43303B46CC
:100540003130303030303B412D31300A53657473D7
:1005500020746865204672657175656E63792074D4
:100560006F20313030206B487A2C20616E64204F30
:10057000757470757420506F7765722028416D70A6
:100580006C69747564652920746F202D3130206486
:10059000426D206F6E204368616E6E656C20302066
:1005A000285246204F555430292E0A416E79206E2C
:1005B000756D626572206F6620636F6D6D616E642C
:1005C0007320696E20616E79206F72646572206994
:1005D0007320616C6C6F7765642C20627574207475
:1005E0006865207665727920666972737420636F1E
:1005F0006D6D616E64206D75737420626520224399
:10060000222E0A4E6F74653A206279206465666115
:10061000756C742C20746865206D6178696D756DDA
:10062000206C656E677468206F66206F6E65206D44
:10063000657373616765206973203634206279744D
:10064000657300444453393935392076312E3100F1
:100650004F75747075747320456E61626C656400CB
:100660004F7574707574732044697361626C65644E
:10067000002069732073657420746F3A20005468F9
:1006800065205068617365206F66204368616E6EF7
:10069000656C2000546865206F7574707574204314
:1006A00068616E6E656C206973206E6F742073656F
:1006B0006C65637465642120557365202243222094
:1006C000636F6D6D616E6420746F2073656C65631C
:1006D0007420746865204368616E6E656C2E00201E
:1006E00069732073657420746F3A20005468652024
:1006F000506F7765722028416D706C697475646500
:1007000029206F66204368616E6E656C2000546816
:1007100065206F7574707574204368616E6E656CCA
:10072000206973206E6F742073656C6563746564F3
:1007300021205573652022432220636F6D6D616E09
:100740006420746F2073656C656374207468652021
:100750004368616E6E656C2E00206973207365744A
:1007600020746F3A20005468652046726571756583
:100770006E6379206F66204368616E6E656C200041
:10078000546865206F7574707574204368616E6E6F
:10079000656C206973206E6F742073656C6563747B
:1007A000656421205573652022432220636F6D6D9F
:1007B000616E6420746F2073656C65637420746867
:1007C00065204368616E6E656C2E00546865204339
:1007D00068616E6E656C206E756D626572206973FE
:1007E000204F5554204F462052414E474520283037
:1007F00020E2809420332900546865204368616EAC
:100800006E656C206E756D6265722069732073650C
:100810007420746F3A200000002200250028002B6D
:10082000002E003100340002010000050108010B18
:100830000100000A0B02090C0D0E08070304010059
:1008400000000000000000000000000000000000A8
:100850000000000000000000000000000012111065
:100860000000000000000000000000000000000088
:1008700000000000000000000020002300260029E6
:10088000002C002F003200000100000301060109C6
:100890000100002100240027002A002D0030003331
:1008A0000001010000040107010A010102102020DB
:1008B00008081020401020408002010201080402B4
:1008C000010102040810204080804020100804022A
:1008D0000180040201804020100804020108040283
:1008E0000101020408102040800102040810204089
:1008F0008005050505070508080808020202020A26
:100900000A080804040404010101010101010103B2
:1009100003030303030303040707070C0C0C0C0C6D
:100920000C0C0C0202020206060606060606060B60
:100930000B0B0B0B0B0B0B610203020304010104F5
:10094000050800FF06FF06000146029603D32006B5
:10095000C5FABC022109C5FA40D80EE500220AC535
:10096000DA49944449CE00230DC53AA5241994CA06
:10097000A0949218240BC55AD952DB9264CB01255E
:100980000AC5DA619255C21C04260DC53A591225D2
:1009900059254AB224062708C5FA40586701280994
:1009A000C5FA4016B6E6002909C5DA69D8962300CB
:1009B0002A0BC5FA581449432495012B0AC5FA6835
:1009C000180D5298032C07C5FACC5A0D2D08C5FAFC
:1009D000E42127012E07C5FAAC9A0E2F0AC5FA4862
:1009E0009835E61000300DC5FA40964449944449C4
:1009F00096033109C5FA4026B6CD00320AC5DA524F
:100A00003192C22106330BC5BA4396A94914E900B5
:100A1000340CC5FA402625D190853900350BC5BA6E
:100A20004312AE4914E900360AC5DA523855A248D5
:100A300007370BC5BA43988559982300380AC5DA99
:100A40005249AA44910E390AC5DA52258AC6480786
:100A50003A09C5FAA0A6239A0E3B09C5FAA8A6230F
:100A60005A0D3C09C5FA48564CCB003D09C5FA94CD
:100A7000211E72103E09C5DA6931AB23003F0BC558
:100A8000FA409684590EE500400CC55A52242D892F
:100A900092485505410CC5DA52254A86244AA218C7
:100AA000420AC5BA5365AA44C90E430AC5DA52259B
:100AB0002C453A00440CC5BA53254AA2244A760074
:100AC000450BC5BA43124E6138C400460AC5BA4345
:100AD000124E611D02470BC5DA52254C9428D201F3
:100AE000480EC5BA5112254312255112C5004908B6
:100AF000C5DA5BD836034A0AC5DA5B584AB21C012C
:100B00004B0CC5BA5152D2922889CA004C08C5BABA
:100B100061C721064D0EC5BA513224431225511228
:100B2000C5004E0EC5BA51A2244392288912C500B1
:100B30004F0CC5DA52254AA2248A7400500BC5BA5C
:100B400053254AA6308700510CC5DA52254A948AAB
:100B5000A42600520BC5BA53254AA64A14035309CA
:100B6000C5DA526B54D2015407C5DA5BD81D550D56
:100B7000C5BA51122551122551A403560CC5BA51BC
:100B800012255112459A0E570EC5BA5112255132EF
:100B9000244312C500580CC5BA5112459A548962B3
:100BA00000590AC5BA9996D4C23A005A0AC5BA433E
:100BB00098350E31005B08C5DA53D838035C08C598
:100BC000BA61DA18035D07C5DA63A7195E09C5FAC9
:100BD0004096E4AC005F08C5FA3C0C09006007C50C
:100BE000DA69CE0C610AC5FAA4254AA26806620A2F
:100BF000C5BA613855A264076309C5FA34294C6542
:100C000000640CC5FA48182D51124533006509C51A
:100C1000FA242931EA00660CC5FA409644D916E652
:100C20000800670AC5FA24A934461200680BC5BA41
:100C3000613855A2248A016909C5FA408E88B51920
:100C40006A0BC5FA480E85A5248B006B0AC5BA61EC
:100C500029992A510C6C07C5DA62B7196D0BC5FAD0
:100C600014A54549942A006E0AC5FA94A912255183
:100C70000C6F0AC5FA24A912453A00700AC5FA9405
:100C8000A932852100710AC5FAA4258AC60A007214
:100C90000AC5FA949252CC21007309C5FA34498DE1
:100CA0007400740AC5DA61B685499603750BC5FAF6
:100CB00094288992289A01760BC5FAA4244AA22482
:100CC000CB01770AC5FA944C4994CE00780AC5FA4C
:100CD0009428D2A43200790CC5FA942889A2258AD6
:100CE00024007A0AC5FA9421AB0D31007B0AC53A7B
:100CF00052258A7416007C08C5FA40D83B007D0D49
:100D0000C5FA80525112A5B28511007E08C5DA4994
:100D10003B33007F06C5FABC028006C5FABC020060
:100D2000000004FFFF000000AD2B683911241FBE36
:100D3000CFEFD1E2DEBFCDBF00E00CBF2DE0A4E4D9
:100D4000B6E001C01D92AB3DB207E1F716E0A0E0AE
:100D5000B2E0E8ECF8E800E00BBF02C007900D92AB
:100D6000A434B107D9F716E0C5E9D6E000E006C023
:100D700021970109802FFE010E94F73DC439D10758
:100D800080E00807A9F70E949D2E0C9452440C9411
:100D90000000662329F06A3019F0862F90E008954C
:100DA0008FEF9FEF0895CF92DF92EF92FF920F9314
:100DB0001F93CF93DF93EC01842F8770E1E0F0E085
:100DC000082E01C0EE0F0A94EAF73E2F7E0199E744
:100DD000E90EF11CD7019C9110E0923018F41E2FFF
:100DE000913029F150E0487FE8ADF9ADC880D98055
:100DF000D60150969C91949F6001959FD00C112430
:100E00006C0D7D2D711DDF01A60FB71F011115C0DF
:100E10008C91812B83278D932150D1F7DF91CF9136
:100E20001F910F91FF90EF90DF90CF90089530E0E9
:100E3000D9CF110F330F222389F39C91912B932744
:100E40009C938F5F877021508111F3CF9CADA90FC8
:100E5000B11DF7019081923028F4913009F031E012
:100E600011E0E9CF31E0E7CF80E0089580E0089518
:100E7000CF93DF93EC01E091E003F091E103EE0FFB
:100E8000FF1FEE0FFF1FEA52FC4F21893289438971
:100E9000548960E075E68DEC9DE10E94093B2531A7
:100EA000310510F024E130E02430310510F424E065
:100EB00030E039832883DF91CF910895CF93DF937A
:100EC000C4EDDCE08FAFEAADFBAD0190F081E02D29
:100ED00088ED9CE01995EAADFBAD0280F381E02D31
:100EE00088ED9CE0DF91CF911994833018F48093C2
:100EF000510D089581E0FBCF9B01DC011896ED9127
:100F0000FC9141E067E119948150823108F05AC0A8
:100F1000E82FF0E08827E057F84F8F4F0C94F73D0B
:100F2000B007B407A207A807AC07E207B707BD07D9
:100F3000C107C707CB07CF07D507D907E207DD07EA
:100F4000E307E707809180008F7780938000089502
:100F5000809180008F7DF9CF80918000877FF5CFD1
:100F600084B58F7784BD089584B58F7DFBCF809144
:100F7000B0008F778093B00008958091B0008F7D8E
:100F8000F9CF809190008F778093900008958091A1
:100F900090008F7DF9CF80919000877FF5CF809171
:100FA000A0008F778093A00008958091A0008F7D8E
:100FB000F9CF8091A000877FF5CF809120018F77B6
:100FC000809320010895809120018F7DF9CF809139
:100FD0002001877FF5CFCF93DF93282F30E0F901F1
:100FE000EF5CF74F8491F901E555F74FD491F90182
:100FF000EF50F74FC491CC23A1F081110E948407D8
:10100000EC2FF0E0EE0FFF1FE958F74FA591B491D8
:10101000EC91ED2381E090E009F480E0DF91CF9145
:10102000089580E090E0FACF1F93CF93DF93282FAD
:1010300030E0F901EF5CF74F8491F901E555F74F86
:10104000D491F901EF50F74FC491CC23A9F0162F9A
:1010500081110E948407EC2FF0E0EE0FFF1FE95E84
:10106000F74FA591B4918FB7F894EC91111108C086
:10107000D095DE23DC938FBFDF91CF911F91089530
:10108000DE2BF8CFCF93DF9390E0FC01E555F74FCF
:1010900024918F50974FFC0184918823C9F090E0F0
:1010A000880F991FFC01EF56F74FA591B491FC01F1
:1010B000E95EF74FC591D49161110DC09FB7F894C7
:1010C0008C91209582238C938881282328839FBF2D
:1010D000DF91CF910895623051F49FB7F8943C911D
:1010E000822F809583238C93E8812E2BEFCF8FB7AF
:1010F000F894EC912E2B2C938FBFEACF3FB7F89446
:101100008091D4079091D507A091D607B091D707C9
:1011100026B5A89B05C02F3F19F00196A11DB11D52
:101120003FBFBA2FA92F982F8827BC01CD01620F8E
:10113000711D811D911D42E0660F771F881F991F49
:101140004A95D1F708958F929F92AF92BF92CF9216
:10115000DF92EF92FF926B017C010E947E084B01AF
:101160005C01C114D104E104F104B9F00E947E08CD
:10117000681979098A099B09683E734081059105C0
:1011800080F321E0C21AD108E108F10888EE880E48
:1011900083E0981EA11CB11CE4CFFF90EF90DF907C
:1011A000CF90BF90AF909F908F9008950F931F9313
:1011B000CF93DF938C01C62F642FCC32E8F4CA3270
:1011C00008F041C0C83271F1C93209F442C080E070
:1011D000C034D0F1CF73F801EC0FF11D868D8F3F35
:1011E00091F1C031E0F00E94EB0721E0892B09F476
:1011F00020E0F801218F27C0CD3289F140F384EB44
:101200008C0F823020F7CF73C00FD12FD11D8E8D60
:10121000411133C061E00E94420860E08E8D0E945F
:10122000140811C0025E1F4FD0E0F80181918F01B8
:101230008F3F31F061E0D03108F062E00E94420857
:10124000DF5FD63191F781E0DF91CF911F910F9150
:10125000089570E090E080E00E94A308F4CF85E05C
:1012600090E0433010F082E090E0880F991F880FE3
:10127000991F05970197F1F7E6CF62E00E944208B7
:10128000E2CF2FB7F8946091D0077091D107809189
:10129000D2079091D3072FBF08950895DB011496CC
:1012A0004D915C9115976D917C91DC01ED91FC91D4
:1012B0000280F381E02D1994EF92FF920F931F9318
:1012C000CF93DF938C017B01D0E0C0E0F701EC0FFE
:1012D000FD1F6491662361F0D801ED91FC910190AE
:1012E000F081E02DC8011995892B11F02196EECFE0
:1012F000CE01DF91CF911F910F91FF90EF90089554
:10130000AF92BF92CF92DF92EF92FF920F931F9313
:10131000CF93DF936C017B018B01040F151FEB0151
:101320005E01AE18BF08C017D10759F06991D60108
:10133000ED91FC910190F081E02DC6011995892B6A
:1013400079F7C501DF91CF911F910F91FF90EF9039
:10135000DF90CF90BF90AF900895FC01538D448DE6
:10136000252F30E0842F90E0821B930B541710F050
:10137000CF96089501970895FC01918D828D98175D
:1013800061F0A28DAE0FBF2FB11D5D968C91928D35
:101390009F5F9F73928F90E008958FEF9FEF089566
:1013A000FC01918D828D981731F0828DE80FF11D2F
:1013B000858D90E008958FEF9FEF0895FC01918D4A
:1013C000228D892F90E0805C9F4F821B91098F7343
:1013D0009927089588ED97E00E94DE0921E0892B86
:1013E00009F420E0822F0895FC01A48DA80FB92FE5
:1013F000B11DA35ABF4F2C91848D90E001968F733D
:101400009927848FA689B7892C93A089B1898C915B
:10141000837080648C93938D848D981306C00288AA
:10142000F389E02D80818F7D80830895EF92FF9274
:101430000F931F93CF93DF93EC0181E0888F9B8DF7
:101440008C8D98131AC0E889F989808185FF15C0B1
:101450009FB7F894EE89FF896083E889F9898081D4
:101460008370806480839FBF81E090E0DF91CF91A3
:101470001F910F91FF90EF900895F62E0B8D10E0C5
:101480000F5F1F4F0F731127E02E8C8D8E110CC034
:101490000FB607FCFACFE889F989808185FFF5CF7F
:1014A000CE010E94F409F1CFEB8DEC0FFD2FF11D61
:1014B000E35AFF4FF0829FB7F8940B8FEA89FB89BC
:1014C00080818062CFCFCF93DF93EC01888D88231A
:1014D000B9F0AA89BB89E889F9898C9185FD03C097
:1014E000808186FD0DC00FB607FCF7CF8C9185FF7C
:1014F000F2CF808185FFEDCFCE010E94F409E9CFC4
:10150000DF91CF91089580E090E0892B29F00E942F
:10151000EA0981110E94000080E090E0892B49F0E7
:1015200080E090E0892B29F00E94000081110E9448
:10153000000080E090E0892B49F080E090E0892B6A
:1015400029F00E94000081110E94000080E090E0DC
:10155000892B49F080E090E0892B29F00E9400005F
:1015600081110C940000089520910807260F33275D
:10157000331F21323105ECF420912E07FC0190E05D
:1015800080E0243069F082E00895A091080721915D
:10159000AC014A51594FA40FB52FB11D2C930196A0
:1015A000861798F380910807680F6093080780E01A
:1015B000089581E0089510922E0781E0809330070E
:1015C00010922F0761E084E10E94140861E085E138
:1015D0000E941408E9EBF0E080818E7F8083808197
:1015E0008D7F808388E48093B80085E48093BC007D
:1015F0000895CF93DF9391E09093E5068823B9F0A7
:10160000C091B800D091BA008091BC008A7B8093D1
:10161000BC0060E084E10E94140860E085E10E9463
:1016200014080E94DB0AD093BA00C093B800DF917F
:10163000CF910895089508950895E091DD06809171
:10164000DC06E81730F4F0E0E454F94F808190E0D4
:1016500008958FEF9FEF08959091DD068091DC064D
:101660002FEF3FEF981748F4E92FF0E0E454F94FDB
:10167000208130E09F5F9093DD06C901089580913D
:10168000DC069091DD06891B990B0895CF92DF92BD
:10169000EF92FF920F931F93CF93DF937C01CB01C7
:1016A0008A012091BB06222389F0EB016B01C40E55
:1016B000D51ECC15DD0569F06991D701ED91FC913E
:1016C0000190F081E02DC7011995F3CF642F0E949E
:1016D000B40AC801DF91CF911F910F91FF90EF9055
:1016E000DF90CF900895CF93DF931F92CDB7DEB7F1
:1016F00069832091BB062223F9F02091DE06203277
:1017000058F021E030E0FC013383228390E080E058
:101710000F90DF91CF9108958091DF06E82FF0E0E0
:10172000E556F94F998190838F5F8093DF06809310
:10173000DE0681E090E0ECCF61E0CE0101960E94F0
:10174000B40AF7CFCF92DF92EF92FF92CF93DF935D
:10175000EC010E9441096B017C018F850E94EB071F
:101760009C0181E02115310509F480E0898B88898D
:10177000811105C091E0232B09F090E0998B298914
:101780008A89281721F0CD8ADE8AEF8AF88E8D8922
:101790009E89AF89B88DB701A601481B590B6A0B0A
:1017A0007B0BDB01CA01CB80DC80ED80FE80C8169C
:1017B000D906EA06FB0664F43A81231749F02A8326
:1017C000222349F04B895C894F5F5F4F5C8B4B8BC9
:1017D0003A81311117C0CF80D884E984FA84C816C1
:1017E000D906EA06FB0634F48B899C8999838883A1
:1017F0001C8A1B8A2A8BDF91CF91FF90EF90DF909C
:10180000CF900895CB84DC84ED84FE84C816D9067D
:10181000EA06FB067CF78B899C8991958195910955
:10182000E5CFDC011A96ED91FC9130E020E01994AF
:10183000DC011496ED91FC9130E020E040E060E1A5
:101840001994DC011696ED91FC9130E020E040E027
:1018500069E11994DC011696ED91FC9130E020E0ED
:1018600040E068E119949A01DC011696ED91FC9133
:10187000462F67E11994EF92FF920F931F93CF9336
:10188000DF931F92CDB7DEB77C018B01D8016C913D
:10189000673129F150F46531A0F40F90DF91CF91B9
:1018A0001F910F91FF90EF9008956A3118F16E3FEC
:1018B000A1F7F8014181498369E2C7010E94110C37
:1018C0000BC0F80141814983D7011696ED91FC9137
:1018D00030E020E0C70119950E5F1F4FD7CFF80108
:1018E00081818983AE014F5F5F4F61E0C7010E9434
:1018F000330CF2CF0F5F1F4FD7011696ED91FC917D
:1019000030E020E040E0C7011995C0CF462FDC0150
:101910001696ED91FC9130E020E066E11994462F97
:10192000DC011696ED91FC9130E020E065E1199420
:10193000EF92FF920F931F93CF93DF93EC01042F4D
:1019400079016D3009F446C050F46B30C9F169304B
:1019500009F49FC06A3009F465C080E05CC06E3055
:1019600009F44BC06F3099F70E942A0CF7011381DC
:10197000110F110F110F6C89160F60E4CE010E9438
:101980008F0C612F62956F706061CE010E948F0C89
:10199000612F6F70CE010E94860CF7016481606B2D
:1019A000CE010E94860CF701408151816281660F51
:1019B000660F660FCE010E94330C0150A1F727C0BD
:1019C00066E874E0442311F061E874E0CE010E94FF
:1019D0003B0C20C0411109C06AE774E00E943B0C37
:1019E000E881F98182898C8B15C063E774E00E94DD
:1019F0003B0CE881F9818389F6CF0E942A0C61E8CB
:101A0000CE010E948F0C602FCE010E94860CCE0169
:101A10000E94210C81E0DF91CF911F910F91FF90E7
:101A2000EF900895EA85FB8530E020E040E068E231
:101A3000CE011995EE81FF8130E020E040E064E1C5
:101A4000CE01199541E06BE4CE010E94110CE881B2
:101A5000F981448169E2CE010E94110C40E06BE4FF
:101A6000CE010E94110CE881F981448169E2CE0126
:101A70000E94110C41E06BE4CE010E94110CE88140
:101A8000F981458169E2CE010E94110C6BE874E096
:101A90009DCF80EC94E09983888382E0A4CFDC0121
:101AA0001896ED91FC9130E020E040E069E1199456
:101AB000DC011896ED91FC9130E020E040E068E117
:101AC0001994CF93DF931F92CDB7DEB76983BE0120
:101AD0006F5F7F4F0E947C070F90DF91CF91089539
:101AE000EF92FF921F93CF93DF93EC01162F7A01B1
:101AF0000E94580D60E4CE010E94610DE885F985D1
:101B00009701412F67E1CE011995CE01DF91CF9169
:101B10001F91FF90EF900C944F0DEF92FF921F9347
:101B2000CF93DF93EC01142F7901673130F46531E5
:101B300078F4643159F180E005C06731F9F06A3119
:101B4000D0F781E0DF91CF911F91FF90EF90089542
:101B50000E94580D60E0CE010E94610D612FCE0100
:101B60000E94610DCE010E944F0DEBCF68E1CE01C6
:101B70000E94700D185188E1E80EF11CA70119317F
:101B8000A8F7612FCE010E94700DDBCF8E898F3FA9
:101B900011F488E78E8BE885F9859701412F64E180
:101BA000CE01DF91CF911F91FF90EF9019940F9389
:101BB000DC01DE963C91DE97431BD496ED91FC91BF
:101BC00019950F910895CF93DF93FC01A081B18106
:101BD00082AD982F990F990F990F95AF50969C91C0
:101BE0005097903208F09FE1990F990F990F94AF99
:101BF00023AD922F990F990F990F96AF51963C9163
:101C00005197682F620F7727771F3617170614F43E
:101C1000832F821B97AFEF01C05CDF4F880F880FC7
:101C2000880F890F8883219680EF888354968D9141
:101C30009C915597813F910508F48883EE5BFF4F97
:101C400056968C918083DF91CF9108950F93FC017C
:101C5000EB5BFF4F308131965081451730F43017E0
:101C600038F0041728F080E013C03017D0F3FBCF12
:101C7000FC01ED5BFF4F30818C5B9F4FFC0180814D
:101C8000681740F481E0321718F081E0261758F702
:101C90000F9108953217C8F3E6CF2F923F924F92DB
:101CA0005F926F927F928F929F92AF92BF92CF92EC
:101CB000DF92EF92FF920F931F93CF93DF93EC018C
:101CC0004C0183E4880E911CF4011082329720802D
:101CD0005E01F4E4AF0EB11CF50120823FAC6E0151
:101CE000F5E4CF0ED11CF6013082359740807E019D
:101CF000F6E4EF0EF11CF701408234961081329722
:101D000060803196708032975080012F262D472DAC
:101D1000652DCE010E94260ECD58DF4F811114C0D3
:101D20001882DF91CF911F910F91FF90EF90DF907C
:101D3000CF90BF90AF909F908F907F906F905F906B
:101D40004F903F902F90089581E08883552011F0A7
:101D5000F4015082621410F4F5016082371410F41B
:101D6000F60170821415E8F6F7011083DACF0F93AD
:101D7000DC01802FFD01ED58FF4F90819923E9F19F
:101D80002223D9F1223020F0023079F56F5F621BF7
:101D9000082F0170FD0180FD32C0EB5BFF4F808199
:101DA000481758F131968081481738F5329790815D
:101DB00031978081260F2617F0F46917D8F42FEF9A
:101DC000290F8217D0F4681708F4682F291708F430
:101DD000922F961BD696ED91FC91D7970480F581B2
:101DE000E02D292FCD01199508C0033089F64F5FEA
:101DF000421BCECF682F691720F30F910895ED5B3A
:101E0000FF4F80816817C8F3319680816817A8F763
:101E10003296908131978081240F241778F44917E6
:101E200060F42FEF290F821740F7481708F4482F66
:101E3000291708F4922F941BCDCF482F4917E8F6A5
:101E4000F2CF213039F020F0223031F0840F0895A4
:101E5000860F0895841B0895861B0895213039F05C
:101E600020F0223031F0861B0895840F0895860FEC
:101E70000895841B08955F926F927F928F929F9234
:101E8000AF92BF92CF92DF92EF92FF920F931F9388
:101E9000CF93DF935C01162F642EEC01C15BDF4F03
:101EA000DC80ED804C0189E7880E911CFE80FD18D6
:101EB000C12EF11608F4CF2C5B800C85202F4E2DFF
:101EC0006D2D8A810E94210F782E202F4E2D6D2D91
:101ED000852D0E942E0F482F662071F08A85F4010F
:101EE00080832C2D672DC5010E94B70E1F1548F069
:101EF0001F19E394D12CDACF89858111F7CF8B8517
:101F0000EECF1D0D1C83ED82DF91CF911F910F91BC
:101F1000FF90EF90DF90CF90BF90AF909F908F9009
:101F20007F906F905F900895DC0118964C91189700
:101F3000ED91FC911197249130E0042E02C035956B
:101F400027950A94E2F7842F860F883068F031963F
:101F50001196FC93EE93E49198E0941B01C0EE0F70
:101F60009A95EAF72E2B885018968C938FEF9FEF57
:101F700001C0880F6A95EAF7809582230895FC01D5
:101F8000E60FF11D849190E0982F88273196E49117
:101F90008E0F911D0895AF92BF92CF92DF92EF9274
:101FA000FF920F931F93CF93DF9300D01F921F9246
:101FB000CDB7DEB78C01DC01DA96AC90DA97DB9610
:101FC000EC90DB97ED91FC91B188FE2CD12CC12CCB
:101FD000D801ED91FC9111978089D8962D913C9173
:101FE0001C82FD828B83B8E08B9FC00111248C9DE5
:101FF000A0018D9D500D9C9D500D1124240F351F67
:102000003A832983D8011496ED91FC919E012F5FAC
:102010003F4F41E06FE0C8011995F3948F2D8E1961
:102020008A1528F4BFEFCB1ADB0AFB1488F20F9055
:102030000F900F900F900F90DF91CF911F910F9104
:10204000FF90EF90DF90CF90BF90AF90089588ED14
:102050009CE00E94CB0F88ED9CE00C94180CCF9272
:10206000DF92EF92FF920F931F93CF93DF93EC01D8
:10207000962F683109F44BC0B901993130F494318D
:10208000C9F0973189F080E006C0993109F461C048
:102090009032C9F781E0DF91CF911F910F91FF90AE
:1020A000EF90DF90CF90089550E085E798E00E9490
:1020B000460BF0CF8C859D85AE85BF85892B8A2BFD
:1020C0008B2B71F4E881F981A585B0E020EA36E830
:1020D00041E050E00E942B3B6C877D878E879F8775
:1020E0001092DD061092DC061092DF061092DE06DA
:1020F0000E94DB0A8AE19BE0909307078093060722
:102100008BE19BE090930B0780930A07C3CF2C854C
:102110003D854E855F8560E074E284EF90E00E942B
:10212000093B205131094109510956954795379589
:1021300027952093B8008E8990E09595879591E03A
:102140009093BB0680939A061092DF061092DE06EB
:10215000A1CFD091DE06D13208F093C0C0919A068B
:102160000E947E086B017C0180912E07811164C062
:1021700082E080932E0781E0809330078FEF809379
:102180002D0710925207D0935107ABE9B6E0E1E377
:10219000F7E080E0D8137CC010925307809153077A
:1021A000CC0FC82BC093530780912F07813009F0C3
:1021B00073C010922F070E947E086B017C018091F2
:1021C00053078093BB008091E1069091E206A091B5
:1021D000E306B091E406892B8A2B8B2B99F00E94A1
:1021E0007E080091E1061091E2062091E30630910D
:1021F000E4066C197D098E099F0906171707280741
:102200003907D8F18091BC0083FDD9CF85EC80934C
:10221000BC000E947E086B017C0180912E078230F9
:10222000E9F180912D078F3F61F180912D07803278
:1022300041F180912D0725C08091E1069091E20641
:10224000A091E306B091E406892B8A2B8B2B09F42D
:102250008BCF0E947E080091E1061091E20620914A
:10226000E3063091E4066C197D098E099F09061773
:1022700017072807390708F077CF8091E0060E94FA
:10228000F90A1092DF061092DE061092BB0602CF0A
:102290009D9191938F5F7ECF85EEB9CF8091E106BE
:1022A0009091E206A091E306B091E406892B8A2B77
:1022B0008B2B09F4B2CF0E947E080091E1061091A9
:1022C000E2062091E3063091E4066C197D098E093F
:1022D0009F09061717072807390708F09ECFCDCFAB
:1022E000CF93C82F61E00E94140860E08C2FCF913B
:1022F0000C9414088DE58CBD81E08DBD60E086E016
:102300000C94140861E086E00C941408E091E0035A
:10231000F091E103EE0FFF1FEE0FFF1FEA52FC4F9B
:10232000218932894389548960E076E483EC93E221
:102330000E94093BCA01B9010E94E8390E94243C6D
:10234000CB016531710510F084E190E00895E091D2
:10235000E003F091E103EE0FFF1FEE0FFF1FEA52C3
:10236000FC4F218932894389548960E074E887ED04
:1023700097E10E94093BCA01B9010E94E8390E9415
:10238000243CCB016430710510F484E090E00895A2
:102390000F931F93CF93DF93EC01809192068111ED
:1023A0000DC00E94410960938E0670938F06809342
:1023B00090069093910681E080939206888188230D
:1023C00059F10E94410900918E0610918F062091CB
:1023D000900630919106601B710B820B930B6E344B
:1023E00071408105910588F0C09104020E94410965
:1023F00060938E0670938F0680939006909391065B
:1024000081E0C11180E08093040280910402DF9199
:10241000CF911F910F91089581E0F9CF4F925F9274
:102420006F927F928F929F92AF92BF92CF92DF92E4
:10243000EF92FF92CF93DF9300D01F92CDB7DEB71C
:10244000A0919A03B0919B0320E432E44FE050E066
:102450000E94063E2B013C01A091AB03B091AC035E
:1024600028EE33E00E94FF3D460E571E681E791E7F
:102470008091BC039091BD03092E000CAA0BBB0BED
:10248000480E591E6A1E7B1E4092550750925607F1
:102490006092570770925807A0916703B091680344
:1024A00020E432E44FE050E00E94063E4B015C0124
:1024B000A0917803B091790328EE33E00E94FF3DAC
:1024C000860E971EA81EB91E8091890390918A03DB
:1024D000092E000CAA0BBB0B880E991EAA1EBB1E50
:1024E00080928A0690928B06A0928C06B0928D06FE
:1024F000A0913403B091350320E432E44FE050E082
:102500000E94063E6B017C01A0914503B0914603F9
:1025100028EE33E00E94FF3DC60ED71EE81EF91ECE
:102520008091560390915703092E000CAA0BBB0B08
:10253000C80ED91EEA1EFB1EC0928606D0928706E0
:10254000E0928806F0928906A0910103B0910203FF
:1025500020E432E44FE050E00E94063E69837A8333
:102560008B839C83A0911203B091130328EE33E078
:102570000E94FF3D29813A814B815C81260F371FE4
:10258000481F591FDA01C9014091230350912403C8
:10259000052E000C660B770B840F951FA61FB71F27
:1025A0008093820690938306A0938406B093850659
:1025B0004091590750915A0760915B0770915C07F1
:1025C000441555056605770508F469C031E44316DE
:1025D0003AE3530639E663063DE0730608F05FC050
:1025E00020EA421626E8520621E06206710408F449
:1025F00058C0481559056A057B0508F454C031E4F4
:1026000083163AE3930639E6A3063DE0B30608F0E5
:102610004AC020EA821626E8920621E0A206B1040A
:1026200008F443C04C155D056E057F0508F43FC0F6
:1026300031E4C3163AE3D30639E6E3063DE0F30698
:10264000B0F520EAC21626E8D20621E0E206F1043F
:1026500080F1481759076A077B0768F181343AE32C
:10266000930739E6A3073DE0B30728F5803A96487B
:10267000A140B10510F180E00F900F900F900F90E6
:10268000DF91CF91FF90EF90DF90CF90BF90AF9010
:102690009F908F907F906F905F904F90089581E012
:1026A000EBCF8FEFE9CF82E0E7CF8EEFE5CF83E08E
:1026B000E3CF8DEFE1CF84E0DFCF8CEFDDCF0F9361
:1026C0001F9380917A0681110DC00E944109609389
:1026D000760670937706809378069093790681E06A
:1026E00080937A060E944109009176061091770640
:1026F0002091780630917906601B710B820B930B49
:102700000091A50C1091A60C2091A70C3091A80C5B
:102710006017710782079307A8F083E00E94EB0718
:102720008093030280910202813041F48091030280
:10273000811104C082EA9CE00E94A20B80910302F6
:10274000809302021F910F9108950F931F93809120
:102750006E0681110DC00E94410960936A06709354
:102760006B0680936C0690936D0681E080936E06F5
:102770000E94410900916A0610916B0620916C0637
:1027800030916D06601B710B820B930B0091BE0C98
:102790001091BF0C2091C00C3091C10C60177107D3
:1027A00082079307A8F082E00E94EB078093010262
:1027B00080910002813041F480910102811104C0B6
:1027C0008BEB9CE00E94A20B80910102809300029F
:1027D0001F910F9108958EBD00000DB407FEFDCF2F
:1027E0008EB508952F923F924F925F926F927F9293
:1027F0008F929F92AF92BF92CF92DF92EF92FF9211
:102800000F931F93CF93DF93EC010497419710F040
:10281000C1E0D0E0CB01BA0120E03AEC4AE95BE349
:102820000E940E3EA12CEAECBE2EFAE9CF2EABE3BD
:10283000DA2EE12CF12C00E010E00E943B3EB22F9A
:10284000A32FF42FE52F9E01DD0F440B550B6B2FAB
:102850007A2F8F2F9E2F0E94F93A6093570D709315
:10286000580D8093590D90935A0D1B012C017B013B
:10287000182FB52DE0E0F0E0B12CC12C00E20023D0
:1028800009F474C0DD24DA94D00E20E030E040E09A
:1028900050E06E2F617070E080E090E0A0E00E9458
:1028A000D73E09F452C000935F0D10E0005E1F4F49
:1028B00021E030E040E050E060E070E080E090E057
:1028C0000E94983E51016201E12CF12C00E010E0E1
:1028D0000E943B3E20935B0D30935C0D40935D0D59
:1028E00050935E0D0E947A1181E00E94EB1380915B
:1028F000570D9091580DA091590DB0915A0D893CEA
:102900009105A105B105A8F180E8CC0FCC0FC360FB
:102910008C2B0E94EB1380E00E94EB1380E20E945C
:10292000EB13DF91CF911F910F91FF90EF90DF900C
:10293000CF90BF90AF909F908F907F906F905F905F
:102940004F903F902F900C9482119701412F5B2F55
:10295000BF018B2D9C2D01E00E94983E7901142F20
:10296000B52FFB01B82EC92E0D2D89CF10925F0D0A
:102970009CCF80E0CACF8F929F92AF92BF92CF92AE
:10298000DF92EF92FF92CF93DF93D82F4A015B0142
:10299000E82FF0E0E559FB4FC0810E947A118D2F9E
:1029A0000E94EB1328E0C29FE0011124C12CD12C1E
:1029B00076012897C83F8FEFD80791F0FE2CED2CB9
:1029C000DC2CCC24D501C4010C2E04C0B695A795EF
:1029D000979587950A94D2F70E94EB13C82AE9CFFE
:1029E0000E948211C701B601DF91CF91FF90EF9055
:1029F000DF90CF90BF90AF909F908F9008951F93DE
:102A0000CF93DF93EC01162F462F572F8881841721
:102A1000150641F04260052E000C660B770B80E036
:102A20000E94BB141883DF91CF911F9108950F93DB
:102A30001F93CF93DF938B01EB016130744010F053
:102A4000C0E0D4E0BC0180E69DE00E94FF140E943B
:102A50007A1186E00E94EB1380E00E94EB130115CF
:102A6000144070F4CE019061892F0E94EB138C2FDB
:102A70000E94EB13DF91CF911F910F910C94821163
:102A800080E0F3CFCF93DF93EB01BC0180E69DE0C4
:102A90000E94FF14DF73AE0170E060E085E0DF911B
:102AA000CF910C94BB142F923F924F925F926F92F2
:102AB0007F928F929F92AF92BF92CF92DF92EF92CE
:102AC000FF920F931F93CF93DF9300D01F92CDB748
:102AD000DEB79A838983C0905B0DD0905C0DE09047
:102AE0005D0DF0905E0DCB01BA01A70196010E9429
:102AF0000E3EE4E0F694E794D794C794EA95D1F7B4
:102B000056016701E12CF12C00E010E00E94CE3E5E
:102B100000915F0D0E94B33E79014C835B83698114
:102B20007A8180E69DE00E94FF14A7016C817B8181
:102B300084E00F900F900F900F90DF91CF911F9135
:102B40000F91FF90EF90DF90CF90BF90AF909F904C
:102B50008F907F906F905F904F903F902F900C944C
:102B6000BB14EF92FF920F931F93CF93DF93EC016F
:102B7000A881B9817C810A811B81FD8020E931E037
:102B800050E040E090E080E06C916723E1E0F0E00D
:102B900011F4F0E0E0E08E0F9F1FF80160816F21DB
:102BA000E1E0F0E011F4F0E0E0E04E0F5F1F2150B3
:102BB000310951F721E0893C910508F420E081E0DA
:102BC000493C510508F480E090916906921305C0D4
:102BD00090916806981709F460C020936906809365
:102BE00068069E81990F990F922B880F982B9E83D0
:102BF0009B3409F459C0973809F04FC0EE24EA9489
:102C0000FE2C0E9441090B851C852D853E85DC012B
:102C1000CB01801B910BA20BB30B8F87988BA98BD9
:102C2000BA8B10E000E08A319105A105B10540F4AE
:102C300005E010E00D97A105B10510F40AE010E0E1
:102C40000E9441096B877C878D879E8721E030E059
:102C5000FFEFEF16FF0611F42FEF3FEFC701FF0C58
:102C6000AA0BBB0B4F81588569857A85840F951F08
:102C7000A61FB71F029FA001039F500D129F500D6A
:102C80001124052E000C660B770B840F951FA61FD1
:102C9000B71F8F839887A987BA87DF91CF911F913C
:102CA0000F91FF90EF900895EE24E394F12CA9CFBB
:102CB00080918108909182080C94B11580918308CD
:102CC000909184080C94B1158091850890918608A4
:102CD0000C94B11580918708909188080C94B115D7
:102CE0008091890890918A080C94B11580918B0885
:102CF00090918C080C94B1150895CF93DF93EC015B
:102D0000E091E003F091E103EE0FFF1FEE0FFF1FD4
:102D1000EA52FC4FAA85BB852189328943895489AF
:102D20000E94063E698B7A8B8B8B9C8BDF91CF91B7
:102D300008958F929F92AF92BF92CF92DF92EF92BF
:102D4000FF928091800D9091810D892B69F5809182
:102D5000720D9091730DA091740DB091750D81500D
:102D60009448A74DB7418F3F914CAB4EBB4020F0EC
:102D700081E69DE00E947D168090720D9090730D0B
:102D8000A090740DB090750DC12CD12C76019401DA
:102D9000A501B601C701FF90EF90DF90CF90BF90E3
:102DA000AF909F908F900895A091CF03B091D003E2
:102DB00020E432E44FE050E00E94063E6B017C01CB
:102DC00024E8D21A27EDE20A27E1F20A812C21E059
:102DD000C21622ECD2062BEEE2062BE0F20668F4D5
:102DE0004B015C01DC01CB01BB0F880B982FDC0190
:102DF000C82ED82EE82EF82ECACF85E6982E9DEC48
:102E0000A92E2DE1B22EC12CD12CE12CF12CBFCF5B
:102E1000CF93DF93EC018A859B8501979B878A87F7
:102E2000049724F40E9486119B878A87E091E0032F
:102E3000F091E103EE0FFF1FEE0FFF1FEA52FC4F70
:102E4000AA85BB8521893289438954890E94063E1F
:102E500061157448874D974120F40E9486119B8725
:102E60008A87CE01DF91CF910C947D16CF93DF93AB
:102E7000EC018A859B8501969B878A87459724F07C
:102E80000E94A7119B878A87E091E003F091E103FC
:102E9000EE0FFF1FEE0FFF1FEA52FC4FAA85BB8506
:102EA00021893289438954890E94063E61307644E3
:102EB000834C934220F00E94A7119B878A87CE0102
:102EC000DF91CF910C947D16FC01868197819093C0
:102ED000CE078093CD0780E00895FC01908981E0C2
:102EE0008927808B0895FC0177FF03C07195619558
:102EF000710982859385861B970B93878287268528
:102F000037858217930724F4848595859387828774
:102F10000895CF93DF93EC010E947317AA85BB85B8
:102F200020E432E44FE050E00E94063E6093720DD0
:102F30007093730D8093740D9093750DDF91CF9105
:102F40000895CF93DF93EC0161E070E00E94731766
:102F50008A859B85892B69F486ED93E09B838A8320
:102F600081E69DE090931B0280931A02DF91CF913E
:102F7000089585EC93E09B838A83F4CF0E947317B6
:102F80008BE69DE00E94380781E69DE00C947D165B
:102F9000CF93DF93EC010E9473178A859B85892B61
:102FA00059F0EC81FD81828593858836914021F42A
:102FB00087E691E093878287DF91CF910895CF9341
:102FC000DF93EC010E9473178A859B8588369140B8
:102FD00049F4EA81FB81828593851816190614F459
:102FE00013861286DF91CF9108950C9473170C9479
:102FF00073170C947317FC0177FF03C071956195EB
:10300000710982859385680F791F7387628784852C
:1030100095858617970724F48685978593878287F9
:103020000895CF93DF93EC010E94FB17AA85BB851F
:1030300020E432E44FE050E00E94063E6093720DBF
:103040007093730D8093740D9093750DDF91CF91F4
:103050000895CF93DF93EC0161E070E00E94FB17CD
:103060008A859B85892B69F486ED93E09B838A830F
:1030700081E69DE090931B0280931A02DF91CF912D
:10308000089585EC93E09B838A83F4CF0E94FB171D
:103090008BE69DE00E94380781E69DE00C947D164A
:1030A000CF93DF93EC010E94FB178A859B85892BC8
:1030B00059F0EC81FD81828593858836914021F419
:1030C00087E691E093878287DF91CF910895CF9330
:1030D000DF93EC010E94FB178A859B85883691401F
:1030E00049F4EA81FB81828593851816190614F448
:1030F00013861286DF91CF9108950C94FB170C94E0
:10310000FB170C94FB17CF92DF92EF92FF920F9375
:103110001F93CF93DF936C01EB017B01E40EF51E4F
:1031200010E000E0CE15DF0561F06991D601ED9168
:10313000FC910190F081E02DC6011995080F191F2F
:10314000F1CFC801DF91CF911F910F91FF90EF90C8
:10315000DF90CF9008952F923F924F925F926F929F
:103160007F928F929F92AF92BF92CF92DF92EF9217
:10317000FF920F931F93CF93DF9300D000D0CDB772
:10318000DEB77C016C0124E0C20ED11CFC01E158C9
:10319000FF4F0190F081E02DC60119958C018E3F03
:1031A0009F4F08F05BC0370182E8680E711CF30185
:1031B000F081FB83470121E8820E911CF401F0812C
:1031C000FD839701215A3F4F3A832983F90180817A
:1031D000813009F46AC008F45CC0823009F471C01F
:1031E000833009F47AC0F701EB5AFF4F2D81208319
:1031F00031963B81308337978081918147969C83BC
:103200008B830F3F110511F008F015C1B4960136FC
:10321000110530F40134110558F0F701EF58FF4F54
:10322000808191812B813C81280F391F3C832B8326
:103230008B819C810196FC01249121115AC0412C63
:10324000E981FA818081813009F492C108F48BC14F
:10325000823009F48FC1833009F491C181E090E09C
:1032600026960FB6F894DEBF0FBECDBFDF91CF918B
:103270001F910F91FF90EF90DF90CF90BF90AF9094
:103280009F908F907F906F905F904F903F902F9086
:103290000895F701EF5AFF4F0190F081E02DC6012C
:1032A0001995FB81F80FFB839ECFF701EF5AFF4F73
:1032B0000190F081E02DC60119952D81281B2D83E9
:1032C00092CFF701EF5AFF4F0190F081E02DC60138
:1032D00019953B81381B3B8386CFF701EF5AFF4F8F
:1032E0000190F081E02DC60119959D81980F9D8375
:1032F0007ACFEB81FC8124912017110609F094C04C
:10330000CF010296009709F49ACFF701ED5AFF4FCB
:10331000FE83ED83918380831086719660818D8119
:103320009E810E94940FED81FE818683F701EB5907
:10333000FF4F60818D819E810E94940F582EED81F8
:10334000FE818783970123583F4F3C832B83F901EC
:103350009081ED81FE81928781E0911180E0ED8185
:10336000FE818387F701EA59FF4FB0806B2D8D8175
:103370009E810E94940F382EF701E959FF4F20805B
:10338000622D8D819E810E94940F182FF701E859BC
:10339000FF4F0081602F8D819E810E94940F01500C
:1033A00021E030E0A90101C0440F0A95EAF7482E58
:1033B000441AED81FE81068110160CF041CFBA94BB
:1033C000C90101C0880FBA94EAF7381AB484150D00
:1033D0002A9401C0220F2A94EAF7A22EA11A2B2DBB
:1033E0004A2D632D82810E94210F182FED81FE81CD
:1033F00082832B2D4A2D632D83810E942E0FED8118
:10340000FE818383F1E0BF1609F493C0BF1608F470
:1034100050C022E0B21609F492C033E0B31609F4AA
:1034200099C0082F212F49C0FC0184912B813C8138
:10343000280F311DFBCEF701EB58FF4F80819181A2
:10344000EB81FC81E80FF91FFC83EB835F0160E0F7
:10345000C5010E94BF0F2B813C81280F391F3C837F
:103460002B8362E0C5010E94BF0F34E0A30EB11CA4
:103470008017910760F3EB81FC81849190E0982F95
:1034800088273196E4918E2B009709F4D8CE08173F
:10349000190721F48B819C81039634CFEB81FC8149
:1034A0003296E4912B813C812E0F311D3C832B837E
:1034B000E2CF202F210F082F050D482F612FC601C5
:1034C0000E94260E882309F4BBCEED81FE81148272
:1034D00015825701F2E6AF0EB11C23E6E20EF11C95
:1034E000F50160818D819E810E94940F082FF70164
:1034F00060818D819E810E94940F182F40E0602F83
:10350000C6010E943B0F41E0612FC6010E943B0FA4
:1035100061E08D819E810E94940F8111EFCFED813A
:10352000FE8185818515E4F28285EB81FC818083B3
:1035300087CEB51821E0210F080F1B0DBECF91E0FB
:10354000392F301B21E0210F951901E0080F890F59
:10355000130FB3CF212F250D982F901B01E0080FDB
:1035600081E0890FAACFF4018081480E408276CE97
:10357000F301FACFF4018081841980836FCEF301C7
:10358000FACF089590E080E00895CF93DF93EC01A7
:1035900088819981009711F00E94883F19821882D2
:1035A0001D821C821B821A82DF91CF910895FC013B
:1035B00080819181009711F00C94883F0895FB0160
:1035C00001900020E9F73197AF01461B570BDC0152
:1035D000ED91FC910280F381E02D19948F929F92DE
:1035E000AF92BF92EF92FF920F931F93CF93DF930F
:1035F000CDB7DEB7A1970FB6F894DEBF0FBECDBF33
:103600007C01FA01CB0119A2223008F42AE08E01D4
:103610000F5D1F4F822E912CB12CA12CBF01A50153
:1036200094010E94093BF901CA016A300CF5605D02
:10363000D8016E938D01232B242B252B79F790E055
:1036400080E0109721F0BD01C7010E94DF1AA1960A
:103650000FB6F894DEBF0FBECDBFDF91CF911F91A3
:103660000F91FF90EF90BF90AF909F908F90089533
:10367000695CDECF4F925F926F927F92AF92BF9262
:10368000CF92DF92EF92FF920F931F93CF935C0143
:10369000162FC0E060E070E080E09FE3C11741F0CA
:1036A00020E030E040E251E40E94B23BCF5FF6CF31
:1036B00024EA30E74DE95FE30E94463B6B017C0161
:1036C0000E94243C2B013C012AE0BC01A201C5015F
:1036D0000E94EE1A8C01CC23E9F1C301B2010E94D1
:1036E000E8399B01AC01C701B6010E94453B6B0163
:1036F0007C01D501ED91FC910190F081E02D6EE20D
:10370000C5011995080F191FC15020F120E030E0C4
:1037100040E251E4C701B6010E94253A2B013C0169
:103720000E94243C6B01F12CE12C2AE0B701A60198
:10373000C5010E94EE1A080F191FC701B6010E94A9
:10374000E8399B01AC01C301B2010E94453B6B010A
:103750007C01DACFC801CF911F910F91FF90EF90BC
:10376000DF90CF90BF90AF907F906F905F904F9021
:103770000895CF92DF92EF92FF920F931F93CF9312
:10378000DF93EC016A017B01E881F9810190F0810E
:10379000E02D6DE219958C0144275527BA014C198B
:1037A0005D096E097F092AE0CE010E94EE1A800FA2
:1037B000911FDF91CF911F910F91FF90EF90DF90BC
:1037C000CF900895AB01770F660B770B77FD0C94C4
:1037D000B91B2AE00C94EE1ABC0184ED9CE00C9419
:1037E000DF1ACF93DF93AB01BC0177FF10C088EDE8
:1037F00097E00E94B91BEC0162E275E088ED97E06A
:103800000E94DF1A8C0F9D1FDF91CF9108952AE04F
:1038100088ED97E00E94EE1AEECFCF93DF9362E03F
:1038200088ED97E00E943A1BEC0162E275E088EDBA
:1038300097E00E94DF1A8C0F9D1FDF91CF910895B2
:10384000CF93DF93BC0188ED97E00E945C09EC0107
:1038500062E275E088ED97E00E94DF1A8C0F9D1FF1
:10386000DF91CF9108950F931F93CF93DF93EC01D6
:103870000E94DF1A8C0162E275E0CE010E94DF1A1D
:10388000800F911FDF91CF911F910F9108950F939A
:103890001F93CF93DF938C01EB010E94E33A88835F
:1038A000C80101960E94E33A8983CE01DF91CF914E
:1038B0001F910F910895FF920F931F93CF93DF9362
:1038C000EC018B01FB01F0800E94E33AF81621F035
:1038D0006F2DCE010E94EB3AF801F1802196CE01C6
:1038E0000E94E33AF81621F06F2DCE010E94EB3AC8
:1038F000C801DF91CF911F910F91FF9008956AE960
:1039000073E086E190E00E945B1C6BEA73E088E163
:1039100090E00E945B1C6CEB73E08CE190E00E94F5
:103920005B1C60EF72E080E290E00E945B1C6CEA3E
:1039300072E084E290E00E945B1C68E672E086E23E
:1039400090E00E945B1C67E673E088E290E00E94D2
:103950005B1C68E773E08AE290E00E945B1C69E808
:1039600073E08CE290E00E945B1C6FED72E08EE2EF
:1039700090E00E945B1C6BE972E080E390E00E94A3
:103980005B1C67E572E082E390E00E945B1C64E3ED
:1039900073E084E390E00E945B1C65E473E086E3DF
:1039A00090E00E945B1C66E573E088E390E00E9473
:1039B0005B1C6EEC72E08AE390E00E945B1C6AE89C
:1039C00072E08CE390E00E945B1C66E472E08EE3A0
:1039D00090E00E945B1C61E073E080E490E00E9454
:1039E0005B1C62E173E082E490E00E945B1C63E296
:1039F00073E084E490E00E945B1C6DEB72E086E46F
:103A000090E00E945B1C69E772E088E490E00E940D
:103A10005B1C65E372E08AE490E00E945B1C67E354
:103A200084E690E00C94EB3A0E94F2400F931F93CF
:103A3000CF93DF93EC0188819981009759F02A8117
:103A40003B812617370730F081E0DF91CF911F913E
:103A50000F9108958B016F5F7F4F0E941140009777
:103A600059F0998388831B830A832C813D81232B02
:103A700059F7FC011082E8CF80E0E7CFEF92FF9288
:103A80000F931F93CF93DF936115710541F480E08D
:103A9000DF91CF911F910F91FF90EF900895411505
:103AA0005105B1F07B01EC010C811D81040F151F44
:103AB000B8010E94161D882351F3288139818C8119
:103AC0009D81B701820F931F0E9407411D830C83C4
:103AD00081E0DECFCF93DF93EC01FB014481558180
:103AE000608171810E943E1D811103C0CE010E9440
:103AF000C51ACE01DF91CF910895EF92FF920F93F7
:103B00001F93CF93DF93EC017B018A01BA010E94DE
:103B1000161D81110BC0CE010E94C51ACE01DF9186
:103B2000CF911F910F91FF90EF9008951D830C830B
:103B3000B701888199810E940741F0CFFB01019074
:103B40000020E9F73197AF01461B570B0C947D1D00
:103B50000F931F93CF93DF93CDB7DEB762970FB666
:103B6000F894DEBF0FBECDBF8C01CB01F8011182EE
:103B7000108213821282158214824AE0BE016F5FA6
:103B80007F4F0E947F39BE016F5F7F4FC8010E9447
:103B90009E1D62960FB6F894DEBF0FBECDBFDF91BB
:103BA000CF911F910F910895FB01DC0111961C929A
:103BB0001E9213961C921E92129715961C921E929C
:103BC00014978617970749F0608171816115710517
:103BD00021F0448155810C947D1D0895FC011182D2
:103BE00010821382128215821482FB010190002040
:103BF000E9F73197AF01461B570B0C947D1D0F93CE
:103C00001F93CF93DF93CDB7DEB72C970FB6F89401
:103C1000DEBF0FBECDBF8C01433069F5CB010A97E3
:103C20008A35910538F4CE0107960E94A81D66E2F8
:103C300075E009C06A3071050CF5CE0107960E9447
:103C4000A81D65E275E0CE0101960E94EE1DBE0141
:103C5000695F7F4FCE0101960E946A1DBC01C801B9
:103C60000E94D41DCE0101960E94D71ACE0107965C
:103C70000E94D71A06C06A307105ACF2C8010E94D2
:103C8000A81DC8012C960FB6F894DEBF0FBECDBF9D
:103C9000DF91CF911F910F910895AF92BF92CF9274
:103CA000DF92EF92FF920F931F93CF93DF9300D099
:103CB00000D0CDB7DEB78823A1F0813009F481C5EB
:103CC00026960FB6F894DEBF0FBECDBFDF91CF9121
:103CD0001F910F91FF90EF90DF90CF90BF90AF902A
:103CE00008958AE38093550D89E08093560D809165
:103CF000540760E673E0811102C06CE573E084ED67
:103D00009CE00E945C0982E08093550D84E18093E1
:103D1000560D8091CD079091CE07865C9D4009F0AD
:103D2000C7C480E00E94750788E295E00E94EC1B02
:103D300081E00E94750781E18093550D84E18093B5
:103D4000560D8091CD079091CE078059934009F090
:103D5000B3C48091A003882309F4ACC480EA93E043
:103D60000E94C8110E94750760919A0370919B038D
:103D700043E0CE0101960E94FF1DBE016F5F7F4FA1
:103D800084ED9CE00E944E09CE0101960E94D71A54
:103D900081E00E9475078BE295E00E94EC1B809108
:103DA000CD079091CE07815A934009F089C4809144
:103DB000B103882309F482C481EB93E00E94C81107
:103DC0000E9475076091AB037091AC0343E0CE0194
:103DD00001960E94FF1DBE016F5F7F4F84ED9CE046
:103DE0000E944E09CE0101960E94D71A81E00E94DE
:103DF00075078BE295E00E94EC1B8091CD079091B6
:103E0000CE07825B934009F05FC48091C203882390
:103E100009F458C482EC93E00E94C8110E9475070F
:103E20006091BC037091BD0343E0CE0101960E94F6
:103E3000FF1DBE016F5F7F4F84ED9CE00E944E0925
:103E4000CE0101960E94D71A81E00E9475078DE489
:103E50008093550D84E18093560D8091CD0790910C
:103E6000CE07865E924009F033C48091F602882323
:103E700009F42CC486EF92E00E94C8110E947507D5
:103E80008DE295E00E94EC1B6091F0027091F102CE
:103E900042E0CE0101960E94FF1DBE016F5F7F4F81
:103EA00084ED9CE00E944E09CE0101960E94D71A33
:103EB00081E00E94750781E68093550D84E180932F
:103EC000560D8091CD079091CE07825A924009F00D
:103ED00003C48091B202882309F4FCC382EB92E010
:103EE0000E94C8110E9475076091AC027091AD02EA
:103EF00043E0CE0101960E94FF1DBE016F5F7F4F20
:103F000084ED9CE00E944E09CE0101960E94D71AD2
:103F100081E00E9475078BE295E00E94EC1B809186
:103F2000CD079091CE078E55924009F0D9C380916C
:103F30006E02882309F4D2C38EE692E00E94C81173
:103F40000E947507609168027091690284ED9CE09F
:103F50000E94E21B81E00E9475078FE295E00E94BB
:103F6000EC1B82E08093550D8EE18093560D80917D
:103F7000CD079091CE07855B9D4009F0B3C380E0EB
:103F80000E94750781E395E00E94EC1B81E00E948E
:103F9000750781E18093550D8EE18093560D8091D8
:103FA000CD079091CE078D55934009F09FC3809126
:103FB0006D03882309F498C38DE693E00E94C8112D
:103FC0000E947507609167037091680343E0CE011A
:103FD00001960E94FF1DBE016F5F7F4F84ED9CE044
:103FE0000E944E09CE0101960E94D71A81E00E94DC
:103FF00075078BE295E00E94EC1B8091CD079091B4
:10400000CE078E56934009F075C380917E038823B6
:1040100009F46EC38EE793E00E94C8110E947507F1
:10402000609178037091790343E0CE0101960E947C
:10403000FF1DBE016F5F7F4F84ED9CE00E944E0923
:10404000CE0101960E94D71A81E00E9475078BE28B
:1040500095E00E94EC1B8091CD079091CE078F5781
:10406000934009F04BC380918F03882309F444C324
:104070008FE893E00E94C8110E9475076091890340
:1040800070918A0343E0CE0101960E94FF1DBE019C
:104090006F5F7F4F84ED9CE00E944E09CE01019638
:1040A0000E94D71A81E00E9475078DE48093550D18
:1040B0008EE18093560D8091CD079091CE07855D5E
:1040C000924009F01FC38091E502882309F418C3C8
:1040D00085EE92E00E94C8110E9475078DE295E07E
:1040E0000E94EC1B6091DF027091E00242E0CE0181
:1040F00001960E94FF1DBE016F5F7F4F84ED9CE023
:104100000E944E09CE0101960E94D71A81E00E94BA
:10411000750781E68093550D8EE18093560D809151
:10412000CD079091CE078159924009F0EFC280915E
:10413000A102882309F4E8C281EA92E00E94C81132
:104140000E94750760919B0270919C0243E0CE0132
:1041500001960E94FF1DBE016F5F7F4F84ED9CE0C2
:104160000E944E09CE0101960E94D71A81E00E945A
:1041700075078BE295E00E94EC1B8091CD07909132
:10418000CE078D54924009F0C5C280915D0288230C
:1041900009F4BEC28DE592E00E94C8110E94750725
:1041A000609157027091580284ED9CE00E94E21BDE
:1041B00081E00E9475078FE295E00E94EC1B82E08F
:1041C0008093550D88E28093560D8091CD07909194
:1041D000CE07845A9D4009F09FC280E00E94750777
:1041E00084E395E00E94EC1B81E00E94750781E169
:1041F0008093550D88E28093560D8091CD07909164
:10420000CE078A52934009F08BC280913A038823EB
:1042100009F484C28AE393E00E94C8110E947507E2
:10422000609134037091350343E0CE0101960E9402
:10423000FF1DBE016F5F7F4F84ED9CE00E944E0921
:10424000CE0101960E94D71A81E00E9475078BE289
:1042500095E00E94EC1B8091CD079091CE078B5387
:10426000934009F061C280914B03882309F45AC23C
:104270008BE493E00E94C8110E947507609145038A
:104280007091460343E0CE0101960E94FF1DBE01DE
:104290006F5F7F4F84ED9CE00E944E09CE01019636
:1042A0000E94D71A81E00E9475078BE295E00E9478
:1042B000EC1B8091CD079091CE078C54934009F070
:1042C00037C280915C03882309F430C28CE593E007
:1042D0000E94C8110E9475076091560370915703A0
:1042E00043E0CE0101960E94FF1DBE016F5F7F4F2C
:1042F00084ED9CE00E944E09CE0101960E94D71ADF
:1043000081E00E9475078DE48093550D88E28093CB
:10431000560D8091CD079091CE07845C924009F0B4
:104320000BC28091D402882309F404C284ED92E088
:104330000E94C8110E9475078DE295E00E94EC1B57
:104340006091CE027091CF0242E0CE0101960E94B0
:10435000FF1DBE016F5F7F4F84ED9CE00E944E0900
:10436000CE0101960E94D71A81E00E94750781E66E
:104370008093550D88E28093560D8091CD079091E2
:10438000CE078058924009F0DBC1809190028823CB
:1043900009F4D4C180E992E00E94C8110E94750717
:1043A00060918A0270918B0243E0CE0101960E94D7
:1043B000FF1DBE016F5F7F4F84ED9CE00E944E09A0
:1043C000CE0101960E94D71A81E00E9475078BE208
:1043D00095E00E94EC1B8091CD079091CE078C5305
:1043E000924009F0B1C180914C02882309F4AAC11E
:1043F0008CE492E00E94C8110E9475076091460209
:104400007091470284ED9CE00E94E21B81E00E94D3
:1044100075078FE295E00E94EC1B82E08093550DBA
:1044200082E38093560D8091CD079091CE078359FA
:104430009D4009F08BC180E00E94750787E395E0FD
:104440000E94EC1B81E00E94750781E18093550D6D
:1044500082E38093560D8091CD079091CE07875FC0
:10446000924009F077C180910703882309F470C155
:1044700087E093E00E94C8110E94750760910103D4
:104480007091020343E0CE0101960E94FF1DBE0120
:104490006F5F7F4F84ED9CE00E944E09CE01019634
:1044A0000E94D71A81E00E9475078BE295E00E9476
:1044B000EC1B8091CD079091CE078850934009F076
:1044C0004DC180911803882309F446C188E193E027
:1044D0000E94C8110E947507609112037091130326
:1044E00043E0CE0101960E94FF1DBE016F5F7F4F2A
:1044F00084ED9CE00E944E09CE0101960E94D71ADD
:1045000081E00E9475078BE295E00E94EC1B809190
:10451000CD079091CE078951934009F023C1809136
:104520002903882309F41CC189E293E00E94C81181
:104530000E947507609123037091240343E0CE012C
:1045400001960E94FF1DBE016F5F7F4F84ED9CE0CE
:104550000E944E09CE0101960E94D71A81E00E9466
:1045600075078DE48093550D82E38093560D8091FD
:10457000CD079091CE07835B924009F0F7C0809100
:10458000C302882309F4F0C083EC92E00E94C811B2
:104590000E9475078DE295E00E94EC1B6091BD02C0
:1045A0007091BE0242E0CE0101960E94FF1DBE0145
:1045B0006F5F7F4F84ED9CE00E944E09CE01019613
:1045C0000E94D71A81E00E94750781E68093550DFD
:1045D00082E38093560D8091CD079091CE078F5640
:1045E000924009F0C7C080917F02882309F4C0C0BF
:1045F0008FE792E00E94C8110E94750760917902CE
:1046000070917A0243E0CE0101960E94FF1DBE0127
:104610006F5F7F4F84ED9CE00E944E09CE010196B2
:104620000E94D71A81E00E9475078BE295E00E94F4
:10463000EC1B8091CD079091CE078B52924009F0F0
:104640009DC080913B02882309F496C08BE392E0E1
:104650000E94C8110E947507609135027091360260
:1046600084ED9CE00E94E21B81E00E9475078FE2CE
:1046700095E00E94EC1B1092550D8DE38093560D32
:104680000E940E128C5F893008F080C0E82F880FDE
:10469000FF0B8827E15BFC4D8F4F0C94F73DDE2329
:1046A000DB23D823D523C023C923CC23CF23D22374
:1046B00081E038CB80E056CB81E054CB80E080CBEA
:1046C00081E07ECB80E0AACB81E0A8CB80E0D6CB96
:1046D00081E0D4CB80E006CC81E004CC80E030CC1B
:1046E00081E02ECC81E04CCC80E06ACC81E068CCCB
:1046F00080E094CC81E092CC80E0BECC81E0BCCC68
:1047000080E0EACC81E0E8CC80E01ACD81E018CDF1
:1047100080E044CD81E042CD81E060CD80E07ECD7F
:1047200081E07CCD80E0A8CD81E0A6CD80E0D2CD37
:1047300081E0D0CD80E0FECD81E0FCCD80E02ECECA
:1047400081E02CCE80E058CE81E056CE81E074CE60
:1047500080E092CE81E090CE80E0BCCE81E0BACE07
:1047600080E0E6CE81E0E4CE80E012CF81E010CFA1
:1047700080E042CF81E040CF80E06CCF81E06ACF23
:104780006BE473E084ED9CE00E945C090E942710BA
:1047900097CA6AE373E0F6CF69E273E0F3CF68E1AA
:1047A00073E0F0CF67E073E0EDCF66EF72E0EACF41
:1047B00066EE72E0E7CF66ED72E0E4CF66EC72E0A1
:1047C000E1CF83E38093550D88E08093560D8AE313
:1047D00095E00E94EC1B1092550D8AE18093560DD6
:1047E00080E495E00E94EC1B8091CD079091CE076C
:1047F00086579D4059F48091860D882309F4D8C0CE
:1048000086E89DE00E94C8110E9475078091800D86
:104810009091810D26E0289FB001299F700D1124F1
:104820006957724F84ED9CE00E944E0981E00E941E
:10483000750787EC95E00E94EC1B1092550D82E203
:104840008093560D8CE495E00E94EC1B87EC95E07C
:104850000E94EC1B2091800D3091810D8091CD073D
:104860009091CE07232B09F0A7C0865D934059F4A1
:104870008091E603882309F49DC086EE93E00E94B0
:10488000C8110E947507E091E003F091E103EE0F7B
:10489000FF1FEE0FFF1FEA52FC4F61897289838967
:1048A000948920E432E44FE050E00E94093BBA01D1
:1048B000A9012AE084ED9CE00E94EE1A81E00E94AA
:1048C000750788E595E00E94EC1B1092550D8AE271
:1048D0008093560D8EE595E00E94EC1B81E00E94CE
:1048E000750787EC95E00E94EC1B8091CD079091B5
:1048F000CE0781569D4059F48091710D882309F4AB
:104900007FC081E79DE00E94C8110E9475070E9448
:104910009916E0E4AE2EF2E4BF2EAFE0CA2ED12C01
:10492000E12CF12C00E010E00E943B3EE22F2AE057
:10493000BA014E2F532F84ED9CE00E94EE1A81E0C5
:104940000E94750788E595E00E94EC1B1092550DBA
:104950008FE38093560D8091CD079091CE078651BD
:10496000924019F480E00E94750769E675E084EDD5
:104970009CE00E94331C81E00E94750787E68093CB
:10498000550D8FE38093560D8091CD079091CE0702
:104990008550924019F480E00E9475076EE675E03C
:1049A00084ED9CE00E94331C81E00E947507EECEEE
:1049B00080E02ACF80E065CF855C934051F4809100
:1049C000D5038823D9F085ED93E00E94C8110E9499
:1049D00075076091CF037091D00343E0CE0101963B
:1049E0000E94FF1DBE016F5F7F4F84ED9CE00E941F
:1049F0004E09CE0101960E94D71A60CF80E0E7CF22
:104A000080E083CF85ED8093BC008091E10690919A
:104A1000E206A091E306B091E4060796A11DB11D40
:104A200023E0B695A795979587952A95D1F720917C
:104A3000BC0024FD03C010922E0708954091E106AA
:104A40005091E2066091E3067091E406452B462BF7
:104A5000472B69F30097A105B10541F02AE22A9599
:104A6000F1F700C00197A109B109E1CF8091E006FB
:104A70000C94F90AFC01A081B18150962C9182AD71
:104A800038E0839FC0011124289FA001299F500D69
:104A9000112470E060E080AD91AD0C940041FF9274
:104AA0000F931F93CF93DF9360E87DE090E080E069
:104AB0000E945B1C60EE73E082E090E00E945B1C51
:104AC0006FEC73E086E090E00E945B1C6BE67DE09B
:104AD00088E090E00E945B1C67E385E690E00E941E
:104AE000EB3A88ED9CE00E943A2581E00E94750730
:104AF00005E51DE083E3F82EF801F082C6E5DDE070
:104B000088E088836AE375E084ED9CE00E94331CB2
:104B1000F801F08288E2888383E795E00E94EC1B2D
:104B20000E94271068EE73E080E090E0DF91CF9163
:104B30001F910F91FF900C94A308CF92DF92EF92F8
:104B4000FF9285E690E00E94E33A873309F4B9C00A
:104B50001092810D1092800D81E090E09093E1031E
:104B60008093E00384EF91E09093D0038093CF0390
:104B70008CE090E090936C0D80936B0D0E944F251C
:104B800080916B0D90916C0D459734F00E94A711A8
:104B900090936C0D80936B0DE091E003F091E10335
:104BA000EE0FFF1FEE0FFF1FEA52FC4FC188D288A5
:104BB000E388F488A0916B0DB0916C0DA70196016C
:104BC0000E94063E61307644834C934230F00E944E
:104BD000A71190936C0D80936B0D80916B0D90914C
:104BE0006C0D049734F40E94861190936C0D8093A1
:104BF0006B0DA0916B0DB0916C0DA70196010E94F9
:104C0000063E61157448874D974130F40E94861125
:104C100090936C0D80936B0D81E69DE00E947D1654
:104C20008091800D9091810D892B09F063C0E091F6
:104C3000E003F091E103EE0FFF1FEE0FFF1FEA52BA
:104C4000FC4F418952896389748980916B0D9091E1
:104C50006C0D0E94F2138091800D9091810D892B33
:104C600009F050C086ED93E09093790D8093780D14
:104C700081E69DE090931B0280931A020E94991690
:104C8000B901CA0120932702709328024093290298
:104C900090932A020E94E83926E636E646EE5EE365
:104CA0000E94253A0E94243C6093590770935A074A
:104CB00080935B0790935C07FF90EF90DF90CF901D
:104CC000089560E87DE090E080E00E94471C60EE7F
:104CD00073E082E090E00E94471C6FEC73E086E096
:104CE00090E00E94471C6BE67DE088E090E00E9427
:104CF000471C46CF0E949916BA01422F532F90E0CD
:104D000080E0A7CF85EC93E09093790D8093780DA8
:104D1000B1CFEF92FF920F93CF93DF9388ED9CE09A
:104D20000E943A25C5E5DDE082E0888386E5E82E2D
:104D30008DE0F82E89E0F701808364E673E084ED6E
:104D40009CE00E945C0900E020E840E060E088ED23
:104D50009CE00E94B70E20E84BE060E088ED9CE00C
:104D60000E94B70E01E024E340E06EE088ED9CE095
:104D70000E94B70E24E340E06AE488ED9CE00E94C4
:104D8000B70E24E340E06EE588ED9CE00E94B70E8C
:104D900000E020E844E360E088ED9CE00E94B70E6C
:104DA00001E024E340E060E088ED9CE00E94B70E63
:104DB00024E340E06FE788ED9CE00E94B70E8DE3AE
:104DC000F701808388E5888389E795E00E94EC1BE2
:104DD000DF91CF910F91FF90EF900C94271086EC0C
:104DE0009DE09093CE078093CD071092CB070E9451
:104DF000892680E00895682F70E0719561957109AA
:104E0000072E000C880B990B0E94EA3929E739E636
:104E100046E852E40E94463B20E030E040EA51E49C
:104E20000E94B23B9B01AC0160E070E080E291E443
:104E30000E94533C0E94243CCB010895CF930E94D2
:104E40000E12811101C14091550750915607609192
:104E500057077091580780E190E00E9453158091A8
:104E6000F0020E94FB26BC0180E190E00E94171531
:104E70008091AC029091AD02CAE0C89FB001C99F79
:104E8000700D11248091680290916902680F791F5A
:104E900090E080E00E94E83920E030E041E655E40F
:104EA0000E94B23B20E030E040E856E40E94253A00
:104EB0000E94243C80E190E00E94421540918A06C5
:104EC00050918B0660918C0670918D0680E290E087
:104ED0000E9453158091DF020E94FB26BC0180E2F4
:104EE00090E00E94171580919B0290919C02C89FB0
:104EF000B001C99F700D1124809157029091580202
:104F0000680F791F90E080E00E94E83920E030E0EF
:104F100041E655E40E94B23B20E030E040E856E430
:104F20000E94253A0E94243C80E290E00E944215B3
:104F30004091860650918706609188067091890697
:104F400080E490E00E9453158091CE020E94FB26DF
:104F5000BC0180E490E00E94171580918A02909134
:104F60008B02C89FB001C99F700D11248091460229
:104F700090914702680F791F683087E0780708F042
:104F80005DC0685F784F90E080E00E94E83920E0E3
:104F900030E041E655E40E94B23B20E030E040E8DA
:104FA00056E40E94253A0E94243C80E490E00E944E
:104FB000421540918206509183066091840670915B
:104FC000850680E890E00E9453158091BD020E9402
:104FD000FB26BC0180E890E00E94171580917902C1
:104FE00090917A022AE0289FB001299F700D112428
:104FF0008091350290913602680F791F683087E002
:105000007807F8F4685F784F90E080E00E94E83914
:1050100020E030E041E655E40E94B23B20E030E081
:1050200040E856E40E94253A0E94243C80E890E043
:105030000E94421585E0CF910C9470116850774022
:10504000A2CF68507740E0CFCF9108958091800D36
:105050009091810D892BF1F5E091E003F091E1034E
:10506000EE0FFF1FEE0FFF1FEA52FC4F41895289DE
:105070006389748980916B0D90916C0D0E94F2137D
:105080000E949916B901CA01209327027093280241
:105090004093290290932A020E94E83926E636E6D8
:1050A00046EE5EE30E94253A0E94243C6093590735
:1050B00070935A0780935B0790935C070E941E27AA
:1050C0000E944F2585E092E09093CE078093CD0714
:1050D00080E008950E949916BA01422F532F90E064
:1050E00080E0CCCF1F920F920FB60F9211242F9316
:1050F0003F938F939F93AF93BF938091D0079091ED
:10510000D107A091D207B091D3073091CF0723E008
:10511000230F2D3758F50196A11DB11D2093CF0700
:105120008093D0079093D107A093D207B093D30771
:105130008091D4079091D507A091D607B091D70759
:105140000196A11DB11D8093D4079093D507A0931C
:10515000D607B093D707BF91AF919F918F913F91A1
:105160002F910F900FBE0F901F90189526E8230FD8
:105170000296A11DB11DD2CF1F920F920FB60F92B2
:1051800011240BB60F922F933F934F935F936F931E
:105190007F938F939F93AF93BF93EF93FF93E09190
:1051A0000904F0910A041995FF91EF91BF91AF9115
:1051B0009F918F917F916F915F914F913F912F912F
:1051C0000F900BBE0F900FBE0F901F9018951F925F
:1051D0000F920FB60F9211240BB60F922F933F939D
:1051E0004F935F936F937F938F939F93AF93BF93EF
:1051F000EF93FF93E0910704F09108041995FF9154
:10520000EF91BF91AF919F918F917F916F915F913E
:105210004F913F912F910F900BBE0F900FBE0F90AB
:105220001F9018951F920F920FB60F9211240BB674
:105230000F922F933F934F935F936F937F938F932F
:105240009F93AF93BF93EF93FF93E091FD03F09192
:10525000FE031995FF91EF91BF91AF919F918F91AF
:105260007F916F915F914F913F912F910F900BBE66
:105270000F900FBE0F901F9018951F920F920FB6B0
:105280000F9211240BB60F922F933F934F935F937E
:105290006F937F938F939F93AF93BF93EF93FF93FE
:1052A000E091FB03F091FC031995FF91EF91BF9101
:1052B000AF919F918F917F916F915F914F913F91AE
:1052C0002F910F900BBE0F900FBE0F901F9018954F
:1052D0001F920F920FB60F9211240BB60F922F93BD
:1052E0003F934F935F936F937F938F939F93AF936E
:1052F000BF93EF93FF93E0910504F0910604199595
:10530000FF91EF91BF91AF919F918F917F916F919D
:105310005F914F913F912F910F900BBE0F900FBE59
:105320000F901F9018951F920F920FB60F92112495
:105330000BB60F922F933F934F935F936F937F938F
:105340008F939F93AF93BF93EF93FF93E0910304E9
:10535000F09104041995FF91EF91BF91AF919F9146
:105360008F917F916F915F914F913F912F910F900E
:105370000BBE0F900FBE0F901F9018951F920F92AB
:105380000FB60F9211240BB60F922F933F934F93AA
:105390005F936F937F938F939F93AF93BF93EF939D
:1053A000FF93E0910104F09102041995FF91EF91B0
:1053B000BF91AF919F918F917F916F915F914F912D
:1053C0003F912F910F900BBE0F900FBE0F901F902B
:1053D00018951F920F920FB60F9211240BB60F92D1
:1053E0002F933F934F935F936F937F938F939F93ED
:1053F000AF93BF93EF93FF93E091FF03F09100040D
:105400001995FF91EF91BF91AF919F918F917F91EE
:105410006F915F914F913F912F910F900BBE0F9025
:105420000FBE0F901F9018951F920F920FB60F92FC
:1054300011240BB60F922F933F934F935F936F936B
:105440007F938F939F93AF93BF93EF93FF9388EDD9
:1054500097E00E94F409FF91EF91BF91AF919F9166
:105460008F917F916F915F914F913F912F910F900D
:105470000BBE0F900FBE0F901F9018951F920F92AA
:105480000FB60F9211240BB60F922F938F939F9309
:10549000EF93FF93E091E807F091E9078081E091B5
:1054A000EE07F091EF0782FD1DC090818091F1071A
:1054B0008F5F8F732091F207821741F0E091F1071F
:1054C000F0E0E852F84F958F8093F107FF91EF914C
:1054D0009F918F912F910F900BBE0F900FBE0F9049
:1054E0001F9018958081F2CF1F920F920FB60F92E6
:1054F00011240BB60F922F933F934F935F936F93AB
:105500007F938F939F93AF93BF93EF93FF9380917C
:10551000B900887F803609F44DC008F040C0883259
:1055200009F4A9C028F5803109F49DC0C8F4882386
:1055300009F4FBC0883009F496C0FF91EF91BF9148
:10554000AF919F918F917F916F915F914F913F911B
:105550002F910F900BBE0F900FBE0F901F901895BC
:10556000883109F488C0803241F780932D0714C038
:10557000803409F49DC040F48033B9F38833E9F6F0
:1055800080932D0785ECB0C0803509F485C088353F
:1055900009F496C0883489F60E940225CECF883956
:1055A00009F48CC038F5883729F050F4883611F0AA
:1055B000803719F683E080932E0710922C0757C08E
:1055C000883809F47BC0803919F0803809F0B5CFEC
:1055D00080912C07803208F071C0E0912C0781E0A7
:1055E0008E0F80932C078091BB00F0E0E45FF84FB2
:1055F00080833DC0803B39F0E0F4803A09F479C003
:10560000883A09F09ACF84E080932E071092090718
:1056100010920807E0910607F0910707199580910D
:10562000080781110FC081E0809308071092E606F9
:1056300009C0803C09F4A6CF883C09F4A3CF883B7D
:1056400009F07BCFE091090781E08E0F8093090775
:10565000F0E0EA51F94F80818093BB0090910907F7
:105660008091080729C0809153078093BB0085EC87
:105670008093BC0062CF9091520780915107981798
:1056800058F5E091520781E08E0F80935207F0E0C9
:10569000EF5CF84F8081E9CFE091520781E08E0FF7
:1056A000809352078091BB00F0E0EF5CF84F80835D
:1056B00090915207809151079817C8F285E8D8CF8A
:1056C000E091520781E08E0F809352078091BB00DA
:1056D000F0E0EF5CF84F80838091300781115CCF60
:1056E00081E080932F0784EA8093BC0010922E07FC
:1056F00024CF85EC8093BC0010922E0780912C075C
:10570000803230F4E0912C07F0E0E45FF84F108233
:1057100060912C0770E0E0910A07F0910B078CE094
:1057200097E0199510922C0708CF10922D0734CFCF
:10573000FC0113821282158214821782168213864C
:1057400012861586148617861686108A85E694E0DA
:1057500091838083F187E0870895CF93DF93109240
:10576000DB071092DA0788EE93E0A0E0B0E08093C8
:10577000DC079093DD07A093DE07B093DF072CEDE5
:1057800034E03093D9072093D80725EC30E03093EC
:10579000E5072093E40724EC30E03093E7072093FB
:1057A000E60720EC30E03093E9072093E80721EC8E
:1057B00030E03093EB072093EA0722EC30E030939F
:1057C000ED072093EC0726EC30E03093EF072093B1
:1057D000EE071092F1071092F2071092F307109261
:1057E000F4071092780810927708809379089093C4
:1057F0007A08A0937B08B0937C088EEE94E0909397
:1058000076088093750886EC9DE00E94982B85EBC6
:105810009DE00E94982B84EA9DE00E94982B83E9EA
:105820009DE00E94982B1092790D1092780D1092A5
:105830007B0D10927A0D10927D0D10927C0D1092BE
:105840007F0D10927E0D1092810D1092800D10929E
:10585000830D1092820D1092850D1092840D10927E
:10586000860D86E195E09093770D8093760D62E842
:1058700075E087E89DE00E94EE1D6CE875E08DE81C
:105880009DE00E94EE1D1092640D1092630D109227
:10589000660D1092650D1092680D1092670D1092B2
:1058A0006A0D1092690D10926C0D10926B0D109292
:1058B0006E0D10926D0D1092700D10926F0D109272
:1058C000710D8CE095E09093620D8093610D1092C4
:1058D000720D1092730D1092740D1092750D8BE66F
:1058E0009DE00E94380781E69DE00E947D1610929F
:1058F000570D1092580D1092590D10925A0D80EFBD
:105900008093600DCFB7F89480918D0C811127C0E2
:10591000E6E2F9E08491E0EEF8E09491E82FF0E01F
:10592000EE0FFF1FEF56F74FA591B491EC91E923CD
:1059300021F461E085E30E94140861E085E30E94A0
:1059400042088CB580618CBD8CB580648CBD61E0F3
:1059500084E30E94420861E083E30E944208809150
:105960008D0C8F5F80938D0CCFBF60E08CE00E9428
:10597000140861E08CE00E94420861E086E00E9429
:10598000140861E086E00E94420860E085E00E9421
:10599000140861E085E00E9442088CE00E947011CA
:1059A0008DE00E94701185E00E9470111092600DD0
:1059B00060EF70E080E69DE00E94FF1441E253E05A
:1059C00060E070E083E00E94BB1470E060E080E67D
:1059D0009DE00E94FF1485E00E94701140E05AE5AE
:1059E00062E672E08CE090E00E94F2131092D70C15
:1059F0001092D60C89EC96E09093540D8093530D41
:105A00001092550D1092560D1092F00C80E095E01A
:105A10009093D50C8093D40C1092D90C1092D80C82
:105A20001092ED0C1092E40C1092E50C1092E60C22
:105A30001092E70C8FEF8093EE0C8093F20CE6EF60
:105A4000FCE08CE09DE0CFEFC1938E179F07E1F75C
:105A500088E99CE09093DD0C8093DC0C8DE89DE060
:105A60009093DF0C8093DE0C8FE290E19093E10C39
:105A70008093E00C86ED98E09093E30C8093E20C29
:105A800030E020E040E069E088ED9CE00E94980C66
:105A90001092240D1092230D83ED96E090930D0D3E
:105AA00080930C0D8DE898E09093110D8093100D6C
:105AB00088E08093120D1092130D1092300D109209
:105AC000500DD1E0D093510DD093520D8CE195E063
:105AD00090930F0D80930E0D88ED9CE00E94E30DD6
