:020000040000FA
:100000000C9452040C9426280C94FB270C94D027B3
:100010000C94A5270C947A270C944F270C94242732
:100020000C94F9260C9483040C9483040C9483049C
:100030000C9483040C9483040C9483040C94830424
:100040000C9483040C9483040C9483040C94830414
:100050000C9483040C9483040C9483040C94AF26B6
:100060000C9483040C9479260C944F260C948304EE
:100070000C9483040C9483040C9483040C948304E4
:100080000C9483040C9483040C9483040C948304D4
:100090000C9483040C9483040C9483040C945128D2
:1000A0000C9483040C9483040C9483040C948304B4
:1000B0000C9483040C9483040C9483040C948304A4
:1000C0000C9483040C9483040C9483040C94830494
:1000D0000C9483040C9483040C9483040C94830484
:1000E0000C94830407634236B79BD8A71A39685625
:1000F00018AEBAAB558C1D3CB7CC5763BD6DEDFD4A
:10010000753EF6177231BF000000803F0800000006
:10011000BE922449123EABAAAA2ABECDCCCC4C3EFC
:1001200000000080BEABAAAAAA3E00000000BF00EB
:100130000000803F0000000000084178D3BB4387E7
:10014000D1133D190E3CC3BD4282AD2B3E68EC82FB
:1001500076BED98FE1A93E4C80EFFFBE01C4FF7F80
:100160003F00000000000C946E150C9458200C9475
:1001700061200C94D0140C94B3170C9485040C9447
:10018000CE060C9408060C94C4080C94DB220C9444
:10019000800D0C94EA140C948F040C94E9060C94D2
:1001A00072050C9403260C94340B0C9404070C94E5
:1001B00041150C946B080C9464200C946A200C94E8
:1001C0001A150C94C4060C946D080C94D5220C944A
:1001D000F1060C946E080C9467200C94DF060C94C6
:1001E000F2040C94F7060C9470150C94C2050C9450
:1001F000D6060C9437150C9472150C94E6140C94D6
:100200009E0B0C94AE050C94CA060C949C150C9491
:100210006C080C94DE0A0C94FF060C946D130C947D
:1002200058150C94B2170C94E3060C94E8140C9433
:100230006D200C94B9140C9490080C94280B0C9419
:10024000FB060C945E140C949F050C9455140C94AE
:1002500092140C94E9090C9497080C9409070C94D7
:1002600074150C945B200C9404080C94C10E0C942F
:1002700021340C94CC240C948A290C941B110C94DA
:10028000AF140C947A140C945E200C947D080C949A
:1002900061110C9455060C9427140C94D2060C94FE
:1002A0004F200C9402150C94D9060C94ED060C9476
:1002B000D0050C9405070C94F913463320546F6F46
:1002C000204C4F57204672657100463220546F6FA4
:1002D000204C4F57204672657100463120546F6F95
:1002E000204C4F57204672657100463020546F6F86
:1002F000204C4F5720467265712000463320546FC2
:100300006F204849474820467265710046322054A4
:100310006F6F20484947482046726571004631207A
:10032000546F6F2048494748204672657100463037
:1003300020546F6F2048494748204672657100205D
:1003400020202020202020202020202020202000CD
:10035000436820467265712E20487A202020206450
:10036000426D2050686173657D0000002200250009
:1003700028002B002E00310034000201000005018E
:1003800008010B0100000A0B02090C0D0E080703FF
:100390000401000000000000000000000000000058
:1003A000000000000000000000000000000000004D
:1003B000121110000000000000000000000000000A
:1003C00000000000000000000000535720760048A5
:1003D000572076312E310044445320414439393579
:1003E0003920627920475241202620414643480067
:1003F000000020002300260029002C002F003200DE
:100400000001000003010601090100002100240091
:1004100027002A002D0030003300010100000401F4
:1004200007010A01010210202008081020401020B6
:1004300040800201020108040201010204081020A8
:1004400040808040201008040201800402018040A6
:10045000201008040201080402010102040810200F
:1004600040800102040810204080050505050705AD
:1004700008080808020202020A0A08080404040420
:10048000010101010101010103030303030303034C
:10049000040707070C0C0C0C0C0C0C0C02020202DB
:1004A00006060606060606060B0B0B0B0B0B0B0BC4
:1004B000610203020304010104050800FF06FF06B0
:1004C000000146029603D32006C5FABC022109C5E5
:1004D000FA40D80EE500220AC5DA49944449CE0014
:1004E000230DC53AA5241994CAA0949218240BC5CB
:1004F0005AD952DB9264CB01250AC5DA619255C202
:100500001C04260DC53A59122559254AB22406273E
:1005100008C5FA405867012809C5FA4016B6E60032
:100520002909C5DA69D89623002A0BC5FA58144957
:10053000432495012B0AC5FA68180D5298032C071D
:10054000C5FACC5A0D2D08C5FAE42127012E07C59E
:10055000FAAC9A0E2F0AC5FA489835E61000300D0D
:10056000C5FA4096444994444996033109C5FA4076
:1005700026B6CD00320AC5DA523192C22106330BBB
:10058000C5BA4396A94914E900340CC5FA4026259A
:10059000D190853900350BC5BA4312AE4914E90034
:1005A000360AC5DA523855A24807370BC5BA439800
:1005B0008559982300380AC5DA5249AA44910E3960
:1005C0000AC5DA52258AC648073A09C5FAA0A62301
:1005D0009A0E3B09C5FAA8A6235A0D3C09C5FA484C
:1005E000564CCB003D09C5FA94211E72103E09C538
:1005F000DA6931AB23003F0BC5FA409684590EE50A
:1006000000400CC55A52242D8992485505410CC50D
:10061000DA52254A86244AA218420AC5BA5365AA64
:1006200044C90E430AC5DA52252C453A00440CC58C
:10063000BA53254AA2244A7600450BC5BA43124E46
:100640006138C400460AC5BA43124E611D02470B09
:10065000C5DA52254C9428D201480EC5BA5112254C
:100660004312255112C5004908C5DA5BD836034A42
:100670000AC5DA5B584AB21C014B0CC5BA5152D2BA
:10068000922889CA004C08C5BA61C721064D0EC51B
:10069000BA5132244312255112C5004E0EC5BA512B
:1006A000A2244392288912C5004F0CC5DA52254A6C
:1006B000A2248A7400500BC5BA53254AA63087007D
:1006C000510CC5DA52254A948AA42600520BC5BAA9
:1006D00053254AA64A14035309C5DA526B54D20172
:1006E0005407C5DA5BD81D550DC5BA5112255112F4
:1006F0002551A403560CC5BA5112255112459A0E24
:10070000570EC5BA5112255132244312C500580C58
:10071000C5BA5112459A54896200590AC5BA9996C8
:10072000D4C23A005A0AC5BA4398350E31005B0864
:10073000C5DA53D838035C08C5BA61DA18035D0717
:10074000C5DA63A7195E09C5FA4096E4AC005F08F4
:10075000C5FA3C0C09006007C5DA69CE0C610AC510
:10076000FAA4254AA26806620AC5BA613855A2648D
:10077000076309C5FA34294C6500640CC5FA4818AA
:100780002D51124533006509C5FA242931EA006666
:100790000CC5FA409644D916E60800670AC5FA2443
:1007A000A934461200680BC5BA613855A2248A01E3
:1007B0006909C5FA408E88B5196A0BC5FA480E85D5
:1007C000A5248B006B0AC5BA6129992A510C6C07C4
:1007D000C5DA62B7196D0BC5FA14A54549942A000C
:1007E0006E0AC5FA94A91225510C6F0AC5FA24A9FC
:1007F00012453A00700AC5FA94A932852100710A9F
:10080000C5FAA4258AC60A00720AC5FA949252CC87
:1008100021007309C5FA34498D7400740AC5DA6180
:10082000B685499603750BC5FA94288992289A01D2
:10083000760BC5FAA4244AA224CB01770AC5FA9400
:100840004C4994CE00780AC5FA9428D2A432007993
:100850000CC5FA942889A2258A24007A0AC5FA943C
:1008600021AB0D31007B0AC53A52258A7416007CF3
:1008700008C5FA40D83B007D0DC5FA80525112A53B
:10088000B28511007E08C5DA493B33007F06C5FA00
:10089000BC028006C5FABC0200000004FFFF000095
:1008A0008A29213411241FBECFEFD1E2DEBFCDBF94
:1008B00000E00CBF2DE0AEEDB5E001C01D92A4300C
:1008C000B207E1F715E0A0E0B2E0EAEFF6E700E0FA
:1008D0000BBF02C007900D92AE3DB107D9F714E0EF
:1008E000C1E5D4E000E006C021970109802FFE0198
:1008F0000E945438C035D10780E00807A9F70E944C
:100900007A2C0C946B3B0C940000662329F06A301F
:1009100019F0862F90E008958FEF9FEF0895CF9202
:10092000DF92EF92FF920F931F93CF93DF93EC012F
:10093000842F8770E1E0F0E0082E01C0EE0F0A94EA
:10094000EAF73E2F7E0199E7E90EF11CD7019C9151
:1009500010E0923018F41E2F913029F150E0487FBA
:10096000E8ADF9ADC880D980D60150969C91949F8E
:100970006001959FD00C11246C0D7D2D711DDF0140
:10098000A60FB71F011115C08C91812B83278D9362
:100990002150D1F7DF91CF911F910F91FF90EF90F0
:1009A000DF90CF90089530E0D9CF110F330F22237D
:1009B00089F39C91912B93279C938F5F8770215093
:1009C0008111F3CF9CADA90FB11DF7019081923039
:1009D00028F4913009F031E011E0E9CF31E0E7CFC0
:1009E00080E0089580E00895CF93DF93EC01E091DB
:1009F000DE03F091DF03EE0FFF1FEE0FFF1FEC523F
:100A0000FC4F218932894389548960E075E68DEC79
:100A10009DE10E9432382531310510F024E130E0AB
:100A20002430310510F424E030E039832883DF914D
:100A3000CF910895CF93DF93CDEFDBE08FAFEAAD99
:100A4000FBAD0190F081E02D81E09CE01995EAADCD
:100A5000FBAD0280F381E02D81E09CE0DF91CF913E
:100A60001994833018F480937A0C089581E0FBCFB9
:100A70009B01DC011896ED91FC9141E067E119942E
:100A8000DB0114964D915C9115976D917C91DC0181
:100A9000ED91FC910280F381E02D1994EF92FF9289
:100AA0000F931F93CF93DF938C017B01D0E0C0E0C5
:100AB000F701EC0FFD1F6491662361F0D801ED9101
:100AC000FC910190F081E02DC8011995892B11F05E
:100AD0002196EECFCE01DF91CF911F910F91FF9024
:100AE000EF900895AF92BF92CF92DF92EF92FF9274
:100AF0000F931F93CF93DF936C017B018B01040F46
:100B0000151FEB015E01AE18BF08C017D10759F0E1
:100B10006991D601ED91FC910190F081E02DC60123
:100B20001995892B79F7C501DF91CF911F910F910D
:100B3000FF90EF90DF90CF90BF90AF900895FC01B1
:100B4000538D448D252F30E0842F90E0821B930B32
:100B5000541710F0CF96089501970895FC01918DD8
:100B6000828D981761F0A28DAE0FBF2FB11D5D96DB
:100B70008C91928D9F5F9F73928F90E008958FEF7D
:100B80009FEF0895FC01918D828D981731F0828D31
:100B9000E80FF11D858D90E008958FEF9FEF089588
:100BA000FC01918D228D892F90E0805C9F4F821BEC
:100BB00091098F739927089581E097E00E94D005ED
:100BC00021E0892B09F420E0822F0895FC01A48DF7
:100BD000A80FB92FB11DA35ABF4F2C91848D90E05F
:100BE00001968F739927848FA689B7892C93A08942
:100BF000B1898C91837080648C93938D848D9813CC
:100C000006C00288F389E02D80818F7D808308955E
:100C1000EF92FF920F931F93CF93DF93EC0181E04C
:100C2000888F9B8D8C8D98131AC0E889F9898081F3
:100C300085FF15C09FB7F894EE89FF896083E88926
:100C4000F98980818370806480839FBF81E090E018
:100C5000DF91CF911F910F91FF90EF900895F62EA5
:100C60000B8D10E00F5F1F4F0F731127E02E8C8D3F
:100C70008E110CC00FB607FCFACFE889F989808184
:100C800085FFF5CFCE010E94E605F1CFEB8DEC0F8D
:100C9000FD2FF11DE35AFF4FF0829FB7F8940B8FA1
:100CA000EA89FB8980818062CFCFCF93DF93EC010B
:100CB000888D8823B9F0AA89BB89E889F9898C9144
:100CC00085FD03C0808186FD0DC00FB607FCF7CF00
:100CD0008C9185FFF2CF808185FFEDCFCE010E9400
:100CE000E605E9CFDF91CF91089580E090E0892B70
:100CF00029F00E94DC0581110E94000080E090E054
:100D0000892B49F080E090E0892B29F00E940000B7
:100D100081110E94000080E090E0892B49F080E082
:100D200090E0892B29F00E94000081110E940000B0
:100D300080E090E0892B49F080E090E0892B29F059
:100D40000E94000081110C940000089581508231AE
:100D500008F05AC0E82FF0E08827EE54F94F8F4F83
:100D60000C945438D206D606C406CA06CE0604072A
:100D7000D906DF06E306E906ED06F106F706FB06EF
:100D80000407FF0605070907809180008F7780938D
:100D900080000895809180008F7DF9CF8091800040
:100DA000877FF5CF84B58F7784BD089584B58F7D17
:100DB000FBCF8091B0008F778093B0000895809131
:100DC000B0008F7DF9CF809190008F778093900055
:100DD0000895809190008F7DF9CF80919000877F5A
:100DE000F5CF8091A0008F778093A0000895809127
:100DF000A0008F7DF9CF8091A000877FF5CF8091F3
:100E000020018F77809320010895809120018F7DAC
:100E1000F9CF80912001877FF5CFCF93DF93282FE3
:100E200030E0F901EC57FC4F8491F901EC5DFB4F88
:100E3000D491F901E659FB4FC491CC23A1F0811163
:100E40000E94A606EC2FF0E0EE0FFF1FE051FC4FD2
:100E5000A591B491EC91ED2381E090E009F480E05C
:100E6000DF91CF91089580E090E0FACF1F93CF9368
:100E7000DF93282F30E0F901EC57FC4F8491F90102
:100E8000EC5DFB4FD491F901E659FB4FC491CC23A3
:100E9000A9F0162F81110E94A606EC2FF0E0EE0FAC
:100EA000FF1FE659FC4FA591B4918FB7F894EC91D0
:100EB000111108C0D095DE23DC938FBFDF91CF9155
:100EC0001F910895DE2BF8CFCF93DF9390E0FC01C4
:100ED000EC5DFB4F249186599B4FFC018491882344
:100EE000C9F090E0880F991FFC01E65FFB4FA591C8
:100EF000B491FC01E659FC4FC591D49161110DC02C
:100F00009FB7F8948C91209582238C938881282315
:100F100028839FBFDF91CF910895623051F49FB72E
:100F2000F8943C91822F809583238C93E8812E2B1B
:100F3000EFCF8FB7F894EC912E2B2C938FBFEACF85
:100F40003FB7F8948091F9069091FA06A091FB06BC
:100F5000B091FC0626B5A89B05C02F3F19F001965D
:100F6000A11DB11D3FBFBA2FA92F982F8827BC0103
:100F7000CD01620F711D811D911D42E0660F771F2B
:100F8000881F991F4A95D1F708958F929F92AF922B
:100F9000BF92CF92DF92EF92FF926B017C010E9491
:100FA000A0074B015C01C114D104E104F104B9F0C4
:100FB0000E94A007681979098A099B09683E734055
:100FC0008105910580F321E0C21AD108E108F108FA
:100FD00088EE880E83E0981EA11CB11CE4CFFF9020
:100FE000EF90DF90CF90BF90AF909F908F9008953B
:100FF0002FB7F8946091F5067091F6068091F70688
:101000009091F8062FBF089508952091A806260F05
:101010003327331F21323105ECF42091CE06FC0139
:1010200090E080E0243069F082E00895A091A80665
:101030002191AC014A57594FA40FB52FB11D2C93E4
:101040000196861798F38091A806680F6093A8060A
:1010500080E0089581E008951092CE0681E08093AB
:10106000D0061092CF0661E084E10E94360761E06D
:1010700085E10E943607E9EBF0E080818E7F808376
:1010800080818D7F808388E48093B80085E480939D
:10109000BC000895CF93DF9391E090938506882359
:1010A000B9F0C091B800D091BA008091BC008A7BA1
:1010B0008093BC0060E084E10E94360760E085E137
:1010C0000E9436070E942C08D093BA00C093B80043
:1010D000DF91CF910895089508950895E0917D06D8
:1010E00080917C06E81730F4F0E0E45AF94F8081F3
:1010F00090E008958FEF9FEF089590917D06809185
:101100007C062FEF3FEF981748F4E92FF0E0E45A00
:10111000F94F208130E09F5F90937D06C9010895CB
:1011200080917C0690917D06891B990B0895CF9242
:10113000DF92EF92FF920F931F93CF93DF937C0187
:10114000CB018A0120915B06222389F0EB016B0120
:10115000C40ED51ECC15DD0569F06991D701ED915E
:10116000FC910190F081E02DC7011995F3CF642F18
:101170000E940508C801DF91CF911F910F91FF9048
:10118000EF90DF90CF900895CF93DF931F92CDB76C
:10119000DEB7698320915B062223F9F020917E0659
:1011A000203258F021E030E0FC013383228390E0CC
:1011B00080E00F90DF91CF91089580917F06E82F16
:1011C000F0E0E55CF94F998190838F5F80937F0613
:1011D00080937E0681E090E0ECCF61E0CE01019645
:1011E0000E940508F7CFCF92DF92EF92FF92CF9344
:1011F000DF93EC010E94F8076B017C018F850E9450
:101200000D079C0181E02115310509F480E0898BEF
:101210008889811105C091E0232B09F090E0998B1A
:1012200029898A89281721F0CD8ADE8AEF8AF88EEB
:101230008D899E89AF89B88DB701A601481B590BCE
:101240006A0B7B0BDB01CA01CB80DC80ED80FE806A
:10125000C816D906EA06FB0664F43A81231749F05A
:101260002A83222349F04B895C894F5F5F4F5C8B57
:101270004B8B3A81311117C0CF80D884E984FA842E
:10128000C816D906EA06FB0634F48B899C89998333
:1012900088831C8A1B8A2A8BDF91CF91FF90EF9065
:1012A000DF90CF900895CB84DC84ED84FE84C81653
:1012B000D906EA06FB067CF78B899C899195819576
:1012C0009109E5CFDC011A96ED91FC9130E020E028
:1012D0001994DC011496ED91FC9130E020E040E09F
:1012E00060E11994DC011696ED91FC9130E020E06C
:1012F00040E069E11994DC011696ED91FC9130E033
:1013000020E040E068E119949A01DC011696ED9125
:10131000FC91462F67E11994EF92FF920F931F9370
:10132000CF93DF931F92CDB7DEB77C018B01D8013D
:101330006C91673129F150F46531A0F40F90DF9181
:10134000CF911F910F91FF90EF9008956A3118F19E
:101350006E3FA1F7F8014181498369E2C7010E940C
:1013600062090BC0F80141814983D7011696ED91BE
:10137000FC9130E020E0C70119950E5F1F4FD7CFD9
:10138000F80181818983AE014F5F5F4F61E0C70142
:101390000E948409F2CF0F5F1F4FD7011696ED917F
:1013A000FC9130E020E040E0C7011995C0CF462F06
:1013B000DC011696ED91FC9130E020E066E1199495
:1013C000462FDC011696ED91FC9130E020E065E1BE
:1013D0001994EF92FF920F931F93CF93DF93EC0139
:1013E000042F79016D3009F446C050F46B30C9F117
:1013F000693009F49FC06A3009F465C080E05CC0C0
:101400006E3009F44BC06F3099F70E947B09F701E9
:101410001381110F110F110F6C89160F60E4CE01AB
:101420000E94E009612F62956F706061CE010E9499
:10143000E009612F6F70CE010E94D709F701648126
:10144000606BCE010E94D709F70140815181628112
:10145000660F660F660FCE010E9484090150A1F746
:1014600027C064E874E0442311F06FE774E0CE0114
:101470000E948C0920C0411109C068E774E00E94F5
:101480008C09E881F98182898C8B15C061E774E051
:101490000E948C09E881F9818389F6CF0E947B093B
:1014A00061E8CE010E94E009602FCE010E94D709B9
:1014B000CE010E94720981E0DF91CF911F910F91BF
:1014C000FF90EF900895EA85FB8530E020E040E052
:1014D00068E2CE011995EE81FF8130E020E040E026
:1014E00064E1CE01199541E06BE4CE010E946209EE
:1014F000E881F981448169E2CE010E94620940E0FD
:101500006BE4CE010E946209E881F981448169E2BD
:10151000CE010E94620941E06BE4CE010E946209A3
:10152000E881F981458169E2CE010E94620969E89A
:1015300074E09DCF8EEB94E09983888382E0A4CF02
:10154000DC011896ED91FC9130E020E040E069E18B
:101550001994DC011896ED91FC9130E020E040E018
:1015600068E11994CF93DF931F92CDB7DEB76983FB
:10157000BE016F5F7F4F0E9438050F90DF91CF91C2
:101580000895EF92FF921F93CF93DF93EC01162FF4
:101590007A010E94A90A60E4CE010E94B20AE8859D
:1015A000F9859701412F67E1CE011995CE01DF91B1
:1015B000CF911F91FF90EF900C94A00AEF92FF92B1
:1015C0001F93CF93DF93EC01142F7901673130F42F
:1015D000653178F4643159F180E005C06731F9F084
:1015E0006A31D0F781E0DF91CF911F91FF90EF90AA
:1015F00008950E94A90A60E0CE010E94B20A612FFC
:10160000CE010E94B20ACE010E94A00AEBCF68E18F
:10161000CE010E94C10A185188E1E80EF11CA70111
:101620001931A8F7612FCE010E94C10ADBCF8E8944
:101630008F3F11F488E78E8BE885F9859701412F5C
:1016400064E1CE01DF91CF911F91FF90EF9019944B
:101650000F93DC01DE963C91DE97431BD496ED910F
:10166000FC9119950F910895CF93DF93FC01A08110
:10167000B18182AD982F990F990F990F95AF509620
:101680009C915097903208F09FE1990F990F990F14
:1016900094AF23AD922F990F990F990F96AF519652
:1016A0003C915197682F620F7727771F36171706DF
:1016B00014F4832F821B97AFEF01C05CDF4F880FBC
:1016C000880F880F890F8883219680EF888354962E
:1016D0008D919C915597813F910508F48883EE5B2D
:1016E000FF4F56968C918083DF91CF9108950F9391
:1016F000FC01EB5BFF4F308131965081451730F490
:10170000301738F0041728F080E013C03017D0F3FA
:10171000FBCFFC01ED5BFF4F30818C5B9F4FFC01E9
:101720008081681740F481E0321718F081E02617B5
:1017300058F70F9108953217C8F3E6CF2F923F92D2
:101740004F925F926F927F928F929F92AF92BF92D1
:10175000CF92DF92EF92FF920F931F93CF93DF937D
:10176000EC014C0183E4880E911CF4011082329745
:1017700020805E01F4E4AF0EB11CF50120823FAC85
:101780006E01F5E4CF0ED11CF60130823597408012
:101790007E01F6E4EF0EF11CF701408234961081D1
:1017A000329760803196708032975080012F262DBD
:1017B000472D652DCE010E94770BCD58DF4F81114B
:1017C00014C01882DF91CF911F910F91FF90EF907D
:1017D000DF90CF90BF90AF909F908F907F906F9051
:1017E0005F904F903F902F90089581E0888355201F
:1017F00011F0F4015082621410F4F5016082371484
:1018000010F4F60170821415E8F6F7011083DACFB0
:101810000F93DC01802FFD01ED58FF4F908199233C
:10182000E9F12223D9F1223020F0023079F56F5FFF
:10183000621B082F0170FD0180FD32C0EB5BFF4F82
:101840008081481758F131968081481738F53297D2
:10185000908131978081260F2617F0F46917D8F40C
:101860002FEF290F8217D0F4681708F4682F291773
:1018700008F4922F961BD696ED91FC91D797048091
:10188000F581E02D292FCD01199508C0033089F687
:101890004F5F421BCECF682F691720F30F91089539
:1018A000ED5BFF4F80816817C8F331968081681720
:1018B000A8F73296908131978081240F241778F40D
:1018C000491760F42FEF290F821740F7481708F4E3
:1018D000482F291708F4922F941BCDCF482F491772
:1018E000E8F6F2CF213039F020F0223031F0840FC9
:1018F0000895860F0895841B0895861B089521304E
:1019000039F020F0223031F0861B0895840F0895BD
:10191000860F0895841B08955F926F927F928F9235
:101920009F92AF92BF92CF92DF92EF92FF920F936E
:101930001F93CF93DF935C01162F642EEC01C15BE4
:10194000DF4FDC80ED804C0189E7880E911CFE8022
:10195000FD18C12EF11608F4CF2C5B800C85202FCA
:101960004E2D6D2D8A810E94720C782E202F4E2DC7
:101970006D2D852D0E947F0C482F662071F08A8581
:10198000F40180832C2D672DC5010E94080C1F15C2
:1019900048F01F19E394D12CDACF89858111F7CF54
:1019A0008B85EECF1D0D1C83ED82DF91CF911F91B2
:1019B0000F91FF90EF90DF90CF90BF90AF909F90EE
:1019C0008F907F906F905F900895DC0118964C91F6
:1019D0001897ED91FC911197249130E0042E02C0EC
:1019E000359527950A94E2F7842F860F883068F0A2
:1019F00031961196FC93EE93E49198E0941B01C00C
:101A0000EE0F9A95EAF72E2B885018968C938FEF4D
:101A10009FEF01C0880F6A95EAF7809582230895A9
:101A2000FC01E60FF11D849190E0982F88273196F4
:101A3000E4918E0F911D0895AF92BF92CF92DF92E5
:101A4000EF92FF920F931F93CF93DF9300D01F92DB
:101A50001F92CDB7DEB78C01DC01DA96AC90DA9735
:101A6000DB96EC90DB97ED91FC91B188FE2CD12CAC
:101A7000C12CD801ED91FC9111978089D8962D91B8
:101A80003C911C82FD828B83B8E08B9FC0011124A6
:101A90008C9DA0018D9D500D9C9D500D1124240FF7
:101AA000351F3A832983D8011496ED91FC919E014C
:101AB0002F5F3F4F41E06FE0C8011995F3948F2DE0
:101AC0008E198A1528F4BFEFCB1ADB0AFB1488F2B3
:101AD0000F900F900F900F900F90DF91CF911F916B
:101AE0000F91FF90EF90DF90CF90BF90AF9008954F
:101AF00081E09CE00E941C0D81E09CE00C9469094F
:101B0000CF92DF92EF92FF920F931F93CF93DF93C9
:101B1000EC01962F683109F44BC0B901993130F4CA
:101B20009431C9F0973189F080E006C0993109F409
:101B300061C09032C9F781E0DF91CF911F910F9181
:101B4000FF90EF90DF90CF90089550E08EE997E0FE
:101B50000E949708F0CF8C859D85AE85BF85892B27
:101B60008A2B8B2B71F4E881F981A585B0E020EAFE
:101B700036E841E050E00E9475356C877D878E879E
:101B80009F8710927D0610927C0610927F0610921D
:101B90007E060E942C088BE698E09093A70680931F
:101BA000A6068CE698E09093AB068093AA06C3CF76
:101BB0002C853D854E855F8560E074E284EF90E082
:101BC0000E943238205131094109510956954795F3
:101BD000379527952093B8008E8990E09595879545
:101BE00091E090935B0680933A0610927F061092E4
:101BF0007E06A1CFD0917E06D13208F093C0C0916D
:101C00003A060E94A0076B017C018091CE068111EB
:101C100064C082E08093CE0681E08093D0068FEF8F
:101C20008093CD061092F206D093F106ABE3B6E0B6
:101C3000E1EDF6E080E0D8137CC01092F3068091CD
:101C4000F306CC0FC82BC093F3068091CF068130EA
:101C500009F073C01092CF060E94A0076B017C01AF
:101C60008091F3068093BB0080918106909182065B
:101C7000A0918306B0918406892B8A2B8B2B99F037
:101C80000E94A00700918106109182062091830690
:101C9000309184066C197D098E099F090617170774
:101CA00028073907D8F18091BC0083FDD9CF85EC96
:101CB0008093BC000E94A0076B017C018091CE063E
:101CC0008230E9F18091CD068F3F61F18091CD06A0
:101CD000803241F18091CD0625C08091810690919E
:101CE0008206A0918306B0918406892B8A2B8B2BC8
:101CF00009F48BCF0E94A007009181061091820603
:101D000020918306309184066C197D098E099F0904
:101D1000061717072807390708F077CF8091800644
:101D20000E944A0810927F0610927E0610925B066F
:101D300002CF9D9191938F5F7ECF85EEB9CF809139
:101D4000810690918206A0918306B0918406892B2A
:101D50008A2B8B2B09F4B2CF0E94A0070091810639
:101D60001091820620918306309184066C197D09BA
:101D70008E099F09061717072807390708F09ECF15
:101D8000CDCF0F931F93CF93DF938C01C62F642F7A
:101D9000CC32E8F4CA3208F041C0C83271F1C9321D
:101DA00009F442C080E0C034D0F1CF73F801EC0FE9
:101DB000F11D868D8F3F91F1C031E0F00E940D073B
:101DC00021E0892B09F420E0F801218F27C0CD32D2
:101DD00089F140F384EB8C0F823020F7CF73C00F72
:101DE000D12FD11D8E8D411133C061E00E94640757
:101DF00060E08E8D0E94360711C0025E1F4FD0E05A
:101E0000F80181918F018F3F31F061E0D03108F00E
:101E100062E00E946407DF5FD63191F781E0DF91D5
:101E2000CF911F910F91089570E090E080E00E94A3
:101E3000C507F4CF85E090E0433010F082E090E0F9
:101E4000880F991F880F991F05970197F1F7E6CF23
:101E500062E00E946407E2CFCF93C82F61E00E9446
:101E6000360760E08C2FCF910C9436078DE58CBD42
:101E700081E08DBD60E086E00C94360761E086E08D
:101E80000C943607E091DE03F091DF03EE0FFF1FA5
:101E9000EE0FFF1FEC52FC4F218932894389548990
:101EA00060E076E483EC93E20E943238CA01B90123
:101EB0000E9464340E946E36CB016531710510F0CA
:101EC00084E190E00895E091DE03F091DF03EE0FEE
:101ED000FF1FEE0FFF1FEC52FC4F2189328943890F
:101EE000548960E074E887ED97E10E943238CA01B6
:101EF000B9010E9464340E946E36CB0164307105D2
:101F000010F484E090E008950F931F93CF93DF9334
:101F1000EC018091320681110DC00E94F807609398
:101F20002E0670932F06809330069093310681E041
:101F3000809332068881882359F10E94F807009126
:101F40002E0610912F062091300630913106601B2D
:101F5000710B820B930B6E3471408105910588F0F3
:101F6000C09104020E94F80760932E0670932F061A
:101F7000809330069093310681E0C11180E0809318
:101F8000040280910402DF91CF911F910F91089577
:101F900081E0F9CF4F925F926F927F928F929F92E2
:101FA000AF92BF92CF92DF92EF92FF92CF93DF93E7
:101FB00000D01F92CDB7DEB7A091BC03B091BD0396
:101FC00020E432E44FE050E00E9463382B013C01F2
:101FD000A091AB03B091AC0328EE33E00E945C38D3
:101FE000460E571E681E791E80919A0390919B039E
:101FF000092E000CAA0BBB0B480E591E6A1E7B1E35
:102000004092260650922706609228067092290672
:10201000A0915603B091570320E432E44FE050E022
:102020000E9463384B015C01A0914503B0914603C7
:1020300028EE33E00E945C38860E971EA81EB91E5B
:102040008091340390913503092E000CAA0BBB0B31
:10205000880E991EAA1EBB1E80922206909223060D
:10206000A0922406B0922506A091F002B091F10250
:1020700020E432E44FE050E00E9463386B017C01C1
:10208000A091DF02B091E00228EE33E00E945C38BC
:10209000C60ED71EE81EF91E8091CE029091CF0287
:1020A000092E000CAA0BBB0BC80ED91EEA1EFB1E84
:1020B000C0921E06D0921F06E0922006F0922106E2
:1020C000A0918A02B0918B0220E432E44FE050E00C
:1020D0000E94633869837A838B839C83A091790201
:1020E000B0917A0228EE33E00E945C3829813A816F
:1020F0004B815C81260F371F481F591FDA01C90128
:102100004091680250916902052E000C660B770B16
:10211000840F951FA61FB71F80931A0690931B0666
:10212000A0931C06B0931D0640912A0650912B06E1
:1021300060912C0670912D064415550566057705AE
:1021400008F469C031E443163AE3530639E66306FE
:102150003DE0730608F05FC020EA421626E852060A
:1021600021E06206710408F458C0481559056A0553
:102170007B0508F454C031E483163AE3930639E64C
:10218000A3063DE0B30608F04AC020EA821626E81E
:10219000920621E0A206B10408F443C04C155D0587
:1021A0006E057F0508F43FC031E4C3163AE3D30659
:1021B00039E6E3063DE0F306B0F520EAC21626E86C
:1021C000D20621E0E206F10480F1481759076A07B8
:1021D0007B0768F181343AE3930739E6A3073DE0D2
:1021E000B30728F5803A9648A140B10510F180E088
:1021F0000F900F900F900F90DF91CF91FF90EF9085
:10220000DF90CF90BF90AF909F908F907F906F9016
:102210005F904F90089581E0EBCF8FEFE9CF82E0A0
:10222000E7CF8EEFE5CF83E0E3CF8DEFE1CF84E022
:10223000DFCF8CEFDDCF0F931F93809112068111BA
:102240000DC00E94F80760930E0670930F068093EE
:1022500010069093110681E0809312060E94F80701
:1022600000910E0610910F06209110063091110674
:10227000601B710B820B930B0091CE0B1091CF0B57
:102280002091D00B3091D10B601771078207930713
:10229000A8F083E00E940D07809303028091020260
:1022A000813041F480910302811104C08BEC9BE0EA
:1022B0000E94F30880910302809302021F910F9104
:1022C00008950F931F938091060681110DC00E94FF
:1022D000F8076093020670930306809304069093B8
:1022E000050681E0809306060E94F8070091020629
:1022F000109103062091040630910506601B710BB6
:10230000820B930B0091E70B1091E80B2091E90BE6
:102310003091EA0B6017710782079307A8F082E0FB
:102320000E940D078093010280910002813041F4E8
:1023300080910102811104C084EE9BE00E94F308A9
:1023400080910102809300021F910F9108958EBD2C
:1023500000000DB407FEFDCF8EB508952F923F9279
:102360004F925F926F927F928F929F92AF92BF92A5
:10237000CF92DF92EF92FF920F931F93CF93DF9351
:10238000EC010497419710F0C1E0D0E0CB01BA0115
:1023900020E03AEC4AE95BE30E946B38A12CEAECBE
:1023A000BE2EFAE9CF2EABE3DA2EE12CF12C00E0C1
:1023B00010E00E949838B22FA32FF42FE52F9E0132
:1023C000DD0F440B550B6B2F7A2F8F2F9E2F0E9402
:1023D00022386093800C7093810C8093820C9093D0
:1023E000830C1B012C017B01182FB52DE0E0F0E0E0
:1023F000B12CC12C00E2002309F474C0DD24DA946E
:10240000D00E20E030E040E050E06E2F617070E0D0
:1024100080E090E0A0E00E94343909F452C00093BB
:10242000880C10E0005E1F4F21E030E040E050E0FB
:1024300060E070E080E090E00E94F53851016201B8
:10244000E12CF12C00E010E00E9498382093840CDD
:102450003093850C4093860C5093870C0E94360F66
:1024600081E00E94A7118091800C9091810CA09135
:10247000820CB091830C893C9105A105B105A8F1AE
:1024800080E8CC0FCC0FC3608C2B0E94A71180E09A
:102490000E94A71180E20E94A711DF91CF911F91A6
:1024A0000F91FF90EF90DF90CF90BF90AF909F90F3
:1024B0008F907F906F905F904F903F902F900C94F3
:1024C0003E0F9701412F5B2FBF018B2D9C2D01E00B
:1024D0000E94F5387901142FB52FFB01B82EC92EB3
:1024E0000D2D89CF1092880C9CCF80E0CACF8F929F
:1024F0009F92AF92BF92CF92DF92EF92FF92CF93D3
:10250000DF93D82F4A015B01E82FF0E0E759FB4F3A
:10251000C0810E94360F8D2F0E94A71128E0C29F14
:10252000E0011124C12CD12C76012897C83F8FEFF0
:10253000D80791F0FE2CED2CDC2CCC24D501C40165
:102540000C2E04C0B695A795979587950A94D2F757
:102550000E94A711C82AE9CF0E943E0FC701B60109
:10256000DF91CF91FF90EF90DF90CF90BF90AF9031
:102570009F908F9008951F93CF93DF93EC01162FB8
:10258000462F572F88818417150641F04260052E8B
:10259000000C660B770B80E00E9477121883DF91A6
:1025A000CF911F9108950F931F93CF93DF938B01CA
:1025B000EB016130744010F0C0E0D4E0BC0189E868
:1025C0009CE00E94BB120E94360F86E00E94A71179
:1025D00080E00E94A7110115144070F4CE019061B3
:1025E000892F0E94A7118C2F0E94A711DF91CF91F4
:1025F0001F910F910C943E0F80E0F3CFCF93DF93A8
:10260000EB01BC0189E89CE00E94BB12DF73AE01C4
:1026100070E060E085E0DF91CF910C9477122F920B
:102620003F924F925F926F927F928F929F92AF9262
:10263000BF92CF92DF92EF92FF920F931F93CF93AF
:10264000DF9300D01F92CDB7DEB79A838983C09005
:10265000840CD090850CE090860CF090870CCB0118
:10266000BA01A70196010E946B38E4E0F694E79462
:10267000D794C794EA95D1F756016701E12CF12C64
:1026800000E010E00E942B390091880C0E94103964
:1026900079014C835B8369817A8189E89CE00E949F
:1026A000BB12A7016C817B8184E00F900F900F908B
:1026B0000F90DF91CF911F910F91FF90EF90DF90DE
:1026C000CF90BF90AF909F908F907F906F905F90D2
:1026D0004F903F902F900C9477120895CF93DF93F3
:1026E000EC01E091DE03F091DF03EE0FFF1FEE0F30
:1026F000FF1FEC52FC4FAA85BB8521893289438993
:1027000054890E946338698B7A8B8B8B9C8BDF9109
:10271000CF9108958F929F92AF92BF92CF92DF9206
:10272000EF92FF928091A90C9091AA0C892B69F5E8
:1027300080919B0C90919C0CA0919D0CB0919E0C53
:1027400081509448A74DB7418F3F914CAB4EBB4051
:1027500020F08AE89CE00E946E1380909B0C909081
:102760009C0CA0909D0CB0909E0CC12CD12C76019D
:102770009401A501B601C701FF90EF90DF90CF90C3
:10278000BF90AF909F908F900895A091CD03B0918E
:10279000CE0320E432E44FE050E00E9463386B0146
:1027A0007C0124E8D21A27EDE20A27E1F20A812C03
:1027B00021E0C21622ECD2062BEEE2062BE0F20656
:1027C00068F44B015C01DC01CB01BB0F880B982F37
:1027D000DC01C82ED82EE82EF82ECACF85E6982E1A
:1027E0009DECA92E2DE1B22EC12CD12CE12CF12C87
:1027F000BFCFCF93DF93EC018A859B8501979B87A1
:102800008A87049724F40E94420F9B878A87E0916D
:10281000DE03F091DF03EE0FFF1FEE0FFF1FEC5200
:10282000FC4FAA85BB8521893289438954890E943E
:10283000633861157448874D974120F40E94420F18
:102840009B878A87CE01DF91CF910C946E13CF9333
:10285000DF93EC018A859B8501969B878A87459744
:1028600024F00E94630F9B878A87E091DE03F0913A
:10287000DF03EE0FFF1FEE0FFF1FEC52FC4FAA8588
:10288000BB8521893289438954890E94633861302C
:102890007644834C934220F00E94630F9B878A8783
:1028A000CE01DF91CF910C946E13FC01868197814C
:1028B000909300078093FF0680E00895FC019089C3
:1028C00081E08927808B0895FC0177FF03C0719513
:1028D0006195710982859385861B970B9387828703
:1028E000268537858217930724F4848595859387F9
:1028F00082870895CF93DF93EC010E946414AA8528
:10290000BB8520E432E44FE050E00E9463386093DE
:102910009B0C70939C0C80939D0C90939E0CDF916C
:10292000CF910895CF93DF93EC0161E070E00E94B6
:1029300064148A859B85892B69F484ED93E09B83DD
:102940008A838AE89CE090931B0280931A02DF91AD
:10295000CF91089583EC93E09B838A83F4CF0E9408
:10296000641484E99CE00E94F4048AE89CE00C94DE
:102970006E13CF93DF93EC010E9464148A859B85CC
:10298000892B59F0EC81FD818285938588369140B1
:1029900021F487E691E093878287DF91CF910895B4
:1029A000CF93DF93EC010E9464148A859B8588365F
:1029B000914049F4EA81FB818285938518161906B6
:1029C00014F413861286DF91CF9108950C94641449
:1029D0000C9464140C946414FC0177FF03C071958B
:1029E0006195710982859385680F791F7387628766
:1029F000848595858617970724F486859785938720
:102A000082870895CF93DF93EC010E94EC14AA858E
:102A1000BB8520E432E44FE050E00E9463386093CD
:102A20009B0C70939C0C80939D0C90939E0CDF915B
:102A3000CF910895CF93DF93EC0161E070E00E94A5
:102A4000EC148A859B85892B69F484ED93E09B8344
:102A50008A838AE89CE090931B0280931A02DF919C
:102A6000CF91089583EC93E09B838A83F4CF0E94F7
:102A7000EC1484E99CE00E94F4048AE89CE00C9445
:102A80006E13CF93DF93EC010E94EC148A859B8533
:102A9000892B59F0EC81FD818285938588369140A0
:102AA00021F487E691E093878287DF91CF910895A3
:102AB000CF93DF93EC010E94EC148A859B858836C6
:102AC000914049F4EA81FB818285938518161906A5
:102AD00014F413861286DF91CF9108950C94EC14B0
:102AE0000C94EC140C94EC14CF92DF92EF92FF92C2
:102AF0000F931F93CF93DF936C01EB017B01E40EE7
:102B0000F51E10E000E0CE15DF0561F06991D601F9
:102B1000ED91FC910190F081E02DC6011995080F0F
:102B2000191FF1CFC801DF91CF911F910F91FF9035
:102B3000EF90DF90CF9008952F923F924F925F9247
:102B40006F927F928F929F92AF92BF92CF92DF92BD
:102B5000EF92FF920F931F93CF93DF9300D000D09B
:102B6000CDB7DEB77C016C0124E0C20ED11CFC01A4
:102B7000E158FF4F0190F081E02DC60119958C01BD
:102B80008E3F9F4F08F05BC0370182E8680E711CD2
:102B9000F301F081FB83470121E8820E911CF401CF
:102BA000F081FD839701215A3F4F3A832983F90130
:102BB0008081813009F46AC008F45CC0823009F475
:102BC00071C0833009F47AC0F701EB5AFF4F2D81B1
:102BD000208331963B81308337978081918147965E
:102BE0009C838B830F3F110511F008F015C1B4963B
:102BF0000136110530F40134110558F0F701EF5892
:102C0000FF4F808191812B813C81280F391F3C83AC
:102C10002B838B819C810196FC01249121115AC048
:102C2000412CE981FA818081813009F492C108F454
:102C30008BC1823009F48FC1833009F491C181E0E6
:102C400090E026960FB6F894DEBF0FBECDBFDF91A1
:102C5000CF911F910F91FF90EF90DF90CF90BF9099
:102C6000AF909F908F907F906F905F904F903F902C
:102C70002F900895F701EF5AFF4F0190F081E02D5A
:102C8000C6011995FB81F80FFB839ECFF701EF5A20
:102C9000FF4F0190F081E02DC60119952D81281B71
:102CA0002D8392CFF701EF5AFF4F0190F081E02D75
:102CB000C60119953B81381B3B8386CFF701EF5A3C
:102CC000FF4F0190F081E02DC60119959D81980F6D
:102CD0009D837ACFEB81FC8124912017110609F0A6
:102CE00094C0CF010296009709F49ACFF701ED5AEC
:102CF000FF4FFE83ED839183808310867196608100
:102D00008D819E810E94E50CED81FE818683F70115
:102D1000EB59FF4F60818D819E810E94E50C582EFA
:102D2000ED81FE818783970123583F4F3C832B839E
:102D3000F9019081ED81FE81928781E0911180E01F
:102D4000ED81FE818387F701EA59FF4FB0806B2D3B
:102D50008D819E810E94E50C382EF701E959FF4FC5
:102D60002080622D8D819E810E94E50C182FF70135
:102D7000E859FF4F0081602F8D819E810E94E50CF4
:102D8000015021E030E0A90101C0440F0A95EAF7A3
:102D9000482E441AED81FE81068110160CF041CFB9
:102DA000BA94C90101C0880FBA94EAF7381AB484FA
:102DB000150D2A9401C0220F2A94EAF7A22EA11A17
:102DC0002B2D4A2D632D82810E94720C182FED81CC
:102DD000FE8182832B2D4A2D632D83810E947F0CDF
:102DE000ED81FE818383F1E0BF1609F493C0BF1625
:102DF00008F450C022E0B21609F492C033E0B316D2
:102E000009F499C0082F212F49C0FC0184912B811E
:102E10003C81280F311DFBCEF701EB58FF4F80811D
:102E20009181EB81FC81E80FF91FFC83EB835F014B
:102E300060E0C5010E94100D2B813C81280F391FD5
:102E40003C832B8362E0C5010E94100D34E0A30E89
:102E5000B11C8017910760F3EB81FC81849190E0B5
:102E6000982F88273196E4918E2B009709F4D8CEBD
:102E70000817190721F48B819C81039634CFEB81CD
:102E8000FC813296E4912B813C812E0F311D3C83D5
:102E90002B83E2CF202F210F082F050D482F612F04
:102EA000C6010E94770B882309F4BBCEED81FE8119
:102EB000148215825701F2E6AF0EB11C23E6E20E32
:102EC000F11CF50160818D819E810E94E50C082F27
:102ED000F70160818D819E810E94E50C182F40E0F2
:102EE000602FC6010E948C0C41E0612FC6010E9438
:102EF0008C0C61E08D819E810E94E50C8111EFCFE9
:102F0000ED81FE8185818515E4F28285EB81FC816E
:102F1000808387CEB51821E0210F080F1B0DBECF8F
:102F200091E0392F301B21E0210F951901E0080FA6
:102F3000890F130FB3CF212F250D982F901B01E080
:102F4000080F81E0890FAACFF4018081480E4082EA
:102F500076CEF301FACFF4018081841980836FCE9D
:102F6000F301FACF089590E080E00895FB0101900D
:102F70000020E9F73197AF01461B570BDC01ED91BB
:102F8000FC910280F381E02D19948F929F92AF9271
:102F9000BF92EF92FF920F931F93CF93DF93CDB722
:102FA000DEB7A1970FB6F894DEBF0FBECDBF7C0190
:102FB000FA01CB0119A2223008F42AE08E010F5D3C
:102FC0001F4F822E912CB12CA12CBF01A501940181
:102FD0000E943238F901CA016A300CF5605DD801EF
:102FE0006E938D01232B242B252B79F790E080E025
:102FF000109721F0BD01C7010E94B617A1960FB628
:10300000F894DEBF0FBECDBFDF91CF911F910F911E
:10301000FF90EF90BF90AF909F908F900895695C64
:10302000DECF4F925F926F927F92AF92BF92CF921C
:10303000DF92EF92FF920F931F93CF935C01162FB5
:10304000C0E060E070E080E09FE3C11741F020E065
:1030500030E040E251E40E94FC35CF5FF6CF2AE930
:1030600039E949E95FE30E9490356B017C010E94D8
:103070006E362B013C012AE0BC01A201C5010E9471
:10308000C5178C01CC23E9F1C301B2010E9464345D
:103090009B01AC01C701B6010E948F356B017C0119
:1030A000D501ED91FC910190F081E02D6EE2C5011A
:1030B0001995080F191FC15020F120E030E040E2BF
:1030C00051E4C701B6010E94A1342B013C010E94CA
:1030D0006E366B01F12CE12C2AE0B701A601C50187
:1030E0000E94C517080F191FC701B6010E9464345A
:1030F0009B01AC01C301B2010E948F356B017C01C1
:10310000DACFC801CF911F910F91FF90EF90DF9020
:10311000CF90BF90AF907F906F905F904F90089549
:10312000CF92DF92EF92FF92CF93DF936C01990FD2
:10313000EE08FF08F7FE1BC06DE28DEF9BE00E94DA
:103140009C15EC0144275527BA014C195D096E09FD
:103150007F092AE08DEF9BE00E94C5178C0F9D1F11
:10316000DF91CF91FF90EF90DF90CF9008952AE00C
:10317000B701A6018DEF9BE0DF91CF91FF90EF901B
:10318000DF90CF900C94C517BC018DEF9BE00C94A1
:10319000B617CF93DF93BC018DEF9BE00E94B6176B
:1031A000EC0160E275E08DEF9BE00E94B6178C0F9A
:1031B0009D1FDF91CF9108950F931F93CF93DF93BE
:1031C0008C01EB010E945F358883C80101960E9443
:1031D0005F358983CE01DF91CF911F910F910895C3
:1031E000FF920F931F93CF93DF93EC018B01FB01B1
:1031F000F0800E945F35F81621F06F2DCE010E94FD
:103200006735F801F1802196CE010E945F35F816EE
:1032100021F06F2DCE010E946735C801DF91CF915B
:103220001F910F91FF9008956CEB73E086E190E0A1
:103230000E94F0186BEA73E088E190E00E94F018B9
:103240006AE973E08CE190E00E94F01869E873E0AD
:1032500080E290E00E94F01868E773E084E290E07A
:103260000E94F01867E673E086E290E00E94F01892
:1032700066E573E088E290E00E94F01865E473E090
:103280008AE290E00E94F01864E373E08CE290E040
:103290000E94F01863E273E08EE290E00E94F01862
:1032A00062E173E080E390E00E94F01861E073E077
:1032B00082E390E00E94F01860EF72E084E390E017
:1032C0000E94F0186FED72E086E390E00E94F01823
:1032D0006EEC72E088E390E00E94F0186DEB72E013
:1032E0008AE390E00E94F0186CEA72E08CE390E0D0
:1032F0000E94F0186BE972E08EE390E00E94F018F3
:103300006AE872E080E490E00E94F01869E772E0F9
:1033100082E490E00E94F01868E672E084E490E0B5
:103320000E94F01867E572E086E490E00E94F018D1
:1033300066E472E088E490E00E94F01865E372E0D1
:103340008AE490E00E94F01867E384E690E00C9431
:1033500067350E944F3B0F931F93CF93DF93EC0190
:1033600088819981009759F02A813B812617370778
:1033700030F081E0DF91CF911F910F9108958B0183
:103380006F5F7F4F0E946E3A009759F09983888350
:103390001B830A832C813D81232B59F7FC0110826A
:1033A000E8CF80E0E7CFCF93DF93EC01888199816C
:1033B000009711F00E94E539198218821D821C8243
:1033C0001B821A82DF91CF910895EF92FF920F93A3
:1033D0001F93CF93DF93EC01FB01E080F180E114B8
:1033E000F10411F10481158101151105A9F08C81F9
:1033F0009D81080F191FB801CE010E94AB198823C7
:1034000099F0288139818C819D81B701820F931FAA
:103410000E94643B1D830C83CE01DF91CF911F91ED
:103420000F91FF90EF900895CE010E94D319F4CF31
:10343000EF92FF920F931F93CF93DF93EC017B01E9
:103440008A01BA010E94AB1981110BC0CE010E9402
:10345000D319CE01DF91CF911F910F91FF90EF9083
:1034600008951D830C83B701888199810E94643B74
:10347000F0CFEF92FF920F931F93CF93DF93CDB7CF
:10348000DEB762970FB6F894DEBF0FBECDBF8C01DA
:10349000CB01F801118210821382128215821482EC
:1034A0004AE09E012F5F3F4F7901B9010E942F34FE
:1034B000F70101900020E9F73197AF014E195F093C
:1034C000B701C8010E94181A62960FB6F894DEBFC1
:1034D0000FBECDBFDF91CF911F910F91FF90EF9065
:1034E0000895CF93DF93EC01FB018617970749F00E
:1034F000608171816115710541F0448155810E949F
:10350000181ACE01DF91CF9108950E94D319F9CFF7
:10351000FC01118210821382128215821482FB0137
:1035200001900020E9F73197AF01461B570B0C942F
:10353000181AFC0180819181009711F00C94E539F3
:1035400008950F931F93CF93DF93CDB7DEB72C97DA
:103550000FB6F894DEBF0FBECDBF8C014330A1F58E
:10356000CB010A978A35910538F4CE0107960E945F
:10357000391A65E775E009C06A30710544F5CE0176
:1035800007960E94391A64E775E0CE0101960E9401
:10359000881ABE01695F7F4FCE0101960E94E5192E
:1035A000F801118210821382128215821482BC01EA
:1035B000C8010E94711ACE0101960E94991ACE018B
:1035C00007960E94991A06C06A30710574F2C80104
:1035D0000E94391AC8012C960FB6F894DEBF0FBEB0
:1035E000CDBFDF91CF911F910F910895AF92BF9200
:1035F000CF92DF92EF92FF920F931F93CF93DF93BF
:1036000000D000D0CDB7DEB78823A1F0813009F417
:1036100067C526960FB6F894DEBF0FBECDBFDF910B
:10362000CF911F910F91FF90EF90DF90CF90BF90BF
:10363000AF90089582E080937E0C84E180937F0CAC
:103640008091FF06909100078F5E9C4009F0BFC4F7
:1036500080E00E94310583E295E00E94C41881E079
:103660000E94310581E180937E0C84E180937F0C80
:103670008091FF0690910007825B934009F0ABC4F4
:103680008091C203882309F4A4C482EC93E00E94D1
:10369000840F0E9431056091BC037091BD0343E02B
:1036A000CE0101960E94A11ABE016F5F7F4F8DEF80
:1036B0009BE00E944005CE0101960E94991A81E08C
:1036C0000E94310586E295E00E94C4188091FF06B1
:1036D00090910007815A934009F081C48091B10311
:1036E000882309F47AC481EB93E00E94840F0E943E
:1036F00031056091AB037091AC0343E0CE010196BC
:103700000E94A11ABE016F5F7F4F8DEF9BE00E9468
:103710004005CE0101960E94991A81E00E94310570
:1037200086E295E00E94C4188091FF069091000700
:103730008059934009F057C48091A003882309F46D
:1037400050C480EA93E00E94840F0E94310560918A
:103750009A0370919B0343E0CE0101960E94A11A47
:10376000BE016F5F7F4F8DEF9BE00E944005CE0151
:1037700001960E94991A81E00E9431058DE48093A0
:103780007E0C84E180937F0C8091FF06909100076E
:103790008F57934009F02BC480918F03882309F43D
:1037A00024C48FE893E00E94840F0E94310588E2D0
:1037B00095E00E94C4186091890370918A0342E0E9
:1037C000CE0101960E94A11ABE016F5F7F4F8DEF5F
:1037D0009BE00E944005CE0101960E94991A81E06B
:1037E0000E94310581E680937E0C84E180937F0CFA
:1037F0008091FF06909100078E56934009F0FBC31D
:1038000080917E03882309F4F4C38EE793E00E943D
:10381000840F0E943105609178037091790343E031
:10382000CE0101960E94A11ABE016F5F7F4F8DEFFE
:103830009BE00E944005CE0101960E94991A81E00A
:103840000E94310586E295E00E94C4188091FF062F
:10385000909100078D55934009F0D1C380916D037D
:10386000882309F4CAC38DE693E00E94840F0E9466
:10387000310580916703909168030E94901881E060
:103880000E9431058AE295E00E94C41882E080938C
:103890007E0C8EE180937F0C8091FF069091000753
:1038A0008E5D9C4009F0ADC380E00E9431058CE242
:1038B00095E00E94C41881E00E94310581E1809367
:1038C0007E0C8EE180937F0C8091FF069091000723
:1038D0008C54934009F099C380915C03882309F4C8
:1038E00092C38CE593E00E94840F0E9431056091A1
:1038F00056037091570343E0CE0101960E94A11A2E
:10390000BE016F5F7F4F8DEF9BE00E944005CE01AF
:1039100001960E94991A81E00E94310586E295E0A5
:103920000E94C4188091FF06909100078B5393402A
:1039300009F06FC380914B03882309F468C38BE4BB
:1039400093E00E94840F0E943105609145037091BD
:10395000460343E0CE0101960E94A11ABE016F5FAB
:103960007F4F8DEF9BE00E944005CE0101960E94A3
:10397000991A81E00E94310586E295E00E94C41800
:103980008091FF06909100078A52934009F045C349
:1039900080913A03882309F43EC38AE393E00E94AE
:1039A000840F0E943105609134037091350343E028
:1039B000CE0101960E94A11ABE016F5F7F4F8DEF6D
:1039C0009BE00E944005CE0101960E94991A81E079
:1039D0000E9431058DE480937E0C8EE180937F0CF4
:1039E0008091FF06909100078951934009F019C317
:1039F00080912903882309F412C389E293E00E948D
:103A0000840F0E94310588E295E00E94C4186091FD
:103A100023037091240342E0CE0101960E94A11A73
:103A2000BE016F5F7F4F8DEF9BE00E944005CE018E
:103A300001960E94991A81E00E94310581E68093E7
:103A40007E0C8EE180937F0C8091FF0690910007A1
:103A50008850934009F0E9C280911803882309F443
:103A6000E2C288E193E00E94840F0E9431056091D8
:103A700012037091130343E0CE0101960E94A11A34
:103A8000BE016F5F7F4F8DEF9BE00E944005CE012E
:103A900001960E94991A81E00E94310586E295E024
:103AA0000E94C4188091FF0690910007875F9240A2
:103AB00009F0BFC280910703882309F4B8C287E0E8
:103AC00093E00E94840F0E94310580910103909140
:103AD00002030E94901881E00E9431058AE295E07D
:103AE0000E94C41882E080937E0C88E280937F0C51
:103AF0008091FF06909100078D5C9C4009F09BC26D
:103B000080E00E9431058FE295E00E94C41881E0B8
:103B10000E94310581E180937E0C88E280937F0CC6
:103B20008091FF0690910007865E924009F087C25F
:103B30008091F602882309F480C286EF92E00E9409
:103B4000840F0E9431056091F0027091F10243E010
:103B5000CE0101960E94A11ABE016F5F7F4F8DEFCB
:103B60009BE00E944005CE0101960E94991A81E0D7
:103B70000E94310586E295E00E94C4188091FF06FC
:103B800090910007855D924009F05DC28091E50249
:103B9000882309F456C285EE92E00E94840F0E94A9
:103BA00031056091DF027091E00243E0CE010196A1
:103BB0000E94A11ABE016F5F7F4F8DEF9BE00E94B4
:103BC0004005CE0101960E94991A81E00E943105BC
:103BD00086E295E00E94C4188091FF06909100074C
:103BE000845C924009F033C28091D402882309F4A6
:103BF0002CC284ED92E00E94840F0E9431056091F6
:103C0000CE027091CF0243E0CE0101960E94A11A2C
:103C1000BE016F5F7F4F8DEF9BE00E944005CE019C
:103C200001960E94991A81E00E9431058DE48093EB
:103C30007E0C88E280937F0C8091FF0690910007B4
:103C4000835B924009F007C28091C302882309F484
:103C500000C283EC92E00E94840F0E94310588E24A
:103C600095E00E94C4186091BD027091BE0242E0CE
:103C7000CE0101960E94A11ABE016F5F7F4F8DEFAA
:103C80009BE00E944005CE0101960E94991A81E0B6
:103C90000E94310581E680937E0C88E280937F0C40
:103CA0008091FF0690910007825A924009F0D7C197
:103CB0008091B202882309F4D0C182EB92E00E9485
:103CC000840F0E9431056091AC027091AD0243E017
:103CD000CE0101960E94A11ABE016F5F7F4F8DEF4A
:103CE0009BE00E944005CE0101960E94991A81E056
:103CF0000E94310586E295E00E94C4188091FF067B
:103D0000909100078159924009F0ADC18091A102C4
:103D1000882309F4A6C181EA92E00E94840F0E94E0
:103D2000310580919B0290919C020E94901881E045
:103D30000E9431058AE295E00E94C41882E08093D7
:103D40007E0C82E380937F0C8091FF0690910007A8
:103D50008C5B9C4009F089C180E00E94310582E3C0
:103D600095E00E94C41881E00E94310581E18093B2
:103D70007E0C82E380937F0C8091FF069091000778
:103D80008058924009F075C180919002882309F40F
:103D90006EC180E992E00E94840F0E94310560911B
:103DA0008A0270918B0243E0CE0101960E94A11A13
:103DB000BE016F5F7F4F8DEF9BE00E944005CE01FB
:103DC00001960E94991A81E00E94310586E295E0F1
:103DD0000E94C4188091FF06909100078F56924070
:103DE00009F04BC180917F02882309F444C18FE719
:103DF00092E00E94840F0E943105609179027091D7
:103E00007A0243E0CE0101960E94A11ABE016F5FC3
:103E10007F4F8DEF9BE00E944005CE0101960E94EE
:103E2000991A81E00E94310586E295E00E94C4184B
:103E30008091FF06909100078E55924009F021C1B4
:103E400080916E02882309F41AC18EE692E00E94E6
:103E5000840F0E943105609168027091690243E00D
:103E6000CE0101960E94A11ABE016F5F7F4F8DEFB8
:103E70009BE00E944005CE0101960E94991A81E0C4
:103E80000E9431058DE480937E0C82E380937F0C49
:103E90008091FF06909100078D54924009F0F5C083
:103EA00080915D02882309F4EEC08DE592E00E94C6
:103EB000840F0E94310588E295E00E94C418609149
:103EC00057027091580242E0CE0101960E94A11A59
:103ED000BE016F5F7F4F8DEF9BE00E944005CE01DA
:103EE00001960E94991A81E00E94310581E6809333
:103EF0007E0C82E380937F0C8091FF0690910007F7
:103F00008C53924009F0C5C080914C02882309F47B
:103F1000BEC08CE492E00E94840F0E943105609143
:103F200046027091470243E0CE0101960E94A11A19
:103F3000BE016F5F7F4F8DEF9BE00E944005CE0179
:103F400001960E94991A81E00E94310586E295E06F
:103F50000E94C4188091FF06909100078B529240F6
:103F600009F09BC080913B02882309F494C08BE345
:103F700092E00E94840F0E94310580913502909159
:103F800036020E94901881E00E9431058AE295E095
:103F90000E94C41810927E0C8DE380937F0C0E94C7
:103FA000CA0F8C5F893008F080C0E82F880FFF0BA4
:103FB0008827E252F04E8F4F0C9454386D206A20BF
:103FC000672064204F2058205B205E20612081E024
:103FD00040CB80E05ECB81E05CCB80E088CB81E0B1
:103FE00086CB80E0B2CB81E0B0CB80E0DECB81E05D
:103FF000DCCB80E00ECC81E00CCC80E038CC81E0E2
:1040000036CC81E052CC80E070CC81E06ECC80E098
:104010009ACC81E098CC80E0C4CC81E0C2CC80E036
:10402000F0CC81E0EECC80E020CD81E01ECD80E0C0
:104030004ACD81E048CD81E064CD80E082CD81E051
:1040400080CD80E0ACCD81E0AACD80E0D6CD81E00E
:10405000D4CD80E002CE81E000CE80E032CE81E09F
:1040600030CE80E05CCE81E05ACE81E076CE80E03A
:1040700094CE81E092CE80E0BECE81E0BCCE80E0E6
:10408000E8CE81E0E6CE80E014CF81E012CF80E080
:1040900044CF81E042CF80E06ECF81E06CCF6FE310
:1040A00073E08DEF9BE00E944E050E94780DB1CA2F
:1040B0006EE273E0F6CF6DE173E0F3CF6CE073E096
:1040C000F0CF6BEF72E0EDCF6AEE72E0EACF6AED0F
:1040D00072E0E7CF6AEC72E0E4CF6AEB72E0E1CF26
:1040E00083E380937E0C88E080937F0C85E395E0EA
:1040F0000E94C41810927E0C8AE180937F0C8BE39F
:1041000095E00E94C4188091FF06909100078F5996
:104110009C4059F48091AF0C882309F4D4C08FEAF5
:104120009CE00E94840F0E9431058091A90C90911F
:10413000AA0C26E0289FB001299F700D112460551C
:10414000734F8DEF9BE00E94400581E00E94310596
:104150008BEC95E00E94C41810927E0C82E2809352
:104160007F0C87E495E00E94C4188BEC95E00E94D8
:10417000C4182091A90C3091AA0C8091FF0690914F
:104180000007232B09F0A3C0845D934059F480916C
:10419000E403882309F499C084EE93E00E94840F1D
:1041A0000E943105E091DE03F091DF03EE0FFF1F67
:1041B000EE0FFF1FEC52FC4F61897289838994894D
:1041C00020E432E44FE050E00E943238BA01A90105
:1041D0002AE08DEF9BE00E94C51781E00E94310527
:1041E00083E595E00E94C41810927E0C8AE28093C9
:1041F0007F0C89E595E00E94C41881E00E9431059A
:104200008BEC95E00E94C4188091FF069091000706
:104210008A589C4059F480919A0C882309F47BC0F9
:104220008AE99CE00E94840F0E9431050E948A1353
:10423000E0E4AE2EF2E4BF2EAFE0CA2ED12CE12C8A
:10424000F12C00E010E00E949838E22F2AE0BA0139
:104250004E2F532F8DEF9BE00E94C51781E00E94E7
:10426000310583E595E00E94C41810927E0C8FE31F
:1042700080937F0C8091FF069091000786519240B9
:1042800019F480E00E94310584E695E00E94C91887
:1042900081E00E94310587E680937E0C8FE3809356
:1042A0007F0C8091FF06909100078550924019F491
:1042B00080E00E94310589E695E00E94C91881E0FE
:1042C0000E943105F2CE80E02ECF80E069CF835C82
:1042D000934051F48091D3038823D9F083ED93E088
:1042E0000E94840F0E9431056091CD037091CE032E
:1042F00043E0CE0101960E94A11ABE016F5F7F4F7D
:104300008DEF9BE00E944005CE0101960E94991A14
:1043100064CF80E0E7CF80E087CF8F929F92AF920B
:10432000BF92CF92DF92EF92FF920F931F93CF93A2
:10433000DF93CDB7DEB7A9970FB6F894DEBF0FBEF7
:10434000CDBF8C01DC01ED91FC911197208112967B
:10435000ED91FC911397908114968C91282381E024
:1043600009F480E0F8012681220F220F822B25819B
:10437000922321E030E011F430E020E0220F331FDF
:10438000822BD80116968C9342E0BE016F5F7F4F5F
:1043900090E00E942F34BE016F5F7F4FCE014E969A
:1043A0000E94881A6EE675E0CE0184960E94881AF3
:1043B000CAA0DBA062E275E0CE0142960E94881A94
:1043C00088A599A5009739F128E030E07901EC182B
:1043D000FD088E159F0508F47C01ECA1FDA1EE0DF2
:1043E000FF1DD08010826CA17DA16115710509F4BB
:1043F00063C0FB0101900020E9F73197AF01461B34
:10440000570BCE0142960E94181A8CA19DA1E80E6E
:10441000F91EF701D082198E188E1B8E1A8E1D8EF2
:104420001C8EBE016E5E7F4FCE0148960E94711AAF
:10443000BE01625E7F4FCE0148960E94E519BC0125
:10444000CE014E960E94711ACE0148960E94991A8A
:10445000CE0142960E94991ABE01625E7F4F81E0B2
:1044600097E00E94400560E275E081E097E00E94DD
:10447000B617D80116968C918B3419F1873809F448
:1044800074C0CE0184960E94991ACE014E960E9465
:10449000991AA9960FB6F894DEBF0FBECDBFDF9173
:1044A000CF911F910F91FF90EF90DF90CF90BF9031
:1044B000AF909F908F900895CE0142960E94D3199D
:1044C000A4CFCC24C394D12C0E94F807F801838494
:1044D0009484A584B684DC01CB0188199909AA09C2
:1044E000BB098787908BA18BB28BF12CE12C873095
:1044F0009105A105B10538F40397A105B105C8F5EB
:104500009AE0E92EF12C0E94F807D8011B966D93D2
:104510007D938D939C931E972FEF3FEFBFEFCB16AC
:10452000DB0611F021E030E0C601DD0CAA0BBB0B6D
:10453000F8014781508561857285840F951FA61FFC
:10454000B71FE29EA001E39E500DF29E500D112474
:10455000052E000C660B770B840F951FA61FB71F47
:1045600087839087A187B2878CCFCC24CA94DC2C18
:10457000ABCF85E0E82EF12CC6CF8091AA079091B1
:10458000AB070C948D218091AC079091AD070C94F2
:104590008D218091AE079091AF070C948D21809171
:1045A000B0079091B1070C948D218091B207909142
:1045B000B3070C948D218091B4079091B5070C94AA
:1045C0008D2185ED8093BC008091810690918206BB
:1045D000A0918306B09184060796A11DB11D23E02A
:1045E000B695A795979587952A95D1F72091BC0008
:1045F00024FD03C01092CE0608954091810650918B
:1046000082066091830670918406452B462B472BCA
:1046100069F30097A105B10541F025E32A95F1F76B
:1046200000000197A109B109E1CF809180060C94A7
:104630004A08FC01A081B18150962C9182AD38E0EE
:10464000839FC0011124289FA001299F500D112490
:1046500070E060E080AD91AD0C945D3BFF920F93F4
:104660001F93CF93DF9369EA7CE090E080E00E94A3
:10467000F0186EED73E082E090E00E94F0186DECAF
:1046800073E086E090E00E94F01864E97CE088E046
:1046900090E00E94F01867E385E690E00E9467359D
:1046A00081E09CE00E94192381E00E9431050EE721
:1046B0001CE083E3F82EF801F082CFE7DCE088E02D
:1046C000888385E395E00E94C918F801F08288E2AA
:1046D000888387E795E00E94C4180E94780D68EEF1
:1046E00073E080E090E0DF91CF911F910F91FF90F8
:1046F0000C94C507CF92DF92EF92FF9285E690E08F
:104700000E945F35873309F4B9C01092AA0C109249
:10471000A90C81E090E09093DF038093DE0384EFA7
:1047200091E09093CE038093CD038CE090E0909342
:10473000950C8093940C0E942E238091940C909160
:10474000950C459734F00E94630F9093950C8093DD
:10475000940CE091DE03F091DF03EE0FFF1FEE0FEC
:10476000FF1FEC52FC4FC188D288E388F488A091E7
:10477000940CB091950CA70196010E9463386130AA
:104780007644834C934230F00E94630F9093950CD3
:104790008093940C8091940C9091950C049734F430
:1047A0000E94420F9093950C8093940CA091940CCE
:1047B000B091950CA70196010E9463386115744869
:1047C000874D974130F40E94420F9093950C80934F
:1047D000940C8AE89CE00E946E138091A90C909141
:1047E000AA0C892B09F063C0E091DE03F091DF038E
:1047F000EE0FFF1FEE0FFF1FEC52FC4F4189528955
:10480000638974898091940C9091950C0E94AE11EB
:104810008091A90C9091AA0C892B09F050C084EDCD
:1048200093E09093A20C8093A10C8AE89CE0909373
:104830001B0280931A020E948A13B901CA012093B5
:104840002702709328024093290290932A020E9423
:10485000643426E636E646EE5EE30E94A1340E940A
:104860006E3660932A0670932B0680932C069093E5
:104870002D06FF90EF90DF90CF90089569EA7CE0DD
:1048800090E080E00E94DC186EED73E082E090E042
:104890000E94DC186DEC73E086E090E00E94DC186A
:1048A00064E97CE088E090E00E94DC1846CF0E943A
:1048B0008A13BA01422F532F90E080E0A7CF83ECF8
:1048C00093E09093A20C8093A10CB1CFEF92FF9252
:1048D0000F93CF93DF9381E09CE00E941923CEE7F2
:1048E000DCE082E088838FE7E82E8CE0F82E89E018
:1048F000F701808360E573E08DEF9BE00E944E0539
:1049000000E020E840E060E081E09CE00E94080CCC
:1049100020E84BE060E081E09CE00E94080C01E0B0
:1049200024E340E06EE081E09CE00E94080C24E378
:1049300040E06AE481E09CE00E94080C24E340E04F
:104940006EE581E09CE00E94080C00E020E844E372
:1049500060E081E09CE00E94080C01E024E340E07C
:1049600060E081E09CE00E94080C24E340E06FE7F7
:1049700081E09CE00E94080C8DE3F701808388E5CC
:1049800088838DE795E00E94C418DF91CF910F9145
:10499000FF90EF900C94780D8FEE9CE090930007C1
:1049A0008093FF061092FD060E94662480E0089521
:1049B000682F70E0719561957109072E000C880BC6
:1049C000990B0E94663429E739E646E852E40E94D2
:1049D000903520E030E040EA51E40E94FC359B0134
:1049E000AC0160E070E080E291E40E949D360E949C
:1049F0006E36CB010895CF930E94CA0F811101C179
:104A0000409126065091270660912806709129064C
:104A100080E190E00E940F13809189030E94D824C6
:104A2000BC0180E190E00E94D312809178039091C4
:104A30007903CAE0C89FB001C99F700D112480910D
:104A4000670390916803680F791F90E080E00E94EF
:104A5000643420E030E041E655E40E94FC3520E07B
:104A600030E040E856E40E94A1340E946E3680E1B6
:104A700090E00E94FE124091220650912306609120
:104A800024067091250680E290E00E940F13809129
:104A900023030E94D824BC0180E290E00E94D3123C
:104AA0008091120390911303C89FB001C99F700DAC
:104AB00011248091010390910203680F791F90E007
:104AC00080E00E94643420E030E041E655E40E943A
:104AD000FC3520E030E040E856E40E94A1340E941A
:104AE0006E3680E290E00E94FE1240911E065091C8
:104AF0001F06609120067091210680E490E00E94DC
:104B00000F138091BD020E94D824BC0180E490E084
:104B10000E94D3128091AC029091AD02C89FB00167
:104B2000C99F700D112480919B0290919C02680F87
:104B3000791F683087E0780708F05DC0685F784FBC
:104B400090E080E00E94643420E030E041E655E4EB
:104B50000E94FC3520E030E040E856E40E94A13499
:104B60000E946E3680E490E00E94FE1240911A0688
:104B700050911B0660911C0670911D0680E890E024
:104B80000E940F13809157020E94D824BC0180E834
:104B900090E00E94D31280914602909147022AE051
:104BA000289FB001299F700D1124809135029091AA
:104BB0003602680F791F683087E07807F8F4685F7D
:104BC000784F90E080E00E94643420E030E041E6DD
:104BD00055E40E94FC3520E030E040E856E40E94B5
:104BE000A1340E946E3680E890E00E94FE1285E0BB
:104BF000CF910C942C0F68507740A2CF685077402B
:104C0000E0CFCF9108958091A90C9091AA0C892BA7
:104C1000F1F5E091DE03F091DF03EE0FFF1FEE0FE1
:104C2000FF1FEC52FC4F418952896389748980913E
:104C3000940C9091950C0E94AE110E948A13B901B8
:104C4000CA0120932702709328024093290290936F
:104C50002A020E94643426E636E646EE5EE30E94AF
:104C6000A1340E946E3660932A0670932B068093BF
:104C70002C0690932D060E94FB240E942E2385E093
:104C800092E0909300078093FF0680E008950E94D1
:104C90008A13BA01422F532F90E080E0CCCF1F92AD
:104CA0000F920FB60F9211240BB60F922F933F93D2
:104CB0004F935F936F937F938F939F93AF93BF9324
:104CC000EF93FF9381E097E00E94E605FF91EF915B
:104CD000BF91AF919F918F917F916F915F914F9114
:104CE0003F912F910F900BBE0F900FBE0F901F9012
:104CF00018951F920F920FB60F9211240BB60F92B8
:104D00002F938F939F93EF93FF93E0911107F0916F
:104D100012078081E0911707F091180782FD1DC0EE
:104D2000908180911A078F5F8F7320911B078217E4
:104D300041F0E0911A07F0E0EF5FF84F958F809314
:104D40001A07FF91EF919F918F912F910F900BBEBA
:104D50000F900FBE0F901F9018958081F2CF1F9279
:104D60000F920FB60F9211242F933F938F939F931F
:104D7000AF93BF938091F5069091F606A091F70648
:104D8000B091F8063091F40623E0230F2D3758F543
:104D90000196A11DB11D2093F4068093F506909312
:104DA000F606A093F706B093F8068091F906909165
:104DB000FA06A091FB06B091FC060196A11DB11D5B
:104DC0008093F9069093FA06A093FB06B093FC0635
:104DD000BF91AF919F918F913F912F910F900FBEF7
:104DE0000F901F90189526E8230F0296A11DB11D64
:104DF000D2CF1F920F920FB60F9211240BB60F92C3
:104E00002F933F934F935F936F937F938F939F93D2
:104E1000AF93BF93EF93FF93E0910704F0910804E1
:104E20001995FF91EF91BF91AF919F918F917F91D4
:104E30006F915F914F913F912F910F900BBE0F900B
:104E40000FBE0F901F9018951F920F920FB60F92E2
:104E500011240BB60F922F933F934F935F936F9351
:104E60007F938F939F93AF93BF93EF93FF93E091C3
:104E70000504F09106041995FF91EF91BF91AF9150
:104E80009F918F917F916F915F914F913F912F9162
:104E90000F900BBE0F900FBE0F901F9018951F9292
:104EA0000F920FB60F9211240BB60F922F933F93D0
:104EB0004F935F936F937F938F939F93AF93BF9322
:104EC000EF93FF93E091FB03F091FC031995FF91A1
:104ED000EF91BF91AF919F918F917F916F915F9172
:104EE0004F913F912F910F900BBE0F900FBE0F90DF
:104EF0001F9018951F920F920FB60F9211240BB6A8
:104F00000F922F933F934F935F936F937F938F9362
:104F10009F93AF93BF93EF93FF93E091F903F091C9
:104F2000FA031995FF91EF91BF91AF919F918F91E6
:104F30007F916F915F914F913F912F910F900BBE99
:104F40000F900FBE0F901F9018951F920F920FB6E3
:104F50000F9211240BB60F922F933F934F935F93B1
:104F60006F937F938F939F93AF93BF93EF93FF9331
:104F7000E0910304F09104041995FF91EF91BF9122
:104F8000AF919F918F917F916F915F914F913F91E1
:104F90002F910F900BBE0F900FBE0F901F90189582
:104FA0001F920F920FB60F9211240BB60F922F93F0
:104FB0003F934F935F936F937F938F939F93AF93A1
:104FC000BF93EF93FF93E0910104F09102041995D0
:104FD000FF91EF91BF91AF919F918F917F916F91D1
:104FE0005F914F913F912F910F900BBE0F900FBE8D
:104FF0000F901F9018951F920F920FB60F921124C9
:105000000BB60F922F933F934F935F936F937F93C2
:105010008F939F93AF93BF93EF93FF93E091FF0321
:10502000F09100041995FF91EF91BF91AF919F917D
:105030008F917F916F915F914F913F912F910F9041
:105040000BBE0F900FBE0F901F9018951F920F92DE
:105050000FB60F9211240BB60F922F933F934F93DD
:105060005F936F937F938F939F93AF93BF93EF93D0
:10507000FF93E091FD03F091FE031995FF91EF91ED
:10508000BF91AF919F918F917F916F915F914F9160
:105090003F912F910F900BBE0F900FBE0F901F905E
:1050A00018951F920F920FB60F9211240BB60F9204
:1050B0002F933F934F935F936F937F938F939F9320
:1050C000AF93BF93EF93FF938091B900887F8036B1
:1050D00009F44DC008F040C0883209F4A9C028F591
:1050E000803109F49DC0C8F4882309F4FBC08830DE
:1050F00009F496C0FF91EF91BF91AF919F918F916D
:105100007F916F915F914F913F912F910F900BBEC7
:105110000F900FBE0F901F901895883109F488C02A
:10512000803241F78093CD0614C0803409F49DC0CD
:1051300040F48033B9F38833E9F68093CD0685ECEB
:10514000B0C0803509F485C0883509F496C088342C
:1051500089F60E94E122CECF883909F48CC038F557
:10516000883729F050F4883611F0803719F683E03B
:105170008093CE061092CC0657C0883809F47BC0C5
:10518000803919F0803809F0B5CF8091CC06803293
:1051900008F071C0E091CC0681E08E0F8093CC06C0
:1051A0008091BB00F0E0E455F94F80833DC0803B27
:1051B00039F0E0F4803A09F479C0883A09F09ACFDE
:1051C00084E08093CE061092A9061092A806E09182
:1051D000A606F091A70619958091A80681110FC027
:1051E00081E08093A8061092860609C0803C09F4ED
:1051F000A6CF883C09F4A3CF883B09F07BCFE09190
:10520000A90681E08E0F8093A906F0E0EA57F94FD6
:1052100080818093BB009091A9068091A80629C047
:105220008091F3068093BB0085EC8093BC0062CF35
:105230009091F2068091F106981758F5E091F206E8
:1052400081E08E0F8093F206F0E0EF52F94F8081FB
:10525000E9CFE091F20681E08E0F8093F206809113
:10526000BB00F0E0EF52F94F80839091F2068091FD
:10527000F1069817C8F285E8D8CFE091F20681E0F0
:105280008E0F8093F2068091BB00F0E0EF52F94F51
:1052900080838091D00681115CCF81E08093CF061E
:1052A00084EA8093BC001092CE0624CF85EC8093D4
:1052B000BC001092CE068091CC06803230F4E09192
:1052C000CC06F0E0E455F94F10826091CC0670E016
:1052D000E091AA06F091AB068CEA96E0199510923F
:1052E000CC0608CF1092CD0634CFFC011382128277
:1052F00015821482178216821386128615861486EA
:1053000017861686108A83E694E091838083F1875E
:10531000E0870895CF93DF9310920407109203075C
:1053200088EE93E0A0E0B0E0809305079093060735
:10533000A0930707B09308072AED34E030930207E3
:105340002093010725EC30E030930E0720930D07E2
:1053500024EC30E03093100720930F0720EC30E06E
:10536000309312072093110721EC30E0309314079B
:105370002093130722EC30E0309316072093150793
:1053800026EC30E0309318072093170710921A0785
:1053900010921B0710921C0710921D071092A10774
:1053A0001092A0078093A2079093A307A093A4074D
:1053B000B093A5078CEE94E090939F0780939E078F
:1053C0008FEE9CE00E9475298EED9CE00E9475296D
:1053D0008DEC9CE00E9475298CEB9CE00E94752965
:1053E0001092A20C1092A10C1092A40C1092A30C7B
:1053F0001092A60C1092A50C1092A80C1092A70C5B
:105400001092AA0C1092A90C1092AC0C1092AB0C3A
:105410001092AE0C1092AD0C1092AF0C84E195E09E
:105420009093A00C80939F0C66E875E080EB9CE065
:105430000E94881A60E975E086EB9CE00E94881A59
:1054400010928D0C10928C0C10928F0C10928E0C6E
:105450001092910C1092900C1092930C1092920C4E
:105460001092950C1092940C1092970C1092960C2E
:105470001092990C1092980C10929A0C8AE095E078
:1054800090938B0C80938A0C10929B0C10929C0C26
:1054900010929D0C10929E0C84E99CE00E94F404F2
:1054A0008AE89CE00E946E131092800C1092810C8E
:1054B0001092820C1092830C80EF8093890CCFB7EE
:1054C000F8948091B60B811127C0EFE9F4E0849144
:1054D000E9E5F4E09491E82FF0E0EE0FFF1FE65FBE
:1054E000FB4FA591B491EC91E92321F461E085E3B0
:1054F0000E94360761E085E30E9464078CB58061F5
:105500008CBD8CB580648CBD61E084E30E9464072F
:1055100061E083E30E9464078091B60B8F5F809304
:10552000B60BCFBF60E08CE00E94360761E08CE0F4
:105530000E94640761E086E00E94360761E086E031
:105540000E94640760E085E00E94360761E085E024
:105550000E9464078CE00E942C0F8DE00E942C0FAB
:1055600085E00E942C0F1092890C60EF70E089E8B2
:105570009CE00E94BB1241E253E060E070E083E0F7
:105580000E94771270E060E089E89CE00E94BB1204
:1055900085E00E942C0F40E05AE562E672E08CE064
:1055A00090E00E94AE111092000C1092FF0B85E863
:1055B00094E090937D0C80937C0C10927E0C109262
:1055C0007F0C1092190C8EEF94E09093FE0B809359
:1055D000FD0B1092020C1092010C1092160C1092FE
:1055E0000D0C10920E0C10920F0C1092100C8FEFED
:1055F0008093170C80931B0CEFE1FCE085E39CE0AB
:10560000CFEFC1938E179F07E1F789EE99E0909352
:10561000060C8093050C8EED9AE09093080C809315
:10562000070C80E89DE090930A0C8093090C81ECB4
:105630009EE090930C0C80930B0C30E020E040E057
:1056400069E081E09CE00E94E90910924D0C109203
:105650004C0C8FE894E09093360C8093350C86EBDD
:1056600097E090933A0C8093390C88E080933B0C40
:1056700010923C0C1092590C1092790CD1E0D093FE
:105680007A0CD0937B0C8AE195E09093380C809350
:10569000370C81E09CE00E94340B1092480C109271
:1056A0004A0CC093490CC0934B0CE091370CF0911D
:1056B000380C0280F381E02D81E09CE0199582EFA7
:1056C00094E090934F0C80934E0C10925C0CC0931E
:1056D0002A0CC0932B0CC0932C0C82E08093F30B0C
:1056E0001092F40BD093F50BD093F60B1092F80BAD
:1056F0001092F70B1092E50B1092E40B1092E60B50
:105700001092F90B1092FA0B1092FB0B1092FC0BFB
:1057100084E190E0A0E0B0E08093E70B9093E80B89
:10572000A093E90BB093EA0B8AEF90E0A0E0B0E021
:105730008093EB0B9093EC0BA093ED0BB093EE0BDF
:1057400088EE93E0A0E0B0E08093EF0B9093F00B35
:10575000A093F10BB093F20B60E082E00E9464072B
:105760008091F40B811105C061E08091F30B0E94E0
:10577000360783E08093DA0B1092DB0B81E0809395
:10578000DC0B8093DD0B1092DF0B1092DE0B10927E
:10579000CC0B1092CB0B1092CD0B1092E00B109211
:1057A000E10B1092E20B1092E30B84E190E0A0E099
:1057B000B0E08093CE0B9093CF0BA093D00BB0931F
:1057C000D10B8AEF90E0A0E0B0E08093D20B9093F1
:1057D000D30BA093D40BB093D50B88EE93E0A0E04D
:1057E000B0E08093D60B9093D70BA093D80BB093D7
:1057F000D90B60E083E00E9464078091DB0B81118C
:1058000005C061E08091DA0B0E94360762E083E117
:105810000E94640762E082E10E946407EDE7F4E021
:10582000E491F0E0EE0FFF1FE051FC4FA591B49121
:10583000B093B80BA093B70BE7E3F4E04491409327
:10584000BB0BECE7F4E0E491F0E0EE0FFF1FE0515A
:10585000FC4FC591D491D093BA0BC093B90BE6E33A
:10586000F4E0E491E093BC0B1092BE0B1092BF0BDE
:105870001092C00B1092C10B2BE33FE1C9010197BD
:10588000F1F79C91842F892391E009F490E08881BD
:10589000E82309F0926027EB3BE09093BD0B309337
:1058A000B3072093B20785ED92E2909302048093B0
:1058B0000104809169008F7C806180936900EA9A7D
:1058C00081E08093CA0B3093B5072093B4078BED2A
:1058D00092E29093040480930304809169008F7393
:1058E000806480936900EB9A82E08093CA0BDF9119
:1058F000CF910895789484B5826084BD84B5816029
:1059000084BD85B5826085BD85B5816085BD80918A
:105910006E00816080936E00109281008091810002
:1059200082608093810080918100816080938100FA
:10593000809180008160809380008091B1008460BC
:105940008093B1008091B00081608093B00080911D
:10595000910082608093910080919100816080939A
:105960009100809190008160809390008091A100CF
:1059700082608093A1008091A10081608093A1004A
:105980008091A00081608093A000809121018260BD
:105990008093210180912101816080932101809178
:1059A000200181608093200180917A00846080933F
:1059B0007A0080917A00826080937A0080917A00E8
:1059C000816080937A0080917A00806880937A0069
:1059D0001092C100E0911107F091120782E08083DC
:1059E000E0910D07F0910E071082E0910F07F09102
:1059F000100780E1808310921907E0911507F0915C
:105A0000160786E08083E0911307F09114078081E8
:105A100080618083E0911307F09114078081886092
:105A20008083E0911307F091140780818068808360
:105A3000E0911307F091140780818F7D808367EDDB
:105A400073E081E097E00E944E0560E275E081E03E
:105A500097E00E94B6176FEC73E081E097E00E9438
:105A60004E0560E275E081E097E00E94B6176AECAF
:105A700073E081E097E00E944E0562E081E097E0EC
:105A80000E94111860E275E081E097E00E94B6176D
:105A900080E095E3ACE0B0E080930D0C90930E0CA9
:105AA000A0930F0CB093100CE091050CF091060C34
:105AB00030E020E040E06AE081E09CE019958091D0
:105AC0007B0C882321F081E09CE00E94192380E078
:105AD0000E941A0581E09CE00E941C0DC0913C0CC4
