:020000040000FA
:100000000C9448060C9489290C945E290C9433298D
:100010000C9408290C94DD280C94B2280C948728A1
:100020000C945C280C9479060C9479060C9479064F
:100030000C9479060C9479060C9479060C94790644
:100040000C9479060C9479060C9479060C94790634
:100050000C9479060C9479060C9479060C94122869
:100060000C9479060C94DE290C94B4290C9479062E
:100070000C9479060C9479060C9479060C94790604
:100080000C9479060C9479060C9479060C947906F4
:100090000C9479060C9479060C9479060C94142A25
:1000A0000C9479060C9479060C9479060C947906D4
:1000B0000C9479060C9479060C9479060C947906C4
:1000C0000C9479060C9479060C9479060C947906B4
:1000D0000C9479060C9479060C9479060C947906A4
:1000E0000C94790607634236B79BD8A71A3968562D
:1000F00018AEBAAB558C1D3CB7CC5763BD6DEDFD4A
:10010000753EF6177231BF000000803F0800000006
:10011000BE922449123EABAAAA2ABECDCCCC4C3EFC
:1001200000000080BEABAAAAAA3E00000000BF00EB
:100130000000803F0000000000084178D3BB4387E7
:10014000D1133D190E3CC3BD4282AD2B3E68EC82FB
:1001500076BED98FE1A93E4C80EFFFBE01C4FF7F80
:100160003F00000000000C9482090C9491170C943D
:10017000F10A0C946F070C94CD0A0C9470170C9430
:100180005F090C94F80A0C9472230C9433180C94A5
:10019000250B0C944D2B0C94A7170C943F0D0C942D
:1001A0006C230C9435180C9469230C941F170C9431
:1001B000C3170C94CE0A0C9466070C948B070C940E
:1001C000950D0C9431390C94890D0C9499070C946D
:1001D00081070C9419180C942E160C9478230C9407
:1001E00075230C94DB170C946F230C9402180C9459
:1001F00090090C9494070C94E8060C94A9170C949D
:1002000057130C943B170C9479070C94BA160C9462
:1002100022160C9453170C947D070C94C6270C944B
:1002200060230C9432090C9454070C942F180C94EE
:100230007B060C947B230C947E230C94741A0C94F0
:10024000CC0A0C945E070C945D180C9462070C9415
:10025000C8090C94150A0C94731A0C94DE0A0C94B9
:10026000FF080C9431180C94E10F0C9487070C9440
:1002700028160C948F260C94E8160C946E090C9496
:100280005A070C94AB170C948F070C9495070C9499
:1002900085060C944A0C0C9488080C9411130C9449
:1002A00069070C94FF0D0C94F8170C9473070C94C9
:1002B000CF0A0C9416170C947A176364696E6F70EA
:1002C000737578585B00463320546F6F204C4F573E
:1002D000204672657100463220546F6F204C4F5794
:1002E000204672657100463120546F6F204C4F5785
:1002F000204672657100463020546F6F204C4F5776
:1003000020467265712000463320546F6F204849A3
:100310004748204672657100463220546F6F20486E
:10032000494748204672657100463120546F6F205E
:1003300048494748204672657100463020546F6F27
:10034000204849474820467265710020202020201F
:10035000202020202020202020202000436820462C
:100360007265712E20487A2020202064426D205032
:10037000686173657D0053572076004857207631B9
:100380002E310044445320414439393539206279B3
:10039000204752412026204146434800556E6B6E4F
:1003A0006F776E20636F6D6D616E643A004320E27B
:1003B000809420536574207468652063757272653B
:1003C0006E74206F7574707574204368616E6E650D
:1003D0006C3A20283020E280942033290A4620E21B
:1003E00080942053657473204672657175656E63E1
:1003F0007920696E20487A20283130303030302022
:10040000E2809420323235303030303030290A41A9
:1004100020E2809420536574732074686520706FA7
:100420007765722028416D706C6974756465292048
:100430006C6576656C206F66207468652073656CEA
:100440006563746564206368616E6E656C20696EB7
:100450002064426D20282D363020E28094202D37F4
:10046000290A5020E28094205365747320746865D3
:10047000205068617365206F66207468652073651D
:100480006C6563746564206368616E6E656C206979
:100490006E2064426D20283020E280942033363074
:1004A000290A4D20E280942047657473204D6F64C3
:1004B000656C0A5620E28094204765747320466973
:1004C000726D776172652056657273696F6E0A6826
:1004D00020E2809420546869732048656C700A3B60
:1004E00020E2809420436F6D6D616E6473205365CC
:1004F00070617261746F720A4578616D706C653AF3
:100500000A43303B463130303030303B412D3130C2
:100510000A53657473207468652046726571756549
:100520006E637920746F20313030206B487A2C2034
:10053000616E64204F757470757420506F776572AA
:100540002028416D706C69747564652920746F2072
:100550002D31302064426D206F6E204368616E6ED5
:10056000656C203020285246204F555430292E0AE1
:10057000416E79206E756D626572206F6620636FC3
:100580006D6D616E647320696E20616E79206F728B
:1005900064657220697320616C6C6F7765642C20D0
:1005A0006275742074686520766572792066697258
:1005B000737420636F6D6D616E64206D757374204C
:1005C0006265202243222E004444533939353920B4
:1005D00076312E31002069732073657420746F3A70
:1005E0002000546865205068617365206F66204361
:1005F00068616E6E656C2000546865206F7574705C
:100600007574204368616E6E656C206973206E6F2F
:10061000742073656C65637465642120557365206F
:1006200022432220636F6D6D616E6420746F2073AE
:10063000656C65637420746865204368616E6E65DF
:100640006C2E002069732073657420746F3A20004B
:1006500054686520506F7765722028416D706C6911
:100660007475646529206F66204368616E6E656CE1
:100670002000546865206F7574707574204368613C
:100680006E6E656C206973206E6F742073656C6587
:100690006374656421205573652022432220636FB3
:1006A0006D6D616E6420746F2073656C656374207A
:1006B000746865204368616E6E656C2E00206973F6
:1006C0002073657420746F3A200054686520467268
:1006D000657175656E6379206F66204368616E6E23
:1006E000656C2000546865206F75747075742043C4
:1006F00068616E6E656C206973206E6F742073651F
:100700006C65637465642120557365202243222043
:10071000636F6D6D616E6420746F2073656C6563CB
:100720007420746865204368616E6E656C2E005499
:100730006865204368616E6E656C206E756D6265DC
:1007400072206973204F5554204F462052414E4726
:100750004520283020E28094203329005468652009
:100760004368616E6E656C206E756D62657220699E
:10077000732073657420746F3A20000000220025F6
:100780000028002B002E003100340002010000057B
:100790000108010B0100000A0B02090C0D0E0807ED
:1007A0000304010000000000000000000000000041
:1007B0000000000000000000000000000000000039
:1007C00000121110000000000000000000000000F6
:1007D00000000000000000000000000000200023D6
:1007E00000260029002C002F003200000100000329
:1007F000010601090100002100240027002A002D24
:10080000003000330001010000040107010A01016A
:100810000210202008081020401020408002010211
:1008200001080402010102040810204080804020D9
:100830001008040201800402018040201008040214
:100840000108040201010204081020408001020492
:10085000081020408005050505070508080808025E
:100860000202020A0A080804040404010101010149
:100870000101010303030303030303040707070C38
:100880000C0C0C0C0C0C0C020202020606060606EE
:100890000606060B0B0B0B0B0B0B0B610203020383
:1008A00004010104050800FF06FF06000146029648
:1008B00003D32006C5FABC022109C5FA40D80EE5CB
:1008C00000220AC5DA49944449CE00230DC53AA551
:1008D000241994CAA0949218240BC55AD952DB92B9
:1008E00064CB01250AC5DA619255C21C04260DC5E8
:1008F0003A59122559254AB224062708C5FA405804
:1009000067012809C5FA4016B6E6002909C5DA6963
:10091000D89623002A0BC5FA581449432495012B75
:100920000AC5FA68180D5298032C07C5FACC5A0D5F
:100930002D08C5FAE42127012E07C5FAAC9A0E2F1F
:100940000AC5FA489835E61000300DC5FA409644BD
:100950004994444996033109C5FA4026B6CD003280
:100960000AC5DA523192C22106330BC5BA4396A9A1
:100970004914E900340CC5FA402625D19085390088
:10098000350BC5BA4312AE4914E900360AC5DA522E
:100990003855A24807370BC5BA43988559982300A4
:1009A000380AC5DA5249AA44910E390AC5DA5225E5
:1009B0008AC648073A09C5FAA0A6239A0E3B09C57C
:1009C000FAA8A6235A0D3C09C5FA48564CCB003D5F
:1009D00009C5FA94211E72103E09C5DA6931AB23AC
:1009E000003F0BC5FA409684590EE500400CC55AED
:1009F00052242D8992485505410CC5DA52254A8664
:100A0000244AA218420AC5BA5365AA44C90E430A29
:100A1000C5DA52252C453A00440CC5BA53254AA2E2
:100A2000244A7600450BC5BA43124E6138C40046CD
:100A30000AC5BA43124E611D02470BC5DA52254C56
:100A40009428D201480EC5BA5112254312255112DD
:100A5000C5004908C5DA5BD836034A0AC5DA5B58CF
:100A60004AB21C014B0CC5BA5152D2922889CA0015
:100A70004C08C5BA61C721064D0EC5BA5132244390
:100A800012255112C5004E0EC5BA51A22443922818
:100A90008912C5004F0CC5DA52254AA2248A740077
:100AA000500BC5BA53254AA6308700510CC5DA52FF
:100AB000254A948AA42600520BC5BA53254AA64A51
:100AC00014035309C5DA526B54D2015407C5DA5BDB
:100AD000D81D550DC5BA51122551122551A40356E2
:100AE0000CC5BA5112255112459A0E570EC5BA516E
:100AF00012255132244312C500580CC5BA51124573
:100B00009A54896200590AC5BA9996D4C23A005AD1
:100B10000AC5BA4398350E31005B08C5DA53D83898
:100B2000035C08C5BA61DA18035D07C5DA63A71963
:100B30005E09C5FA4096E4AC005F08C5FA3C0C09B2
:100B4000006007C5DA69CE0C610AC5FAA4254AA27D
:100B50006806620AC5BA613855A264076309C5FA16
:100B600034294C6500640CC5FA48182D51124533E0
:100B7000006509C5FA242931EA00660CC5FA4096D9
:100B800044D916E60800670AC5FA24A934461200BB
:100B9000680BC5BA613855A2248A016909C5FA40B3
:100BA0008E88B5196A0BC5FA480E85A5248B006B93
:100BB0000AC5BA6129992A510C6C07C5DA62B719BE
:100BC0006D0BC5FA14A54549942A006E0AC5FA941E
:100BD000A91225510C6F0AC5FA24A912453A0070D2
:100BE0000AC5FA94A932852100710AC5FAA4258A9A
:100BF000C60A00720AC5FA949252CC21007309C544
:100C0000FA34498D7400740AC5DA61B685499603D1
:100C1000750BC5FA94288992289A01760BC5FAA417
:100C2000244AA224CB01770AC5FA944C4994CE00F9
:100C3000780AC5FA9428D2A43200790CC5FA94280F
:100C400089A2258A24007A0AC5FA9421AB0D3100C5
:100C50007B0AC53A52258A7416007C08C5FA40D82A
:100C60003B007D0DC5FA80525112A5B28511007E60
:100C700008C5DA493B33007F06C5FABC028006C5C9
:100C8000FABC0200000004FFFF0000004D2B3139C8
:100C900011241FBECFEFD1E2DEBFCDBF00E00CBFFD
:100CA0002DE0A4E4B6E001C01D92A63EB207E1F734
:100CB00016E0A0E0B2E0EAE5F8E800E00BBF02C011
:100CC00007900D92A434B107D9F716E0C7E4D6E037
:100CD00000E006C021970109802FFE010E94C03D5F
:100CE000C634D10780E00807A9F70E945A2E0C9459
:100CF0001B440C940000662329F06A3019F0862FFB
:100D000090E008958FEF9FEF0895CF92DF92EF92DA
:100D1000FF920F931F93CF93DF93EC01842F877083
:100D2000E1E0F0E0082E01C0EE0F0A94EAF73E2F52
:100D30007E0199E7E90EF11CD7019C9110E09230F9
:100D400018F41E2F913029F150E0487FE8ADF9AD3D
:100D5000C880D980D60150969C91949F6001959F40
:100D6000D00C11246C0D7D2D711DDF01A60FB71F56
:100D7000011115C08C91812B83278D932150D1F7C0
:100D8000DF91CF911F910F91FF90EF90DF90CF9067
:100D9000089530E0D9CF110F330F222389F39C91AE
:100DA000912B93279C938F5F877021508111F3CFF4
:100DB0009CADA90FB11DF7019081923028F49130BC
:100DC00009F031E011E0E9CF31E0E7CF80E00895AC
:100DD00080E00895CF93DF93EC01E091E003F09180
:100DE000E103EE0FFF1FEE0FFF1FEA52FC4F2189B8
:100DF00032894389548960E075E68DEC9DE10E945B
:100E0000D23A2531310510F024E130E024303105AB
:100E100010F424E030E039832883DF91CF910895E6
:100E2000CF93DF93C8ECDBE08FAFEAADFBAD019071
:100E3000F081E02D8CEC9BE01995EAADFBAD0280D2
:100E4000F381E02D8CEC9BE0DF91CF9119948330FE
:100E500018F48093450C089581E0FBCF9B01DC01E1
:100E60001896ED91FC9141E067E11994815082312F
:100E700008F05AC0E82FF0E08827EE5BF84F8F4F5C
:100E80000C94C03D6207660754075A075E07940733
:100E900069076F07730779077D07810787078B0746
:100EA00094078F0795079907809180008F7780932B
:100EB00080000895809180008F7DF9CF809180001F
:100EC000877FF5CF84B58F7784BD089584B58F7DF6
:100ED000FBCF8091B0008F778093B0000895809110
:100EE000B0008F7DF9CF809190008F778093900034
:100EF0000895809190008F7DF9CF80919000877F39
:100F0000F5CF8091A0008F778093A0000895809105
:100F1000A0008F7DF9CF8091A000877FF5CF8091D1
:100F200020018F77809320010895809120018F7D8B
:100F3000F9CF80912001877FF5CFCF93DF93282FC2
:100F400030E0F901EB56F84F8491F901E15FF74F7A
:100F5000D491F901EB5AF74FC491CC23A1F0811140
:100F60000E943607EC2FF0E0EE0FFF1FE552F84F1E
:100F7000A591B491EC91ED2381E090E009F480E03B
:100F8000DF91CF91089580E090E0FACF1F93CF9347
:100F9000DF93282F30E0F901EB56F84F8491F901E7
:100FA000E15FF74FD491F901EB5AF74FC491CC238D
:100FB000A9F0162F81110E943607EC2FF0E0EE0FFA
:100FC000FF1FE558F84FA591B4918FB7F894EC91B5
:100FD000111108C0D095DE23DC938FBFDF91CF9134
:100FE0001F910895DE2BF8CFCF93DF9390E0FC01A3
:100FF000E15FF74F24918B5A974FFC01849188232E
:10100000C9F090E0880F991FFC01EB50F84FA591B3
:10101000B491FC01E558F84FC591D49161110DC010
:101020009FB7F8948C91209582238C9388812823F4
:1010300028839FBFDF91CF910895623051F49FB70D
:10104000F8943C91822F809583238C93E8812E2BFA
:10105000EFCF8FB7F894EC912E2B2C938FBFEACF64
:101060003FB7F8948091650790916607A091670754
:10107000B091680726B5A89B05C02F3F19F00196CF
:10108000A11DB11D3FBFBA2FA92F982F8827BC01E2
:10109000CD01620F711D811D911D42E0660F771F0A
:1010A000881F991F4A95D1F708958F929F92AF920A
:1010B000BF92CF92DF92EF92FF926B017C010E9470
:1010C00030084B015C01C114D104E104F104B9F012
:1010D0000E943008681979098A099B09683E7340A3
:1010E0008105910580F321E0C21AD108E108F108D9
:1010F00088EE880E83E0981EA11CB11CE4CFFF90FF
:10110000EF90DF90CF90BF90AF909F908F90089519
:101110000F931F93CF93DF938C01C62F642FCC3294
:10112000E8F4CA3208F041C0C83271F1C93209F49A
:1011300042C080E0C034D0F1CF73F801EC0FF11D54
:10114000868D8F3F91F1C031E0F00E949D0721E034
:10115000892B09F420E0F801218F27C0CD3289F1D5
:1011600040F384EB8C0F823020F7CF73C00FD12F68
:10117000D11D8E8D411133C061E00E94F40760E003
:101180008E8D0E94C60711C0025E1F4FD0E0F8018D
:1011900081918F018F3F31F061E0D03108F062E042
:1011A0000E94F407DF5FD63191F781E0DF91CF91A4
:1011B0001F910F91089570E090E080E00E94550823
:1011C000F4CF85E090E0433010F082E090E0880FAB
:1011D000991F880F991F05970197F1F7E6CF62E0F5
:1011E0000E94F407E2CF2FB7F894609161077091E5
:1011F000620780916307909164072FBF0895089557
:10120000DB0114964D915C9115976D917C91DC01F9
:10121000ED91FC910280F381E02D1994EF92FF9201
:101220000F931F93CF93DF938C017B01D0E0C0E03D
:10123000F701EC0FFD1F6491662361F0D801ED9179
:10124000FC910190F081E02DC8011995892B11F0D6
:101250002196EECFCE01DF91CF911F910F91FF909C
:10126000EF900895AF92BF92CF92DF92EF92FF92EC
:101270000F931F93CF93DF936C017B018B01040FBE
:10128000151FEB015E01AE18BF08C017D10759F05A
:101290006991D601ED91FC910190F081E02DC6019C
:1012A0001995892B79F7C501DF91CF911F910F9186
:1012B000FF90EF90DF90CF90BF90AF900895FC012A
:1012C000538D448D252F30E0842F90E0821B930BAB
:1012D000541710F0CF96089501970895FC01918D51
:1012E000828D981761F0A28DAE0FBF2FB11D5D9654
:1012F0008C91928D9F5F9F73928F90E008958FEFF6
:101300009FEF0895FC01918D828D981731F0828DA9
:10131000E80FF11D858D90E008958FEF9FEF089500
:10132000FC01918D228D892F90E0805C9F4F821B64
:1013300091098F739927089585E59CE00E94900993
:1013400021E0892B09F420E0822F0895FC01A48D6F
:10135000A80FB92FB11DA35ABF4F2C91848D90E0D7
:1013600001968F739927848FA689B7892C93A089BA
:10137000B1898C91837080648C93938D848D981344
:1013800006C00288F389E02D80818F7D80830895D7
:10139000EF92FF920F931F93CF93DF93EC0181E0C5
:1013A000888F9B8D8C8D98131AC0E889F98980816C
:1013B00085FF15C09FB7F894EE89FF896083E8899F
:1013C000F98980818370806480839FBF81E090E091
:1013D000DF91CF911F910F91FF90EF900895F62E1E
:1013E0000B8D10E00F5F1F4F0F731127E02E8C8DB8
:1013F0008E110CC00FB607FCFACFE889F9898081FD
:1014000085FFF5CFCE010E94A609F1CFEB8DEC0F41
:10141000FD2FF11DE35AFF4FF0829FB7F8940B8F19
:10142000EA89FB8980818062CFCFCF93DF93EC0183
:10143000888D8823B9F0AA89BB89E889F9898C91BC
:1014400085FD03C0808186FD0DC00FB607FCF7CF78
:101450008C9185FFF2CF808185FFEDCFCE010E9478
:10146000A609E9CFDF91CF91089580E090E0892B24
:1014700029F00E949C0981110E94000080E090E008
:10148000892B49F080E090E0892B29F00E94000030
:1014900081110E94000080E090E0892B49F080E0FB
:1014A00090E0892B29F00E94000081110E94000029
:1014B00080E090E0892B49F080E090E0892B29F0D2
:1014C0000E94000081110C940000089520910807EB
:1014D000260F3327331F21323105ECF420912E07DC
:1014E000FC0190E080E0243069F082E00895A09152
:1014F00008072191AC014A51594FA40FB52FB11DD6
:101500002C930196861798F380910807680F6093D3
:10151000080780E0089581E0089510922E0781E089
:101520008093300710922F0761E084E10E94C60784
:1015300061E085E10E94C607E9EBF0E080818E7FE3
:10154000808380818D7F808388E48093B80085E4E8
:101550008093BC000895CF93DF9391E09093E506CC
:101560008823B9F0C091B800D091BA008091BC0036
:101570008A7B8093BC0060E084E10E94C60760E043
:1015800085E10E94C6070E948D0AD093BA00C093DD
:10159000B800DF91CF910895089508950895E091DE
:1015A000DD068091DC06E81730F4F0E0E454F94FF2
:1015B000808190E008958FEF9FEF08959091DD0670
:1015C0008091DC062FEF3FEF981748F4E92FF0E009
:1015D000E454F94F208130E09F5F9093DD06C9010C
:1015E00008958091DC069091DD06891B990B089582
:1015F000CF92DF92EF92FF920F931F93CF93DF93DF
:101600007C01CB018A012091BB06222389F0EB01EA
:101610006B01C40ED51ECC15DD0569F06991D701AB
:10162000ED91FC910190F081E02DC7011995F3CF68
:10163000642F0E94660AC801DF91CF911F910F911C
:10164000FF90EF90DF90CF900895CF93DF931F929C
:10165000CDB7DEB769832091BB062223F9F0209134
:10166000DE06203258F021E030E0FC013383228393
:1016700090E080E00F90DF91CF9108958091DF0698
:10168000E82FF0E0E556F94F998190838F5F8093C2
:10169000DF068093DE0681E090E0ECCF61E0CE01D2
:1016A00001960E94660AF7CFCF92DF92EF92FF92E7
:1016B000CF93DF93EC010E94F3086B017C018F85CF
:1016C0000E949D079C0181E02115310509F480E00D
:1016D000898B8889811105C091E0232B09F090E066
:1016E000998B29898A89281721F0CD8ADE8AEF8A89
:1016F000F88E8D899E89AF89B88DB701A601481BE8
:10170000590B6A0B7B0BDB01CA01CB80DC80ED80BF
:10171000FE80C816D906EA06FB0664F43A81231750
:1017200049F02A83222349F04B895C894F5F5F4F40
:101730005C8B4B8B3A81311117C0CF80D884E98400
:10174000FA84C816D906EA06FB0634F48B899C890C
:10175000998388831C8A1B8A2A8BDF91CF91FF9003
:10176000EF90DF90CF900895CB84DC84ED84FE84ED
:10177000C816D906EA06FB067CF78B899C899195E9
:1017800081959109E5CFDC011A96ED91FC9130E04D
:1017900020E01994DC011496ED91FC9130E020E0FA
:1017A00040E060E11994DC011696ED91FC9130E087
:1017B00020E040E069E11994DC011696ED91FC917E
:1017C00030E020E040E068E119949A01DC011696CF
:1017D000ED91FC91462F67E11994EF92FF920F93E0
:1017E0001F93CF93DF931F92CDB7DEB77C018B01A0
:1017F000D8016C91673129F150F46531A0F40F9054
:10180000DF91CF911F910F91FF90EF9008956A3172
:1018100018F16E3FA1F7F8014181498369E2C701E0
:101820000E94C30B0BC0F80141814983D701169672
:10183000ED91FC9130E020E0C70119950E5F1F4F3C
:10184000D7CFF80181818983AE014F5F5F4F61E09F
:10185000C7010E94E50BF2CF0F5F1F4FD70116960D
:10186000ED91FC9130E020E040E0C7011995C0CF38
:10187000462FDC011696ED91FC9130E020E066E108
:101880001994462FDC011696ED91FC9130E020E092
:1018900065E11994EF92FF920F931F93CF93DF931B
:1018A000EC01042F79016D3009F446C050F46B301F
:1018B000C9F1693009F49FC06A3009F465C080E05D
:1018C0005CC06E3009F44BC06F3099F70E94DC0B9E
:1018D000F7011381110F110F110F6C89160F60E4BE
:1018E000CE010E94410C612F62956F706061CE0144
:1018F0000E94410C612F6F70CE010E94380CF701DD
:101900006481606BCE010E94380CF70140815181E7
:101910006281660F660F660FCE010E94E50B0150D3
:10192000A1F727C066E874E0442311F061E874E091
:10193000CE010E94ED0B20C0411109C06AE774E09E
:101940000E94ED0BE881F98182898C8B15C063E7D9
:1019500074E00E94ED0BE881F9818389F6CF0E9443
:10196000DC0B61E8CE010E94410C602FCE010E9489
:10197000380CCE010E94D30B81E0DF91CF911F91F3
:101980000F91FF90EF900895EA85FB8530E020E00D
:1019900040E068E2CE011995EE81FF8130E020E061
:1019A00040E064E1CE01199541E06BE4CE010E9474
:1019B000C30BE881F981448169E2CE010E94C30B27
:1019C00040E06BE4CE010E94C30BE881F9814481C1
:1019D00069E2CE010E94C30B41E06BE4CE010E949C
:1019E000C30BE881F981458169E2CE010E94C30BF6
:1019F0006BE874E09DCF80EC94E09983888382E06B
:101A0000A4CFDC011896ED91FC9130E020E040E09D
:101A100069E11994DC011896ED91FC9130E020E029
:101A200040E068E11994CF93DF931F92CDB7DEB702
:101A30006983BE016F5F7F4F0E942E070F90DF9179
:101A4000CF910895EF92FF921F93CF93DF93EC0114
:101A5000162F7A010E940A0D60E4CE010E94130D38
:101A6000E885F9859701412F67E1CE011995CE01EF
:101A7000DF91CF911F91FF90EF900C94010DEF92A9
:101A8000FF921F93CF93DF93EC01142F79016731FD
:101A900030F4653178F4643159F180E005C0673184
:101AA000F9F06A31D0F781E0DF91CF911F91FF907B
:101AB000EF9008950E940A0D60E0CE010E94130D80
:101AC000612FCE010E94130DCE010E94010DEBCFBC
:101AD00068E1CE010E94220D185188E1E80EF11C48
:101AE000A7011931A8F7612FCE010E94220DDBCF8B
:101AF0008E898F3F11F488E78E8BE885F9859701F1
:101B0000412F64E1CE01DF91CF911F91FF90EF90C3
:101B100019940F93DC01DE963C91DE97431BD4961B
:101B2000ED91FC9119950F910895CF93DF93FC01EE
:101B3000A081B18182AD982F990F990F990F95AF20
:101B400050969C915097903208F09FE1990F990F11
:101B5000990F94AF23AD922F990F990F990F96AFCC
:101B600051963C915197682F620F7727771F361750
:101B7000170614F4832F821B97AFEF01C05CDF4F71
:101B8000880F880F880F890F8883219680EF8883BC
:101B900054968D919C915597813F910508F48883C7
:101BA000EE5BFF4F56968C918083DF91CF91089525
:101BB0000F93FC01EB5BFF4F30813196508145174D
:101BC00030F4301738F0041728F080E013C03017D5
:101BD000D0F3FBCFFC01ED5BFF4F30818C5B9F4F5F
:101BE000FC018081681740F481E0321718F081E031
:101BF000261758F70F9108953217C8F3E6CF2F92A2
:101C00003F924F925F926F927F928F929F92AF928C
:101C1000BF92CF92DF92EF92FF920F931F93CF93D9
:101C2000DF93EC014C0183E4880E911CF4011082D7
:101C3000329720805E01F4E4AF0EB11CF5012082E2
:101C40003FAC6E01F5E4CF0ED11CF6013082359722
:101C500040807E01F6E4EF0EF11CF70140823496DD
:101C60001081329760803196708032975080012FBA
:101C7000262D472D652DCE010E94D80DCD58DF4F62
:101C8000811114C01882DF91CF911F910F91FF90A5
:101C9000EF90DF90CF90BF90AF909F908F907F900C
:101CA0006F905F904F903F902F90089581E08883D0
:101CB000552011F0F4015082621410F4F501608295
:101CC000371410F4F60170821415E8F6F70110834A
:101CD000DACF0F93DC01802FFD01ED58FF4F90818B
:101CE0009923E9F12223D9F1223020F0023079F54D
:101CF0006F5F621B082F0170FD0180FD32C0EB5B3E
:101D0000FF4F8081481758F131968081481738F588
:101D10003297908131978081260F2617F0F469174A
:101D2000D8F42FEF290F8217D0F4681708F4682F22
:101D3000291708F4922F961BD696ED91FC91D79710
:101D40000480F581E02D292FCD01199508C00330BD
:101D500089F64F5F421BCECF682F691720F30F9192
:101D60000895ED5BFF4F80816817C8F3319680813D
:101D70006817A8F73296908131978081240F241735
:101D800078F4491760F42FEF290F821740F74817AE
:101D900008F4482F291708F4922F941BCDCF482F11
:101DA0004917E8F6F2CF213039F020F0223031F037
:101DB000840F0895860F0895841B0895861B089547
:101DC000213039F020F0223031F0861B0895840F45
:101DD0000895860F0895841B08955F926F927F92F5
:101DE0008F929F92AF92BF92CF92DF92EF92FF922B
:101DF0000F931F93CF93DF935C01162F642EEC019A
:101E0000C15BDF4FDC80ED804C0189E7880E911CBF
:101E1000FE80FD18C12EF11608F4CF2C5B800C85D6
:101E2000202F4E2D6D2D8A810E94D30E782E202FCB
:101E30004E2D6D2D852D0E94E00E482F662071F0ED
:101E40008A85F40180832C2D672DC5010E94690EBF
:101E50001F1548F01F19E394D12CDACF8985811121
:101E6000F7CF8B85EECF1D0D1C83ED82DF91CF91D7
:101E70001F910F91FF90EF90DF90CF90BF90AF90A8
:101E80009F908F907F906F905F900895DC011896DF
:101E90004C911897ED91FC911197249130E0042E0C
:101EA00002C0359527950A94E2F7842F860F883073
:101EB00068F031961196FC93EE93E49198E0941BB0
:101EC00001C0EE0F9A95EAF72E2B885018968C9346
:101ED0008FEF9FEF01C0880F6A95EAF78095822304
:101EE0000895FC01E60FF11D849190E0982F88275A
:101EF0003196E4918E0F911D0895AF92BF92CF92CB
:101F0000DF92EF92FF920F931F93CF93DF9300D056
:101F10001F921F92CDB7DEB78C01DC01DA96AC9030
:101F2000DA97DB96EC90DB97ED91FC91B188FE2C73
:101F3000D12CC12CD801ED91FC9111978089D896B4
:101F40002D913C911C82FD828B83B8E08B9FC00158
:101F500011248C9DA0018D9D500D9C9D500D112430
:101F6000240F351F3A832983D8011496ED91FC91F3
:101F70009E012F5F3F4F41E06FE0C8011995F39438
:101F80008F2D8E198A1528F4BFEFCB1ADB0AFB14AC
:101F900088F20F900F900F900F900F90DF91CF91DC
:101FA0001F910F91FF90EF90DF90CF90BF90AF9077
:101FB00008958CEC9BE00E947D0F8CEC9BE00C94D0
:101FC000CA0BCF92DF92EF92FF920F931F93CF93A2
:101FD000DF93EC01962F683109F44BC0B9019931B8
:101FE00030F49431C9F0973189F080E006C099311E
:101FF00009F461C09032C9F781E0DF91CF911F9160
:102000000F91FF90EF90DF90CF90089550E089E618
:1020100097E00E94F80AF0CF8C859D85AE85BF853C
:10202000892B8A2B8B2B71F4E881F981A585B0E08F
:1020300020EA36E841E050E00E94F43A6C877D8760
:102040008E879F871092DD061092DC061092DF06C5
:102050001092DE060E948D0A8CEC9AE0909307079E
:10206000809306078DEC9AE090930B0780930A0704
:10207000C3CF2C853D854E855F8560E074E284EF9B
:1020800090E00E94D23A20513109410951095695F8
:102090004795379527952093B8008E8990E09595C0
:1020A000879591E09093BB0680939A061092DF0685
:1020B0001092DE06A1CFD091DE06D13208F093C097
:1020C000C0919A060E9430086B017C0180912E0716
:1020D000811164C082E080932E0781E080933007F5
:1020E0008FEF80932D0710925207D0935107ABE9E1
:1020F000B6E0E1E3F7E080E0D8137CC0109253072C
:1021000080915307CC0FC82BC093530780912F07A2
:10211000813009F073C010922F070E9430086B01C4
:102120007C01809153078093BB008091E1069091E0
:10213000E206A091E306B091E406892B8A2B8B2B53
:1021400099F00E9430080091E1061091E20620917A
:10215000E3063091E4066C197D098E099F09061784
:10216000170728073907D8F18091BC0083FDD9CF24
:1021700085EC8093BC000E9430086B017C0180914B
:102180002E078230E9F180912D078F3F61F1809118
:102190002D07803241F180912D0725C08091E10605
:1021A0009091E206A091E306B091E406892B8A2B78
:1021B0008B2B09F48BCF0E9430080091E10610911F
:1021C000E2062091E3063091E4066C197D098E0940
:1021D0009F09061717072807390708F077CF80915E
:1021E000E0060E94AB0A1092DF061092DE06109203
:1021F000BB0602CF9D9191938F5F7ECF85EEB9CFC5
:102200008091E1069091E206A091E306B091E40688
:10221000892B8A2B8B2B09F4B2CF0E9430080091B6
:10222000E1061091E2062091E3063091E4066C1974
:102230007D098E099F09061717072807390708F037
:102240009ECFCDCFCF93C82F61E00E94C60760E03C
:102250008C2FCF910C94C6078DE58CBD81E08DBD90
:1022600060E086E00C94C60761E086E00C94C60747
:10227000E091E003F091E103EE0FFF1FEE0FFF1F6F
:10228000EA52FC4F218932894389548960E076E41F
:1022900083EC93E20E94D23ACA01B9010E94B1399B
:1022A0000E94ED3BCB016531710510F084E190E0B7
:1022B0000895E091E003F091E103EE0FFF1FEE0FB0
:1022C000FF1FEA52FC4F218932894389548960E01B
:1022D00074E887ED97E10E94D23ACA01B9010E94E1
:1022E000B1390E94ED3BCB016430710510F484E0FC
:1022F00090E008950F931F93CF93DF93EC018091AB
:10230000920681110DC00E94F30860938E067093AF
:102310008F06809390069093910681E080939206B9
:102320008881882359F10E94F30800918E0610914C
:102330008F062091900630919106601B710B820BE5
:10234000930B6E3471408105910588F0C0910402B1
:102350000E94F30860938E0670938F068093900618
:102360009093910681E0C11180E0809304028091F6
:102370000402DF91CF911F910F91089581E0F9CF71
:102380004F925F926F927F928F929F92AF92BF9285
:10239000CF92DF92EF92FF92CF93DF9300D01F9204
:1023A000CDB7DEB7A0919A03B0919B0320E432E44D
:1023B0004FE050E00E94CF3D2B013C01A091AB03C8
:1023C000B091AC0328EE33E00E94C83D460E571E84
:1023D000681E791E8091BC039091BD03092E000CEC
:1023E000AA0BBB0B480E591E6A1E7B1E4092540757
:1023F000509255076092560770925707A091670355
:10240000B091680320E432E44FE050E00E94CF3DF9
:102410004B015C01A0917803B091790328EE33E081
:102420000E94C83D860E971EA81EB91E8091890382
:1024300090918A03092E000CAA0BBB0B880E991EE3
:10244000AA1EBB1E80928A0690928B06A0928C06D2
:10245000B0928D06A0913403B091350320E432E4AC
:102460004FE050E00E94CF3D6B017C01A0914503FD
:10247000B091460328EE33E00E94C83DC60ED71E39
:10248000E81EF91E8091560390915703092E000C07
:10249000AA0BBB0BC80ED91EEA1EFB1EC0928606F5
:1024A000D0928706E0928806F0928906A0910103F7
:1024B000B091020320E432E44FE050E00E94CF3DAF
:1024C00069837A838B839C83A0911203B091130359
:1024D00028EE33E00E94C83D29813A814B815C811E
:1024E000260F371F481F591FDA01C90140912303E6
:1024F00050912403052E000C660B770B840F951F5B
:10250000A61FB71F8093820690938306A09384062C
:10251000B0938506409158075091590760915A072A
:1025200070915B07441555056605770508F469C089
:1025300031E443163AE3530639E663063DE0730699
:1025400008F05FC020EA421626E8520621E0620643
:10255000710408F458C0481559056A057B0508F44C
:1025600054C031E483163AE3930639E6A3063DE00E
:10257000B30608F04AC020EA821626E8920621E057
:10258000A206B10408F443C04C155D056E057F0535
:1025900008F43FC031E4C3163AE3D30639E6E30654
:1025A0003DE0F306B0F520EAC21626E8D20621E0A7
:1025B000E206F10480F1481759076A077B0768F1C2
:1025C00081343AE3930739E6A3073DE0B30728F5E2
:1025D000803A9648A140B10510F180E00F900F902D
:1025E0000F900F90DF91CF91FF90EF90DF90CF9001
:1025F000BF90AF909F908F907F906F905F904F9023
:10260000089581E0EBCF8FEFE9CF82E0E7CF8EEF47
:10261000E5CF83E0E3CF8DEFE1CF84E0DFCF8CEF38
:10262000DDCF0F931F9380917A0681110DC00E9418
:10263000F3086093760670937706809378069093FC
:10264000790681E080937A060E94F308009176066D
:10265000109177062091780630917906601B710BF6
:10266000820B930B0091990B10919A0B20919B0B6D
:1026700030919C0B6017710782079307A8F083E0E5
:102680000E949D078093030280910202813041F4F1
:1026900080910302811104C086E99BE00E94540BE3
:1026A00080910302809302021F910F9108950F936E
:1026B0001F9380916E0681110DC00E94F3086093F4
:1026C0006A0670936B0680936C0690936D0681E0AA
:1026D00080936E060E94F30800916A0610916B06C3
:1026E00020916C0630916D06601B710B820B930B71
:1026F0000091B20B1091B30B2091B40B3091B50B3C
:102700006017710782079307A8F082E00E949D0777
:102710008093010280910002813041F48091010296
:10272000811104C08FEA9BE00E94540B809101024A
:10273000809300021F910F9108958EBD00000DB48B
:1027400007FEFDCF8EB508952F923F924F925F9274
:102750006F927F928F929F92AF92BF92CF92DF92B1
:10276000EF92FF920F931F93CF93DF93EC010497A7
:10277000419710F0C1E0D0E0CB01BA0120E03AEC83
:102780004AE95BE30E94D73DA12CEAECBE2EFAE9B0
:10279000CF2EABE3DA2EE12CF12C00E010E00E940A
:1027A000043EB22FA32FF42FE52F9E01DD0F440B23
:1027B000550B6B2F7A2F8F2F9E2F0E94C23A60935A
:1027C0004B0C70934C0C80934D0C90934E0C1B0152
:1027D0002C017B01182FB52DE0E0F0E0B12CC12CCD
:1027E00000E2002309F474C0DD24DA94D00E20E066
:1027F00030E040E050E06E2F617070E080E090E0EB
:10280000A0E00E94A03E09F452C00093530C10E0D7
:10281000005E1F4F21E030E040E050E060E070E0FB
:1028200080E090E00E94613E51016201E12CF12CB8
:1028300000E010E00E94043E20934F0C3093500CB7
:102840004093510C5093520C0E942C1181E00E9435
:102850009D1380914B0C90914C0CA0914D0CB0911C
:102860004E0C893C9105A105B105A8F180E8CC0F7B
:10287000CC0FC3608C2B0E949D1380E00E949D139F
:1028800080E20E949D13DF91CF911F910F91FF90E5
:10289000EF90DF90CF90BF90AF909F908F907F9000
:1028A0006F905F904F903F902F900C943411970150
:1028B000412F5B2FBF018B2D9C2D01E00E94613EBB
:1028C0007901142FB52FFB01B82EC92E0D2D89CFFC
:1028D0001092530C9CCF80E0CACF8F929F92AF9200
:1028E000BF92CF92DF92EF92FF92CF93DF93D82FD8
:1028F0004A015B01E82FF0E0E559FB4FC0810E94DF
:102900002C118D2F0E949D1328E0C29FE0011124FD
:10291000C12CD12C76012897C83F8FEFD80791F0B2
:10292000FE2CED2CDC2CCC24D501C4010C2E04C0D3
:10293000B695A795979587950A94D2F70E949D130F
:10294000C82AE9CF0E943411C701B601DF91CF91A7
:10295000FF90EF90DF90CF90BF90AF909F908F90BF
:1029600008951F93CF93DF93EC01162F462F572F17
:1029700088818417150641F04260052E000C660B15
:10298000770B80E00E946D141883DF91CF911F9127
:1029900008950F931F93CF93DF938B01EB01613069
:1029A000744010F0C0E0D4E0BC0184E59CE00E94DB
:1029B000B1140E942C1186E00E949D1380E00E94B9
:1029C0009D130115144070F4CE019061892F0E946F
:1029D0009D138C2F0E949D13DF91CF911F910F911A
:1029E0000C94341180E0F3CFCF93DF93EB01BC0163
:1029F00084E59CE00E94B114DF73AE0170E060E0FA
:102A000085E0DF91CF910C946D142F923F924F92FD
:102A10005F926F927F928F929F92AF92BF92CF926E
:102A2000DF92EF92FF920F931F93CF93DF9300D02B
:102A30001F92CDB7DEB79A838983C0904F0CD09098
:102A4000500CE090510CF090520CCB01BA01A70150
:102A500096010E94D73DE4E0F694E794D794C7949A
:102A6000EA95D1F756016701E12CF12C00E010E066
:102A70000E94973E0091530C0E947C3E79014C834A
:102A80005B8369817A8184E59CE00E94B114A7018F
:102A90006C817B8184E00F900F900F900F90DF91FD
:102AA000CF911F910F91FF90EF90DF90CF90BF904B
:102AB000AF909F908F907F906F905F904F903F90DE
:102AC0002F900C946D14EF92FF920F931F93CF935E
:102AD000DF93EC01A881B9817C810A811B81FD8093
:102AE00020E931E050E040E090E080E06C91672325
:102AF000E1E0F0E011F4F0E0E0E08E0F9F1FF8015C
:102B000060816F21E1E0F0E011F4F0E0E0E04E0FD1
:102B10005F1F2150310951F721E0893C910508F4EC
:102B200020E081E0493C510508F480E0909169067D
:102B3000921305C090916806981709F460C020931D
:102B40006906809368069E81990F990F922B880FD2
:102B5000982B9E839B3409F459C0973809F04FC0D5
:102B6000EE24EA94FE2C0E94F3080B851C852D852B
:102B70003E85DC01CB01801B910BA20BB30B8F8731
:102B8000988BA98BBA8B10E000E08A319105A105E2
:102B9000B10540F405E010E00D97A105B10510F472
:102BA0000AE010E00E94F3086B877C878D879E8780
:102BB00021E030E0FFEFEF16FF0611F42FEF3FEFBB
:102BC000C701FF0CAA0BBB0B4F81588569857A851D
:102BD000840F951FA61FB71F029FA001039F500DD2
:102BE000129F500D1124052E000C660B770B840FDD
:102BF000951FA61FB71F8F839887A987BA87DF9174
:102C0000CF911F910F91FF90EF900895EE24E394E0
:102C1000F12CA9CF80917507909176070C946315DC
:102C200080917707909178070C94631580917907CC
:102C300090917A070C94631580917B0790917C07A3
:102C40000C94631580917D0790917E070C94631519
:102C500080917F07909180070C9463150895CF931E
:102C6000DF93EC01E091E003F091E103EE0FFF1F31
:102C7000EE0FFF1FEA52FC4FAA85BB8521893289DE
:102C8000438954890E94CF3D698B7A8B8B8B9C8BB7
:102C9000DF91CF9108958F929F92AF92BF92CF9282
:102CA000DF92EF92FF9280918B0D90918C0D892B8A
:102CB00069F580917D0D90917E0DA0917F0DB09171
:102CC000800D81509448A74DB7418F3F914CAB4E3A
:102CD000BB4020F08CE69DE00E942F1680907D0D79
:102CE00090907E0DA0907F0DB090800DC12CD12CC6
:102CF00076019401A501B601C701FF90EF90DF9026
:102D0000CF90BF90AF909F908F900895A091CF03E8
:102D1000B091D00320E432E44FE050E00E94CF3D78
:102D20006B017C0124E8D21A27EDE20A27E1F20ABE
:102D3000812C21E0C21622ECD2062BEEE2062BE01B
:102D4000F20668F44B015C01DC01CB01BB0F880B80
:102D5000982FDC01C82ED82EE82EF82ECACF85E693
:102D6000982E9DECA92E2DE1B22EC12CD12CE12C58
:102D7000F12CBFCFCF93DF93EC018A859B85019720
:102D80009B878A87049724F40E9438119B878A873F
:102D9000E091E003F091E103EE0FFF1FEE0FFF1F44
:102DA000EA52FC4FAA85BB8521893289438954891F
:102DB0000E94CF3D61157448874D974120F40E94D1
:102DC00038119B878A87CE01DF91CF910C942F1603
:102DD000CF93DF93EC018A859B8501969B878A8739
:102DE000459724F00E9459119B878A87E091E00360
:102DF000F091E103EE0FFF1FEE0FFF1FEA52FC4FB1
:102E0000AA85BB8521893289438954890E94CF3D97
:102E100061307644834C934220F00E9459119B8785
:102E20008A87CE01DF91CF910C942F16FC01868109
:102E3000978190935F0780935E0780E00895FC017F
:102E4000908981E08927808B0895FC0177FF03C07A
:102E500071956195710982859385861B970B938780
:102E60008287268537858217930724F48485958584
:102E7000938782870895CF93DF93EC010E942517F3
:102E8000AA85BB8520E432E44FE050E00E94CF3DAC
:102E900060937D0D70937E0D80937F0D9093800DD8
:102EA000DF91CF910895CF93DF93EC0161E070E063
:102EB0000E9425178A859B85892B69F486ED93E00E
:102EC0009B838A838CE69DE090931B0280931A0279
:102ED000DF91CF91089585EC93E09B838A83F4CFB3
:102EE0000E94251786E79DE00E94EA068CE69DE099
:102EF0000C942F16CF93DF93EC010E9425178A853F
:102F00009B85892B59F0EC81FD81828593858836DC
:102F1000914021F487E691E093878287DF91CF91FA
:102F20000895CF93DF93EC010E9425178A859B8536
:102F30008836914049F4EA81FB8182859385181691
:102F4000190614F413861286DF91CF9108950C941C
:102F500025170C9425170C942517FC0177FF03C047
:102F600071956195710982859385680F791F7387C3
:102F70006287848595858617970724F486859785CB
:102F8000938782870895CF93DF93EC010E94AD175A
:102F9000AA85BB8520E432E44FE050E00E94CF3D9B
:102FA00060937D0D70937E0D80937F0D9093800DC7
:102FB000DF91CF910895CF93DF93EC0161E070E052
:102FC0000E94AD178A859B85892B69F486ED93E075
:102FD0009B838A838CE69DE090931B0280931A0268
:102FE000DF91CF91089585EC93E09B838A83F4CFA2
:102FF0000E94AD1786E79DE00E94EA068CE69DE000
:103000000C942F16CF93DF93EC010E94AD178A85A5
:103010009B85892B59F0EC81FD81828593858836CB
:10302000914021F487E691E093878287DF91CF91E9
:103030000895CF93DF93EC010E94AD178A859B859D
:103040008836914049F4EA81FB8182859385181680
:10305000190614F413861286DF91CF9108950C940B
:10306000AD170C94AD170C94AD17CF92DF92EF9281
:10307000FF920F931F93CF93DF936C01EB017B01C2
:10308000E40EF51E10E000E0CE15DF0561F0699159
:10309000D601ED91FC910190F081E02DC6011995CA
:1030A000080F191FF1CFC801DF91CF911F910F9128
:1030B000FF90EF90DF90CF9008952F923F924F9224
:1030C0005F926F927F928F929F92AF92BF92CF92B8
:1030D000DF92EF92FF920F931F93CF93DF9300D075
:1030E00000D0CDB7DEB77C016C0124E0C20ED11C4C
:1030F000FC01E158FF4F0190F081E02DC6011995C8
:103100008C018E3F9F4F08F05BC0370182E8680E4C
:10311000711CF301F081FB83470121E8820E911CB1
:10312000F401F081FD839701215A3F4F3A832983AF
:10313000F9018081813009F46AC008F45CC08230F2
:1031400009F471C0833009F47AC0F701EB5AFF4FDC
:103150002D81208331963B81308337978081918107
:1031600047969C838B830F3F110511F008F015C122
:10317000B4960136110530F40134110558F0F70109
:10318000EF58FF4F808191812B813C81280F391F9F
:103190003C832B838B819C810196FC01249121111E
:1031A0005AC0412CE981FA818081813009F492C1B1
:1031B00008F48BC1823009F48FC1833009F491C1C6
:1031C00081E090E026960FB6F894DEBF0FBECDBF2B
:1031D000DF91CF911F910F91FF90EF90DF90CF90F3
:1031E000BF90AF909F908F907F906F905F904F9027
:1031F0003F902F900895F701EF5AFF4F0190F08113
:10320000E02DC6011995FB81F80FFB839ECFF701D6
:10321000EF5AFF4F0190F081E02DC60119952D81E5
:10322000281B2D8392CFF701EF5AFF4F0190F081B9
:10323000E02DC60119953B81381B3B8386CFF701F2
:10324000EF5AFF4F0190F081E02DC60119959D8145
:10325000980F9D837ACFEB81FC8124912017110672
:1032600009F094C0CF010296009709F49ACFF701B4
:10327000ED5AFF4FFE83ED83918380831086719614
:1032800060818D819E810E94460FED81FE81868343
:10329000F701EB59FF4F60818D819E810E94460F9F
:1032A000582EED81FE818783970123583F4F3C8341
:1032B0002B83F9019081ED81FE81928781E091114C
:1032C00080E0ED81FE818387F701EA59FF4FB080EE
:1032D0006B2D8D819E810E94460F382EF701E95992
:1032E000FF4F2080622D8D819E810E94460F182FF6
:1032F000F701E859FF4F0081602F8D819E810E9468
:10330000460F015021E030E0A90101C0440F0A95A9
:10331000EAF7482E441AED81FE81068110160CF062
:1033200041CFBA94C90101C0880FBA94EAF7381A9C
:10333000B484150D2A9401C0220F2A94EAF7A22E14
:10334000A11A2B2D4A2D632D82810E94D30E182F96
:10335000ED81FE8182832B2D4A2D632D83810E9476
:10336000E00EED81FE818383F1E0BF1609F493C086
:10337000BF1608F450C022E0B21609F492C033E040
:10338000B31609F499C0082F212F49C0FC0184917C
:103390002B813C81280F311DFBCEF701EB58FF4FED
:1033A00080819181EB81FC81E80FF91FFC83EB8325
:1033B0005F0160E0C5010E94710F2B813C81280FE5
:1033C000391F3C832B8362E0C5010E94710F34E0FA
:1033D000A30EB11C8017910760F3EB81FC818491EF
:1033E00090E0982F88273196E4918E2B009709F46E
:1033F000D8CE0817190721F48B819C81039634CF0E
:10340000EB81FC813296E4912B813C812E0F311DA2
:103410003C832B83E2CF202F210F082F050D482F4F
:10342000612FC6010E94D80D882309F4BBCEED811F
:10343000FE81148215825701F2E6AF0EB11C23E61D
:10344000E20EF11CF50160818D819E810E94460F84
:10345000082FF70160818D819E810E94460F182FF1
:1034600040E0602FC6010E94ED0E41E0612FC601D1
:103470000E94ED0E61E08D819E810E94460F8111B8
:10348000EFCFED81FE8185818515E4F28285EB81A8
:10349000FC81808387CEB51821E0210F080F1B0D1A
:1034A000BECF91E0392F301B21E0210F951901E0AB
:1034B000080F890F130FB3CF212F250D982F901BC5
:1034C00001E0080F81E0890FAACFF4018081480E46
:1034D000408276CEF301FACFF40180818419808393
:1034E0006FCEF301FACF089590E080E00895CF9376
:1034F000DF93EC0188819981009711F00E94513F80
:10350000198218821D821C821B821A82DF91CF9140
:103510000895FC0180819181009711F00C94513F36
:103520000895FB0101900020E9F73197AF01461B98
:10353000570BDC01ED91FC910280F381E02D199491
:103540008F929F92AF92BF92EF92FF920F931F9331
:10355000CF93DF93CDB7DEB7A1970FB6F894DEBF58
:103560000FBECDBF7C01FA01CB0119A2223008F4B5
:103570002AE08E010F5D1F4F822E912CB12CA12CC1
:10358000BF01A50194010E94D23AF901CA016A3033
:103590000CF5605DD8016E938D01232B242B252B18
:1035A00079F790E080E0109721F0BD01C7010E94FB
:1035B000911AA1960FB6F894DEBF0FBECDBFDF9172
:1035C000CF911F910F91FF90EF90BF90AF909F9080
:1035D0008F900895695CDECF4F925F926F927F92D9
:1035E000AF92BF92CF92DF92EF92FF920F931F9311
:1035F000CF935C01162FC0E060E070E080E09FE3B5
:10360000C11741F020E030E040E251E40E947B3BF2
:10361000CF5FF6CF28E431EE4AE95FE30E940F3B2B
:103620006B017C010E94ED3B2B013C012AE0BC01B7
:10363000A201C5010E94A01A8C01CC23E9F1C301AB
:10364000B2010E94B1399B01AC01C701B6010E94D1
:103650000E3B6B017C01D501ED91FC910190F08155
:10366000E02D6EE2C5011995080F191FC15020F118
:1036700020E030E040E251E4C701B6010E94EE399B
:103680002B013C010E94ED3B6B01F12CE12C2AE067
:10369000B701A601C5010E94A01A080F191FC70192
:1036A000B6010E94B1399B01AC01C301B2010E9475
:1036B0000E3B6B017C01DACFC801CF911F910F91B6
:1036C000FF90EF90DF90CF90BF90AF907F906F9082
:1036D0005F904F900895CF92DF92EF92FF920F93F9
:1036E0001F93CF93DF93EC016A017B01E881F9819D
:1036F0000190F081E02D6DE219958C01442755274A
:10370000BA014C195D096E097F092AE0CE010E94B9
:10371000A01A800F911FDF91CF911F910F91FF9001
:10372000EF90DF90CF900895AB01770F660B770B8A
:1037300077FD0C946B1B2AE00C94A01ABC0188EC5A
:103740009BE00C94911ACF93DF93AB01BC0177FF00
:1037500010C085E59CE00E946B1BEC0162E275E005
:1037600085E59CE00E94911A8C0F9D1FDF91CF91FF
:1037700008952AE085E59CE00E94A01AEECFCF9341
:10378000DF9362E085E59CE00E94EC1AEC0162E2C6
:1037900075E085E59CE00E94911A8C0F9D1FDF91DA
:1037A000CF910895CF93DF93BC0185E59CE00E9403
:1037B0000E09EC0162E275E085E59CE00E94911A39
:1037C0008C0F9D1FDF91CF9108950F931F93CF937F
:1037D000DF93EC010E94911A8C0162E275E0CE0148
:1037E0000E94911A800F911FDF91CF911F910F912D
:1037F00008950F931F93CF93DF938C01EB010E94E9
:10380000AC3A8883C80101960E94AC3A8983CE0104
:10381000DF91CF911F910F910895FF920F931F9306
:10382000CF93DF93EC018B01FB01F0800E94AC3A57
:10383000F81621F06F2DCE010E94B43AF801F18004
:103840002196CE010E94AC3AF81621F06F2DCE01E0
:103850000E94B43AC801DF91CF911F910F91FF9060
:1038600008956AE973E086E190E00E940D1C6BEA1E
:1038700073E088E190E00E940D1C6CEB73E08CE13A
:1038800090E00E940D1C60EF72E080E290E00E94E8
:103890000D1C6CEA72E084E290E00E940D1C68E668
:1038A00072E086E290E00E940D1C67E673E088E219
:1038B00090E00E940D1C68E773E08AE290E00E94AD
:1038C0000D1C69E873E08CE290E00E940D1C6FED26
:1038D00072E08EE290E00E940D1C6BE972E080E3E2
:1038E00090E00E940D1C67E572E082E390E00E9488
:1038F0000D1C64E373E084E390E00E940D1C65E41A
:1039000073E086E390E00E940D1C66E573E088E3B7
:1039100090E00E940D1C6EEC72E08AE390E00E9441
:103920000D1C6AE872E08CE390E00E940D1C66E4D6
:1039300072E08EE390E00E940D1C61E073E080E491
:1039400090E00E940D1C62E173E082E490E00E942E
:103950000D1C63E273E084E490E00E940D1C6DEBAB
:1039600072E086E490E00E940D1C69E772E088E452
:1039700090E00E940D1C65E372E08AE490E00E94F2
:103980000D1C67E384E690E00C94B43A0E94BB40BF
:103990000F931F93CF93DF93EC0188819981009758
:1039A00059F02A813B812617370730F081E0DF91FB
:1039B000CF911F910F9108958B016F5F7F4F0E94F0
:1039C000DA3F009759F0998388831B830A832C81FF
:1039D0003D81232B59F7FC011082E8CF80E0E7CF2F
:1039E000EF92FF920F931F93CF93DF9361157105B1
:1039F00041F480E0DF91CF911F910F91FF90EF9004
:103A0000089541155105B1F07B01EC010C811D8138
:103A1000040F151FB8010E94C81C882351F3288188
:103A200039818C819D81B701820F931F0E94D04004
:103A30001D830C8381E0DECFCF93DF93EC01FB018C
:103A400044815581608171810E94F01C811103C005
:103A5000CE010E94771ACE01DF91CF910895EF92A7
:103A6000FF920F931F93CF93DF93EC017B018A01A9
:103A7000BA010E94C81C81110BC0CE010E94771AA6
:103A8000CE01DF91CF911F910F91FF90EF9008959C
:103A90001D830C83B701888199810E94D040F0CFAB
:103AA000FB0101900020E9F73197AF01461B570B4E
:103AB0000C942F1D0F931F93CF93DF93CDB7DEB7D9
:103AC00062970FB6F894DEBF0FBECDBF8C01CB015D
:103AD000F8011182108213821282158214824AE048
:103AE000BE016F5F7F4F0E944839BE016F5F7F4FFD
:103AF000C8010E94501D62960FB6F894DEBF0FBE3B
:103B0000CDBFDF91CF911F910F910895FB01DC0193
:103B100011961C921E9213961C921E921297159645
:103B20001C921E9214978617970749F06081718145
:103B30006115710521F0448155810C942F1D089564
:103B4000FC01118210821382128215821482FB0101
:103B500001900020E9F73197AF01461B570B0C94F9
:103B60002F1D0F931F93CF93DF93CDB7DEB72C9705
:103B70000FB6F894DEBF0FBECDBF8C01433069F5A0
:103B8000CB010A978A35910538F4CE0107960E9439
:103B90005A1D66E275E009C06A3071050CF5CE0168
:103BA00007960E945A1D65E275E0CE0101960E94BB
:103BB000A01DBE01695F7F4FCE0101960E941C1DB2
:103BC000BC01C8010E94861DCE0101960E94891A7F
:103BD000CE0107960E94891A06C06A307105ACF2C0
:103BE000C8010E945A1DC8012C960FB6F894DEBF7A
:103BF0000FBECDBFDF91CF911F910F910895AF926E
:103C0000BF92CF92DF92EF92FF920F931F93CF93C9
:103C1000DF9300D000D0CDB7DEB78823A1F081308C
:103C200009F46FC526960FB6F894DEBF0FBECDBF60
:103C3000DF91CF911F910F91FF90EF90DF90CF9088
:103C4000BF90AF90089582E08093490C84E1809307
:103C50004A0C80915E0790915F07815D9D4009F05D
:103C6000C7C480E00E94270788E295E00E949E1B5F
:103C700081E00E94270781E18093490C84E18093D1
:103C80004A0C80915E0790915F078059934009F03C
:103C9000B3C48091A003882309F4ACC480EA93E004
:103CA0000E947A110E94270760919A0370919B03EA
:103CB00043E0CE0101960E94B11DBE016F5F7F4FB0
:103CC00088EC9BE00E940009CE0101960E94891AAF
:103CD00081E00E9427078BE295E00E949E1B809165
:103CE0005E0790915F07815A934009F089C48091E3
:103CF000B103882309F482C481EB93E00E947A1116
:103D00000E9427076091AB037091AC0343E0CE01A2
:103D100001960E94B11DBE016F5F7F4F88EC9BE052
:103D20000E940009CE0101960E94891A81E00E943A
:103D300027078BE295E00E949E1B80915E07909181
:103D40005F07825B934009F05FC48091C2038823C0
:103D500009F458C482EC93E00E947A110E9427076C
:103D60006091BC037091BD0343E0CE0101960E94B7
:103D7000B11DBE016F5F7F4F88EC9BE00E94000980
:103D8000CE0101960E94891A81E00E9427078DE4E6
:103D90008093490C84E180934A0C80915E07909156
:103DA0005F07865E924009F033C48091F602882353
:103DB00009F42CC486EF92E00E947A110E94270732
:103DC0008DE295E00E949E1B6091F0027091F102DD
:103DD00042E0CE0101960E94B11DBE016F5F7F4F90
:103DE00088EC9BE00E940009CE0101960E94891A8E
:103DF00081E00E94270781E68093490C84E180934B
:103E00004A0C80915E0790915F07825A924009F0B8
:103E100003C48091B202882309F4FCC382EB92E0D0
:103E20000E947A110E9427076091AC027091AD0246
:103E300043E0CE0101960E94B11DBE016F5F7F4F2E
:103E400088EC9BE00E940009CE0101960E94891A2D
:103E500081E00E9427078BE295E00E949E1B8091E3
:103E60005E0790915F078E55924009F0D9C380910B
:103E70006E02882309F4D2C38EE692E00E947A1182
:103E80000E942707609168027091690288EC9BE0AC
:103E90000E94941B81E00E9427078FE295E00E9418
:103EA0009E1B82E08093490C8EE180934A0C8091A6
:103EB0005E0790915F07805C9D4009F0B3C380E08E
:103EC0000E94270781E395E00E949E1B81E00E94EB
:103ED000270781E18093490C8EE180934A0C809101
:103EE0005E0790915F078D55934009F09FC38091C5
:103EF0006D03882309F498C38DE693E00E947A113C
:103F00000E942707609167037091680343E0CE0128
:103F100001960E94B11DBE016F5F7F4F88EC9BE050
:103F20000E940009CE0101960E94891A81E00E9438
:103F300027078BE295E00E949E1B80915E0790917F
:103F40005F078E56934009F075C380917E038823E6
:103F500009F46EC38EE793E00E947A110E9427074E
:103F6000609178037091790343E0CE0101960E943D
:103F7000B11DBE016F5F7F4F88EC9BE00E9400097E
:103F8000CE0101960E94891A81E00E9427078BE2E8
:103F900095E00E949E1B80915E0790915F078F576E
:103FA000934009F04BC380918F03882309F444C3E5
:103FB0008FE893E00E947A110E942707609189039D
:103FC00070918A0343E0CE0101960E94B11DBE01AB
:103FD0006F5F7F4F88EC9BE00E940009CE01019645
:103FE0000E94891A81E00E9427078DE48093490C82
:103FF0008EE180934A0C80915E0790915F07855D0A
:10400000924009F01FC38091E502882309F418C388
:1040100085EE92E00E947A110E9427078DE295E0DA
:104020000E949E1B6091DF027091E00242E0CE018F
:1040300001960E94B11DBE016F5F7F4F88EC9BE02F
:104040000E940009CE0101960E94891A81E00E9417
:10405000270781E68093490C8EE180934A0C80917A
:104060005E0790915F078159924009F0EFC28091FD
:10407000A102882309F4E8C281EA92E00E947A1141
:104080000E94270760919B0270919C0243E0CE0141
:1040900001960E94B11DBE016F5F7F4F88EC9BE0CF
:1040A0000E940009CE0101960E94891A81E00E94B7
:1040B00027078BE295E00E949E1B80915E079091FE
:1040C0005F078D54924009F0C5C280915D0288233C
:1040D00009F4BEC28DE592E00E947A110E94270782
:1040E000609157027091580288EC9BE00E94941BEB
:1040F00081E00E9427078FE295E00E949E1B82E0EC
:104100008093490C88E280934A0C80915E079091DD
:104110005F078F5A9D4009F09FC280E00E942707E9
:1041200084E395E00E949E1B81E00E94270781E1C5
:104130008093490C88E280934A0C80915E079091AD
:104140005F078A52934009F08BC280913A0388231B
:1041500009F484C28AE393E00E947A110E9427073F
:10416000609134037091350343E0CE0101960E94C3
:10417000B11DBE016F5F7F4F88EC9BE00E9400097C
:10418000CE0101960E94891A81E00E9427078BE2E6
:1041900095E00E949E1B80915E0790915F078B5374
:1041A000934009F061C280914B03882309F45AC2FD
:1041B0008BE493E00E947A110E94270760914503E7
:1041C0007091460343E0CE0101960E94B11DBE01ED
:1041D0006F5F7F4F88EC9BE00E940009CE01019643
:1041E0000E94891A81E00E9427078BE295E00E94D5
:1041F0009E1B80915E0790915F078C54934009F05D
:1042000037C280915C03882309F430C28CE593E0C7
:104210000E947A110E9427076091560370915703FC
:1042200043E0CE0101960E94B11DBE016F5F7F4F3A
:1042300088EC9BE00E940009CE0101960E94891A39
:1042400081E00E9427078DE48093490C88E28093E7
:104250004A0C80915E0790915F07845C924009F060
:104260000BC28091D402882309F404C284ED92E049
:104270000E947A110E9427078DE295E00E949E1B02
:104280006091CE027091CF0242E0CE0101960E9471
:10429000B11DBE016F5F7F4F88EC9BE00E9400095B
:1042A000CE0101960E94891A81E00E94270781E6CB
:1042B0008093490C88E280934A0C80915E0790912C
:1042C0005F078058924009F0DBC1809190028823FB
:1042D00009F4D4C180E992E00E947A110E94270774
:1042E00060918A0270918B0243E0CE0101960E9498
:1042F000B11DBE016F5F7F4F88EC9BE00E940009FB
:10430000CE0101960E94891A81E00E9427078BE264
:1043100095E00E949E1B80915E0790915F078C53F1
:10432000924009F0B1C180914C02882309F4AAC1DE
:104330008CE492E00E947A110E9427076091460265
:104340007091470288EC9BE00E94941B81E00E94E0
:1043500027078FE295E00E949E1B82E08093490C24
:1043600082E380934A0C80915E0790915F078E599B
:104370009D4009F08BC180E00E94270787E395E00C
:104380000E949E1B81E00E94270781E18093490CD7
:1043900082E380934A0C80915E0790915F07875F6C
:1043A000924009F077C180910703882309F470C116
:1043B00087E093E00E947A110E9427076091010331
:1043C0007091020343E0CE0101960E94B11DBE012F
:1043D0006F5F7F4F88EC9BE00E940009CE01019641
:1043E0000E94891A81E00E9427078BE295E00E94D3
:1043F0009E1B80915E0790915F078850934009F063
:104400004DC180911803882309F446C188E193E0E7
:104410000E947A110E942707609112037091130382
:1044200043E0CE0101960E94B11DBE016F5F7F4F38
:1044300088EC9BE00E940009CE0101960E94891A37
:1044400081E00E9427078BE295E00E949E1B8091ED
:104450005E0790915F078951934009F023C18091D5
:104460002903882309F41CC189E293E00E947A1190
:104470000E942707609123037091240343E0CE013B
:1044800001960E94B11DBE016F5F7F4F88EC9BE0DB
:104490000E940009CE0101960E94891A81E00E94C3
:1044A00027078DE48093490C82E380934A0C809126
:1044B0005E0790915F07835B924009F0F7C080919F
:1044C000C302882309F4F0C083EC92E00E947A11C1
:1044D0000E9427078DE295E00E949E1B6091BD021D
:1044E0007091BE0242E0CE0101960E94B11DBE0154
:1044F0006F5F7F4F88EC9BE00E940009CE01019620
:104500000E94891A81E00E94270781E68093490C66
:1045100082E380934A0C80915E0790915F078F56EB
:10452000924009F0C7C080917F02882309F4C0C07F
:104530008FE792E00E947A110E942707609179022A
:1045400070917A0243E0CE0101960E94B11DBE0136
:104550006F5F7F4F88EC9BE00E940009CE010196BF
:104560000E94891A81E00E9427078BE295E00E9451
:104570009E1B80915E0790915F078B52924009F0DD
:104580009DC080913B02882309F496C08BE392E0A2
:104590000E947A110E9427076091350270913602BD
:1045A00088EC9BE00E94941B81E00E9427078FE229
:1045B00095E00E949E1B1092490C8DE380934A0C5B
:1045C0000E94C0118C5F893008F080C0E82F880FEE
:1045D000FF0B8827E151FD4D8F4F0C94C03D7E238A
:1045E0007B2378237523602369236C236F23722335
:1045F00081E038CB80E056CB81E054CB80E080CBAB
:1046000081E07ECB80E0AACB81E0A8CB80E0D6CB56
:1046100081E0D4CB80E006CC81E004CC80E030CCDB
:1046200081E02ECC81E04CCC80E06ACC81E068CC8B
:1046300080E094CC81E092CC80E0BECC81E0BCCC28
:1046400080E0EACC81E0E8CC80E01ACD81E018CDB2
:1046500080E044CD81E042CD81E060CD80E07ECD40
:1046600081E07CCD80E0A8CD81E0A6CD80E0D2CDF8
:1046700081E0D0CD80E0FECD81E0FCCD80E02ECE8B
:1046800081E02CCE80E058CE81E056CE81E074CE21
:1046900080E092CE81E090CE80E0BCCE81E0BACEC8
:1046A00080E0E6CE81E0E4CE80E012CF81E010CF62
:1046B00080E042CF81E040CF80E06CCF81E06ACFE4
:1046C0006BE473E088EC9BE00E940E090E94D90F16
:1046D000A9CA6AE373E0F6CF69E273E0F3CF68E159
:1046E00073E0F0CF67E073E0EDCF66EF72E0EACF02
:1046F00066EE72E0E7CF66ED72E0E4CF66EC72E062
:10470000E1CF83E38093490C88E080934A0C8AE3ED
:1047100095E00E949E1B1092490C8AE180934A0CFE
:1047200080E495E00E949E1B80915E0790915F0758
:1047300081589D4059F48091910D882309F4D8C087
:1047400081E99DE00E947A110E94270780918B0DDC
:1047500090918C0D26E0289FB001299F700D1124A7
:104760006E56724F88EC9BE00E94000981E00E9427
:10477000270787EC95E00E949E1B1092490C82E26D
:1047800080934A0C8CE495E00E949E1B87EC95E098
:104790000E949E1B20918B0D30918C0D80915E07A5
:1047A00090915F07232B09F0A7C0865D934059F4D1
:1047B0008091E603882309F49DC086EE93E00E9471
:1047C0007A110E942707E091E003F091E103EE0FD8
:1047D000FF1FEE0FFF1FEA52FC4F61897289838928
:1047E000948920E432E44FE050E00E94D23ABA01CA
:1047F000A9012AE088EC9BE00E94A01A81E00E94B7
:10480000270788E595E00E949E1B1092490C8AE2DA
:1048100080934A0C8EE595E00E949E1B81E00E94E9
:10482000270787EC95E00E949E1B80915E07909180
:104830005F078C569D4059F480917C0D882309F4C4
:104840007FC08CE79DE00E947A110E9427070E949A
:104850004B16E0E4AE2EF2E4BF2EAFE0CA2ED12C10
:10486000E12CF12C00E010E00E94043EE22F2AE04F
:10487000BA014E2F532F88EC9BE00E94A01A81E0D2
:104880000E94270788E595E00E949E1B1092490C24
:104890008FE380934A0C80915E0790915F07865169
:1048A000924019F480E00E94270769E675E088ECE1
:1048B0009BE00E94E51B81E00E94270787E680932A
:1048C000490C8FE380934A0C80915E0790915F07BB
:1048D0008550924019F480E00E9427076EE675E04B
:1048E00088EC9BE00E94E51B81E00E942707EECE4A
:1048F00080E02ACF80E065CF855C934051F48091C1
:10490000D5038823D9F085ED93E00E947A110E94A7
:1049100027076091CF037091D00343E0CE01019649
:104920000E94B11DBE016F5F7F4F88EC9BE00E942B
:104930000009CE0101960E94891A60CF80E0E7CF7E
:1049400080E083CF85ED8093BC008091E10690915B
:10495000E206A091E306B091E4060796A11DB11D01
:1049600023E0B695A795979587952A95D1F720913D
:10497000BC0024FD03C010922E0708954091E1066B
:104980005091E2066091E3067091E406452B462BB8
:10499000472B69F30097A105B10541F02AE22A955A
:1049A000F1F700C00197A109B109E1CF8091E006BC
:1049B0000C94AB0AFC01A081B18150962C9182AD80
:1049C00038E0839FC0011124289FA001299F500D2A
:1049D000112470E060E080AD91AD0C94C940FF926D
:1049E0000F931F93CF93DF936BE87DE090E080E01F
:1049F0000E940D1C60EE73E082E090E00E940D1CAE
:104A00006FEC73E086E090E00E940D1C66E77DE0AD
:104A100088E090E00E940D1C67E385E690E00E942C
:104A2000B43A8CEC9BE00E94DA2481E00E942707D4
:104A300009E41CE083E3F82EF801F082CAE4DCE02C
:104A400088E088836AE375E088EC9BE00E94E51BC0
:104A5000F801F08288E2888383E795E00E949E1B3C
:104A60000E94D90F68EE73E080E090E0DF91CF9173
:104A70001F910F91FF900C945508CF92DF92EF9207
:104A8000FF9285E690E00E94AC3A873309F4B9C002
:104A900010928C0D10928B0D81E090E09093E103C9
:104AA0008093E00384EF91E09093D0038093CF0351
:104AB0008CE090E09093770D8093760D0E94EF2428
:104AC0008091760D9091770D459734F00E945911A1
:104AD0009093770D8093760DE091E003F091E103E0
:104AE000EE0FFF1FEE0FFF1FEA52FC4FC188D28866
:104AF000E388F488A091760DB091770DA701960117
:104B00000E94CF3D61307644834C934230F00E9446
:104B100059119093770D8093760D8091760D909139
:104B2000770D049734F40E9438119093770D809399
:104B3000760DA091760DB091770DA70196010E9498
:104B4000CF3D61157448874D974130F40E9438116C
:104B50009093770D8093760D8CE69DE00E942F1642
:104B600080918B0D90918C0D892B09F063C0E091A1
:104B7000E003F091E103EE0FFF1FEE0FFF1FEA527B
:104B8000FC4F41895289638974898091760D909197
:104B9000770D0E94A41380918B0D90918C0D892B21
:104BA00009F050C086ED93E09093840D8093830DBF
:104BB0008CE69DE090931B0280931A020E944B1694
:104BC000B901CA0120932702709328024093290259
:104BD00090932A020E94B13926E636E646EE5EE35D
:104BE0000E94EE390E94ED3B60935807709359077D
:104BF00080935A0790935B07FF90EF90DF90CF90E0
:104C000008956BE87DE090E080E00E94F91B60EE83
:104C100073E082E090E00E94F91B6FEC73E086E0A5
:104C200090E00E94F91B66E77DE088E090E00E943A
:104C3000F91B46CF0E944B16BA01422F532F90E02A
:104C400080E0A7CF85EC93E09093840D8093830D53
:104C5000B1CFEF92FF920F93CF93DF938CEC9BE059
:104C60000E94DA24C9E4DCE082E088838AE4E82E4A
:104C70008CE0F82E89E0F70180836CE573E088EC26
:104C80009BE00E940E0900E020E840E060E08CEC30
:104C90009BE00E94690E20E84BE060E08CEC9BE01A
:104CA0000E94690E01E024E340E06EE08CEC9BE0A2
:104CB0000E94690E24E340E06AE48CEC9BE00E94D1
:104CC000690E24E340E06EE58CEC9BE00E94690EE7
:104CD00000E020E844E360E08CEC9BE00E94690E79
:104CE00001E024E340E060E08CEC9BE00E94690E70
:104CF00024E340E06FE78CEC9BE00E94690E8DE3BB
:104D0000F701808388E5888389E795E00E949E1BF0
:104D1000DF91CF910F91FF90EF900C94D90F81ED1F
:104D20009DE090935F0780935E0710925C070E945E
:104D3000292680E00895682F70E0719561957109CA
:104D4000072E000C880B990B0E94B33929E739E62E
:104D500046E852E40E940F3B20E030E040EA51E494
:104D60000E947B3B9B01AC0160E070E080E291E43B
:104D70000E941C3C0E94ED3BCB010895CF930E9402
:104D8000C011811101C140915407509155076091A4
:104D900056077091570780E190E00E9405158091B9
:104DA000F0020E949B26BC0180E190E00E94C914A1
:104DB0008091AC029091AD02CAE0C89FB001C99F3A
:104DC000700D11248091680290916902680F791F1B
:104DD00090E080E00E94B13920E030E041E655E407
:104DE0000E947B3B20E030E040E856E40E94EE3930
:104DF0000E94ED3B80E190E00E94F41440918A060D
:104E000050918B0660918C0670918D0680E290E047
:104E10000E9405158091DF020E949B26BC0180E262
:104E200090E00E94C91480919B0290919C02C89FBF
:104E3000B001C99F700D11248091570290915802C2
:104E4000680F791F90E080E00E94B13920E030E0E7
:104E500041E655E40E947B3B20E030E040E856E428
:104E60000E94EE390E94ED3B80E290E00E94F41433
:104E70004091860650918706609188067091890658
:104E800080E490E00E9405158091CE020E949B264E
:104E9000BC0180E490E00E94C91480918A02909144
:104EA0008B02C89FB001C99F700D112480914602EA
:104EB00090914702680F791F683087E0780708F003
:104EC0005DC0685F784F90E080E00E94B13920E0DB
:104ED00030E041E655E40E947B3B20E030E040E8D2
:104EE00056E40E94EE390E94ED3B80E490E00E947F
:104EF000F41440918206509183066091840670916B
:104F0000850680E890E00E9405158091BD020E9410
:104F10009B26BC0180E890E00E94C9148091790230
:104F200090917A022AE0289FB001299F700D1124E8
:104F30008091350290913602680F791F683087E0C2
:104F40007807F8F4685F784F90E080E00E94B1390C
:104F500020E030E041E655E40E947B3B20E030E079
:104F600040E856E40E94EE390E94ED3B80E890E074
:104F70000E94F41485E0CF910C9422116850774080
:104F8000A2CF68507740E0CFCF91089580918B0DEC
:104F900090918C0D892BF1F5E091E003F091E10304
:104FA000EE0FFF1FEE0FFF1FEA52FC4F418952899F
:104FB000638974898091760D9091770D0E94A41376
:104FC0000E944B16B901CA01209327027093280250
:104FD0004093290290932A020E94B13926E636E6D0
:104FE00046EE5EE30E94EE390E94ED3B6093580767
:104FF0007093590780935A0790935B070E94BE26CF
:105000000E94EF2485E092E090935F0780935E0713
:1050100080E008950E944B16BA01422F532F90E072
:1050200080E0CCCF1F920F920FB60F9211242F93D6
:105030003F938F939F93AF93BF938091610790911C
:105040006207A0916307B09164073091600723E085
:10505000230F2D3758F50196A11DB11D2093600730
:105060008093610790936207A0936307B0936407EE
:105070008091650790916607A0916707B0916807D6
:105080000196A11DB11D8093650790936607A093BB
:105090006707B0936807BF91AF919F918F913F9140
:1050A0002F910F900FBE0F901F90189526E8230F99
:1050B0000296A11DB11DD2CF1F920F920FB60F9273
:1050C00011240BB60F922F933F934F935F936F93DF
:1050D0007F938F939F93AF93BF93EF93FF93E09151
:1050E0000904F0910A041995FF91EF91BF91AF91D6
:1050F0009F918F917F916F915F914F913F912F91F0
:105100000F900BBE0F900FBE0F901F9018951F921F
:105110000F920FB60F9211240BB60F922F933F935D
:105120004F935F936F937F938F939F93AF93BF93AF
:10513000EF93FF93E0910704F09108041995FF9114
:10514000EF91BF91AF919F918F917F916F915F91FF
:105150004F913F912F910F900BBE0F900FBE0F906C
:105160001F9018951F920F920FB60F9211240BB635
:105170000F922F933F934F935F936F937F938F93F0
:105180009F93AF93BF93EF93FF93E091FD03F09153
:10519000FE031995FF91EF91BF91AF919F918F9170
:1051A0007F916F915F914F913F912F910F900BBE27
:1051B0000F900FBE0F901F9018951F920F920FB671
:1051C0000F9211240BB60F922F933F934F935F933F
:1051D0006F937F938F939F93AF93BF93EF93FF93BF
:1051E000E091FB03F091FC031995FF91EF91BF91C2
:1051F000AF919F918F917F916F915F914F913F916F
:105200002F910F900BBE0F900FBE0F901F9018950F
:105210001F920F920FB60F9211240BB60F922F937D
:105220003F934F935F936F937F938F939F93AF932E
:10523000BF93EF93FF93E0910504F0910604199555
:10524000FF91EF91BF91AF919F918F917F916F915E
:105250005F914F913F912F910F900BBE0F900FBE1A
:105260000F901F9018951F920F920FB60F92112456
:105270000BB60F922F933F934F935F936F937F9350
:105280008F939F93AF93BF93EF93FF93E0910304AA
:10529000F09104041995FF91EF91BF91AF919F9107
:1052A0008F917F916F915F914F913F912F910F90CF
:1052B0000BBE0F900FBE0F901F9018951F920F926C
:1052C0000FB60F9211240BB60F922F933F934F936B
:1052D0005F936F937F938F939F93AF93BF93EF935E
:1052E000FF93E0910104F09102041995FF91EF9171
:1052F000BF91AF919F918F917F916F915F914F91EE
:105300003F912F910F900BBE0F900FBE0F901F90EB
:1053100018951F920F920FB60F9211240BB60F9291
:105320002F933F934F935F936F937F938F939F93AD
:10533000AF93BF93EF93FF93E091FF03F0910004CD
:105340001995FF91EF91BF91AF919F918F917F91AF
:105350006F915F914F913F912F910F900BBE0F90E6
:105360000FBE0F901F9018951F920F920FB60F92BD
:1053700011240BB60F922F933F934F935F936F932C
:105380007F938F939F93AF93BF93EF93FF9385E5A5
:105390009CE00E94A609FF91EF91BF91AF919F9170
:1053A0008F917F916F915F914F913F912F910F90CE
:1053B0000BBE0F900FBE0F901F9018951F920F926B
:1053C0000FB60F9211240BB60F922F938F939F93CA
:1053D000EF93FF93E091650CF091660C8081E09172
:1053E0006B0CF0916C0C82FD1DC0908180916E0C55
:1053F0008F5F8F7320916F0C821741F0E0916E0CDC
:10540000F0E0EB5AF34F958F80936E0CFF91EF9184
:105410009F918F912F910F900BBE0F900FBE0F9009
:105420001F9018958081F2CF1F920F920FB60F92A6
:1054300011240BB60F922F933F934F935F936F936B
:105440007F938F939F93AF93BF93EF93FF9380913D
:10545000B900887F803609F44DC008F040C088321A
:1054600009F4A9C028F5803109F49DC0C8F4882347
:1054700009F4FBC0883009F496C0FF91EF91BF9109
:10548000AF919F918F917F916F915F914F913F91DC
:105490002F910F900BBE0F900FBE0F901F9018957D
:1054A000883109F488C0803241F780932D0714C0F9
:1054B000803409F49DC040F48033B9F38833E9F6B1
:1054C00080932D0785ECB0C0803509F485C0883500
:1054D00009F496C0883489F60E94A224CECF883978
:1054E00009F48CC038F5883729F050F4883611F06B
:1054F000803719F683E080932E0710922C0757C04F
:10550000883809F47BC0803919F0803809F0B5CFAC
:1055100080912C07803208F071C0E0912C0781E067
:105520008E0F80932C078091BB00F0E0E45FF84F72
:1055300080833DC0803B39F0E0F4803A09F479C0C3
:10554000883A09F09ACF84E080932E0710920907D9
:1055500010920807E0910607F091070719958091CE
:10556000080781110FC081E0809308071092E606BA
:1055700009C0803C09F4A6CF883C09F4A3CF883B3E
:1055800009F07BCFE091090781E08E0F8093090736
:10559000F0E0EA51F94F80818093BB0090910907B8
:1055A0008091080729C0809153078093BB0085EC48
:1055B0008093BC0062CF9091520780915107981759
:1055C00058F5E091520781E08E0F80935207F0E08A
:1055D000EF5CF84F8081E9CFE091520781E08E0FB8
:1055E000809352078091BB00F0E0EF5CF84F80831E
:1055F00090915207809151079817C8F285E8D8CF4B
:10560000E091520781E08E0F809352078091BB009A
:10561000F0E0EF5CF84F80838091300781115CCF20
:1056200081E080932F0784EA8093BC0010922E07BC
:1056300024CF85EC8093BC0010922E0780912C071C
:10564000803230F4E0912C07F0E0E45FF84F1082F4
:1056500060912C0770E0E0910A07F0910B078CE055
:1056600097E0199510922C0708CF10922D0734CF90
:10567000FC0113821282158214821782168213860D
:1056800012861586148617861686108A85E694E09B
:1056900091838083F187E0870895CF93DF93109201
:1056A000580C1092570C88EE93E0A0E0B0E0809385
:1056B000590C90935A0CA0935B0CB0935C0C2CED9E
:1056C00034E03093560C2093550C25EC30E03093A9
:1056D000620C2093610C24EC30E03093640C209336
:1056E000630C20EC30E03093660C2093650C21ECC9
:1056F00030E03093680C2093670C22EC30E030935C
:105700006A0C2093690C26EC30E030936C0C2093EB
:105710006B0C10926E0C10926F0C1092700C109219
:10572000710C10926C0710926B0780936D07909329
:105730006E07A0936F07B09370078EEE94E090937E
:105740006A078093690781ED9DE00E94382B80EC09
:105750009DE00E94382B8FEA9DE00E94382B8EE955
:105760009DE00E94382B1092840D1092830D1092B0
:10577000860D1092850D1092880D1092870D109253
:105780008A0D1092890D10928C0D10928B0D109233
:105790008E0D10928D0D1092900D10928F0D109213
:1057A000910D86E195E09093820D8093810D62E8E2
:1057B00075E082E99DE00E94A01D6CE875E088E933
:1057C0009DE00E94A01D10926F0D10926E0D109220
:1057D000710D1092700D1092730D1092720D109247
:1057E000750D1092740D1092770D1092760D109227
:1057F000790D1092780D10927B0D10927A0D109207
:105800007C0D8CE095E090936D0D80936C0D109263
:105810007D0D10927E0D10927F0D1092800D86E707
:105820009DE00E94EA068CE69DE00E942F161092F1
:10583000660D1092650D1092670D1092680D109212
:10584000690D10926A0D10926B0D85E59CE09093A6
:10585000610D8093600D82E390E09093640D8093DE
:10586000630D8AE08093620D10924B0C10924C0CE9
:1058700010924D0C10924E0C80EF8093540CCFB7C9
:10588000F8948091810B811127C0EAE8F8E08491B7
:10589000E4E4F8E09491E82FF0E0EE0FFF1FEB5006
:1058A000F84FA591B491EC91E92321F461E085E3EF
:1058B0000E94C60761E085E30E94F4078CB5806111
:1058C0008CBD8CB580648CBD61E084E30E94F407DC
:1058D00061E083E30E94F4078091810B8F5F8093E6
:1058E000810BCFBF60E08CE00E94C60761E08CE0D6
:1058F0000E94F40761E086E00E94C60761E086E04E
:105900000E94F40760E085E00E94C60761E085E040
:105910000E94F4078CE00E9422118DE00E94221167
:1059200085E00E9422111092540C60EF70E084E533
:105930009CE00E94B11441E253E060E070E083E03B
:105940000E946D1470E060E084E59CE00E94B11458
:1059500085E00E94221140E05AE562E672E08CE0A8
:1059600090E00E94A4131092CB0B1092CA0B8BE70D
:1059700096E09093480C8093470C1092490C10923B
:105980004A0C1092E40B80E095E09093C90B809351
:10599000C80B1092CD0B1092CC0B1092E10B109211
:1059A000D80B1092D90B1092DA0B1092DB0B8FEF01
:1059B0008093E20B8093E60BEAEEFBE080E09CE054
:1059C000CFEFC1938E179F07E1F78AE49CE0909395
:1059D000D10B8093D00B8FE39DE09093D30B8093FA
:1059E000D20B81EE9FE09093D50B8093D40B88E887
:1059F00098E09093D70B8093D60B30E020E040E006
:105A000069E08CEC9BE00E944A0C1092180C1092FA
:105A1000170C85E896E09093010C8093000C81E8C8
:105A200097E09093050C8093040C88E08093060C1B
:105A30001092070C1092240C1092440CD1E0D093D9
:105A4000450CD093460C8CE195E09093030C809329
:105A5000020C8CEC9BE00E94950D1092130C10929E
:105A6000150CC093140CC093160CE091020CF0912D
:105A7000030C0280F381E02D8CEC9BE0199588EEFD
:105A800096E090931A0C8093190C1092270CC093F7
:105A9000F50BC093F60BC093F70B82E08093BE0B1F
:105AA0001092BF0BD093C00BD093C10B1092C30BBD
:105AB0001092C20B1092B00B1092AF0B1092B10B60
:105AC0001092C40B1092C50B1092C60B1092C70B0C
:105AD00084E190E0A0E0B0E08093B20B9093B30B30
