:10000000C2C300000C9429090C94FE080C94D30878
:100010000C94A8080C947D080C9452080C942708A2
:10002000EBC70000E1C30000DFC30000DDC3000038
:10003000DBC30000D9C30000D7C30000D5C3000054
:10004000D3C30000D1C30000CFC30000CDC3000064
:10005000CBC30000C9C30000C7C300000C944723F2
:10006000C3C300000C94FE090C94D509BDC3000065
:10007000BBC30000B9C30000B7C30000B5C3000094
:10008000B3C30000B1C30000AFC30000ADC30000A4
:10009000ABC30000A9C30000A7C300000C94340A3E
:1000A000A3C30000A1C300009FC300009DC30000C4
:1000B0009BC3000099C3000097C3000095C30000D4
:1000C00093C3000091C300008FC300008DC30000E4
:1000D0008BC3000089C3000087C3000085C30000F4
:1000E00083C3000059125612531250124112441287
:1000F00047124A124D12FC1EFF1EEE1EF21EF81E83
:10010000361F031F071F0D1F111F151F1B1F1F1F4A
:10011000231F361F291F2D1F311F07634236B79B30
:10012000D8A71A39685618AEBAAB558C1D3CB7CC57
:100130005763BD6DEDFD753EF6177231BF000000CF
:10014000803F08000000BE922449123EABAAAA2AB2
:10015000BECDCCCC4C3E00000080BEABAAAAAA3ECD
:1001600000000000BF000000803F00000000000809
:100170004178D3BB4387D1133D190E3CC3BD4282A6
:10018000AD2B3E68EC8276BED98FE1A93E4C80EF64
:10019000FFBE01C4FF7F3F00000000000000200000
:1001A0002300260029002C002F003200000100004F
:1001B00003010601090100002100240027002A0094
:1001C0002D003000330001010000040107010A0185
:1001D0000102102020080810204010204080020159
:1001E000020108040201010204081020408080403E
:1001F000201008040201800402018040201008043D
:1002000002010804020101020408102040800102DA
:1002100004081020408005050505070508080808A2
:10022000020202020A0A080804040404010101018E
:100230000101010103030303030303030407070789
:100240000C0C0C0C0C0C0C0C02020202060606062E
:10025000060606060B0B0B0B0B0B0B0B61020302C6
:100260000304010104050800FF06FF060001460221
:100270009603D32006C5FABC022109C5FA40D80E60
:10028000E500220AC5DA49944449CE00230DC53A57
:10029000A5241994CAA0949218240BC55AD952DBEC
:1002A0009264CB01250AC5DA619255C21C04260D61
:1002B000C53A59122559254AB224062708C5FA40DD
:1002C0005867012809C5FA4016B6E6002909C5DABB
:1002D00069D89623002A0BC5FA581449432495017E
:1002E0002B0AC5FA68180D5298032C07C5FACC5A88
:1002F0000D2D08C5FAE42127012E07C5FAAC9A0E88
:100300002F0AC5FA489835E61000300DC5FA409618
:10031000444994444996033109C5FA4026B6CD00B4
:10032000320AC5DA523192C22106330BC5BA43965E
:10033000A94914E900340CC5FA402625D190853925
:1003400000350BC5BA4312AE4914E900360AC5DAC6
:10035000523855A24807370BC5BA43988559982398
:1003600000380AC5DA5249AA44910E390AC5DA5250
:10037000258AC648073A09C5FAA0A6239A0E3B0962
:10038000C5FAA8A6235A0D3C09C5FA48564CCB001D
:100390003D09C5FA94211E72103E09C5DA6931ABD8
:1003A00023003F0BC5FA409684590EE500400CC56A
:1003B0005A52242D8992485505410CC5DA52254AD6
:1003C00086244AA218420AC5BA5365AA44C90E43F4
:1003D0000AC5DA52252C453A00440CC5BA53254AC1
:1003E000A2244A7600450BC5BA43124E6138C400B8
:1003F000460AC5BA43124E611D02470BC5DA5225A3
:100400004C9428D201480EC5BA51122543122551E9
:1004100012C5004908C5DA5BD836034A0AC5DA5B5B
:10042000584AB21C014B0CC5BA5152D2922889CA03
:10043000004C08C5BA61C721064D0EC5BA51322419
:100440004312255112C5004E0EC5BA51A224439243
:10045000288912C5004F0CC5DA52254AA2248A7495
:1004600000500BC5BA53254AA6308700510CC5DA97
:1004700052254A948AA42600520BC5BA53254AA68F
:100480004A14035309C5DA526B54D2015407C5DA32
:100490005BD81D550DC5BA51122551122551A40323
:1004A000560CC5BA5112255112459A0E570EC5BAAF
:1004B0005112255132244312C500580CC5BA5112AD
:1004C000459A54896200590AC5BA9996D4C23A002D
:1004D0005A0AC5BA4398350E31005B08C5DA53D8BD
:1004E00038035C08C5BA61DA18035D07C5DA63A78B
:1004F000195E09C5FA4096E4AC005F08C5FA3C0CE9
:1005000009006007C5DA69CE0C610AC5FAA4254A5C
:10051000A26806620AC5BA613855A264076309C5B4
:10052000FA34294C6500640CC5FA48182D5112455F
:1005300033006509C5FA242931EA00660CC5FA4082
:100540009644D916E60800670AC5FA24A93446126B
:1005500000680BC5BA613855A2248A016909C5FA39
:10056000408E88B5196A0BC5FA480E85A5248B0004
:100570006B0AC5BA6129992A510C6C07C5DA62B7B2
:10058000196D0BC5FA14A54549942A006E0AC5FADF
:1005900094A91225510C6F0AC5FA24A912453A00F4
:1005A000700AC5FA94A932852100710AC5FAA425FA
:1005B0008AC60A00720AC5FA949252CC21007309C5
:1005C000C5FA34498D7400740AC5DA61B685499656
:1005D00003750BC5FA94288992289A01760BC5FAFF
:1005E000A4244AA224CB01770AC5FA944C4994CE9C
:1005F00000780AC5FA9428D2A43200790CC5FA947E
:100600002889A2258A24007A0AC5FA9421AB0D31E3
:10061000007B0AC53A52258A7416007C08C5FA4048
:10062000D83B007D0DC5FA80525112A5B28511004C
:100630007E08C5DA493B33007F06C5FABC02800656
:10064000C5FABC0200000004FFFF000053572076EB
:100650000048572076312E3000444453204144391D
:1006600039313020627920475241202620414643CB
:100670004800463320546F6F204C4F572046726518
:100680007100463220546F6F204C4F5720467265E0
:100690007100463120546F6F204C4F5720467265D1
:1006A0007100463020546F6F204C4F5720467265C2
:1006B000712000463320546F6F2048494748204638
:1006C00072657100463220546F6F204849474820B8
:1006D0004672657100463120546F6F204849474883
:1006E000204672657100463020546F6F204849479C
:1006F00048204672657100202020202020202020E4
:10070000202020202020200000002200250028009A
:100710002B002E0031003400020100000501080109
:100720000B0100000A0B02090C0D0E08070304015F
:1007300000000000000000000000000000000000B9
:100740000000000000000000000000000000121186
:100750001000000000000000000000000000000089
:100760000000000000000000436820467265712E02
:1007700020487A2020202064426D205068617365F3
:100780007D00C1260C3111241FBECFEFD1E2DEBFA8
:10079000CDBF00E00CBF2CE0A2EEB5E001C01D9281
:1007A000A33EB207E1F715E0A0E0B2E0EAE1F1E72D
:1007B00000E00BBF02C007900D92A23EB107D9F72F
:1007C00013E0C2ECD3E000E006C021970109802FBE
:1007D000FE010E946335C13CD10780E00807A9F7FC
:1007E0000E9498290C947C380BCC0895CF92DF920C
:1007F000EF92FF920F931F93CF93DF936C017A01D7
:100800008B01C0E0D0E0CE15DF0589F0D8016D91F5
:100810008D01D601ED91FC910190F081E02DC60192
:100820001995892B11F47E0102C02196ECCFC701E6
:10083000DF91CF911F910F91FF90EF90DF90CF90BC
:100840000895FC01538D448D252F30E0842F90E0D6
:10085000821B930B541710F0CF96089501970895BB
:10086000FC01918D828D981761F0828DDF01A80FB8
:10087000B11D5D968C91928D9F5F9F73928F90E0DA
:1008800008958FEF9FEF0895FC01918D828D981749
:1008900031F0828DE80FF11D858D90E008958FEF86
:1008A0009FEF0895FC01918D228D892F90E0805C4F
:1008B0009F4F821B91098F739927089582EE95E0CF
:1008C000F1DF21E0892B09F420E0822F0895FC015B
:1008D000848DDF01A80FB11DA35ABF4F2C91848DC9
:1008E00090E001968F739927848FA689B7892C93FE
:1008F000A089B1898C9180648C93938D848D981399
:1009000006C00288F389E02D80818F7D8083089561
:10091000EF92FF920F931F93CF93DF93EC0181E04F
:10092000888F9B8D8C8D981305C0E889F98980810B
:1009300085FD23C0F62E0B8D10E00F5F1F4F0F7348
:100940001127E02E8C8DE8120BC00FB607FCFACFF2
:10095000E889F989808185FFF5CFCE01B8DFF2CF34
:100960008B8DFE01E80FF11DE35AFF4FF0820B8FD4
:10097000EA89FB898081806207C0EE89FF896083F4
:10098000E889F98980818064808381E090E0DF914B
:10099000CF911F910F91FF90EF900895CF93DF9328
:1009A000EC01888D8823C1F0EA89FB89808185FD6F
:1009B00005C0A889B9898C9186FD0EC00FB607FCC9
:1009C000F5CF808185FFF2CFA889B9898C9185FF09
:1009D000EDCFCE017CDFE8CFDF91CF91089580E0AD
:1009E00090E0892B19F06ADF811125C080E090E04A
:1009F000892B41F080E090E0892B21F00E940000DB
:100A000081111CC080E090E0892B41F080E090E0F3
:100A1000892B21F00E940000811113C080E090E03A
:100A2000892BA1F080E090E0892B81F00E940000EA
:100A300081110AC008950E940000D8CF0E940000D2
:100A4000E1CF0E940000EACF0C940000089585EDEC
:100A50008093BC008091BC0084FDFCCF1092070CF9
:100A6000089540914F0C262F30E0240F311D213284
:100A70003105DCF42091070C2430C9F4FC0180E03E
:100A800090E0861758F430914F0C2191DC01A35D62
:100A9000B34FA30FB11D2C930196F3CF80914F0C50
:100AA000680F60934F0C80E0089581E0089582E024
:100AB0000895089581E090E03091050C2091040C98
:100AC000321710F480E090E0919581959109089596
:100AD0008091050C9091040C891730F48F5F8093FE
:100AE000050C80E090E008958FEF9FEF08958091CE
:100AF000040C90E02091050C821B91090895CF927F
:100B0000DF92EF92FF920F931F93CF93DF937C01BD
:100B1000262F972F8A018091030C882391F0C62FEE
:100B2000D72F6E01C40ED51ECC15DD0569F0699175
:100B3000D701ED91FC910190F081E02DC70119954D
:100B4000F3CF642F822F8DDFC801DF91CF911F91EA
:100B50000F91FF90EF90DF90CF900895CF93DF93A8
:100B60001F92CDB7DEB769832091030C2223D1F009
:100B70002091020C203240F021E030E0FC01338370
:100B8000228380E090E014C08091010CE82FF0E017
:100B9000EF51F44F998190838F5F8093010C809384
:100BA000020C04C061E0CE0101965BDF81E090E0C1
:100BB0000F90DF91CF91089580E00895DC011A969F
:100BC000ED91FC911B9720E030E01994EF92FF9299
:100BD0000F931F93CF93DF931F92CDB7DEB77C01A6
:100BE0008B01D8016C916731D9F078F4653198F1B7
:100BF000F80141814983D7011696ED91FC91179731
:100C000020E030E0C701199523C06A31A0F06E3FA3
:100C100011F5F8014181498369E2C701CFDF18C0AE
:100C2000F80181818983AE014F5F5F4F61E0C701A9
:100C30000E9490150DC00F5F1F4FD7011696ED91C2
:100C4000FC91179720E030E040E0C7011995C9CF2B
:100C50000E5F1F4FC6CF0F90DF91CF911F910F9165
:100C6000FF90EF900895EF92FF920F931F93CF9311
:100C7000DF93EC01142F79016D30A1F118F46B3082
:100C800039F15CC06E3009F43EC06F3009F056C0D7
:100C90000E948615F70183810C89F8E08F9F000D73
:100CA000112460E4CE010E94A315602F62956F703D
:100CB0006061CE010E94A315602F6F70CE010E946B
:100CC0009915F7016481606BCE010E94991526C0C9
:100CD000411103C066E774E002C061E774E0CE0131
:100CE00075DF69C0411107C06AE674E06FDFE88113
:100CF000F981828906C063E674E068DFE881F981E2
:100D000083898C8B58C00E94861561E8CE010E94B1
:100D1000A315612FCE010E9499150CC0F7014081E7
:100D200051816281660F660F660FCE010E94901599
:100D30001150A1F7CE010E947C153DC0693031F4FD
:100D400080EB94E09983888382E0DBCF6A3089F579
:100D5000EA85FB8520E030E040E068E2CE011995AD
:100D6000EE81FF8120E030E040E064E1CE011995A2
:100D700041E06BE4CE0122DFE881F981448169E240
:100D8000CE011CDF40E06BE4CE0118DFE881F98181
:100D9000448169E2CE0112DF41E06BE4CE010EDF57
:100DA000E881F981458169E2CE0108DF6BE774E0F3
:100DB00096CF80E001C081E0DF91CF911F910F912C
:100DC000FF90EF900895EF92FF921F93CF93DF93E0
:100DD000EC01162F7A010E94B71560E4CE010E9443
:100DE000C115E885F9859701412F67E1CE01199575
:100DF000CE01DF91CF911F91FF90EF900C94AD1534
:100E0000EF92FF921F93CF93DF931F921F92CDB764
:100E1000DEB77C01142F673128F4653140F464316A
:100E200039F13FC0673191F06A3170F03AC00E94E9
:100E3000B71560E0C7010E94C115612FC7010E946C
:100E4000C115C7010E94AD1581E02CC0A90119315F
:100E500058F068E1C70129833A83B5DF1851298129
:100E60003A81285E3F4FF2CF612FC701ACDFECCF54
:100E7000DC0156968C9156978F3F19F488E7569669
:100E80008C93D7011896ED91FC911997412F64E14D
:100E9000C7010F900F90DF91CF911F91FF90EF90BE
:100EA000199480E00F900F90DF91CF911F91FF90E8
:100EB000EF9008950F931F93CF93DF93EC018881F8
:100EC0009981009729F02A813B812617370788F4FA
:100ED0008B016F5F7F4F0E947D37009761F0998390
:100EE00088831B830A832C813D81232B11F4FC0111
:100EF000108281E001C080E0DF91CF911F910F91BE
:100F00000895CF93DF93EC0188819981009711F0C8
:100F10000E94E536198218821D821C821B821A8269
:100F2000DF91CF910895FC01808191810C94E53689
:100F3000EF92FF920F931F93CF93DF93CDB7DEB75E
:100F400062970FB6F894DEBF0FBECDBF8C01CB0108
:100F5000F80111821082138212821582148250E0ED
:100F60009E012F5F3F4F7901B9010E941F31F701A8
:100F700001900020E9F73197AF014E195F09B701E1
:100F8000C8014AD462960FB6F894DEBF0FBECDBF3B
:100F9000DF91CF911F910F91FF90EF900895FB018A
:100FA000DC0111961C921E9213961C921E921297AF
:100FB00015961C921E9214978617970741F0608130
:100FC00071816115710519F04481558125C4089519
:100FD000FC01118210821382128215821482611523
:100FE000710549F0FB0101900020E9F73197AF014D
:100FF000461B570B11C408951F920F920FB60F9204
:1010000011240BB60F922F933F934F935F936F93DF
:101010007F938F939F93AF93BF93EF93FF93E09151
:101020000E02F0910F021995FF91EF91BF91AF91D0
:101030009F918F917F916F915F914F913F912F91F0
:101040000F900BBE0F900FBE0F901F9018951F9220
:101050000F920FB60F9211240BB60F922F933F935E
:101060004F935F936F937F938F939F93AF93BF93B0
:10107000EF93FF93E0910C02F0910D021995FF910F
:10108000EF91BF91AF919F918F917F916F915F9100
:101090004F913F912F910F900BBE0F900FBE0F906D
:1010A0001F9018951F920F920FB60F9211240BB636
:1010B0000F922F933F934F935F936F937F938F93F1
:1010C0009F93AF93BF93EF93FF93E0910202F09150
:1010D00003021995FF91EF91BF91AF919F918F916D
:1010E0007F916F915F914F913F912F910F900BBE28
:1010F0000F900FBE0F901F9018951F920F920FB672
:101100000F9211240BB60F922F933F934F935F933F
:101110006F937F938F939F93AF93BF93EF93FF93BF
:10112000E0910002F09101021995FF91EF91BF91BA
:10113000AF919F918F917F916F915F914F913F916F
:101140002F910F900BBE0F900FBE0F901F90189510
:101150001F920F920FB60F9211240BB60F922F937E
:101160003F934F935F936F937F938F939F93AF932F
:10117000BF93EF93FF93E0910A02F0910B02199550
:10118000FF91EF91BF91AF919F918F917F916F915F
:101190005F914F913F912F910F900BBE0F900FBE1B
:1011A0000F901F9018951F920F920FB60F92112457
:1011B0000BB60F922F933F934F935F936F937F9351
:1011C0008F939F93AF93BF93EF93FF93E0910802A8
:1011D000F09109021995FF91EF91BF91AF919F9105
:1011E0008F917F916F915F914F913F912F910F90D0
:1011F0000BBE0F900FBE0F901F9018951F920F926D
:101200000FB60F9211240BB60F922F933F934F936B
:101210005F936F937F938F939F93AF93BF93EF935E
:10122000FF93E0910602F09107021995FF91EF916B
:10123000BF91AF919F918F917F916F915F914F91EE
:101240003F912F910F900BBE0F900FBE0F901F90EC
:1012500018951F920F920FB60F9211240BB60F9292
:101260002F933F934F935F936F937F938F939F93AE
:10127000AF93BF93EF93FF93E0910402F0910502C7
:101280001995FF91EF91BF91AF919F918F917F91B0
:101290006F915F914F913F912F910F900BBE0F90E7
:1012A0000FBE0F901F901895EF92FF920F931F9310
:1012B000CF93DF938C017B01C0E0D0E0F701EC0F0E
:1012C000FD1F6491662361F0D801ED91FC910190BE
:1012D000F081E02DC8011995892B11F02196EECFF0
:1012E000CE01DF91CF911F910F91FF90EF90089564
:1012F0006115710579F0FB0101900020E9F7319744
:10130000AF01461B570BDC01ED91FC910280F3818C
:10131000E02D199480E090E008954F925F926F92D3
:101320007F92EF92FF920F931F93CF93DF93CDB7EE
:10133000DEB7A1970FB6F894DEBF0FBECDBF7C011C
:10134000FA01CB0119A2223008F42AE08E010F5DC8
:101350001F4F422E512C612C712CBF01A301920111
:101360000E944135F901CA01015011096A3014F493
:10137000605D01C0695CD8016C93232B242B252B65
:1013800061F7B801C701B4DFA1960FB6F894DEBFCC
:101390000FBECDBFDF91CF911F910F91FF90EF90C6
:1013A0007F906F905F904F9008951F920F920FB6AD
:1013B0000F9211240BB60F922F933F934F935F938D
:1013C0006F937F938F939F93AF93BF93EF93FF930D
:1013D00082EE95E07CDAFF91EF91BF91AF919F9102
:1013E0008F917F916F915F914F913F912F910F90CE
:1013F0000BBE0F900FBE0F901F9018951F920F926B
:101400000FB60F9211240BB60F922F938F939F93C9
:10141000EF93FF93E091F205F091F3058081E09165
:10142000F805F091F90582FD12C090818091FB05CD
:101430008F5F8F732091FC05821751F0E091FB05BF
:10144000F0E0EE51FA4F958F8093FB0501C080814B
:10145000FF91EF919F918F912F910F900BBE0F9065
:101460000FBE0F901F9018951F920F920FB60F92FC
:1014700011240BB60F922F933F934F935F936F936B
:101480007F938F939F93AF93BF93EF93FF9380913D
:10149000B900887F803609F49CC068F5883209F469
:1014A0005BC090F4803109F454C038F4882309F407
:1014B000F6C0883009F44DC0F5C0883109F44CC03D
:1014C000803209F45DC0EEC0803409F468C048F48D
:1014D000803309F455C0883309F0E4C08093060CCA
:1014E000D8C0803509F44FC0883509F45DC0883410
:1014F00009F0D8C0D6C0883909F4C7C0A8F4883725
:1015000009F467C038F4883609F463C0803709F4F9
:1015100060C0C8C0883809F4B8C0803909F45FC019
:10152000803809F0BFC05BC0803B09F486C038F446
:10153000803A09F466C0883A09F47FC0B3C0803CA1
:1015400009F4A7C0883C09F4A4C0883B09F48AC008
:10155000A9C080912C0C10C090912B0C80912A0C6A
:10156000981770F5E0912B0C81E08E0F80932B0C77
:10157000F0E0E65FF34F80818093BB0085EC86C08E
:101580008093060C8EC0E0912B0C81E08E0F80932F
:101590002B0C8091BB00F0E0E65FF34F80839091CD
:1015A0002B0C80912A0C6EC0E0912B0C81E08E0FE9
:1015B00080932B0C8091BB00F0E0E65FF34F8083BB
:1015C0008091090C81116DC081E08093080C84EA40
:1015D00061C083E08093070C1092730CCFCF809191
:1015E000730C803208F051C0E091730C81E08E0FD3
:1015F0008093730C8091BB00F0E0ED5AF34F808331
:10160000BDCF85EC8093BC001092070C8091730CC9
:10161000803230F4E091730CF0E0ED5AF34F108219
:101620006091730C70E0E091510CF091520C83E5E5
:101630009CE019951092730C35C084E08093070CE0
:101640001092500C10924F0CE0914D0CF0914E0CFA
:10165000199580914F0C811105C081E080934F0C4A
:1016600010922D0CE091500C81E08E0F8093500C65
:10167000F0E0E35DF34F80818093BB009091500CCC
:1016800080914F0C981708F479CF85E88093BC00BF
:1016900009C085EC8093BC001092070C03C0109227
:1016A000060CD5D9FF91EF91BF91AF919F918F918A
:1016B0007F916F915F914F913F912F910F900BBE52
:1016C0000F900FBE0F901F901895CF92DF92EF9260
:1016D000FF92CF93DF93EC010E943B236B017C01CF
:1016E0008F850E94712121E0892B09F420E0298B4C
:1016F0008889811103C081E08227898B29898A89A1
:10170000281721F0CD8ADE8AEF8AF88E8D899E898E
:10171000AF89B88DB701A601481B590B6A0B7B0B2B
:10172000DB01CA01CB80DC80ED80FE80C416D506CB
:10173000E606F70664F43A81231749F02A83222348
:1017400031F04B895C894F5F5F4F5C8B4B8B3A81EB
:1017500031110CC0CF80D884E984FA84C816D90628
:10176000EA06FB06ACF48B899C890EC0CB84DC8432
:10177000ED84FE84C816D906EA06FB064CF48B8974
:101780009C89919581959109998388831C8A1B8AEC
:101790002A8BDF91CF91FF90EF90DF90CF9008954B
:1017A000DC011496ED91FC91159720E030E040E0CB
:1017B00060E119940E946138EF92FF920F931F939A
:1017C000CF93DF93EC01FB0184819581E080F18070
:1017D0000C811D81E114F104A9F00097A9F0080F14
:1017E000191FB801CE0166DB882361F02881398199
:1017F0008C819D81B701820F931F0E9475381D83D4
:101800000C8302C0CE017DDBCE01DF91CF911F9111
:101810000F91FF90EF900895EF92FF920F931F9317
:10182000CF93DF93EC017B018A01BA0143DB811185
:1018300003C0CE0166DB07C01D830C83B70188811E
:1018400099810E947538CE01DF91CF911F910F9140
:10185000FF90EF9008954F925F926F927F928F92D8
:101860009F92AF92BF92CF92DF92EF92FF92CF936F
:10187000DF9300D01F92CDB7DEB7E091B603F091B1
:10188000B703A091C703B091C80320E432E44FE04E
:1018900050E00E9471352B013C0128EE33E0DF015E
:1018A0000E946B35460E571E681E791E8091A50357
:1018B0009091A603092E000CAA0BBB0B480E591ED3
:1018C0006A1E7B1E4092840C5092850C6092860C9E
:1018D0007092870CE0915003F0915103A091610345
:1018E000B091620320E432E44FE050E00E94713591
:1018F0004B015C0128EE33E0DF010E946B35860E60
:10190000971EA81EB91E80913F0390914003092E97
:10191000000CAA0BBB0B880E991EAA1EBB1E809240
:10192000800C9092810CA092820CB092830CE0917A
:10193000EA02F091EB02A091FB02B091FC0220E4DC
:1019400032E44FE050E00E9471356B017C0128EEDB
:1019500033E0DF010E946B35C60ED71EE81EF91E6C
:101960008091D9029091DA02092E000CAA0BBB0BD0
:10197000C80ED91EEA1EFB1EC0927C0CD0927D0CB4
:10198000E0927E0CF0927F0CE0918402F09185024F
:10199000A0919502B091960220E432E44FE050E02D
:1019A0000E94713569837A838B839C8328EE33E0B0
:1019B000DF010E946B3529813A814B815C81260FC2
:1019C000371F481F591FDA01C90140917302509116
:1019D0007402052E000C660B770B840F951FA61F53
:1019E000B71F8093780C9093790CA0937A0CB093E6
:1019F0007B0C4091DB0C5091DC0C6091DD0C709104
:101A0000DE0C441555056605770508F454C031E42D
:101A100043163AE3530639E663063DE0730608F0E1
:101A20004AC0E0EA4E16E6E85E06E1E06E067104A2
:101A300008F443C0481559056A057B0508F43FC002
:101A4000F1E48F16FAE39F06F9E6AF06FDE0BF0664
:101A5000B0F520EA821626E8920621E0A206B1043B
:101A600080F14C155D056E057F0568F131E4C31604
:101A70003AE3D30639E6E3063DE0F30620F5E0EA73
:101A8000CE16E6E8DE06E1E0EE06F104F0F04817D7
:101A900059076A077B07D8F08134FAE39F07F9E614
:101AA000AF07FDE0BF0798F4803A9648A140B10522
:101AB00080F080E00FC081E00DC08FEF0BC082E0AE
:101AC00009C08EEF07C083E005C08DEF03C084E03E
:101AD00001C08CEF0F900F900F900F90DF91CF917E
:101AE000FF90EF90DF90CF90BF90AF909F908F903E
:101AF0007F906F905F904F900895AF92BF92CF927A
:101B0000DF92EF92FF920F931F93CF93DF9300D05A
:101B100000D0CDB7DEB7882321F0813009F4D0C4DE
:101B2000E0C582E080935E0784E180935F07809147
:101B3000750C9091760C8F5C974011F480E001C099
:101B400081E00E94A82085E895E00E94122081E0B3
:101B50000E94A82081E180935E0784E180935F0763
:101B60008091750C9091760C8D5B934059F4809127
:101B7000CD03882329F08DEC93E00E94001903C067
:101B800080E001C081E00E94A8206091C7037091AD
:101B9000C80343E0CE0101960E940A26CE010196B9
:101BA0000E94AE20CE010196BED981E00E94A820FD
:101BB00088E895E00E9412208091750C9091760C37
:101BC0008C5A934059F48091BC03882329F08CEB04
:101BD00093E00E94001903C080E001C081E00E94F0
:101BE000A8206091B6037091B70343E0CE0101963F
:101BF0000E940A26CE0101960E94AE20CE010196D7
:101C000092D981E00E94A82088E895E00E941220E5
:101C10008091750C9091760C8B59934059F480917A
:101C2000AB03882329F08BEA93E00E94001903C0DC
:101C300080E001C081E00E94A8206091A50370911E
:101C4000A60343E0CE0101960E940A26CE0101962A
:101C50000E94AE20CE01019666D981E00E94A820A4
:101C60008DE480935E0784E180935F078091750C1B
:101C70009091760C8A58934059F480919A03882366
:101C800029F08AE993E00E94001903C080E001C0B6
:101C900081E00E94A8208AE895E00E9412206091CD
:101CA00094037091950342E0CE0101960E940A26AA
:101CB000CE0101960E94AE20CE01019634D981E07A
:101CC0000E94A82081E680935E0784E180935F07ED
:101CD0008091750C9091760C8957934059F48091BE
:101CE0008903882329F089E893E00E94001903C042
:101CF00080E001C081E00E94A82060918303709180
:101D0000840343E0CE0101960E940A26CE0101968B
:101D10000E94AE20CE01019606D981E00E94A82043
:101D200088E895E00E9412208091750C9091760CC5
:101D30008856934059F480917803882329F088E7E6
:101D400093E00E94001903C080E001C081E00E947E
:101D5000A82080917203909173030E94BF2081E0BC
:101D60000E94A8208CE895E00E94122082E08093D7
:101D70005E078EE180935F078091750C9091760CE1
:101D80008E5B974011F480E001C081E00E94A820A2
:101D90008EE895E00E94122081E00E94A82081E157
:101DA00080935E078EE180935F078091750C909120
:101DB000760C8755934059F480916703882329F066
:101DC00087E693E00E94001903C080E001C081E033
:101DD0000E94A820609161037091620343E0CE01EC
:101DE00001960E940A26CE0101960E94AE20CE01E5
:101DF000019699D881E00E94A82088E895E00E9489
:101E000012208091750C9091760C8654934059F471
:101E100080915603882329F086E593E00E940019FB
:101E200003C080E001C081E00E94A82060915003BF
:101E30007091510343E0CE0101960E940A26CE0123
:101E400001960E94AE20CE0101966DD881E00E94DD
:101E5000A82088E895E00E9412208091750C90914E
:101E6000760C8553934059F480914503882329F0DB
:101E700085E493E00E94001903C080E001C081E086
:101E80000E94A82060913F037091400343E0CE017F
:101E900001960E940A26CE0101960E94AE20CE0134
:101EA000019641D881E00E94A8208DE480935E07CE
:101EB0008EE180935F078091750C9091760C84522F
:101EC000934059F480913403882329F084E393E00C
:101ED0000E94001903C080E001C081E00E94A82098
:101EE0008AE895E00E94122060912E0370912F03E2
:101EF00042E0CE0101960E940A26CE0101960E9480
:101F0000AE20CE0101960FD881E00E94A82081E684
:101F100080935E078EE180935F078091750C9091AE
:101F2000760C8351934059F480912303882329F040
:101F300083E293E00E94001903C080E001C081E0C9
:101F40000E94A82060911D0370911E0343E0CE0102
:101F500001960E940A26CE0101960E94AE20CE0173
:101F600001960E94930781E00E94A82088E895E0EE
:101F70000E9412208091750C9091760C82509340B3
:101F800059F480911203882329F082E193E00E94A2
:101F9000001903C080E001C081E00E94A820809168
:101FA0000C0390910D030E94BF2081E00E94A820A5
:101FB0008CE895E00E94122082E080935E0788E220
:101FC00080935F078091750C9091760C8D5A9740A5
:101FD00011F480E001C081E00E94A82081E995E031
:101FE0000E94122081E00E94A82081E180935E0778
:101FF00088E280935F078091750C9091760C815FE9
:10200000924059F480910103882329F081E093E004
:102010000E94001903C080E001C081E00E94A82056
:102020006091FB027091FC0243E0CE0101960E9498
:102030000A26CE0101960E94AE20CE0101960E9492
:10204000930781E00E94A82088E895E00E94122072
:102050008091750C9091760C805E924059F480913D
:10206000F002882329F080EF92E00E94001903C05B
:1020700080E001C081E00E94A8206091EA02709196
:10208000EB0243E0CE0101960E940A26CE010196A2
:102090000E94AE20CE0101960E94930781E00E942B
:1020A000A82088E895E00E9412208091750C9091FC
:1020B000760C8F5C924059F48091DF02882329F0DE
:1020C0008FED92E00E94001903C080E001C081E022
:1020D0000E94A8206091D9027091DA0243E0CE01FB
:1020E00001960E940A26CE0101960E94AE20CE01E2
:1020F00001960E94930781E00E94A8208DE48093BE
:102100005E0788E280935F078091750C9091760C52
:102110008E5B924059F48091CE02882329F08EEC98
:1021200092E00E94001903C080E001C081E00E949B
:10213000A8208AE895E00E9412206091C802709160
:10214000C90242E0CE0101960E940A26CE01019604
:102150000E94AE20CE0101960E94930781E00E946A
:10216000A82081E680935E0788E280935F078091D4
:10217000750C9091760C8D5A924059F48091BD0265
:10218000882329F08DEB92E00E94001903C080E0C3
:1021900001C081E00E94A8206091B7027091B8024E
:1021A00043E0CE0101960E940A26CE0101960E94CC
:1021B000AE20CE0101960E94930781E00E94A820E4
:1021C00088E895E00E9412208091750C9091760C21
:1021D0008C59924059F48091AC02882329F08CEA02
:1021E00092E00E94001903C080E001C081E00E94DB
:1021F000A8208091A6029091A7020E94BF2081E0B2
:102200000E94A8208CE895E00E94122082E0809332
:102210005E0782E380935F078091750C9091760C46
:102220008C59974011F480E001C081E00E94A82001
:1022300084E995E00E94122081E00E94A82081E1BB
:1022400080935E0782E380935F078091750C909185
:10225000760C8B58924051F480919B02882321F098
:102260008BE992E0CDD703C080E001C081E00E94FD
:10227000A820609195027091960243E0CE010196EC
:102280000E940A26CE0101960E94AE20CE01019640
:102290000E94930781E00E94A82088E895E00E94B0
:1022A00012208091750C9091760C8A57924051F4CF
:1022B00080918A02882321F08AE892E0A1D703C0A6
:1022C00080E001C081E00E94A820609184027091AA
:1022D000850243E0CE0101960E940A26CE010196B6
:1022E0000E94AE20CE0101960E94930781E00E94D9
:1022F000A82088E895E00E9412208091750C9091AA
:10230000760C8956924051F480917902882321F00D
:1023100089E792E075D703C080E001C081E00E94A8
:10232000A820609173027091740243E0CE0101967F
:102330000E940A26CE0101960E94AE20CE0101968F
:102340000E94930781E00E94A8208DE480935E079D
:1023500082E380935F078091750C9091760C88558D
:10236000924051F480916802882321F088E692E03F
:1023700047D703C080E001C081E00E94A8208AE81E
:1023800095E00E941220609162027091630242E027
:10239000CE0101960E940A26CE0101960E94AE202F
:1023A000CE0101960E94930781E00E94A82081E659
:1023B00080935E0782E380935F078091750C909114
:1023C000760C8754924051F480915702882321F073
:1023D00087E592E015D703C080E001C081E00E944C
:1023E000A820609151027091520243E0CE01019603
:1023F0000E940A26CE0101960E94AE20CE010196CF
:102400000E94930781E00E94A82088E895E00E943E
:1024100012208091750C9091760C8653924051F465
:1024200080914602882321F086E492E0E9D603C039
:1024300080E001C081E00E94A8208091400290913C
:1024400041020E94BF2081E00E94A8208CE895E014
:102450000E94122010925E078DE380935F07FBD9E4
:10246000082E000C990BAA0BBB0BFC013496E9302B
:10247000F10508F034C18827EE58FF4F8F4F0C94B8
:10248000633567EF76E017C066EE76E014C065ED61
:1024900076E011C064EC76E00EC063EB76E00BC032
:1024A00062EA76E008C062E976E005C062E876E0BC
:1024B00002C062E776E08DED96E00E9454090FC1FC
:1024C00083E380935E0788E080935F0787E995E068
:1024D0000E94122010925E078AE180935F078DE9C7
:1024E00095E00E9412208091750C9091760C8F5788
:1024F000974059F480918F07882321F08FE897E067
:102500007FD601C080E00E94A820209189073091E9
:102510008A0746E0429FC001439F900D11248057D7
:10252000984F0E94AE2081E00E94A82083E795E0AA
:102530000E94122010925E0782E280935F0789EA70
:1025400095E00E94122083E795E00E9412202091DE
:10255000890730918A078091750C9091760C232B16
:1025600051F5845E934059F48091F403882321F05F
:1025700084EF93E045D601C080E00E94A820E0915E
:10258000EE03F091EF03EE0FFF1FEE0FFF1FEC5174
:10259000FC4F618972898389948920E432E44FE099
:1025A00050E00E944135BA01A9012AE08DED96E084
:1025B0000E948D091FC0835D934059F48091E3030D
:1025C000882321F083EE93E01BD601C080E00E94B7
:1025D000A8206091DD037091DE0343E0CE010196F7
:1025E0000E940A26CE0101960E94AE20CE010196DD
:1025F0000E94930781E00E94A82085EB95E00E944D
:10260000122010925E078AE280935F078BEB95E0C1
:102610000E94122081E00E94A82083E795E00E949A
:1026200012208091750C9091760C8A56974059F43F
:1026300080917A07882321F08AE797E0E1D501C0ED
:1026400080E00E94A8200E949B1FE0E4AE2EF2E4EE
:10265000BF2EAFE0CA2ED12CE12CF12C00E010E00F
:102660000E94A035E22F2AE0BA014E2F532F8DEDA4
:1026700096E00E948D0981E00E94A82085EB95E0FC
:102680000E94122010925E078FE380935F07809173
:10269000750C9091760C8152924019F480E00E9462
:1026A000A82086EC95E00E94952081E00E94A82059
:1026B00087E680935E078FE380935F078091750CB8
:1026C0009091760C8051924019F480E00E94A820ED
:1026D0008BEC95E00E94952081E00E94A8200E944A
:1026E0000A2026960FB6F894DEBF0FBECDBFDF914D
:1026F000CF911F910F91FF90EF90DF90CF90BF90FF
:10270000AF900895662329F06A3019F0862F90E083
:1027100008958FEF9FEF08950F93DC01DE963C91B3
:10272000DE97431BD496ED91FC91D59719950F91A7
:102730000895CF93DF93FC01A081B18192AD892FE1
:10274000880F880F880F85AF50968C9150978032F4
:1027500008F08FE1880F880F880F84AF23AD822F98
:10276000880F880F880F86AF51963C915197422F62
:1027700050E0490F511D632F70E06417750714F482
:10278000932F921B87AFEF01C05CDF4F28E0929F31
:10279000800D11248883219680EF888354968D9133
:1027A0009C915597813F910508F48883EE5BFF4F1C
:1027B00056968C918083DF91CF910895EF92FF928E
:1027C0000F931F93CF93DF93DC01942F9770E1E079
:1027D000F0E0092E01C0EE0F0A94EAF71E2FED017A
:1027E000C758DF4F8881823028F47E2F813019F45A
:1027F00010E001C070E050E0487FD896ED90FC906A
:10280000D997ED91FC9111978089849FF001859F64
:10281000F00D1124E60FF11DEE0DFF1D01110CC08E
:102820002E0F8081872B812781932E13FACF1DC015
:10283000770F110F2223C9F03081372B31273083D6
:102840009F5F977021509111F3CFDC968C91DC97AC
:10285000E80FF11D8881823020F4813021F011E0F1
:1028600002C011E0E7CF71E0E5CFDF91CF911F917A
:102870000F91FF90EF90089580E00895CF93DF933C
:10288000EC01962F683109F452C060F4B90194311B
:1028900079F0973109F0C2C050E08FE796E00E94CE
:1028A0007F0543C0693109F465C06032F1F1B6C0FB
:1028B0008C859D85AE85BF85892B8A2B8B2B71F4EA
:1028C000E881F981A585B0E020EA36E841E050E0F2
:1028D0000E9463326C877D878E879F871092050CDC
:1028E0001092040C1092010C1092020C1092070C22
:1028F00081E08093090C1092080C61E084E10E9451
:10290000992161E085E10E9499218091B9008E7F33
:102910008093B9008091B9008D7F8093B90088E4DD
:102920008093B80085E48093BC0081E078C02C855A
:102930003D854E855F8560E074E284EF90E00E9403
:102940004135DA01C9014097A109B109B695A795AA
:10295000979587958093B8008E8990E09595879597
:1029600091E09093030C8093950C1092010C1092BF
:10297000020CDBCF9091020C8091950C913208F003
:1029800046C02091070C2111FCCF22E02093070CB8
:1029900021E02093090C2FEF2093060C10922B0CB2
:1029A00090932A0CA1EEBBE04AE05CE0FA012E2FE6
:1029B000241B291718F42D912193F9CF10922C0C78
:1029C00090912C0C880F892B80932C0C8091080CF3
:1029D000813061F41092080C80912C0C8093BB0024
:1029E0008091BC0083FDF8CF85EC01C085EE80931B
:1029F000BC008091070C8230E1F38091060C8F3F80
:102A000031F08091060C803211F08091060C10920A
:102A1000010C1092020C1092030C87CF80E0DF9122
:102A2000CF9108951F93CF93DF93EC01962F642FDE
:102A30009C3270F49A3208F058C0983289F099327A
:102A400009F03EC070E080E090E00E9403234DC09A
:102A50009D32B1F0A8F184EB890F823000F130C0D3
:102A60006E9610E089918F3F39F0103110F461E0DB
:102A700001C062E00E94C7221F5F163199F735C07E
:102A8000433018F082E090E002C085E090E0880FCB
:102A9000991F880F991F05970197F1F726C09F731B
:102AA000C90FD11D411107C061E08E8D0E94C72260
:102AB00060E08E8D10C062E08E8D0E94C72215C02E
:102AC0009034A8F09F73FE01E90FF11D868D8F3FB2
:102AD00061F0903118F40E94992107C00E94712181
:102AE00021E0892B09F420E0298F81E001C080E0FA
:102AF000DF91CF911F910895DC011696ED91FC9125
:102B0000179720E030E040E069E11994DC01169667
:102B1000ED91FC91179720E030E040E068E11994D6
:102B20009A01DC011696ED91FC911797462F67E10B
:102B30001994462FDC011696ED91FC91179720E031
:102B400030E066E11994462FDC011696ED91FC9178
:102B5000179720E030E065E11994DC011896ED91BB
:102B6000FC91199720E030E040E069E11994DC0124
:102B70001896ED91FC91199720E030E040E068E173
:102B80001994CF93DF931F92CDB7DEB76983BE014F
:102B90006F5F7F4F0E9468210F90DF91CF91089562
:102BA0000F93FC01EB5BFF4F30813196508145174D
:102BB00028F4301730F0041720F010C03017D8F385
:102BC0000DC0FC01ED5BFF4F3081319680816817AD
:102BD00038F4321740F081E0261730F080E004C06E
:102BE0003217C8F3FBCF81E00F9108952F923F92E7
:102BF0004F925F926F927F928F929F92AF92BF920D
:102C0000CF92DF92EF92FF920F931F93CF93DF93B8
:102C1000EC014C0183E4880E911CF4011082329780
:102C200020805E01F4E4AF0EB11CF50120823FACC0
:102C30006E01F5E4CF0ED11CF6013082359740804D
:102C40007E01F6E4EF0EF11CF7014082349610810C
:102C5000329760803196708032975080012F262DF8
:102C6000472D652DCE019CDFCD58DF4F811102C06D
:102C7000188212C081E08883552011F0F40150823F
:102C8000621410F4F5016082371410F4F6017082BA
:102C9000141510F4F7011083DF91CF911F910F915C
:102CA000FF90EF90DF90CF90BF90AF909F908F906C
:102CB0007F906F905F904F903F902F9008950F936B
:102CC000302FFC01ED58FF4F5081552309F461C0AE
:102CD000222309F45EC0223048F0023019F46F5FFD
:102CE000621B04C0033011F44F5F421B032F0170BD
:102CF000FC0130FD24C0EB5BFF4F3081431708F42B
:102D000048C031963081431708F043C03297308174
:102D100031975081260F261730F4631718F42FEFE0
:102D2000230F03C0652F6317A0F5521790F56517A1
:102D300008F4652F321708F4232F261B21C0ED5B02
:102D4000FF4F3081631728F131963081631708F502
:102D50003296308131975081240F241730F4431775
:102D600018F42FEF230F03C0452F431790F4521789
:102D700080F4451708F4452F321708F4232F241B3D
:102D8000DC01D696ED91FC91D7970480F581E02D7A
:102D900019950F910895213039F020F0223031F447
:102DA000861B0895860F0895841B0895840F089547
:102DB000213039F020F0223031F4841B0895840F43
:102DC0000895860F0895861B08955F926F927F92F3
:102DD0008F929F92AF92BF92CF92DF92EF92FF922B
:102DE0000F931F93CF93DF935C01F62E642EEC01BB
:102DF000C15BDF4F1C81DD804C0189E7880E911C8F
:102E0000EE80E11ACE2CFE1408F4CF2C5B800C85EA
:102E1000202F4D2D612F8A81BEDF782E202F4D2D42
:102E2000612F852DC5DF482F662011F09A8504C0DB
:102E30009985911107C09B85F40190832C2D672DF6
:102E4000C5013DDFFE1420F0FE18D39410E0D8CF6A
:102E50001F0D1C83DD82DF91CF911F910F91FF9099
:102E6000EF90DF90CF90BF90AF909F908F907F902A
:102E70006F905F900895DC0118964C911897ED9132
:102E8000FC911197249130E0042E02C035952795CE
:102E90000A94E2F7862F840F883010F4E22F0EC0D8
:102EA00031961196FC93EE939491E92F98E0941B40
:102EB00001C0EE0F9A95EAF7E22B885018968C9392
:102EC00081E090E001C0880F6A95EAF781508E2377
:102ED0000895FC01E60FF11D849190E0982F88275A
:102EE0003196E4918E0F911D0895BF92CF92DF929B
:102EF000EF92FF920F931F93CF93DF9300D01F9217
:102F00001F92CDB7DEB78C01DC01DA96BC90DA9760
:102F1000DB96DC90DB97ED91FC91C188E12CF12CE4
:102F2000D801ED91FC9111978089D8964D915C91D3
:102F3000D9971C829D2D9E0D9D838B83B8E08B9F1E
:102F4000C00111248E9D90018F9D300D9E9D300DEE
:102F50001124CA01820F931F9A838983D801149682
:102F6000ED91FC9115979E012F5F3F4F41E06FE07F
:102F7000C801199581E08E0D8B1538F4BFEFEB1A5F
:102F8000FB0A8D2D8E0D8C1558F20F900F900F901F
:102F90000F900F90DF91CF911F910F91FF90EF90C5
:102FA000DF90CF90BF900895FC01A081B181509631
:102FB0009C9142AD949FA001112483E0440F551FC2
:102FC0008A95E1F760E070E080AD91AD0C946E38C9
:102FD000CF93C82F61E00E94992160E08C2FCF91A0
:102FE0000C9499218DE58CBD81E08DBD60E086E07B
:102FF0000C949921CF92DF92EF92FF920F931F933F
:10300000CF93DF9300D01F921F92CDB7DEB78830E9
:1030100038F4E82FF0E0EB5FFA4F008110E002C0D7
:1030200004E010E04A835B836C837D838983DADF6D
:1030300089810BD593E0000F111F9A95E1F7C12C00
:10304000D12C76014A815B816C817D810850110908
:10305000083F2FEF1207C9F0FE2CED2CDC2CCC24FE
:10306000DB01CA01002E04C0B695A79597958795F8
:103070000A94D2F74A835B836C837D83E6D4C82AA3
:103080007D816C815B814A81E1CF61E086E00E94B5
:103090009921DAD4C701B6010F900F900F900F90CD
:1030A0000F90DF91CF911F910F91FF90EF90DF90E4
:1030B000CF9008951F93CF93DF93EC01162F462FE7
:1030C000572F288130E02417350739F04260052E4C
:1030D000000C660B770B80E08DDF1883DF91CF91BA
:1030E0001F910895AF92BF92CF92DF92EF92FF921D
:1030F0000F931F93CF93DF931F92CDB7DEB75C0181
:103100007B018B016C0182E0C80ED11CF80161913A
:103110008F01C50169830E944D326981681719F0DA
:10312000C5010E945532FFEFAF1ABF0AAC14BD04AF
:1031300069F7C7010F90DF91CF911F910F91FF9019
:10314000EF90DF90CF90BF90AF9008950F931F93B3
:10315000CF93DF938C01EB010E944D328883C8012D
:1031600001960E944D328983CE01DF91CF911F914C
:103170000F910895E091EE03F091EF03EE0FFF1F22
:10318000EE0FFF1FEC51FC4F21893289438954898E
:1031900060E076E483EC93E20E944135CA01B90114
:1031A0000E945C310E9488330E945C33CB01653100
:1031B000710510F084E190E00895E091EE03F09144
:1031C000EF03EE0FFF1FEE0FFF1FEC51FC4F2189A5
:1031D00032894389548960E074E887ED97E10E9461
:1031E0004135CA01B9010E945C310E94E1320E945E
:1031F0005C33CB016430710510F484E090E00895F5
:103200000F931F93CF93DF93EC0180918D0C81116D
:103210000DC00E943B236093890C70938A0C8093AD
:103220008B0C90938C0C81E080938D0C888188238B
:1032300049F10E943B230091890C10918A0C209146
:103240008B0C30918C0CDC01CB01801B910BA20B01
:10325000B30B8E349140A105B10588F00E943B2349
:103260006093890C70938A0C80938B0C90938C0CD8
:1032700081E09091CE03911180E08093CE03809104
:10328000CE0301C081E0DF91CF911F910F9108958E
:103290000895089508950895FC018681978190937B
:1032A000760C8093750C80E00895FC01808991E094
:1032B0008927808B0895CF92DF92EF92FF920F9330
:1032C0001F93CF93DF936C01EB017B01E40EF51E9E
:1032D00000E010E0CE15DF0561F06991D601ED91B7
:1032E000FC910190F081E02DC6011995080F191F7E
:1032F000F1CFC801DF91CF911F910F91FF90EF9017
:10330000DF90CF900895089580E090E00895682FB1
:1033100070E0719561957109072E000C880B990B6F
:103320000E945E3129E739E646E852E40E947D3288
:1033300020E030E040EA51E40E94F4329B01AC010D
:1033400060E070E080E291E40E94DB330E945C3335
:10335000CB0108950F931F938091CA0C81110DC06A
:103360000E943B236093C60C7093C70C8093C80CDB
:103370009093C90C81E08093CA0C0E943B2300917A
:10338000C60C1091C70C2091C80C3091C90CDC01FF
:10339000CB01801B910BA20BB30B0091AE061091D9
:1033A000AF062091B0063091B10680179107A207B1
:1033B000B307B0F083E095D78093D2038091D10317
:1033C000813021F48091D203882329F08091D203A7
:1033D0008093D10305C08BEA96E00E94650BF6CF7F
:1033E0001F910F9108950F931F938091BE0C81112F
:1033F0000DC00E943B236093BA0C7093BB0C80936A
:10340000BC0C9093BD0C81E08093BE0C0E943B23CA
:103410000091BA0C1091BB0C2091BC0C3091BD0CEA
:10342000DC01CB01801B910BA20BB30B0091C706F3
:103430001091C8062091C9063091CA0680179107DD
:10344000A207B307B0F082E04CD78093D0038091FD
:10345000CF03813021F48091D003882329F080911B
:10346000D0038093CF0305C084EC96E00E94650BE7
:10347000F6CF1F910F9108958FEC97E09093760C03
:103480008093750C1092740C0E945D2680E0089564
:103490002F923F924F925F926F927F928F929F9264
:1034A000AF92BF92CF92DF92EF92FF920F931F9352
:1034B000CF93DF93CDB7DEB728970FB6F894DEBF72
:1034C0000FBECDBF7C016C0124E0C20ED11CFC01FB
:1034D000E158FF4F0190F081E02DC60119951C01C4
:1034E0008E3F9F4F08F09FC1570182E8A80EB11C84
:1034F000F50110814701F1E88F0E911CF401008164
:103500002701FFE54F0E511CF20180818130C9F087
:1035100070F0823001F1833039F5F701EF5AFF4F37
:103520000190F081E02DC6011995080F1DC0F7012B
:10353000EF5AFF4F0190F081E02DC6011995180F49
:1035400013C0F701EF5AFF4F0190F081E02DC60143
:103550001995081B09C0F701EF5AFF4F0190F08140
:10356000E02DC6011995181BF701EB5AFF4F008398
:10357000319610833797808191814796FFEF2F1600
:10358000310409F040F521E62216310420F0F7015C
:10359000ED58FF4F07C031E42316310438F0F7012E
:1035A000EF58FF4F20813181820F931F9C012F5FC5
:1035B0003F4FF9014491442309F41EC1FC01449199
:1035C00050E04215530511F4029632C0F9012491DE
:1035D000820F911DEBCFF701EB58FF4F6080718098
:1035E000680E791E830160E0C30173DC080F191FA8
:1035F00062E0C3016EDCF4E06F0E711C821593056E
:1036000090F3F801849190E0982F88273196E49107
:103610008E2B009709F4F0C08215930519F4C801A8
:10362000039606C0F8013296E4910E0F111DE9CF02
:10363000009709F4E1C097012D5A3F4F38872F8337
:10364000F90191838083108671966081C90113DC32
:10365000EF81F8858683F701EB59FF4F60818F81F9
:10366000988509DC182FEF81F88587833701FDE7FE
:103670006F0E711CF3019081EF81F885928781E0D4
:10368000911180E0EF81F8858387F701EA59FF4FB8
:103690000081602F8F819885EEDB015022242394D6
:1036A000312CA10101C0440F0A95EAF7841B8983DC
:1036B000F701E959FF4F0081602F8F819885DBDB8F
:1036C0000150910102C0220F331F0A95E2F73C839B
:1036D0002B83412F480FF701E859FF4F0081602FDE
:1036E0008F8198854D83C7DB0150910101C0220F66
:1036F0000A95EAF7382E321AEF81F88506814D8156
:1037000010160CF07AC034855B81541B232F452F93
:10371000698182813E835D833EDB982FEF81F8854E
:1037200082833E81232F5D81452F698183819D8323
:103730003FDBEF81F88583833E819D81313099F0B5
:1037400068F03230B1F03330F9F4292F210F382FDF
:10375000301B01E0080F81E0830F18C0292F200FD4
:10376000082F010F13C0311B21E0290F080F930F01
:103770000DC031E0432F401B21E0290F311B01E038
:10378000080F830F940F02C0082F292F482F692F8D
:10379000C60106DA882389F1EF81F8851482158243
:1037A00097012E593F4F3A83298333E6E30EF11CEC
:1037B000E981FA8160818F8198855DDB282EF70190
:1037C00060818F81988557DB082F40E0622DC6010C
:1037D000FCDA41E0602FC601F8DA61E08F8198855C
:1037E0004ADB8111F2CFEF81F8858581811704F3DF
:1037F0008285F301808301C0312CF2018081813008
:1038000049F030F0823059F0833069F4F50108C096
:10381000F40101C0F5018081380E308204C0F4014A
:1038200080818319808381E090E028960FB6F89418
:10383000DEBF0FBECDBFDF91CF911F910F91FF90E3
:10384000EF90DF90CF90BF90AF909F908F907F9040
:103850006F905F904F903F902F900895CF930E946C
:103860002B0C8111EFC04091840C5091850C60911C
:10387000860C7091870C80E190E0CCD48091940309
:1038800046DDBC0180E190E083D580918303909177
:103890008403CAE0C89FB001C99F700D11248091B4
:1038A000720390917303680F791F80E090E00E948B
:1038B0005C3120E030E041E655E40E94F43220E043
:1038C00030E040E856E40E9499310E945C3380E188
:1038D00090E08FD44091800C5091810C6091820CCB
:1038E0007091830C80E290E095D480912E030FDDDF
:1038F000BC0180E290E04CD580911D0390911E03A5
:10390000C89FB001C99F700D112480910C03909144
:103910000D03680F791F80E090E00E945C3120E089
:1039200030E041E655E40E94F43220E030E040E827
:1039300056E40E9499310E945C3380E290E059D4B1
:1039400040917C0C50917D0C60917E0C70917F0CAD
:1039500080E490E05FD48091C802D9DCBC0180E4AF
:1039600090E016D58091B7029091B802C89FB0013F
:10397000C99F700D11248091A6029091A702680F33
:10398000791F683087E0780718F4685F784F02C0C5
:103990006850774080E090E00E945C3120E030E0A9
:1039A00041E655E40E94F43220E030E040E856E47D
:1039B0000E9499310E945C3380E490E01AD44091D7
:1039C000780C5091790C60917A0C70917B0C80E8A6
:1039D00090E020D4809162029ADCBC0180E890E003
:1039E000D7D480915102909152022AE0289FB001D1
:1039F000299F700D11248091400290914102680F1F
:103A0000791F683087E0780718F4685F784F02C044
:103A10006850774080E090E00E945C3120E030E028
:103A200041E655E40E94F43220E030E040E856E4FC
:103A30000E9499310E945C3380E890E0DAD385E0FF
:103A4000CF91C6CACF91089508958EBD00000DB4E0
:103A500007FEFDCF8EB50895CF92DF92EF92FF92D1
:103A60000F931F93CF93DF93FC018BEC97E00197AB
:103A7000F1F7A081B1813C91A281B3819C918581B4
:103A80008923968193702481232309F09460811106
:103A90009860292F30E03595279535952795268311
:103AA0009D3031F09E3009F056C001E010E002C0B8
:103AB0000FEF1FEFEF01DFD5CB84DC84ED84FE84B4
:103AC000DC01CB018C199D09AE09BF098F87988B4A
:103AD000A98BBA8B8D309105A105B105C8F5059765
:103AE000A105B10520F49AE0E92EF12C03C085E090
:103AF000E82EF12CC0D56B877C878D879E870F3F82
:103B00008FEF180719F44FEF5FEF02C041E050E06C
:103B1000012E000C220B330B8F819885A985BA8565
:103B2000080F191F2A1F3B1F4E9DC0014F9D900D6E
:103B30005E9D900D1124092E000CAA0BBB0B080FE3
:103B4000191F2A1F3B1F0F83188729873A8703C035
:103B5000E12CF12CCFCFDF91CF911F910F91FF90EE
:103B6000EF90DF90CF900895809195069091960602
:103B700073CF80919306909194066ECF80919106B9
:103B80009091920669CF80918F069091900664CFB4
:103B900080918D0690918E065FCF80918B069091DB
:103BA0008C065ACFCF93DF93EC01AA85BB85E091B9
:103BB000EE03F091EF03EE0FFF1FEE0FFF1FEC512E
:103BC000FC4F21893289438954890E947135698B60
:103BD0007A8B8B8B9C8BDF91CF910895CF93DF9362
:103BE000EC018A859B8501979B878A8704971CF443
:103BF000C1DA9B878A87AA85BB85E091EE03F091A5
:103C0000EF03EE0FFF1FEE0FFF1FEC51FC4F21895A
:103C10003289438954890E94713561157448874DF2
:103C2000974118F4A7DA9B878A87CE01DF91CF915D
:103C3000B9CFCF93DF93EC018A859B8501969B8753
:103C40008A8745971CF0B9DA9B878A87AA85BB8546
:103C5000E091EE03F091EF03EE0FFF1FEE0FFF1F59
:103C6000EC51FC4F21893289438954890E94713576
:103C700061307644834C934218F09FDA9B878A87A1
:103C8000CE01DF91CF918ECFFC0181E195E0918350
:103C90008083138212821582148217821682118603
:103CA0001086138612861586148617861686108A45
:103CB0000895FC0177FF03C07195619571098285B4
:103CC0009385861B970B9387828726853785821776
:103CD000930724F484859585938782870895CF93ED
:103CE000DF93EC01E6DF8A859B85892B59F0EC8117
:103CF000FD81828593858836914021F487E691E0A5
:103D000093878287DF91CF910895CF93DF93EC0162
:103D1000D0DF8A859B858836914049F4EA81FB8112
:103D2000828593851816190614F413861286DF917E
:103D3000CF910895BECFBDCFBCCFFC0177FF03C0AC
:103D400071956195710982859385680F791F7387D5
:103D50006287848595858617970724F486859785DD
:103D6000938782870895CF93DF93EC01E6DF8A85FE
:103D70009B85892B59F0EC81FD818285938588365E
:103D8000914021F487E691E093878287DF91CF917C
:103D90000895CF93DF93EC01D0DF8A859B85883629
:103DA000914049F4EA81FB818285938518161906B2
:103DB00014F413861286DF91CF910895BECFBDCF44
:103DC000BCCF90E0FC013197E231F10508F04EC024
:103DD0008827E558FF4F8F4F0C9463358091800002
:103DE0008F7703C0809180008F7D8093800008953D
:103DF00080918000877FF9CF84B58F7702C084B52A
:103E00008F7D84BD08958091B0008F7703C080912D
:103E1000B0008F7D8093B0000895809190008F77DF
:103E200007C0809190008F7D03C080919000877FB4
:103E30008093900008958091A0008F7707C08091B3
:103E4000A0008F7D03C08091A000877F8093A00099
:103E50000895809120018F7707C0809120018F7D88
:103E600003C080912001877F8093200108953FB790
:103E7000F8948091D70C9091D80CA091D90CB09166
:103E8000DA0C26B5A89B05C02F3F19F00196A11D9D
:103E9000B11D3FBFBA2FA92F982F8827820F911DE0
:103EA000A11DB11DBC01CD0142E0660F771F881F27
:103EB000991F4A95D1F70895CF93DF93EC01E091D4
:103EC000EE03F091EF03EE0FFF1FEE0FFF1FEC511B
:103ED000FC4F218932894389548960E075E68DEC75
:103EE0009DE10E9441352430310530F02531310506
:103EF00028F024E130E002C024E030E03983288358
:103F0000DF91CF910895CF93DF93CDEDD6E08093ED
:103F10001C07EAADFBAD0190F081E02D81EE96E04B
:103F20001995EAADFBAD0280F381E02D81EE96E0BC
:103F3000DF91CF9119948F929F92AF92BF92CF92BF
:103F4000DF92EF92FF928091890790918A07892BE7
:103F5000E9F480917B0790917C07A0917D07B09157
:103F60007E0781509448A74DB7418F3F914CAB4E8F
:103F7000BB4098F580907B0790907C07A0907D07D0
:103F8000B0907E07C12CD12C760137C0A091DD0303
:103F9000B091DE0320E432E44FE050E00E9471353E
:103FA0006B017C0124E8D21A27EDE20A27E1F20A2C
:103FB000812C21E0C21622ECD2062BEEE2062BE089
:103FC000F20678F035E6932E4DECA42E5DE1B52E89
:103FD000C12CD12CE12CF12C10C08AE697E0E2DD57
:103FE000C9CF4B015C01DC01CB01BB0F880B982FC3
:103FF000DC01C82ED82EE82EF82E9401A501B601BA
:10400000C701FF90EF90DF90CF90BF90AF909F904F
:104010008F90089581EE96E00E94751781EE96E0EC
:104020000C94D00BBC018DED96E00C9478094F9266
:104030005F926F927F928F929F92AF92BF92EF9218
:10404000FF920F931F93CF937C01C62F10E060E087
:1040500070E080E09FE31C1741F020E030E040E298
:1040600051E40E94F4321F5FF6CF2DEC3CEC4CE89B
:104070005FE30E947D324B015C010E945C332B01A7
:104080003C010E945C319B01AC01C501B4010E945E
:104090007C324B015C012AE0B301A201C7010E94FE
:1040A0008D098C01CC2359F0D701ED91FC91019041
:1040B000F081E02D6EE2C7011995080F191FCC237E
:1040C00029F120E030E040E251E4C501B4010E9452
:1040D00099312B013C010E945C334B01A12CB12C86
:1040E0002AE0B501A401C7010E948D09080F191F1C
:1040F000C501B4010E945C319B01AC01C301B20156
:104100000E947C324B015C01C150D9CFC801CF91D4
:104110001F910F91FF90EF90BF90AF909F908F9065
:104120007F906F905F904F900895CF93DF93BC0185
:104130008DED96E00E947809EC0160E475E08DED6C
:1041400096E00E9478098C0F9D1FDF91CF91089512
:10415000833008F081E080935A070895E091DD06EE
:10416000F091DE06DC0114964D915C9115976D91EE
:104170007C910280F381E02D8DED96E01994CF9231
:10418000DF92EF92FF92CF93DF936C01990FEE08CD
:10419000FF08F7FE21C0E091DD06F091DE060190F8
:1041A000F081E02D6DE28DED96E01995EC0144274C
:1041B0005527BA014C195D096E097F092AE08DED7A
:1041C00096E00E948D098C0F9D1FDF91CF91FF908B
:1041D000EF90DF90CF9008952AE0B701A6018DED12
:1041E00096E0DF91CF91FF90EF90DF90CF900C940D
:1041F0008D09CF93DF93EB01BC0189E697E00E9424
:104200005A18AE015F7360E070E085E0DF91CF91F6
:104210000C94FA172F923F924F925F926F927F9277
:104220008F929F92AF92BF92CF92DF92EF92FF92C6
:104230000F931F93CF93DF931F921F92CDB7DEB7DB
:104240009A838983C0906407D0906507E0906607E1
:10425000F0906707CB01BA01A70196010E9477355C
:10426000E4E0F694E794D794C794EA95D1F7160161
:10427000270156016201E12CF12C00E010E00E94C0
:104280003336009168070E9417367901D42E052F26
:1042900069817A8189E697E00E945A18A7016D2DFD
:1042A000702F84E00F900F90DF91CF911F910F91AD
:1042B000FF90EF90DF90CF90BF90AF909F908F9046
:1042C0007F906F905F904F903F902F900C94FA17D3
:1042D0009B01DC011896ED91FC91199741E067E193
:1042E0001994CF93DF93282F30E0F901EE5DF84F5A
:1042F0008491F901E053FE4FD491F901EA5EFD4F3C
:10430000C491CC2389F081115CDDEC2FF0E0EE0F3D
:10431000FF1FE456FE4FA591B491EC91ED2381E08F
:1043200090E021F480E002C080E090E0DF91CF9146
:1043300008951F93CF93DF93282F30E0F901EE5DAE
:10434000F84F8491F901E053FE4FD491F901EA5EF0
:10435000FD4FC491CC23C1F0162F811132DDEC2F1B
:10436000F0E0EE0FFF1FE85FF84FA591B4918FB713
:10437000F894111105C09C91ED2FE095E92302C03E
:10438000EC91ED2BEC938FBFDF91CF911F910895AE
:10439000CF93DF93EB016130744010F0C0E0D4E0C4
:1043A000BC0189E697E00E945A180E94F21786E045
:1043B0004CDB80E04ADBC11584E0D80721F0CE0158
:1043C0009061892F01C080E040DB8C2F3EDB61E0F3
:1043D00086E0AFDFDF91CF9137CB2F923F924F92A4
:1043E0005F926F927F928F929F92AF92BF92CF9285
:1043F000DF92EF92FF920F931F93CF93DF9300D042
:104400001F92CDB7DEB79C838B837A836983CB0100
:104410000497419720F081E090E09A838983CA0154
:10442000B90120E03AEC4AE95BE30E947735A12C20
:10443000EAECBE2EFAE9CF2EABE3DA2EE12CF12C1A
:1044400000E010E00E94A035B22FA32FE42F152F1B
:1044500089819A819C01990F440B550B6B2F7A2F00
:104460008E2F912F0E943235AB81BC816D937D934D
:104470008D939C9313971B012C0180E218968C93CB
:10448000A22C132DF42CE52CF0E0D12CC12CB12C56
:10449000AB81BC811896EC91EE2339F120E030E03D
:1044A00040E050E06F2F617070E080E090E0A0E0AD
:1044B0000E943C36D1F42A2D312F4F2D5E2D6F2FC7
:1044C0007D2D8C2D9B2D01E00E94FC35A22E132FFB
:1044D000F42EE52EF62FD72EC82EB92E0FEF0E0F85
:1044E000AB81BC8118960C93D3CF0E2F10E0005EE9
:1044F0001F4F21E030E040E050E060E070E080E0FD
:1045000090E00E94FC3551016201E12CF12C00E0A9
:1045100010E00E94A035EB81FC8124833583468323
:1045200057830E94F21781E090DAEB81FC81808151
:104530009181A281B381893C9105A105B10510F457
:1045400090E001C090E88981880F880F8360892BF3
:104550007CDA80E07ADA80E278DA61E086E0E9DE2F
:104560000F900F900F900F90DF91CF911F910F91AF
:10457000FF90EF90DF90CF90BF90AF909F908F9083
:104580007F906F905F904F903F902F905DCACF9338
:10459000DF9390E0FC01E053FE4F2491FC01EA5EC2
:1045A000FD4F8491882361F190E0880F991FFC01F1
:1045B000EA54FE4FC591D491FC01E85FF84FA591F4
:1045C000B491611109C09FB7F89488812095822326
:1045D0008883EC912E230BC0623061F49FB7F8946E
:1045E0003881822F809583238883EC912E2B2C9306
:1045F0009FBF06C08FB7F894E8812E2B28838FBF0A
:10460000DF91CF9108958F929F92AF92BF92CF92F8
:10461000DF92EF92FF926B017C0129DC4B015C0180
:10462000C114D104E104F104E9F021DCDC01CB0187
:1046300088199909AA09BB09883E9340A105B105CB
:1046400078F321E0C21AD108E108F10888EE880E5B
:1046500083E0981EA11CB11CC114D104E104F10433
:1046600021F7DECFFF90EF90DF90CF90BF90AF901B
:104670009F908F9008952FB7F8946091D30C70910C
:10468000D40C8091D50C9091D60C2FBF08951F9219
:104690000F920FB60F9211242F933F938F939F93F6
:1046A000AF93BF938091D30C9091D40CA091D50C73
:1046B000B091D60C3091D20C23E0230F2D3720F48B
:1046C0000196A11DB11D05C026E8230F0296A11D6C
:1046D000B11D2093D20C8093D30C9093D40CA09353
:1046E000D50CB093D60C8091D70C9091D80CA0919A
:1046F000D90CB091DA0C0196A11DB11D8093D70C95
:104700009093D80CA093D90CB093DA0CBF91AF91D1
:104710009F918F913F912F910F900FBE0F901F90FF
:104720001895FF920F931F93CF93DF9369E877E07B
:1047300080E090E00E9472186EEE73E082E090E0FC
:104740000E9472186DED73E086E090E00E9472188E
:1047500064E777E088E090E00E94721867E385E6FE
:1047600090E00E94553281EE96E00E94D41781E0DD
:10477000EFDC0EE517E083E3F82EF801F082CFE5D9
:10478000D7E088E0888387E995E0CFDCF801F08204
:1047900088E2888380ED95E045DC3CDC68EE73E0E0
:1047A00080E090E0DF91CF911F910F91FF902BCF90
:1047B0008091890790918A07892B99F4E091EE0303
:1047C000F091EF03EE0FFF1FEE0FFF1FEC51FC4FB8
:1047D00021893289438954896091740770917507E2
:1047E00003C0A9DB60E070E080E697E0F6DDA3DBC4
:1047F000B901CA012093320270933302409334020C
:10480000909335020E945C3126E636E646EE5EE382
:104810000E9499310E945C336093DB0C7093DC0C36
:104820008093DD0C9093DE0C19D87BDF80E192E061
:104830009093760C8093750C80E00895CF93DF936E
:10484000EC0137DAAA85BB8520E432E44FE050E082
:104850000E94713560937B0770937C0780937D077E
:1048600090937E07DF91CF910895CF93DF93EC0172
:1048700061E070E01EDA8A859B85892B39F484EE2D
:1048800093E09B838A838AE697E004C083ED93E0FC
:104890009B838A839093260280932502DF91CF9198
:1048A0000895CF93DF93EC0148DAAA85BB8520E415
:1048B00032E44FE050E00E94713560937B077093C3
:1048C0007C0780937D0790937E07DF91CF910895B9
:1048D000CF93DF93EC0161E070E02FDA8A859B854E
:1048E000892B39F484EE93E09B838A838AE697E0F0
:1048F00004C083ED93E09B838A8390932602809388
:104900002502DF91CF910895D4D984E797E0D4DAD6
:104910008AE697E047C911DA84E797E0CDDA8AE6BC
:1049200097E040C9CF92DF92EF92FF9285E690E048
:104930000E944D328733C1F010928A071092890786
:1049400081E090E09093EF038093EE0384EF91E099
:104950009093DE038093DD038CE090E090937507E5
:1049600080937407DEDE18C069E877E080E090E0AD
:104970000E94A6186EEE73E082E090E00E94A618F6
:104980006DED73E086E090E00E94A61864E777E0A2
:1049900088E090E00E94A6188091740790917507B6
:1049A000459734F00E94DD18909375078093740743
:1049B000E091EE03F091EF03EE0FFF1FEE0FFF1FEC
:1049C000EC51FC4FC188D288E388F488A091740729
:1049D000B0917507A70196010E9471356130764448
:1049E000834C934230F00E94DD18909375078093BA
:1049F00074078091740790917507049734F40E94AE
:104A0000BA189093750780937407A0917407B091BA
:104A10007507A70196010E94713561157448874D8D
:104A2000974130F40E94BA189093750780937407E9
:104A30008AE697E0B7D88091890790918A07892BF9
:104A400099F4E091EE03F091EF03EE0FFF1FEE0FEC
:104A5000FF1FEC51FC4F21893289438954896091B1
:104A600074077091750703C066DA60E070E080E655
:104A700097E0B3DC8091890790918A07892B49F4EC
:104A800084EE93E090938207809381078AE697E013
:104A900006C083ED93E09093820780938107909303
:104AA00026028093250247DAB901CA012093320217
:104AB0007093330240933402909335020E945C312C
:104AC00026E636E646EE5EE30E9499310E945C33AC
:104AD0006093DB0C7093DC0C8093DD0C9093DE0C08
:104AE000FF90EF90DF90CF90089567EC73E086E140
:104AF00090E00E94721866EB73E088E190E00E94FB
:104B0000721865EA73E08CE190E00E94721864E923
:104B100073E080E290E00E94721863E873E084E240
:104B200090E00E94721862E773E086E290E00E94D3
:104B3000721861E673E088E290E00E94721860E506
:104B400073E08AE290E00E9472186FE373E08CE2F7
:104B500090E00E9472186EE273E08EE290E00E9494
:104B600072186DE173E080E390E00E9472186CE0CF
:104B700073E082E390E00E9472186BEF72E084E3CE
:104B800090E00E9472186AEE72E086E390E00E9464
:104B9000721869ED72E088E390E00E94721868EC88
:104BA00072E08AE390E00E94721867EB72E08CE397
:104BB00090E00E94721866EA72E08EE390E00E9434
:104BC000721865E972E080E490E00E94721864E86F
:104BD00072E082E490E00E94721863E772E084E47D
:104BE00090E00E94721862E672E086E490E00E9413
:104BF000721861E572E088E490E00E94721860E447
:104C000072E08AE490E00E94721867E384E690E024
:104C10000C9455320F931F93CF93DF93CDB7DEB72C
:104C20002C970FB6F894DEBF0FBECDBF8C0142307B
:104C300091F04330B1F5CB010A978A35910598F090
:104C40006A3071055CF44AE0CE0107960E9498072D
:104C500066ED75E00FC06A3071052CF04AE0C801BE
:104C60000E9498071EC04AE0CE0107960E9498074E
:104C700067ED75E0CE0101960E94E807BE01695F0D
:104C80007F4FCE0101960E94DC0BBC01C8010E943F
:104C9000CF07CE0101960E949307CE0107960E948E
:104CA0009307C8012C960FB6F894DEBF0FBECDBF98
:104CB000DF91CF911F910F910895EF92FF920F9383
:104CC000CF93DF9381EE96E00E94D417CEE5D7E034
:104CD00082E088838FE5E82E87E0F82E89E0F701EF
:104CE000808368E677E08DED96E00E94540900E04D
:104CF00020E840E060E081EE96E00E945F1620E848
:104D00004BE060E081EE96E00E945F1601E024E354
:104D100040E06EE081EE96E00E945F1624E340E002
:104D20006AE481EE96E00E945F1624E340E06EE5BF
:104D300081EE96E00E945F1600E020E844E360E028
:104D400081EE96E00E945F1601E024E340E060E01F
:104D500081EE96E00E945F1624E340E06FE781EE6B
:104D600096E00E945F168DE3F701808388E58883D3
:104D700089ED95E057D9DF91CF910F91FF90EF909A
:104D800049C9CF93DF931092E5051092E40588EEB0
:104D900093E0A0E0B0E08093E6059093E705A09350
:104DA000E805B093E90523E134E03093E30520936F
:104DB000E20525EC30E03093EF052093EE0524EC7E
:104DC00030E03093F1052093F00520EC30E0309393
:104DD000F3052093F20521EC30E03093F5052093A4
:104DE000F40522EC30E03093F7052093F60526EC2D
:104DF00030E03093F9052093F8051092FB051092EE
:104E0000FC051092FD051092FE051092820610928C
:104E100081068093830690938406A0938506B093C1
:104E2000860685E294E09093800680937F068FEC5F
:104E300097E00E94441EC7E5D4E0D093D007C0930A
:104E4000CF078FEC97E09093D8078093D7078EEB2E
:104E500097E00E94441ED093BF07C093BE078EEB1D
:104E600097E09093C7078093C6078DEA97E00E946A
:104E7000441ED093AE07C093AD078DEA97E09093A0
:104E8000B6078093B5078CE997E00E94441ED09343
:104E90009D07C0939C078CE997E09093A5078093AA
:104EA000A4078FE797E00E94441E8DE494E090935E
:104EB000800780937F076BE275E080E997E00E94AE
:104EC000E80765E375E086E997E00E94E8078AE66F
:104ED00097E00E94441E83E494E090936B078093D4
:104EE0006A0710927B0710927C0710927D07109240
:104EF0007E0784E797E00E945C1F8AE697E00E94A5
:104F0000D21D1092600710926107109262071092F2
:104F1000630780EF80936907CFB7F8948091E00B27
:104F2000811123C0EBE4F2E08491E5E0F2E094919A
:104F3000E82FF0E0EE0FFF1FEA54FE4FA591B49169
:104F4000EC91E92319F461E085E3F3D961E085E3AD
:104F50001EDB8CB580618CBD8CB580648CBD61E03E
:104F600084E315DB61E083E312DB8091E00B8F5F6C
:104F70008093E00BCFBF60E08CE0DBD961E08CE098
:104F800006DB61E086E0D5D961E086E000DB60E029
:104F900085E0CFD961E085E0FADA8CE00E94E8177D
:104FA0008DE00E94E81785E00E94E81710926907DB
:104FB00060EF70E089E697E00E945A1841E253E002
:104FC00060E070E083E00E94FA1760E070E089E63C
:104FD00097E00E945A1885E00E94E81720E03AE521
:104FE00042E652E06CE070E080E697E0F6D910927D
:104FF000E0061092DF0682E893E190935D078093CC
:105000005C0710925E0710925F071092F90687E323
:1050100094E09093DE068093DD061092E2061092F3
:10502000E1061092F6061092ED061092EE0610922E
:10503000EF061092F0068FEF8093F7068093FB0641
:10504000EFEFF6E09FEF86E18E0FCFEF91938E1397
:10505000FCCF83E396E09093E6068093E50680E03C
:1050600097E09093E8068093E7068EE394E19093AF
:10507000EA068093E90682E195E19093EC0680933D
:10508000EB0620E030E040E069E081EE96E00E942F
:10509000330610922D0710922C078EED93E190931A
:1050A00016078093150780EE97E090931A07809378
:1050B000190788E080931B0710921C07109239078C
:1050C00010925907D1E0D0935A07D0935B078DE532
:1050D00094E0909318078093170781EE96E00E9462
:1050E00099131092280710922A07C0932907C0939A
:1050F0002B07E0911707F09118070280F381E02D4C
:1051000081EE96E019958CE394E190932F078093BC
:105110002E0710923C07C0930A07C0930B07C09359
:105120000C0782E08093D3061092D406D093D50664
:10513000D093D6061092D8061092D7061092C506C4
:105140001092C4061092C6061092D9061092DA0682
:105150001092DB061092DC0684E190E0A0E0B0E063
:105160008093C7069093C806A093C906B093CA0659
:105170008AEF90E0A0E0B0E08093CB069093CC065D
:10518000A093CD06B093CE0688EE93E0A0E0B0E009
:105190008093CF069093D006A093D106B093D20609
:1051A00060E082E0F4D98091D406811104C061E00E
:1051B0008091D306BED883E08093BA061092BB06D6
:1051C00081E08093BC068093BD061092BF061092CA
:1051D000BE061092AC061092AB061092AD0610926D
:1051E000C0061092C1061092C2061092C30684E156
:1051F00090E0A0E0B0E08093AE069093AF06A0935D
:10520000B006B093B1068AEF90E0A0E0B0E08093E2
:10521000B2069093B306A093B406B093B50688EE99
:1052200093E0A0E0B0E08093B6069093B706A09319
:10523000B806B093B90660E083E0A9D98091BB06B7
:10524000811104C061E08091BA0673D862E082E106
:105250009ED962E083E19BD9E8E2F2E0E491F0E0DC
:10526000EE0FFF1FE456FE4FA591B491B093980640
:10527000A0939706E2EEF1E0849180939B06E9E229
:10528000F2E0E491F0E0EE0FFF1FE456FE4FC5910F
:10529000D491D0939A06C0939906E3EEF1E0E4919D
:1052A000E0939C0610929E0610929F061092A00614
:1052B0001092A106EBE3FFE13197F1F7EC91E823BF
:1052C00081E009F480E0288190919C06922309F006
:1052D000826027E936E080939D06309396062093FE
:1052E000950684EB9DE190930B0280930A028091D6
:1052F00069008F73806480936900EB9A81E08093EA
:10530000AA06309394062093930689EB9DE190932F
:10531000090280930802809169008F7C80618093EC
:105320006900EA9A82E08093AA06DF91CF910895FE
:10533000789484B5826084BD84B5816084BD85B570
:10534000826085BD85B5816085BD80916E0081607C
:1053500080936E0010928100809181008260809322
:105360008100809181008160809381008091800024
:105370008160809380008091B10084608093B1004F
:105380008091B00081608093B00080919100826034
:105390008093910080919100816080939100809131
:1053A00090008160809390008091A1008260809342
:1053B000A1008091A10081608093A1008091A00054
:1053C00081608093A00080912101826080932101FF
:1053D0008091210181608093210180912001816071
:1053E0008093200180917A00846080937A0080917C
:1053F0007A00826080937A0080917A008160809345
:105400007A0080917A00806880937A001092C100BF
:10541000E091F205F091F30582E08083E091EE05E2
:10542000F091EF051082E091F005F091F10580E137
:1054300080831092FA05E091F605F091F70586E079
:105440008083E091F405F091F5058081806180838F
:10545000E091F405F091F505808188608083E0910A
:10546000F405F091F505808180688083E091F40572
:10547000F091F50580818F7D808369E576E082EE8D
:1054800095E00E94540960E475E082EE95E00E9488
:10549000780961E576E082EE95E00E94540960E4C7
:1054A00075E082EE95E00E9478096CE476E082EE89
:1054B00095E00E94540962E082EE95E00E94172078
:1054C00060E475E082EE95E00E94780980E095E363
:1054D000ACE0B0E08093ED069093EE06A093EF066B
:1054E000B093F006E091E506F091E60620E030E0AA
:1054F00040E06AE081EE96E0199580915B07882391
:1055000021F081EE96E00E94D41780E00E94831F74
:1055100081EE96E00E947517C0911C0780911B07D1
:10552000C80FE091E106F091E2068189C817E0F02A
:1055300081EE96E00E94D00B80E00E94831FE091F4
:10554000E506F091E60620E030E040E06BE081EE19
:1055500096E019951092390780912C0790912D07AC
:105560008C55924059F4B8C080915B07882321F094
:1055700081EE96E00E94D4178C2FC8CFECE5F2E0C4
:10558000F0932D07E0932C07E491E0933D07EDE5C0
:10559000F2E0E491E0933E07EEE5F2E0E491E0937F
:1055A0003F07EFE5F2E0E491E0934007E0E6F2E048
:1055B000E491E0934107E1E6F2E0E491E0934207F1
:1055C000E2E6F2E0E491E0934307E3E6F2E0E491FF
:1055D000E0934407E4E6F2E0E491E0934507E5E672
:1055E000F2E0E491E0934607E6E6F2E0E491E0932E
:1055F0004707E7E6F2E0E491E0934807E8E6F2E0E7
:10560000E491E0934907E9E6F2E0E491E0934A0788
:10561000EAE6F2E0E491E0934B07EBE6F2E0E49196
:10562000E0934C07ECE6F2E0E491E0934D0761E192
:105630008CE592E00E94691790934F0780934E0784
:1056400063E18CE592E00E94691790935107809383
:10565000500765E18CE592E00E946917909353072B
:105660008093520780912C0790912D07892BA1F1EF
:1056700080914A078093560740914B074093570704
:1056800090915507992341F1913069F490914C071D
:10569000891714F49093560780914D078417E4F40A
:1056A0008093570719C03091470720914907082E6A
:1056B000000C990B622F022E000C770B630F711DEB
:1056C00037FD7A95861797071CF4320F30935607EB
:1056D000241714F42093570781EE96E00E94D41704
:1056E00081E00E94A82083E380935E0788E0809396
:1056F0005F0783E495E00E941220CFE0C0935E072D
:1057000089E180935F0789E495E00E949520C0932A
:105710005E0781E280935F078FE595E00E94952008
:1057200010925E078FE380935F0785E795E00E9404
:10573000122062E08DED96E00E9417200E940A2060
:1057400068EB7BE080E090E00E94032381EE96E02E
:105750000E94D417B2DA8FEC97E06EEB77E070938B
:10576000D2076093D1074DEA57E05093C1074093A9
:10577000C0072CE937E03093B0072093AF07909330
:105780009F0780939E075093A1074093A0077093B3
:10579000B2076093B1079093C3078093C207309319
:1057A000D4072093D307ADEBB3E0CCEAD3E0D0939A
:1057B000C003C093BF030BE913E01093AF03009342
:1057C000AE03EAE8EE2EE3E0FE2EF0929E03E092B6
:1057D0009D03F9E7CF2EF3E0DF2ED0928D03C09228
:1057E0008C03E8E6F3E0F0937C03E0937B03B09353
:1057F0006B03A0936A03D0926D03C0926C03F09286
:105800007E03E0927D0310938F0300938E03D09369
:10581000A003C0939F03B093B103A093B003F09390
:10582000C203E093C103E7E5F3E0C6E4D3E0D0931D
:105830005A03C093590305E313E0109349030093FF
:1058400048030F2EF4E2EF2EF3E0FF2EF02DF0923E
:105850003803E09237030F2EF3E1CF2EF3E0DF2E73
:10586000F02DD0922703C09226030F2EF2E0AF2E28
:10587000F3E0BF2EF02DB0921603A0921503F09323
:105880000503E0930403D0920703C0920603F0924D
:105890001803E09217031093290300932803D09371
:1058A0003A03C0933903F0934B03E0934A03B09259
:1058B0005C03A0925B03C1EFD2E010EEA12E12E0D8
:1058C000B12EB092F402A092F3020FEC12E010930A
:1058D000E3020093E2020F2EFEEBEF2EF2E0FF2E2A
:1058E000F02DF092D202E092D1020F2EFDEACF2EDF
:1058F000F2E0DF2EF02DD092C102C092C0020F2E36
:10590000FCE98F2EF2E09F2EF02D9092B002809253
:10591000AF02D0939F02C0939E02D092A102C09288
:10592000A002F092B202E092B1021093C30200937F
:10593000C202B092D402A092D302D093E502C093E7
:10594000E4029092F6028092F5020BE812E00F2E2C
:10595000FAE78F2EF2E09F2EF02D90928E02809229
:105960008D020F2EF9E6AF2EF2E0BF2EF02DB09291
:105970007D02A0927C020F2EF8E5EF2EF2E0FF2EC2
:10598000F02DF0926C02E0926B020F2EF7E4CF2E16
:10599000F2E0DF2EF02DD0925B02C0925A020F2E61
:1059A000F6E36F2EF2E07F2EF02D70924A026092A5
:1059B00049021093390200933802D0923B02C09200
:1059C0003A02F0924C02E0924B02B0925D02A09239
:1059D0005C0290926E0280926D0210937F0200939F
:1059E0007E027092900260928F02B093D607A093CD
:1059F000D507F093C507E093C407D093B407C093CD
:105A0000B3071093A3070093A2079093C603809354
:105A1000C5039093B5038093B4039093A40380933C
:105A2000A3039093930380939203909382038093B4
:105A3000810390937103809370037093600360936C
:105A40005F0370934F0360934E0370933E03609324
:105A50003D0370932D0360932C0370931C0360939C
:105A60001B0370930B0360930A035093FA02409355
:105A7000F9025093E9024093E8025093D802409310
:105A8000D7025093C7024093C6025093B602409388
:105A9000B5025093A5024093A40230939402209340
:105AA00093023093830220938202309372022093F8
:105AB0007102309361022093600230935002209370
:105AC0004F0230933F0220933E022FE737E0E4EE8F
:105AD000F3E0F0938207E0938107AAE6B7E0B09382
