:020000040000FA
:100000000C9468060C94A9290C947E290C9453290D
:100010000C9428290C94FD280C94D2280C94A72821
:100020000C947C280C9499060C9499060C949906CF
:100030000C9499060C9499060C9499060C949906C4
:100040000C9499060C9499060C9499060C949906B4
:100050000C9499060C9499060C9499060C943228E9
:100060000C9499060C94FE290C94D4290C949906AE
:100070000C9499060C9499060C9499060C94990684
:100080000C9499060C9499060C9499060C94990674
:100090000C9499060C9499060C9499060C94342AA5
:1000A0000C9499060C9499060C9499060C94990654
:1000B0000C9499060C9499060C9499060C94990644
:1000C0000C9499060C9499060C9499060C94990634
:1000D0000C9499060C9499060C9499060C94990624
:1000E0000C94990607634236B79BD8A71A3968560D
:1000F00018AEBAAB558C1D3CB7CC5763BD6DEDFD4A
:10010000753EF6177231BF000000803F0800000006
:10011000BE922449123EABAAAA2ABECDCCCC4C3EFC
:1001200000000080BEABAAAAAA3E00000000BF00EB
:100130000000803F0000000000084178D3BB4387E7
:10014000D1133D190E3CC3BD4282AD2B3E68EC82FB
:1001500076BED98FE1A93E4C80EFFFBE01C4FF7F80
:100160003F00000000000C947A070C9477130C9465
:10017000A7070C9418180C9448160C94931A0C9416
:10018000C7170C94110B0C94B1170C9486070C94A0
:10019000EE0A0C94450B0C948F070C94FB170C94EF
:1001A00036170C949B230C94C9170C94350A0C94A5
:1001B0005F0D0C9452090C945B170C944F180C941F
:1001C0007F090C94ED0A0C9493070C9439180C9445
:1001D000A8080C94180B0C9431130C9401100C9477
:1001E00053180C949A170C94B4070C9495230C9400
:1001F0009D070C9455180C947E070C94A2090C943E
:100200001F090C9422180C94B50D0C94B0090C9491
:10021000DA160C94E8090C9489070C9442160C9495
:1002200098230C94941A0C94E3170C9492230C9436
:100230006A0C0C946D2B0C948E090C94A90D0C94E3
:1002400074070C943F170C94A1070C941F0E0C9488
:1002500082070C948F230C9408170C9489230C9418
:1002600099070C949E230C94EC0A0C9473170C942D
:10027000B9070C94EF0A0C94AF260C9490170C94C9
:1002800051180C944E160C94CB170C947D180C94AA
:100290000D390C948C230C94FE0A0C9480230C943E
:1002A000B5070C94AB070C949B060C94A5060C9414
:1002B000E6270C9408070C94AF076364696E6F70AF
:1002C000737578585B00463320546F6F204C4F573E
:1002D000204672657100463220546F6F204C4F5794
:1002E000204672657100463120546F6F204C4F5785
:1002F000204672657100463020546F6F204C4F5776
:1003000020467265712000463320546F6F204849A3
:100310004748204672657100463220546F6F20486E
:10032000494748204672657100463120546F6F205E
:1003300048494748204672657100463020546F6F27
:10034000204849474820467265710020202020201F
:10035000202020202020202020202000436820462C
:100360007265712E20487A2020202064426D205032
:10037000686173657D0053572076004857207631B9
:100380002E310044445320414439393539206279B3
:10039000204752412026204146434800556E6B6E4F
:1003A0006F776E20636F6D6D616E643A004320E27B
:1003B000809420536574207468652063757272653B
:1003C0006E74206F7574707574204368616E6E650D
:1003D0006C3A20283020E280942033290A4620E21B
:1003E00080942053657473204672657175656E63E1
:1003F0007920696E20487A20283130303030302022
:10040000E2809420323235303030303030290A41A9
:1004100020E2809420536574732074686520706FA7
:100420007765722028416D706C6974756465292048
:100430006C6576656C206F66207468652073656CEA
:100440006563746564206368616E6E656C20696EB7
:100450002064426D20282D363020E28094202D37F4
:10046000290A5020E28094205365747320746865D3
:10047000205068617365206F66207468652073651D
:100480006C6563746564206368616E6E656C206979
:100490006E2064426D20283020E280942033363074
:1004A000290A4D20E280942047657473204D6F64C3
:1004B000656C0A5620E28094204765747320466973
:1004C000726D776172652056657273696F6E0A6826
:1004D00020E2809420546869732048656C700A3B60
:1004E00020E2809420436F6D6D616E6473205365CC
:1004F00070617261746F720A4578616D706C653AF3
:100500000A43303B463130303030303B412D3130C2
:100510000A53657473207468652046726571756549
:100520006E637920746F20313030206B487A2C2034
:10053000616E64204F757470757420506F776572AA
:100540002028416D706C69747564652920746F2072
:100550002D31302064426D206F6E204368616E6ED5
:10056000656C203020285246204F555430292E0AE1
:10057000416E79206E756D626572206F6620636FC3
:100580006D6D616E647320696E20616E79206F728B
:1005900064657220697320616C6C6F7765642C20D0
:1005A0006275742074686520766572792066697258
:1005B000737420636F6D6D616E64206D757374204C
:1005C0006265202243222E0A4E6F74653A206279BA
:1005D0002064656661756C742C20746865206D619B
:1005E00078696D756D206C656E677468206F662024
:1005F0006F6E65206D657373616765206973203662
:100600003420627974657300444453393935392094
:1006100076312E31002069732073657420746F3A2F
:100620002000546865205068617365206F66204320
:1006300068616E6E656C2000546865206F7574701B
:100640007574204368616E6E656C206973206E6FEF
:10065000742073656C65637465642120557365202F
:1006600022432220636F6D6D616E6420746F20736E
:10067000656C65637420746865204368616E6E659F
:100680006C2E002069732073657420746F3A20000B
:1006900054686520506F7765722028416D706C69D1
:1006A0007475646529206F66204368616E6E656CA1
:1006B0002000546865206F757470757420436861FC
:1006C0006E6E656C206973206E6F742073656C6547
:1006D0006374656421205573652022432220636F73
:1006E0006D6D616E6420746F2073656C656374203A
:1006F000746865204368616E6E656C2E00206973B6
:100700002073657420746F3A200054686520467227
:10071000657175656E6379206F66204368616E6EE2
:10072000656C2000546865206F7574707574204383
:1007300068616E6E656C206973206E6F74207365DE
:100740006C65637465642120557365202243222003
:10075000636F6D6D616E6420746F2073656C65638B
:100760007420746865204368616E6E656C2E005459
:100770006865204368616E6E656C206E756D62659C
:1007800072206973204F5554204F462052414E47E6
:100790004520283020E280942033290054686520C9
:1007A0004368616E6E656C206E756D62657220695E
:1007B000732073657420746F3A20000000220025B6
:1007C0000028002B002E003100340002010000053B
:1007D0000108010B0100000A0B02090C0D0E0807AD
:1007E0000304010000000000000000000000000001
:1007F00000000000000000000000000000000000F9
:1008000000121110000000000000000000000000B5
:100810000000000000000000000000000020002395
:1008200000260029002C002F0032000001000003E8
:10083000010601090100002100240027002A002DE3
:10084000003000330001010000040107010A01012A
:1008500002102020080810204010204080020102D1
:100860000108040201010204081020408080402099
:1008700010080402018004020180402010080402D4
:100880000108040201010204081020408001020452
:10089000081020408005050505070508080808021E
:1008A0000202020A0A080804040404010101010109
:1008B0000101010303030303030303040707070CF8
:1008C0000C0C0C0C0C0C0C020202020606060606AE
:1008D0000606060B0B0B0B0B0B0B0B610203020343
:1008E00004010104050800FF06FF06000146029608
:1008F00003D32006C5FABC022109C5FA40D80EE58B
:1009000000220AC5DA49944449CE00230DC53AA510
:10091000241994CAA0949218240BC55AD952DB9278
:1009200064CB01250AC5DA619255C21C04260DC5A7
:100930003A59122559254AB224062708C5FA4058C3
:1009400067012809C5FA4016B6E6002909C5DA6923
:10095000D89623002A0BC5FA581449432495012B35
:100960000AC5FA68180D5298032C07C5FACC5A0D1F
:100970002D08C5FAE42127012E07C5FAAC9A0E2FDF
:100980000AC5FA489835E61000300DC5FA4096447D
:100990004994444996033109C5FA4026B6CD003240
:1009A0000AC5DA523192C22106330BC5BA4396A961
:1009B0004914E900340CC5FA402625D19085390048
:1009C000350BC5BA4312AE4914E900360AC5DA52EE
:1009D0003855A24807370BC5BA4398855998230064
:1009E000380AC5DA5249AA44910E390AC5DA5225A5
:1009F0008AC648073A09C5FAA0A6239A0E3B09C53C
:100A0000FAA8A6235A0D3C09C5FA48564CCB003D1E
:100A100009C5FA94211E72103E09C5DA6931AB236B
:100A2000003F0BC5FA409684590EE500400CC55AAC
:100A300052242D8992485505410CC5DA52254A8623
:100A4000244AA218420AC5BA5365AA44C90E430AE9
:100A5000C5DA52252C453A00440CC5BA53254AA2A2
:100A6000244A7600450BC5BA43124E6138C400468D
:100A70000AC5BA43124E611D02470BC5DA52254C16
:100A80009428D201480EC5BA51122543122551129D
:100A9000C5004908C5DA5BD836034A0AC5DA5B588F
:100AA0004AB21C014B0CC5BA5152D2922889CA00D5
:100AB0004C08C5BA61C721064D0EC5BA5132244350
:100AC00012255112C5004E0EC5BA51A224439228D8
:100AD0008912C5004F0CC5DA52254AA2248A740037
:100AE000500BC5BA53254AA6308700510CC5DA52BF
:100AF000254A948AA42600520BC5BA53254AA64A11
:100B000014035309C5DA526B54D2015407C5DA5B9A
:100B1000D81D550DC5BA51122551122551A40356A1
:100B20000CC5BA5112255112459A0E570EC5BA512D
:100B300012255132244312C500580CC5BA51124532
:100B40009A54896200590AC5BA9996D4C23A005A91
:100B50000AC5BA4398350E31005B08C5DA53D83858
:100B6000035C08C5BA61DA18035D07C5DA63A71923
:100B70005E09C5FA4096E4AC005F08C5FA3C0C0972
:100B8000006007C5DA69CE0C610AC5FAA4254AA23D
:100B90006806620AC5BA613855A264076309C5FAD6
:100BA00034294C6500640CC5FA48182D51124533A0
:100BB000006509C5FA242931EA00660CC5FA409699
:100BC00044D916E60800670AC5FA24A9344612007B
:100BD000680BC5BA613855A2248A016909C5FA4073
:100BE0008E88B5196A0BC5FA480E85A5248B006B53
:100BF0000AC5BA6129992A510C6C07C5DA62B7197E
:100C00006D0BC5FA14A54549942A006E0AC5FA94DD
:100C1000A91225510C6F0AC5FA24A912453A007091
:100C20000AC5FA94A932852100710AC5FAA4258A59
:100C3000C60A00720AC5FA949252CC21007309C503
:100C4000FA34498D7400740AC5DA61B68549960391
:100C5000750BC5FA94288992289A01760BC5FAA4D7
:100C6000244AA224CB01770AC5FA944C4994CE00B9
:100C7000780AC5FA9428D2A43200790CC5FA9428CF
:100C800089A2258A24007A0AC5FA9421AB0D310085
:100C90007B0AC53A52258A7416007C08C5FA40D8EA
:100CA0003B007D0DC5FA80525112A5B28511007E20
:100CB00008C5DA493B33007F06C5FABC028006C589
:100CC000FABC0200000004FFFF0000006D2B0D398C
:100CD00011241FBECFEFD1E2DEBFCDBF00E00CBFBD
:100CE0002DE0A4E4B6E001C01D92AA3DB207E1F7F1
:100CF00016E0A0E0B2E0E2E1F8E800E00BBF02C0DD
:100D000007900D92A434B107D9F716E0C7E6D6E0F4
:100D100000E006C021970109802FFE010E949C3D42
:100D2000C636D10780E00807A9F70E945D2E0C9413
:100D3000F7430C940000662329F06A3019F0862FDF
:100D400090E008958FEF9FEF0895CF92DF92EF929A
:100D5000FF920F931F93CF93DF93EC01842F877043
:100D6000E1E0F0E0082E01C0EE0F0A94EAF73E2F12
:100D70007E0199E7E90EF11CD7019C9110E09230B9
:100D800018F41E2F913029F150E0487FE8ADF9ADFD
:100D9000C880D980D60150969C91949F6001959F00
:100DA000D00C11246C0D7D2D711DDF01A60FB71F16
:100DB000011115C08C91812B83278D932150D1F780
:100DC000DF91CF911F910F91FF90EF90DF90CF9027
:100DD000089530E0D9CF110F330F222389F39C916E
:100DE000912B93279C938F5F877021508111F3CFB4
:100DF0009CADA90FB11DF7019081923028F491307C
:100E000009F031E011E0E9CF31E0E7CF80E008956B
:100E100080E00895CF93DF93EC01E091E003F0913F
:100E2000E103EE0FFF1FEE0FFF1FEA52FC4F218977
:100E300032894389548960E075E68DEC9DE10E941A
:100E4000AE3A2531310510F024E130E0243031058F
:100E500010F424E030E039832883DF91CF910895A6
:100E6000CF93DF93C3EDDCE08FAFEAADFBAD019034
:100E7000F081E02D87ED9CE01995EAADFBAD028095
:100E8000F381E02D87ED9CE0DF91CF9119948330C1
:100E900018F48093500D089581E0FBCF9B01DC0195
:100EA0001896ED91FC9141E067E1199481508231EF
:100EB00008F05AC0E82FF0E08827EE59F84F8F4F1E
:100EC0000C949C3D8207860774077A077E07B40757
:100ED00089078F07930799079D07A107A707AB0706
:100EE000B407AF07B507B907809180008F7780936B
:100EF00080000895809180008F7DF9CF80918000DF
:100F0000877FF5CF84B58F7784BD089584B58F7DB5
:100F1000FBCF8091B0008F778093B00008958091CF
:100F2000B0008F7DF9CF809190008F7780939000F3
:100F30000895809190008F7DF9CF80919000877FF8
:100F4000F5CF8091A0008F778093A00008958091C5
:100F5000A0008F7DF9CF8091A000877FF5CF809191
:100F600020018F77809320010895809120018F7D4B
:100F7000F9CF80912001877FF5CFCF93DF93282F82
:100F800030E0F901EB52F84F8491F901E15BF74F42
:100F9000D491F901EB56F74FC491CC23A1F0811104
:100FA0000E945607EC2FF0E0EE0FFF1FE55EF74FB3
:100FB000A591B491EC91ED2381E090E009F480E0FB
:100FC000DF91CF91089580E090E0FACF1F93CF9307
:100FD000DF93282F30E0F901EB52F84F8491F901AB
:100FE000E15BF74FD491F901EB56F74FC491CC2355
:100FF000A9F0162F81110E945607EC2FF0E0EE0F9A
:10100000FF1FE554F84FA591B4918FB7F894EC9178
:10101000111108C0D095DE23DC938FBFDF91CF91F3
:101020001F910895DE2BF8CFCF93DF9390E0FC0162
:10103000E15BF74F24918B56974FFC0184918823F5
:10104000C9F090E0880F991FFC01EB5CF74FA59168
:10105000B491FC01E554F84FC591D49161110DC0D4
:101060009FB7F8948C91209582238C9388812823B4
:1010700028839FBFDF91CF910895623051F49FB7CD
:10108000F8943C91822F809583238C93E8812E2BBA
:10109000EFCF8FB7F894EC912E2B2C938FBFEACF24
:1010A0003FB7F8948091D3079091D407A091D507CA
:1010B000B091D60726B5A89B05C02F3F19F0019621
:1010C000A11DB11D3FBFBA2FA92F982F8827BC01A2
:1010D000CD01620F711D811D911D42E0660F771FCA
:1010E000881F991F4A95D1F708958F929F92AF92CA
:1010F000BF92CF92DF92EF92FF926B017C010E9430
:1011000050084B015C01C114D104E104F104B9F0B1
:101110000E945008681979098A099B09683E734042
:101120008105910580F321E0C21AD108E108F10898
:1011300088EE880E83E0981EA11CB11CE4CFFF90BE
:10114000EF90DF90CF90BF90AF909F908F900895D9
:101150000F931F93CF93DF938C01C62F642FCC3254
:10116000E8F4CA3208F041C0C83271F1C93209F45A
:1011700042C080E0C034D0F1CF73F801EC0FF11D14
:10118000868D8F3F91F1C031E0F00E94BD0721E0D4
:10119000892B09F420E0F801218F27C0CD3289F195
:1011A00040F384EB8C0F823020F7CF73C00FD12F28
:1011B000D11D8E8D411133C061E00E94140860E0A2
:1011C0008E8D0E94E60711C0025E1F4FD0E0F8012D
:1011D00081918F018F3F31F061E0D03108F062E002
:1011E0000E941408DF5FD63191F781E0DF91CF9143
:1011F0001F910F91089570E090E080E00E947508C3
:10120000F4CF85E090E0433010F082E090E0880F6A
:10121000991F880F991F05970197F1F7E6CF62E0B4
:101220000E941408E2CF2FB7F8946091CF07709115
:10123000D0078091D1079091D2072FBF08950895CC
:10124000DB0114964D915C9115976D917C91DC01B9
:10125000ED91FC910280F381E02D1994EF92FF92C1
:101260000F931F93CF93DF938C017B01D0E0C0E0FD
:10127000F701EC0FFD1F6491662361F0D801ED9139
:10128000FC910190F081E02DC8011995892B11F096
:101290002196EECFCE01DF91CF911F910F91FF905C
:1012A000EF900895AF92BF92CF92DF92EF92FF92AC
:1012B0000F931F93CF93DF936C017B018B01040F7E
:1012C000151FEB015E01AE18BF08C017D10759F01A
:1012D0006991D601ED91FC910190F081E02DC6015C
:1012E0001995892B79F7C501DF91CF911F910F9146
:1012F000FF90EF90DF90CF90BF90AF900895FC01EA
:10130000538D448D252F30E0842F90E0821B930B6A
:10131000541710F0CF96089501970895FC01918D10
:10132000828D981761F0A28DAE0FBF2FB11D5D9613
:101330008C91928D9F5F9F73928F90E008958FEFB5
:101340009FEF0895FC01918D828D981731F0828D69
:10135000E80FF11D858D90E008958FEF9FEF0895C0
:10136000FC01918D228D892F90E0805C9F4F821B24
:1013700091098F739927089587ED97E00E94B0092E
:1013800021E0892B09F420E0822F0895FC01A48D2F
:10139000A80FB92FB11DA35ABF4F2C91848D90E097
:1013A00001968F739927848FA689B7892C93A0897A
:1013B000B1898C91837080648C93938D848D981304
:1013C00006C00288F389E02D80818F7D8083089597
:1013D000EF92FF920F931F93CF93DF93EC0181E085
:1013E000888F9B8D8C8D98131AC0E889F98980812C
:1013F00085FF15C09FB7F894EE89FF896083E8895F
:10140000F98980818370806480839FBF81E090E050
:10141000DF91CF911F910F91FF90EF900895F62EDD
:101420000B8D10E00F5F1F4F0F731127E02E8C8D77
:101430008E110CC00FB607FCFACFE889F9898081BC
:1014400085FFF5CFCE010E94C609F1CFEB8DEC0FE1
:10145000FD2FF11DE35AFF4FF0829FB7F8940B8FD9
:10146000EA89FB8980818062CFCFCF93DF93EC0143
:10147000888D8823B9F0AA89BB89E889F9898C917C
:1014800085FD03C0808186FD0DC00FB607FCF7CF38
:101490008C9185FFF2CF808185FFEDCFCE010E9438
:1014A000C609E9CFDF91CF91089580E090E0892BC4
:1014B00029F00E94BC0981110E94000080E090E0A8
:1014C000892B49F080E090E0892B29F00E940000F0
:1014D00081110E94000080E090E0892B49F080E0BB
:1014E00090E0892B29F00E94000081110E940000E9
:1014F00080E090E0892B49F080E090E0892B29F092
:101500000E94000081110C940000089520910807AA
:10151000260F3327331F21323105ECF420912E079B
:10152000FC0190E080E0243069F082E00895A09111
:1015300008072191AC014A51594FA40FB52FB11D95
:101540002C930196861798F380910807680F609393
:10155000080780E0089581E0089510922E0781E049
:101560008093300710922F0761E084E10E94E60724
:1015700061E085E10E94E607E9EBF0E080818E7F83
:10158000808380818D7F808388E48093B80085E4A8
:101590008093BC000895CF93DF9391E09093E5068C
:1015A0008823B9F0C091B800D091BA008091BC00F6
:1015B0008A7B8093BC0060E084E10E94E60760E0E3
:1015C00085E10E94E6070E94AD0AD093BA00C0935D
:1015D000B800DF91CF910895089508950895E0919E
:1015E000DD068091DC06E81730F4F0E0E454F94FB2
:1015F000808190E008958FEF9FEF08959091DD0630
:101600008091DC062FEF3FEF981748F4E92FF0E0C8
:10161000E454F94F208130E09F5F9093DD06C901CB
:1016200008958091DC069091DD06891B990B089541
:10163000CF92DF92EF92FF920F931F93CF93DF939E
:101640007C01CB018A012091BB06222389F0EB01AA
:101650006B01C40ED51ECC15DD0569F06991D7016B
:10166000ED91FC910190F081E02DC7011995F3CF28
:10167000642F0E94860AC801DF91CF911F910F91BC
:10168000FF90EF90DF90CF900895CF93DF931F925C
:10169000CDB7DEB769832091BB062223F9F02091F4
:1016A000DE06203258F021E030E0FC013383228353
:1016B00090E080E00F90DF91CF9108958091DF0658
:1016C000E82FF0E0E556F94F998190838F5F809382
:1016D000DF068093DE0681E090E0ECCF61E0CE0192
:1016E00001960E94860AF7CFCF92DF92EF92FF9287
:1016F000CF93DF93EC010E9413096B017C018F856E
:101700000E94BD079C0181E02115310509F480E0AC
:10171000898B8889811105C091E0232B09F090E025
:10172000998B29898A89281721F0CD8ADE8AEF8A48
:10173000F88E8D899E89AF89B88DB701A601481BA7
:10174000590B6A0B7B0BDB01CA01CB80DC80ED807F
:10175000FE80C816D906EA06FB0664F43A81231710
:1017600049F02A83222349F04B895C894F5F5F4F00
:101770005C8B4B8B3A81311117C0CF80D884E984C0
:10178000FA84C816D906EA06FB0634F48B899C89CC
:10179000998388831C8A1B8A2A8BDF91CF91FF90C3
:1017A000EF90DF90CF900895CB84DC84ED84FE84AD
:1017B000C816D906EA06FB067CF78B899C899195A9
:1017C00081959109E5CFDC011A96ED91FC9130E00D
:1017D00020E01994DC011496ED91FC9130E020E0BA
:1017E00040E060E11994DC011696ED91FC9130E047
:1017F00020E040E069E11994DC011696ED91FC913E
:1018000030E020E040E068E119949A01DC0116968E
:10181000ED91FC91462F67E11994EF92FF920F939F
:101820001F93CF93DF931F92CDB7DEB77C018B015F
:10183000D8016C91673129F150F46531A0F40F9013
:10184000DF91CF911F910F91FF90EF9008956A3132
:1018500018F16E3FA1F7F8014181498369E2C701A0
:101860000E94E30B0BC0F80141814983D701169612
:10187000ED91FC9130E020E0C70119950E5F1F4FFC
:10188000D7CFF80181818983AE014F5F5F4F61E05F
:10189000C7010E94050CF2CF0F5F1F4FD7011696AC
:1018A000ED91FC9130E020E040E0C7011995C0CFF8
:1018B000462FDC011696ED91FC9130E020E066E1C8
:1018C0001994462FDC011696ED91FC9130E020E052
:1018D00065E11994EF92FF920F931F93CF93DF93DB
:1018E000EC01042F79016D3009F446C050F46B30DF
:1018F000C9F1693009F49FC06A3009F465C080E01D
:101900005CC06E3009F44BC06F3099F70E94FC0B3D
:10191000F7011381110F110F110F6C89160F60E47D
:10192000CE010E94610C612F62956F706061CE01E3
:101930000E94610C612F6F70CE010E94580CF7015C
:101940006481606BCE010E94580CF7014081518187
:101950006281660F660F660FCE010E94050C015072
:10196000A1F727C066E874E0442311F061E874E051
:10197000CE010E940D0C20C0411109C06AE774E03D
:101980000E940D0CE881F98182898C8B15C063E778
:1019900074E00E940D0CE881F9818389F6CF0E94E2
:1019A000FC0B61E8CE010E94610C602FCE010E9409
:1019B000580CCE010E94F30B81E0DF91CF911F9173
:1019C0000F91FF90EF900895EA85FB8530E020E0CD
:1019D00040E068E2CE011995EE81FF8130E020E021
:1019E00040E064E1CE01199541E06BE4CE010E9434
:1019F000E30BE881F981448169E2CE010E94E30BA7
:101A000040E06BE4CE010E94E30BE881F981448160
:101A100069E2CE010E94E30B41E06BE4CE010E943B
:101A2000E30BE881F981458169E2CE010E94E30B75
:101A30006BE874E09DCF80EC94E09983888382E02A
:101A4000A4CFDC011896ED91FC9130E020E040E05D
:101A500069E11994DC011896ED91FC9130E020E0E9
:101A600040E068E11994CF93DF931F92CDB7DEB7C2
:101A70006983BE016F5F7F4F0E944E070F90DF9119
:101A8000CF910895EF92FF921F93CF93DF93EC01D4
:101A9000162F7A010E942A0D60E4CE010E94330DB8
:101AA000E885F9859701412F67E1CE011995CE01AF
:101AB000DF91CF911F91FF90EF900C94210DEF9249
:101AC000FF921F93CF93DF93EC01142F79016731BD
:101AD00030F4653178F4643159F180E005C0673144
:101AE000F9F06A31D0F781E0DF91CF911F91FF903B
:101AF000EF9008950E942A0D60E0CE010E94330D00
:101B0000612FCE010E94330DCE010E94210DEBCF3B
:101B100068E1CE010E94420D185188E1E80EF11CE7
:101B2000A7011931A8F7612FCE010E94420DDBCF2A
:101B30008E898F3F11F488E78E8BE885F9859701B0
:101B4000412F64E1CE01DF91CF911F91FF90EF9083
:101B500019940F93DC01DE963C91DE97431BD496DB
:101B6000ED91FC9119950F910895CF93DF93FC01AE
:101B7000A081B18182AD982F990F990F990F95AFE0
:101B800050969C915097903208F09FE1990F990FD1
:101B9000990F94AF23AD922F990F990F990F96AF8C
:101BA00051963C915197682F620F7727771F361710
:101BB000170614F4832F821B97AFEF01C05CDF4F31
:101BC000880F880F880F890F8883219680EF88837C
:101BD00054968D919C915597813F910508F4888387
:101BE000EE5BFF4F56968C918083DF91CF910895E5
:101BF0000F93FC01EB5BFF4F30813196508145170D
:101C000030F4301738F0041728F080E013C0301794
:101C1000D0F3FBCFFC01ED5BFF4F30818C5B9F4F1E
:101C2000FC018081681740F481E0321718F081E0F0
:101C3000261758F70F9108953217C8F3E6CF2F9261
:101C40003F924F925F926F927F928F929F92AF924C
:101C5000BF92CF92DF92EF92FF920F931F93CF9399
:101C6000DF93EC014C0183E4880E911CF401108297
:101C7000329720805E01F4E4AF0EB11CF5012082A2
:101C80003FAC6E01F5E4CF0ED11CF60130823597E2
:101C900040807E01F6E4EF0EF11CF701408234969D
:101CA0001081329760803196708032975080012F7A
:101CB000262D472D652DCE010E94F80DCD58DF4F02
:101CC000811114C01882DF91CF911F910F91FF9065
:101CD000EF90DF90CF90BF90AF909F908F907F90CC
:101CE0006F905F904F903F902F90089581E0888390
:101CF000552011F0F4015082621410F4F501608255
:101D0000371410F4F60170821415E8F6F701108309
:101D1000DACF0F93DC01802FFD01ED58FF4F90814A
:101D20009923E9F12223D9F1223020F0023079F50C
:101D30006F5F621B082F0170FD0180FD32C0EB5BFD
:101D4000FF4F8081481758F131968081481738F548
:101D50003297908131978081260F2617F0F469170A
:101D6000D8F42FEF290F8217D0F4681708F4682FE2
:101D7000291708F4922F961BD696ED91FC91D797D0
:101D80000480F581E02D292FCD01199508C003307D
:101D900089F64F5F421BCECF682F691720F30F9152
:101DA0000895ED5BFF4F80816817C8F331968081FD
:101DB0006817A8F73296908131978081240F2417F5
:101DC00078F4491760F42FEF290F821740F748176E
:101DD00008F4482F291708F4922F941BCDCF482FD1
:101DE0004917E8F6F2CF213039F020F0223031F0F7
:101DF000840F0895860F0895841B0895861B089507
:101E0000213039F020F0223031F0861B0895840F04
:101E10000895860F0895841B08955F926F927F92B4
:101E20008F929F92AF92BF92CF92DF92EF92FF92EA
:101E30000F931F93CF93DF935C01162F642EEC0159
:101E4000C15BDF4FDC80ED804C0189E7880E911C7F
:101E5000FE80FD18C12EF11608F4CF2C5B800C8596
:101E6000202F4E2D6D2D8A810E94F30E782E202F6B
:101E70004E2D6D2D852D0E94000F482F662071F08C
:101E80008A85F40180832C2D672DC5010E94890E5F
:101E90001F1548F01F19E394D12CDACF89858111E1
:101EA000F7CF8B85EECF1D0D1C83ED82DF91CF9197
:101EB0001F910F91FF90EF90DF90CF90BF90AF9068
:101EC0009F908F907F906F905F900895DC0118969F
:101ED0004C911897ED91FC911197249130E0042ECC
:101EE00002C0359527950A94E2F7842F860F883033
:101EF00068F031961196FC93EE93E49198E0941B70
:101F000001C0EE0F9A95EAF72E2B885018968C9305
:101F10008FEF9FEF01C0880F6A95EAF780958223C3
:101F20000895FC01E60FF11D849190E0982F882719
:101F30003196E4918E0F911D0895AF92BF92CF928A
:101F4000DF92EF92FF920F931F93CF93DF9300D016
:101F50001F921F92CDB7DEB78C01DC01DA96AC90F0
:101F6000DA97DB96EC90DB97ED91FC91B188FE2C33
:101F7000D12CC12CD801ED91FC9111978089D89674
:101F80002D913C911C82FD828B83B8E08B9FC00118
:101F900011248C9DA0018D9D500D9C9D500D1124F0
:101FA000240F351F3A832983D8011496ED91FC91B3
:101FB0009E012F5F3F4F41E06FE0C8011995F394F8
:101FC0008F2D8E198A1528F4BFEFCB1ADB0AFB146C
:101FD00088F20F900F900F900F900F90DF91CF919C
:101FE0001F910F91FF90EF90DF90CF90BF90AF9037
:101FF000089587ED9CE00E949D0F87ED9CE00C9476
:10200000EA0BCF92DF92EF92FF920F931F93CF9341
:10201000DF93EC01962F683109F44BC0B901993177
:1020200030F49431C9F0973189F080E006C09931DD
:1020300009F461C09032C9F781E0DF91CF911F911F
:102040000F91FF90EF90DF90CF90089550E084E7DC
:1020500098E00E94180BF0CF8C859D85AE85BF85DA
:10206000892B8A2B8B2B71F4E881F981A585B0E04F
:1020700020EA36E841E050E00E94D03A6C877D8744
:102080008E879F871092DD061092DC061092DF0685
:102090001092DE060E94AD0A8CEE9AE0909307073C
:1020A000809306078DEE9AE090930B0780930A07C2
:1020B000C3CF2C853D854E855F8560E074E284EF5B
:1020C00090E00E94AE3A20513109410951095695DC
:1020D0004795379527952093B8008E8990E0959580
:1020E000879591E09093BB0680939A061092DF0645
:1020F0001092DE06A1CFD091DE06D13208F093C057
:10210000C0919A060E9450086B017C0180912E07B5
:10211000811164C082E080932E0781E080933007B4
:102120008FEF80932D0710925207D0935107ABE9A0
:10213000B6E0E1E3F7E080E0D8137CC010925307EB
:1021400080915307CC0FC82BC093530780912F0762
:10215000813009F073C010922F070E9450086B0164
:102160007C01809153078093BB008091E1069091A0
:10217000E206A091E306B091E406892B8A2B8B2B13
:1021800099F00E9450080091E1061091E20620911A
:10219000E3063091E4066C197D098E099F09061744
:1021A000170728073907D8F18091BC0083FDD9CFE4
:1021B00085EC8093BC000E9450086B017C018091EB
:1021C0002E078230E9F180912D078F3F61F18091D8
:1021D0002D07803241F180912D0725C08091E106C5
:1021E0009091E206A091E306B091E406892B8A2B38
:1021F0008B2B09F48BCF0E9450080091E1061091BF
:10220000E2062091E3063091E4066C197D098E09FF
:102210009F09061717072807390708F077CF80911D
:10222000E0060E94CB0A1092DF061092DE061092A2
:10223000BB0602CF9D9191938F5F7ECF85EEB9CF84
:102240008091E1069091E206A091E306B091E40648
:10225000892B8A2B8B2B09F4B2CF0E945008009156
:10226000E1061091E2062091E3063091E4066C1934
:102270007D098E099F09061717072807390708F0F7
:102280009ECFCDCFCF93C82F61E00E94E60760E0DC
:102290008C2FCF910C94E6078DE58CBD81E08DBD30
:1022A00060E086E00C94E60761E086E00C94E607C7
:1022B000E091E003F091E103EE0FFF1FEE0FFF1F2F
:1022C000EA52FC4F218932894389548960E076E4DF
:1022D00083EC93E20E94AE3ACA01B9010E948D39A3
:1022E0000E94C93BCB016531710510F084E190E09B
:1022F0000895E091E003F091E103EE0FFF1FEE0F70
:10230000FF1FEA52FC4F218932894389548960E0DA
:1023100074E887ED97E10E94AE3ACA01B9010E94C4
:102320008D390E94C93BCB016430710510F484E003
:1023300090E008950F931F93CF93DF93EC0180916A
:10234000920681110DC00E94130960938E0670934E
:102350008F06809390069093910681E08093920679
:102360008881882359F10E94130900918E061091EB
:102370008F062091900630919106601B710B820BA5
:10238000930B6E3471408105910588F0C091040271
:102390000E94130960938E0670938F0680939006B7
:1023A0009093910681E0C11180E0809304028091B6
:1023B0000402DF91CF911F910F91089581E0F9CF31
:1023C0004F925F926F927F928F929F92AF92BF9245
:1023D000CF92DF92EF92FF92CF93DF9300D01F92C4
:1023E000CDB7DEB7A0919A03B0919B0320E432E40D
:1023F0004FE050E00E94AB3D2B013C01A091AB03AC
:10240000B091AC0328EE33E00E94A43D460E571E67
:10241000681E791E8091BC039091BD03092E000CAB
:10242000AA0BBB0B480E591E6A1E7B1E4092540716
:10243000509255076092560770925707A091670314
:10244000B091680320E432E44FE050E00E94AB3DDD
:102450004B015C01A0917803B091790328EE33E041
:102460000E94A43D860E971EA81EB91E8091890366
:1024700090918A03092E000CAA0BBB0B880E991EA3
:10248000AA1EBB1E80928A0690928B06A0928C0692
:10249000B0928D06A0913403B091350320E432E46C
:1024A0004FE050E00E94AB3D6B017C01A0914503E1
:1024B000B091460328EE33E00E94A43DC60ED71E1D
:1024C000E81EF91E8091560390915703092E000CC7
:1024D000AA0BBB0BC80ED91EEA1EFB1EC0928606B5
:1024E000D0928706E0928806F0928906A0910103B7
:1024F000B091020320E432E44FE050E00E94AB3D93
:1025000069837A838B839C83A0911203B091130318
:1025100028EE33E00E94A43D29813A814B815C8101
:10252000260F371F481F591FDA01C90140912303A5
:1025300050912403052E000C660B770B840F951F1A
:10254000A61FB71F8093820690938306A0938406EC
:10255000B0938506409158075091590760915A07EA
:1025600070915B07441555056605770508F469C049
:1025700031E443163AE3530639E663063DE0730659
:1025800008F05FC020EA421626E8520621E0620603
:10259000710408F458C0481559056A057B0508F40C
:1025A00054C031E483163AE3930639E6A3063DE0CE
:1025B000B30608F04AC020EA821626E8920621E017
:1025C000A206B10408F443C04C155D056E057F05F5
:1025D00008F43FC031E4C3163AE3D30639E6E30614
:1025E0003DE0F306B0F520EAC21626E8D20621E067
:1025F000E206F10480F1481759076A077B0768F182
:1026000081343AE3930739E6A3073DE0B30728F5A1
:10261000803A9648A140B10510F180E00F900F90EC
:102620000F900F90DF91CF91FF90EF90DF90CF90C0
:10263000BF90AF909F908F907F906F905F904F90E2
:10264000089581E0EBCF8FEFE9CF82E0E7CF8EEF07
:10265000E5CF83E0E3CF8DEFE1CF84E0DFCF8CEFF8
:10266000DDCF0F931F9380917A0681110DC00E94D8
:10267000130960937606709377068093780690939B
:10268000790681E080937A060E941309009176060C
:10269000109177062091780630917906601B710BB6
:1026A000820B930B0091A40C1091A50C2091A60C09
:1026B0003091A70C6017710782079307A8F083E099
:1026C0000E94BD078093030280910202813041F491
:1026D00080910302811104C081EA9CE00E94740B86
:1026E00080910302809302021F910F9108950F932E
:1026F0001F9380916E0681110DC00E941309609393
:102700006A0670936B0680936C0690936D0681E069
:1027100080936E060E94130900916A0610916B0661
:1027200020916C0630916D06601B710B820B930B30
:102730000091BD0C1091BE0C2091BF0C3091C00CCB
:102740006017710782079307A8F082E00E94BD0717
:102750008093010280910002813041F48091010256
:10276000811104C08AEB9CE00E94740B80910102ED
:10277000809300021F910F9108958EBD00000DB44B
:1027800007FEFDCF8EB508952F923F924F925F9234
:102790006F927F928F929F92AF92BF92CF92DF9271
:1027A000EF92FF920F931F93CF93DF93EC01049767
:1027B000419710F0C1E0D0E0CB01BA0120E03AEC43
:1027C0004AE95BE30E94B33DA12CEAECBE2EFAE994
:1027D000CF2EABE3DA2EE12CF12C00E010E00E94CA
:1027E000E03DB22FA32FF42FE52F9E01DD0F440B08
:1027F000550B6B2F7A2F8F2F9E2F0E949E3A60933E
:10280000560D7093570D8093580D9093590D1B01E1
:102810002C017B01182FB52DE0E0F0E0B12CC12C8C
:1028200000E2002309F474C0DD24DA94D00E20E025
:1028300030E040E050E06E2F617070E080E090E0AA
:10284000A0E00E947C3E09F452C000935E0D10E0AF
:10285000005E1F4F21E030E040E050E060E070E0BB
:1028600080E090E00E943D3E51016201E12CF12C9C
:1028700000E010E00E94E03D20935A0D30935B0D84
:1028800040935C0D50935D0D0E944C1181E00E94BD
:10289000BD138091560D9091570DA091580DB09198
:1028A000590D893C9105A105B105A8F180E8CC0F2F
:1028B000CC0FC3608C2B0E94BD1380E00E94BD131F
:1028C00080E20E94BD13DF91CF911F910F91FF9085
:1028D000EF90DF90CF90BF90AF909F908F907F90C0
:1028E0006F905F904F903F902F900C9454119701F0
:1028F000412F5B2FBF018B2D9C2D01E00E943D3E9F
:102900007901142FB52FFB01B82EC92E0D2D89CFBB
:1029100010925E0D9CCF80E0CACF8F929F92AF92B3
:10292000BF92CF92DF92EF92FF92CF93DF93D82F97
:102930004A015B01E82FF0E0E559FB4FC0810E949E
:102940004C118D2F0E94BD1328E0C29FE00111247D
:10295000C12CD12C76012897C83F8FEFD80791F072
:10296000FE2CED2CDC2CCC24D501C4010C2E04C093
:10297000B695A795979587950A94D2F70E94BD13AF
:10298000C82AE9CF0E945411C701B601DF91CF9147
:10299000FF90EF90DF90CF90BF90AF909F908F907F
:1029A00008951F93CF93DF93EC01162F462F572FD7
:1029B00088818417150641F04260052E000C660BD5
:1029C000770B80E00E948D141883DF91CF911F91C7
:1029D00008950F931F93CF93DF938B01EB01613029
:1029E000744010F0C0E0D4E0BC018FE59DE00E948F
:1029F000D1140E944C1186E00E94BD1380E00E9419
:102A0000BD130115144070F4CE019061892F0E940E
:102A1000BD138C2F0E94BD13DF91CF911F910F9199
:102A20000C94541180E0F3CFCF93DF93EB01BC0102
:102A30008FE59DE00E94D114DF73AE0170E060E08D
:102A400085E0DF91CF910C948D142F923F924F929D
:102A50005F926F927F928F929F92AF92BF92CF922E
:102A6000DF92EF92FF920F931F93CF93DF9300D0EB
:102A70001F92CDB7DEB79A838983C0905A0DD0904C
:102A80005B0DE0905C0DF0905D0DCB01BA01A701EC
:102A900096010E94B33DE4E0F694E794D794C7947E
:102AA000EA95D1F756016701E12CF12C00E010E026
:102AB0000E94733E00915E0D0E94583E79014C8346
:102AC0005B8369817A818FE59DE00E94D114A70123
:102AD0006C817B8184E00F900F900F900F90DF91BD
:102AE000CF911F910F91FF90EF90DF90CF90BF900B
:102AF000AF909F908F907F906F905F904F903F909E
:102B00002F900C948D14EF92FF920F931F93CF93FD
:102B1000DF93EC01A881B9817C810A811B81FD8052
:102B200020E931E050E040E090E080E06C916723E4
:102B3000E1E0F0E011F4F0E0E0E08E0F9F1FF8011B
:102B400060816F21E1E0F0E011F4F0E0E0E04E0F91
:102B50005F1F2150310951F721E0893C910508F4AC
:102B600020E081E0493C510508F480E0909169063D
:102B7000921305C090916806981709F460C02093DD
:102B80006906809368069E81990F990F922B880F92
:102B9000982B9E839B3409F459C0973809F04FC095
:102BA000EE24EA94FE2C0E9413090B851C852D85CA
:102BB0003E85DC01CB01801B910BA20BB30B8F87F1
:102BC000988BA98BBA8B10E000E08A319105A105A2
:102BD000B10540F405E010E00D97A105B10510F432
:102BE0000AE010E00E9413096B877C878D879E871F
:102BF00021E030E0FFEFEF16FF0611F42FEF3FEF7B
:102C0000C701FF0CAA0BBB0B4F81588569857A85DC
:102C1000840F951FA61FB71F029FA001039F500D91
:102C2000129F500D1124052E000C660B770B840F9C
:102C3000951FA61FB71F8F839887A987BA87DF9133
:102C4000CF911F910F91FF90EF900895EE24E394A0
:102C5000F12CA9CF80918008909181080C94831564
:102C600080918208909183080C9483158091840848
:102C7000909185080C94831580918608909187081F
:102C80000C94831580918808909189080C94831581
:102C900080918A0890918B080C9483150895CF93A6
:102CA000DF93EC01E091E003F091E103EE0FFF1FF1
:102CB000EE0FFF1FEA52FC4FAA85BB85218932899E
:102CC000438954890E94AB3D698B7A8B8B8B9C8B9B
:102CD000DF91CF9108958F929F92AF92BF92CF9242
:102CE000DF92EF92FF9280917F0D9091800D892B62
:102CF00069F58091710D9091720DA091730DB09155
:102D0000740D81509448A74DB7418F3F914CAB4E05
:102D1000BB4020F080E69DE00E944F168090710D30
:102D20009090720DA090730DB090740DC12CD12CA9
:102D300076019401A501B601C701FF90EF90DF90E5
:102D4000CF90BF90AF909F908F900895A091CF03A8
:102D5000B091D00320E432E44FE050E00E94AB3D5C
:102D60006B017C0124E8D21A27EDE20A27E1F20A7E
:102D7000812C21E0C21622ECD2062BEEE2062BE0DB
:102D8000F20668F44B015C01DC01CB01BB0F880B40
:102D9000982FDC01C82ED82EE82EF82ECACF85E653
:102DA000982E9DECA92E2DE1B22EC12CD12CE12C18
:102DB000F12CBFCFCF93DF93EC018A859B850197E0
:102DC0009B878A87049724F40E9458119B878A87DF
:102DD000E091E003F091E103EE0FFF1FEE0FFF1F04
:102DE000EA52FC4FAA85BB852189328943895489DF
:102DF0000E94AB3D61157448874D974120F40E94B5
:102E000058119B878A87CE01DF91CF910C944F1682
:102E1000CF93DF93EC018A859B8501969B878A87F8
:102E2000459724F00E9479119B878A87E091E003FF
:102E3000F091E103EE0FFF1FEE0FFF1FEA52FC4F70
:102E4000AA85BB8521893289438954890E94AB3D7B
:102E500061307644834C934220F00E9479119B8725
:102E60008A87CE01DF91CF910C944F16FC018681A9
:102E700097819093CD078093CC0780E00895FC0163
:102E8000908981E08927808B0895FC0177FF03C03A
:102E900071956195710982859385861B970B938740
:102EA0008287268537858217930724F48485958544
:102EB000938782870895CF93DF93EC010E94451793
:102EC000AA85BB8520E432E44FE050E00E94AB3D90
:102ED0006093710D7093720D8093730D9093740DC8
:102EE000DF91CF910895CF93DF93EC0161E070E023
:102EF0000E9445178A859B85892B69F486ED93E0AE
:102F00009B838A8380E69DE090931B0280931A0244
:102F1000DF91CF91089585EC93E09B838A83F4CF72
:102F20000E9445178AE69DE00E940A0780E69DE020
:102F30000C944F16CF93DF93EC010E9445178A85BE
:102F40009B85892B59F0EC81FD818285938588369C
:102F5000914021F487E691E093878287DF91CF91BA
:102F60000895CF93DF93EC010E9445178A859B85D6
:102F70008836914049F4EA81FB8182859385181651
:102F8000190614F413861286DF91CF9108950C94DC
:102F900045170C9445170C944517FC0177FF03C0A7
:102FA00071956195710982859385680F791F738783
:102FB0006287848595858617970724F4868597858B
:102FC000938782870895CF93DF93EC010E94CD17FA
:102FD000AA85BB8520E432E44FE050E00E94AB3D7F
:102FE0006093710D7093720D8093730D9093740DB7
:102FF000DF91CF910895CF93DF93EC0161E070E012
:103000000E94CD178A859B85892B69F486ED93E014
:103010009B838A8380E69DE090931B0280931A0233
:10302000DF91CF91089585EC93E09B838A83F4CF61
:103030000E94CD178AE69DE00E940A0780E69DE087
:103040000C944F16CF93DF93EC010E94CD178A8525
:103050009B85892B59F0EC81FD818285938588368B
:10306000914021F487E691E093878287DF91CF91A9
:103070000895CF93DF93EC010E94CD178A859B853D
:103080008836914049F4EA81FB8182859385181640
:10309000190614F413861286DF91CF9108950C94CB
:1030A000CD170C94CD170C94CD17CF92DF92EF92E1
:1030B000FF920F931F93CF93DF936C01EB017B0182
:1030C000E40EF51E10E000E0CE15DF0561F0699119
:1030D000D601ED91FC910190F081E02DC60119958A
:1030E000080F191FF1CFC801DF91CF911F910F91E8
:1030F000FF90EF90DF90CF9008952F923F924F92E4
:103100005F926F927F928F929F92AF92BF92CF9277
:10311000DF92EF92FF920F931F93CF93DF9300D034
:1031200000D0CDB7DEB77C016C0124E0C20ED11C0B
:10313000FC01E158FF4F0190F081E02DC601199587
:103140008C018E3F9F4F08F05BC0370182E8680E0C
:10315000711CF301F081FB83470121E8820E911C71
:10316000F401F081FD839701215A3F4F3A8329836F
:10317000F9018081813009F46AC008F45CC08230B2
:1031800009F471C0833009F47AC0F701EB5AFF4F9C
:103190002D81208331963B813083379780819181C7
:1031A00047969C838B830F3F110511F008F015C1E2
:1031B000B4960136110530F40134110558F0F701C9
:1031C000EF58FF4F808191812B813C81280F391F5F
:1031D0003C832B838B819C810196FC0124912111DE
:1031E0005AC0412CE981FA818081813009F492C171
:1031F00008F48BC1823009F48FC1833009F491C186
:1032000081E090E026960FB6F894DEBF0FBECDBFEA
:10321000DF91CF911F910F91FF90EF90DF90CF90B2
:10322000BF90AF909F908F907F906F905F904F90E6
:103230003F902F900895F701EF5AFF4F0190F081D2
:10324000E02DC6011995FB81F80FFB839ECFF70196
:10325000EF5AFF4F0190F081E02DC60119952D81A5
:10326000281B2D8392CFF701EF5AFF4F0190F08179
:10327000E02DC60119953B81381B3B8386CFF701B2
:10328000EF5AFF4F0190F081E02DC60119959D8105
:10329000980F9D837ACFEB81FC8124912017110632
:1032A00009F094C0CF010296009709F49ACFF70174
:1032B000ED5AFF4FFE83ED839183808310867196D4
:1032C00060818D819E810E94660FED81FE818683E3
:1032D000F701EB59FF4F60818D819E810E94660F3F
:1032E000582EED81FE818783970123583F4F3C8301
:1032F0002B83F9019081ED81FE81928781E091110C
:1033000080E0ED81FE818387F701EA59FF4FB080AD
:103310006B2D8D819E810E94660F382EF701E95931
:10332000FF4F2080622D8D819E810E94660F182F95
:10333000F701E859FF4F0081602F8D819E810E9427
:10334000660F015021E030E0A90101C0440F0A9549
:10335000EAF7482E441AED81FE81068110160CF022
:1033600041CFBA94C90101C0880FBA94EAF7381A5C
:10337000B484150D2A9401C0220F2A94EAF7A22ED4
:10338000A11A2B2D4A2D632D82810E94F30E182F36
:10339000ED81FE8182832B2D4A2D632D83810E9436
:1033A000000FED81FE818383F1E0BF1609F493C025
:1033B000BF1608F450C022E0B21609F492C033E000
:1033C000B31609F499C0082F212F49C0FC0184913C
:1033D0002B813C81280F311DFBCEF701EB58FF4FAD
:1033E00080819181EB81FC81E80FF91FFC83EB83E5
:1033F0005F0160E0C5010E94910F2B813C81280F85
:10340000391F3C832B8362E0C5010E94910F34E099
:10341000A30EB11C8017910760F3EB81FC818491AE
:1034200090E0982F88273196E4918E2B009709F42D
:10343000D8CE0817190721F48B819C81039634CFCD
:10344000EB81FC813296E4912B813C812E0F311D62
:103450003C832B83E2CF202F210F082F050D482F0F
:10346000612FC6010E94F80D882309F4BBCEED81BF
:10347000FE81148215825701F2E6AF0EB11C23E6DD
:10348000E20EF11CF50160818D819E810E94660F24
:10349000082FF70160818D819E810E94660F182F91
:1034A00040E0602FC6010E940D0F41E0612FC60170
:1034B0000E940D0F61E08D819E810E94660F811137
:1034C000EFCFED81FE8185818515E4F28285EB8168
:1034D000FC81808387CEB51821E0210F080F1B0DDA
:1034E000BECF91E0392F301B21E0210F951901E06B
:1034F000080F890F130FB3CF212F250D982F901B85
:1035000001E0080F81E0890FAACFF4018081480E05
:10351000408276CEF301FACFF40180818419808352
:103520006FCEF301FACF089590E080E00895CF9335
:10353000DF93EC0188819981009711F00E942D3F63
:10354000198218821D821C821B821A82DF91CF9100
:103550000895FC0180819181009711F00C942D3F1A
:103560000895FB0101900020E9F73197AF01461B58
:10357000570BDC01ED91FC910280F381E02D199451
:103580008F929F92AF92BF92EF92FF920F931F93F1
:10359000CF93DF93CDB7DEB7A1970FB6F894DEBF18
:1035A0000FBECDBF7C01FA01CB0119A2223008F475
:1035B0002AE08E010F5D1F4F822E912CB12CA12C81
:1035C000BF01A50194010E94AE3AF901CA016A3017
:1035D0000CF5605DD8016E938D01232B242B252BD8
:1035E00079F790E080E0109721F0BD01C7010E94BB
:1035F000B11AA1960FB6F894DEBF0FBECDBFDF9112
:10360000CF911F910F91FF90EF90BF90AF909F903F
:103610008F900895695CDECF4F925F926F927F9298
:10362000AF92BF92CF92DF92EF92FF920F931F93D0
:10363000CF935C01162FC0E060E070E080E09FE374
:10364000C11741F020E030E040E251E40E94573BD6
:10365000CF5FF6CF26EF38E24CE95FE30E94EB3A0A
:103660006B017C010E94C93B2B013C012AE0BC019B
:10367000A201C5010E94C01A8C01CC23E9F1C3014B
:10368000B2010E948D399B01AC01C701B6010E94B5
:10369000EA3A6B017C01D501ED91FC910190F0813A
:1036A000E02D6EE2C5011995080F191FC15020F1D8
:1036B00020E030E040E251E4C701B6010E94CA397F
:1036C0002B013C010E94C93B6B01F12CE12C2AE04B
:1036D000B701A601C5010E94C01A080F191FC70132
:1036E000B6010E948D399B01AC01C301B2010E9459
:1036F000EA3A6B017C01DACFC801CF911F910F919B
:10370000FF90EF90DF90CF90BF90AF907F906F9041
:103710005F904F900895CF92DF92EF92FF920F93B8
:103720001F93CF93DF93EC016A017B01E881F9815C
:103730000190F081E02D6DE219958C014427552709
:10374000BA014C195D096E097F092AE0CE010E9479
:10375000C01A800F911FDF91CF911F910F91FF90A1
:10376000EF90DF90CF900895AB01770F660B770B4A
:1037700077FD0C948B1B2AE00C94C01ABC0183EDDE
:103780009CE00C94B11ACF93DF93AB01BC0177FF9F
:1037900010C087ED97E00E948B1BEC0162E275E0A0
:1037A00087ED97E00E94B11A8C0F9D1FDF91CF919A
:1037B00008952AE087ED97E00E94C01AEECFCF93DC
:1037C000DF9362E087ED97E00E940C1BEC0162E260
:1037D00075E087ED97E00E94B11A8C0F9D1FDF9175
:1037E000CF910895CF93DF93BC0187ED97E00E94BE
:1037F0002E09EC0162E275E087ED97E00E94B11AB4
:103800008C0F9D1FDF91CF9108950F931F93CF933E
:10381000DF93EC010E94B11A8C0162E275E0CE01E7
:103820000E94B11A800F911FDF91CF911F910F91CC
:1038300008950F931F93CF93DF938C01EB010E94A8
:10384000883A8883C80101960E94883A8983CE010C
:10385000DF91CF911F910F910895FF920F931F93C6
:10386000CF93DF93EC018B01FB01F0800E94883A3B
:10387000F81621F06F2DCE010E94903AF801F180E8
:103880002196CE010E94883AF81621F06F2DCE01C4
:103890000E94903AC801DF91CF911F910F91FF9044
:1038A00008956AE973E086E190E00E942D1C6BEABE
:1038B00073E088E190E00E942D1C6CEB73E08CE1DA
:1038C00090E00E942D1C60EF72E080E290E00E9488
:1038D0002D1C6CEA72E084E290E00E942D1C68E6E8
:1038E00072E086E290E00E942D1C67E673E088E2B9
:1038F00090E00E942D1C68E773E08AE290E00E944D
:103900002D1C69E873E08CE290E00E942D1C6FEDA5
:1039100072E08EE290E00E942D1C6BE972E080E381
:1039200090E00E942D1C67E572E082E390E00E9427
:103930002D1C64E373E084E390E00E942D1C65E499
:1039400073E086E390E00E942D1C66E573E088E357
:1039500090E00E942D1C6EEC72E08AE390E00E94E1
:103960002D1C6AE872E08CE390E00E942D1C66E456
:1039700072E08EE390E00E942D1C61E073E080E431
:1039800090E00E942D1C62E173E082E490E00E94CE
:103990002D1C63E273E084E490E00E942D1C6DEB2B
:1039A00072E086E490E00E942D1C69E772E088E4F2
:1039B00090E00E942D1C65E372E08AE490E00E9492
:1039C0002D1C67E384E690E00C94903A0E949740A7
:1039D0000F931F93CF93DF93EC0188819981009718
:1039E00059F02A813B812617370730F081E0DF91BB
:1039F000CF911F910F9108958B016F5F7F4F0E94B0
:103A0000B63F009759F0998388831B830A832C81E2
:103A10003D81232B59F7FC011082E8CF80E0E7CFEE
:103A2000EF92FF920F931F93CF93DF936115710570
:103A300041F480E0DF91CF911F910F91FF90EF90C3
:103A4000089541155105B1F07B01EC010C811D81F8
:103A5000040F151FB8010E94E81C882351F3288128
:103A600039818C819D81B701820F931F0E94AC40E8
:103A70001D830C8381E0DECFCF93DF93EC01FB014C
:103A800044815581608171810E94101D811103C0A4
:103A9000CE010E94971ACE01DF91CF910895EF9247
:103AA000FF920F931F93CF93DF93EC017B018A0169
:103AB000BA010E94E81C81110BC0CE010E94971A26
:103AC000CE01DF91CF911F910F91FF90EF9008955C
:103AD0001D830C83B701888199810E94AC40F0CF8F
:103AE000FB0101900020E9F73197AF01461B570B0E
:103AF0000C944F1D0F931F93CF93DF93CDB7DEB779
:103B000062970FB6F894DEBF0FBECDBF8C01CB011C
:103B1000F8011182108213821282158214824AE007
:103B2000BE016F5F7F4F0E942439BE016F5F7F4FE0
:103B3000C8010E94701D62960FB6F894DEBF0FBEDA
:103B4000CDBFDF91CF911F910F910895FB01DC0153
:103B500011961C921E9213961C921E921297159605
:103B60001C921E9214978617970749F06081718105
:103B70006115710521F0448155810C944F1D089504
:103B8000FC01118210821382128215821482FB01C1
:103B900001900020E9F73197AF01461B570B0C94B9
:103BA0004F1D0F931F93CF93DF93CDB7DEB72C97A5
:103BB0000FB6F894DEBF0FBECDBF8C01433069F560
:103BC000CB010A978A35910538F4CE0107960E94F9
:103BD0007A1D66E275E009C06A3071050CF5CE0108
:103BE00007960E947A1D65E275E0CE0101960E945B
:103BF000C01DBE01695F7F4FCE0101960E943C1D32
:103C0000BC01C8010E94A61DCE0101960E94A91AFE
:103C1000CE0107960E94A91A06C06A307105ACF25F
:103C2000C8010E947A1DC8012C960FB6F894DEBF19
:103C30000FBECDBFDF91CF911F910F910895AF922D
:103C4000BF92CF92DF92EF92FF920F931F93CF9389
:103C5000DF9300D000D0CDB7DEB78823A1F081304C
:103C600009F46FC526960FB6F894DEBF0FBECDBF20
:103C7000DF91CF911F910F91FF90EF90DF90CF9048
:103C8000BF90AF90089582E08093540D84E18093BB
:103C9000550D8091CC079091CD07855C9D4009F032
:103CA000C7C480E00E94470788E295E00E94BE1BDF
:103CB00081E00E94470781E18093540D84E1809365
:103CC000550D8091CC079091CD078059934009F014
:103CD000B3C48091A003882309F4ACC480EA93E0C4
:103CE0000E949A110E94470760919A0370919B036A
:103CF00043E0CE0101960E94D11DBE016F5F7F4F50
:103D000083ED9CE00E942009CE0101960E94A91A31
:103D100081E00E9447078BE295E00E94BE1B8091E4
:103D2000CC079091CD07815A934009F089C48091C6
:103D3000B103882309F482C481EB93E00E949A11B5
:103D40000E9447076091AB037091AC0343E0CE0142
:103D500001960E94D11DBE016F5F7F4F83ED9CE0F5
:103D60000E942009CE0101960E94A91A81E00E94BA
:103D700047078BE295E00E94BE1B8091CC07909193
:103D8000CD07825B934009F05FC48091C203882312
:103D900009F458C482EC93E00E949A110E944707EC
:103DA0006091BC037091BD0343E0CE0101960E9477
:103DB000D11DBE016F5F7F4F83ED9CE00E94200903
:103DC000CE0101960E94A91A81E00E9447078DE466
:103DD0008093540D84E18093550D8091CC07909190
:103DE000CD07865E924009F033C48091F6028823A5
:103DF00009F42CC486EF92E00E949A110E944707B2
:103E00008DE295E00E94BE1B6091F0027091F1027C
:103E100042E0CE0101960E94D11DBE016F5F7F4F2F
:103E200083ED9CE00E942009CE0101960E94A91A10
:103E300081E00E94470781E68093540D84E18093DE
:103E4000550D8091CC079091CD07825A924009F090
:103E500003C48091B202882309F4FCC382EB92E090
:103E60000E949A110E9447076091AC027091AD02C6
:103E700043E0CE0101960E94D11DBE016F5F7F4FCE
:103E800083ED9CE00E942009CE0101960E94A91AB0
:103E900081E00E9447078BE295E00E94BE1B809163
:103EA000CC079091CD078E55924009F0D9C38091EF
:103EB0006E02882309F4D2C38EE692E00E949A1122
:103EC0000E944707609168027091690283ED9CE04F
:103ED0000E94B41B81E00E9447078FE295E00E9498
:103EE000BE1B82E08093540D8EE18093550D80912E
:103EF000CC079091CD07845B9D4009F0B3C380E06F
:103F00000E94470781E395E00E94BE1B81E00E946A
:103F1000470781E18093540D8EE18093550D809188
:103F2000CC079091CD078D55934009F09FC38091A8
:103F30006D03882309F498C38DE693E00E949A11DB
:103F40000E944707609167037091680343E0CE01C8
:103F500001960E94D11DBE016F5F7F4F83ED9CE0F3
:103F60000E942009CE0101960E94A91A81E00E94B8
:103F700047078BE295E00E94BE1B8091CC07909191
:103F8000CD078E56934009F075C380917E03882338
:103F900009F46EC38EE793E00E949A110E944707CE
:103FA000609178037091790343E0CE0101960E94FD
:103FB000D11DBE016F5F7F4F83ED9CE00E94200901
:103FC000CE0101960E94A91A81E00E9447078BE268
:103FD00095E00E94BE1B8091CC079091CD078F5732
:103FE000934009F04BC380918F03882309F444C3A5
:103FF0008FE893E00E949A110E944707609189031D
:1040000070918A0343E0CE0101960E94D11DBE014A
:104010006F5F7F4F83ED9CE00E942009CE010196E7
:104020000E94A91A81E00E9447078DE48093540DF5
:104030008EE18093550D8091CC079091CD07855DE1
:10404000924009F01FC38091E502882309F418C348
:1040500085EE92E00E949A110E9447078DE295E05A
:104060000E94BE1B6091DF027091E00242E0CE012F
:1040700001960E94D11DBE016F5F7F4F83ED9CE0D2
:104080000E942009CE0101960E94A91A81E00E9497
:10409000470781E68093540D8EE18093550D809102
:1040A000CC079091CD078159924009F0EFC28091E1
:1040B000A102882309F4E8C281EA92E00E949A11E1
:1040C0000E94470760919B0270919C0243E0CE01E1
:1040D00001960E94D11DBE016F5F7F4F83ED9CE072
:1040E0000E942009CE0101960E94A91A81E00E9437
:1040F00047078BE295E00E94BE1B8091CC07909110
:10410000CD078D54924009F0C5C280915D0288238D
:1041100009F4BEC28DE592E00E949A110E94470701
:10412000609157027091580283ED9CE00E94B41B8D
:1041300081E00E9447078FE295E00E94BE1B82E06B
:104140008093540D88E28093550D8091CC07909117
:10415000CD07835A9D4009F09FC280E00E94470727
:1041600084E395E00E94BE1B81E00E94470781E145
:104170008093540D88E28093550D8091CC079091E7
:10418000CD078A52934009F08BC280913A0388236D
:1041900009F484C28AE393E00E949A110E944707BF
:1041A000609134037091350343E0CE0101960E9483
:1041B000D11DBE016F5F7F4F83ED9CE00E942009FF
:1041C000CE0101960E94A91A81E00E9447078BE266
:1041D00095E00E94BE1B8091CC079091CD078B5338
:1041E000934009F061C280914B03882309F45AC2BD
:1041F0008BE493E00E949A110E9447076091450367
:104200007091460343E0CE0101960E94D11DBE018C
:104210006F5F7F4F83ED9CE00E942009CE010196E5
:104220000E94A91A81E00E9447078BE295E00E9454
:10423000BE1B8091CC079091CD078C54934009F020
:1042400037C280915C03882309F430C28CE593E087
:104250000E949A110E94470760915603709157037C
:1042600043E0CE0101960E94D11DBE016F5F7F4FDA
:1042700083ED9CE00E942009CE0101960E94A91ABC
:1042800081E00E9447078DE48093540D88E280937B
:10429000550D8091CC079091CD07845C924009F038
:1042A0000BC28091D402882309F404C284ED92E009
:1042B0000E949A110E9447078DE295E00E94BE1B62
:1042C0006091CE027091CF0242E0CE0101960E9431
:1042D000D11DBE016F5F7F4F83ED9CE00E942009DE
:1042E000CE0101960E94A91A81E00E94470781E64B
:1042F0008093540D88E28093550D8091CC07909166
:10430000CD078058924009F0DBC18091900288234C
:1043100009F4D4C180E992E00E949A110E944707F3
:1043200060918A0270918B0243E0CE0101960E9457
:10433000D11DBE016F5F7F4F83ED9CE00E9420097D
:10434000CE0101960E94A91A81E00E9447078BE2E4
:1043500095E00E94BE1B8091CC079091CD078C53B5
:10436000924009F0B1C180914C02882309F4AAC19E
:104370008CE492E00E949A110E94470760914602E5
:104380007091470283ED9CE00E94B41B81E00E9483
:1043900047078FE295E00E94BE1B82E08093540D98
:1043A00082E38093550D8091CC079091CD0782597F
:1043B0009D4009F08BC180E00E94470787E395E0AC
:1043C0000E94BE1B81E00E94470781E18093540D4B
:1043D00082E38093550D8091CC079091CD07875F44
:1043E000924009F077C180910703882309F470C1D6
:1043F00087E093E00E949A110E94470760910103B1
:104400007091020343E0CE0101960E94D11DBE01CE
:104410006F5F7F4F83ED9CE00E942009CE010196E3
:104420000E94A91A81E00E9447078BE295E00E9452
:10443000BE1B8091CC079091CD078850934009F026
:104440004DC180911803882309F446C188E193E0A7
:104450000E949A110E944707609112037091130302
:1044600043E0CE0101960E94D11DBE016F5F7F4FD8
:1044700083ED9CE00E942009CE0101960E94A91ABA
:1044800081E00E9447078BE295E00E94BE1B80916D
:10449000CC079091CD078951934009F023C18091B9
:1044A0002903882309F41CC189E293E00E949A1130
:1044B0000E944707609123037091240343E0CE01DB
:1044C00001960E94D11DBE016F5F7F4F83ED9CE07E
:1044D0000E942009CE0101960E94A91A81E00E9443
:1044E00047078DE48093540D82E38093550D8091AE
:1044F000CC079091CD07835B924009F0F7C0809183
:10450000C302882309F4F0C083EC92E00E949A1160
:104510000E9447078DE295E00E94BE1B6091BD029C
:104520007091BE0242E0CE0101960E94D11DBE01F3
:104530006F5F7F4F83ED9CE00E942009CE010196C2
:104540000E94A91A81E00E94470781E68093540DDA
:1045500082E38093550D8091CC079091CD078F56C3
:10456000924009F0C7C080917F02882309F4C0C03F
:104570008FE792E00E949A110E94470760917902AA
:1045800070917A0243E0CE0101960E94D11DBE01D6
:104590006F5F7F4F83ED9CE00E942009CE01019662
:1045A0000E94A91A81E00E9447078BE295E00E94D1
:1045B000BE1B8091CC079091CD078B52924009F0A1
:1045C0009DC080913B02882309F496C08BE392E062
:1045D0000E949A110E94470760913502709136023D
:1045E00083ED9CE00E94B41B81E00E9447078FE2AC
:1045F00095E00E94BE1B1092540D8DE38093550DE3
:104600000E94E0118C5F893008F080C0E82F880F8D
:10461000FF0B8827E15FFC4D8F4F0C949C3D9E2340
:104620009B2398239523802389238C238F239223F4
:1046300081E038CB80E056CB81E054CB80E080CB6A
:1046400081E07ECB80E0AACB81E0A8CB80E0D6CB16
:1046500081E0D4CB80E006CC81E004CC80E030CC9B
:1046600081E02ECC81E04CCC80E06ACC81E068CC4B
:1046700080E094CC81E092CC80E0BECC81E0BCCCE8
:1046800080E0EACC81E0E8CC80E01ACD81E018CD72
:1046900080E044CD81E042CD81E060CD80E07ECD00
:1046A00081E07CCD80E0A8CD81E0A6CD80E0D2CDB8
:1046B00081E0D0CD80E0FECD81E0FCCD80E02ECE4B
:1046C00081E02CCE80E058CE81E056CE81E074CEE1
:1046D00080E092CE81E090CE80E0BCCE81E0BACE88
:1046E00080E0E6CE81E0E4CE80E012CF81E010CF22
:1046F00080E042CF81E040CF80E06CCF81E06ACFA4
:104700006BE473E083ED9CE00E942E090E94F90F98
:10471000A9CA6AE373E0F6CF69E273E0F3CF68E118
:1047200073E0F0CF67E073E0EDCF66EF72E0EACFC1
:1047300066EE72E0E7CF66ED72E0E4CF66EC72E021
:10474000E1CF83E38093540D88E08093550D8AE395
:1047500095E00E94BE1B1092540D8AE18093550D86
:1047600080E495E00E94BE1B8091CC079091CD071C
:1047700085579D4059F48091850D882309F4D8C050
:1047800085E89DE00E949A110E94470780917F0D65
:104790009091800D26E0289FB001299F700D112473
:1047A0006A57724F83ED9CE00E94200981E00E94CD
:1047B000470787EC95E00E94BE1B1092540D82E2E1
:1047C0008093550D8CE495E00E94BE1B87EC95E02C
:1047D0000E94BE1B20917F0D3091800D8091CC07EF
:1047E0009091CD07232B09F0A7C0865D934059F423
:1047F0008091E603882309F49DC086EE93E00E9431
:104800009A110E944707E091E003F091E103EE0F57
:10481000FF1FEE0FFF1FEA52FC4F618972898389E7
:10482000948920E432E44FE050E00E94AE3ABA01AD
:10483000A9012AE083ED9CE00E94C01A81E00E9459
:10484000470788E595E00E94BE1B1092540D8AE24E
:104850008093550D8EE595E00E94BE1B81E00E947D
:10486000470787EC95E00E94BE1B8091CC07909192
:10487000CD0780569D4059F48091700D882309F42E
:104880007FC080E79DE00E949A110E9447070E9426
:104890006B16E0E4AE2EF2E4BF2EAFE0CA2ED12CB0
:1048A000E12CF12C00E010E00E94E03DE22F2AE034
:1048B000BA014E2F532F83ED9CE00E94C01A81E075
:1048C0000E94470788E595E00E94BE1B1092540D98
:1048D0008FE38093550D8091CC079091CD07865141
:1048E000924019F480E00E94470769E675E083ED85
:1048F0009CE00E94051C81E00E94470787E68093A8
:10490000540D8FE38093550D8091CC079091CD0786
:104910008550924019F480E00E9447076EE675E0EA
:1049200083ED9CE00E94051C81E00E944707EECECB
:1049300080E02ACF80E065CF855C934051F4809180
:10494000D5038823D9F085ED93E00E949A110E9447
:1049500047076091CF037091D00343E0CE010196E9
:104960000E94D11DBE016F5F7F4F83ED9CE00E94CE
:104970002009CE0101960E94A91A60CF80E0E7CFFE
:1049800080E083CF85ED8093BC008091E10690911B
:10499000E206A091E306B091E4060796A11DB11DC1
:1049A00023E0B695A795979587952A95D1F72091FD
:1049B000BC0024FD03C010922E0708954091E1062B
:1049C0005091E2066091E3067091E406452B462B78
:1049D000472B69F30097A105B10541F02AE22A951A
:1049E000F1F700C00197A109B109E1CF8091E0067C
:1049F0000C94CB0AFC01A081B18150962C9182AD20
:104A000038E0839FC0011124289FA001299F500DE9
:104A1000112470E060E080AD91AD0C94A540FF9250
:104A20000F931F93CF93DF936FE77DE090E080E0DB
:104A30000E942D1C60EE73E082E090E00E942D1C2D
:104A40006FEC73E086E090E00E942D1C6AE67DE04A
:104A500088E090E00E942D1C67E385E690E00E94CC
:104A6000903A87ED9CE00E94FA2481E00E9447077B
:104A700004E51DE083E3F82EF801F082C5E5DDE0F2
:104A800088E088836AE375E083ED9CE00E94051C62
:104A9000F801F08288E2888383E795E00E94BE1BDC
:104AA0000E94F90F68EE73E080E090E0DF91CF9113
:104AB0001F910F91FF900C947508CF92DF92EF92A7
:104AC000FF9285E690E00E94883A873309F4B9C0E6
:104AD0001092800D10927F0D81E090E09093E103A1
:104AE0008093E00384EF91E09093D0038093CF0311
:104AF0008CE090E090936B0D80936A0D0E940F25DF
:104B000080916A0D90916B0D459734F00E94791158
:104B100090936B0D80936A0DE091E003F091E103B7
:104B2000EE0FFF1FEE0FFF1FEA52FC4FC188D28825
:104B3000E388F488A0916A0DB0916B0DA7019601EE
:104B40000E94AB3D61307644834C934230F00E942A
:104B5000791190936B0D80936A0D80916A0D9091FD
:104B60006B0D049734F40E94581190936B0D809351
:104B70006A0DA0916A0DB0916B0DA70196010E947C
:104B8000AB3D61157448874D974130F40E94581130
:104B900090936B0D80936A0D80E69DE00E944F1606
:104BA00080917F0D9091800D892B09F063C0E09179
:104BB000E003F091E103EE0FFF1FEE0FFF1FEA523B
:104BC000FC4F418952896389748980916A0D909163
:104BD0006B0D0E94C41380917F0D9091800D892BE5
:104BE00009F050C086ED93E09093780D8093770D97
:104BF00080E69DE090931B0280931A020E946B1640
:104C0000B901CA0120932702709328024093290218
:104C100090932A020E948D3926E636E646EE5EE340
:104C20000E94CA390E94C93B609358077093590784
:104C300080935A0790935B07FF90EF90DF90CF909F
:104C400008956FE77DE090E080E00E94191C60EE1F
:104C500073E082E090E00E94191C6FEC73E086E044
:104C600090E00E94191C6AE67DE088E090E00E94D6
:104C7000191C46CF0E946B16BA01422F532F90E0A9
:104C800080E0A7CF85EC93E09093780D8093770D2B
:104C9000B1CFEF92FF920F93CF93DF9387ED9CE01C
:104CA0000E94FA24C4E5DDE082E0888385E5E82EF1
:104CB0008DE0F82E89E0F70180836CE573E083EDE9
:104CC0009CE00E942E0900E020E840E060E087EDD3
:104CD0009CE00E94890E20E84BE060E087ED9CE0BC
:104CE0000E94890E01E024E340E06EE087ED9CE045
:104CF0000E94890E24E340E06AE487ED9CE00E9474
:104D0000890E24E340E06EE587ED9CE00E94890E69
:104D100000E020E844E360E087ED9CE00E94890E1B
:104D200001E024E340E060E087ED9CE00E94890E12
:104D300024E340E06FE787ED9CE00E94890E8DE35D
:104D4000F701808388E5888389E795E00E94BE1B90
:104D5000DF91CF910F91FF90EF900C94F90F85ECBC
:104D60009DE09093CD078093CC071092CA070E94D4
:104D7000492680E00895682F70E07195619571096A
:104D8000072E000C880B990B0E948F3929E739E612
:104D900046E852E40E94EB3A20E030E040EA51E479
:104DA0000E94573B9B01AC0160E070E080E291E41F
:104DB0000E94F83B0E94C93BCB010895CF930E940B
:104DC000E011811101C14091540750915507609144
:104DD00056077091570780E190E00E942515809159
:104DE000F0020E94BB26BC0180E190E00E94E91421
:104DF0008091AC029091AD02CAE0C89FB001C99FFA
:104E0000700D11248091680290916902680F791FDA
:104E100090E080E00E948D3920E030E041E655E4EA
:104E20000E94573B20E030E040E856E40E94CA3937
:104E30000E94C93B80E190E00E94141540918A06CF
:104E400050918B0660918C0670918D0680E290E007
:104E50000E9425158091DF020E94BB26BC0180E2E2
:104E600090E00E94E91480919B0290919C02C89F5F
:104E7000B001C99F700D1124809157029091580282
:104E8000680F791F90E080E00E948D3920E030E0CB
:104E900041E655E40E94573B20E030E040E856E40C
:104EA0000E94CA390E94C93B80E290E00E9414151A
:104EB0004091860650918706609188067091890618
:104EC00080E490E00E9425158091CE020E94BB26CE
:104ED000BC0180E490E00E94E91480918A029091E4
:104EE0008B02C89FB001C99F700D112480914602AA
:104EF00090914702680F791F683087E0780708F0C3
:104F00005DC0685F784F90E080E00E948D3920E0BE
:104F100030E041E655E40E94573B20E030E040E8B5
:104F200056E40E94CA390E94C93B80E490E00E9486
:104F30001415409182065091830660918406709109
:104F4000850680E890E00E9425158091BD020E94B0
:104F5000BB26BC0180E890E00E94E91480917902B0
:104F600090917A022AE0289FB001299F700D1124A8
:104F70008091350290913602680F791F683087E082
:104F80007807F8F4685F784F90E080E00E948D39F0
:104F900020E030E041E655E40E94573B20E030E05D
:104FA00040E856E40E94CA390E94C93B80E890E07C
:104FB0000E94141585E0CF910C94421168507740FF
:104FC000A2CF68507740E0CFCF91089580917F0DB8
:104FD0009091800D892BF1F5E091E003F091E103D0
:104FE000EE0FFF1FEE0FFF1FEA52FC4F418952895F
:104FF0006389748980916A0D90916B0D0E94C4132E
:105000000E946B16B901CA012093270270932802EF
:105010004093290290932A020E948D3926E636E6B3
:1050200046EE5EE30E94CA390E94C93B609358076E
:105030007093590780935A0790935B070E94DE266E
:105040000E940F2585E092E09093CD078093CC07D6
:1050500080E008950E946B16BA01422F532F90E012
:1050600080E0CCCF1F920F920FB60F9211242F9396
:105070003F938F939F93AF93BF938091CF0790916E
:10508000D007A091D107B091D2073091CE0723E08D
:10509000230F2D3758F50196A11DB11D2093CE0782
:1050A0008093CF079093D007A093D107B093D207F6
:1050B0008091D3079091D407A091D507B091D607DE
:1050C0000196A11DB11D8093D3079093D407A0939F
:1050D000D507B093D607BF91AF919F918F913F9124
:1050E0002F910F900FBE0F901F90189526E8230F59
:1050F0000296A11DB11DD2CF1F920F920FB60F9233
:1051000011240BB60F922F933F934F935F936F939E
:105110007F938F939F93AF93BF93EF93FF93E09110
:105120000904F0910A041995FF91EF91BF91AF9195
:105130009F918F917F916F915F914F913F912F91AF
:105140000F900BBE0F900FBE0F901F9018951F92DF
:105150000F920FB60F9211240BB60F922F933F931D
:105160004F935F936F937F938F939F93AF93BF936F
:10517000EF93FF93E0910704F09108041995FF91D4
:10518000EF91BF91AF919F918F917F916F915F91BF
:105190004F913F912F910F900BBE0F900FBE0F902C
:1051A0001F9018951F920F920FB60F9211240BB6F5
:1051B0000F922F933F934F935F936F937F938F93B0
:1051C0009F93AF93BF93EF93FF93E091FD03F09113
:1051D000FE031995FF91EF91BF91AF919F918F9130
:1051E0007F916F915F914F913F912F910F900BBEE7
:1051F0000F900FBE0F901F9018951F920F920FB631
:105200000F9211240BB60F922F933F934F935F93FE
:105210006F937F938F939F93AF93BF93EF93FF937E
:10522000E091FB03F091FC031995FF91EF91BF9181
:10523000AF919F918F917F916F915F914F913F912E
:105240002F910F900BBE0F900FBE0F901F901895CF
:105250001F920F920FB60F9211240BB60F922F933D
:105260003F934F935F936F937F938F939F93AF93EE
:10527000BF93EF93FF93E0910504F0910604199515
:10528000FF91EF91BF91AF919F918F917F916F911E
:105290005F914F913F912F910F900BBE0F900FBEDA
:1052A0000F901F9018951F920F920FB60F92112416
:1052B0000BB60F922F933F934F935F936F937F9310
:1052C0008F939F93AF93BF93EF93FF93E09103046A
:1052D000F09104041995FF91EF91BF91AF919F91C7
:1052E0008F917F916F915F914F913F912F910F908F
:1052F0000BBE0F900FBE0F901F9018951F920F922C
:105300000FB60F9211240BB60F922F933F934F932A
:105310005F936F937F938F939F93AF93BF93EF931D
:10532000FF93E0910104F09102041995FF91EF9130
:10533000BF91AF919F918F917F916F915F914F91AD
:105340003F912F910F900BBE0F900FBE0F901F90AB
:1053500018951F920F920FB60F9211240BB60F9251
:105360002F933F934F935F936F937F938F939F936D
:10537000AF93BF93EF93FF93E091FF03F09100048D
:105380001995FF91EF91BF91AF919F918F917F916F
:105390006F915F914F913F912F910F900BBE0F90A6
:1053A0000FBE0F901F9018951F920F920FB60F927D
:1053B00011240BB60F922F933F934F935F936F93EC
:1053C0007F938F939F93AF93BF93EF93FF9387ED5B
:1053D00097E00E94C609FF91EF91BF91AF919F9115
:1053E0008F917F916F915F914F913F912F910F908E
:1053F0000BBE0F900FBE0F901F9018951F920F922B
:105400000FB60F9211240BB60F922F938F939F9389
:10541000EF93FF93E091E707F091E8078081E09137
:10542000ED07F091EE0782FD1DC090818091F0079D
:105430008F5F8F732091F107821741F0E091F007A1
:10544000F0E0E952F84F958F8093F007FF91EF91CC
:105450009F918F912F910F900BBE0F900FBE0F90C9
:105460001F9018958081F2CF1F920F920FB60F9266
:1054700011240BB60F922F933F934F935F936F932B
:105480007F938F939F93AF93BF93EF93FF938091FD
:10549000B900887F803609F44DC008F040C08832DA
:1054A00009F4A9C028F5803109F49DC0C8F4882307
:1054B00009F4FBC0883009F496C0FF91EF91BF91C9
:1054C000AF919F918F917F916F915F914F913F919C
:1054D0002F910F900BBE0F900FBE0F901F9018953D
:1054E000883109F488C0803241F780932D0714C0B9
:1054F000803409F49DC040F48033B9F38833E9F671
:1055000080932D0785ECB0C0803509F485C08835BF
:1055100009F496C0883489F60E94C224CECF883917
:1055200009F48CC038F5883729F050F4883611F02A
:10553000803719F683E080932E0710922C0757C00E
:10554000883809F47BC0803919F0803809F0B5CF6C
:1055500080912C07803208F071C0E0912C0781E027
:105560008E0F80932C078091BB00F0E0E45FF84F32
:1055700080833DC0803B39F0E0F4803A09F479C083
:10558000883A09F09ACF84E080932E071092090799
:1055900010920807E0910607F0910707199580918E
:1055A000080781110FC081E0809308071092E6067A
:1055B00009C0803C09F4A6CF883C09F4A3CF883BFE
:1055C00009F07BCFE091090781E08E0F80930907F6
:1055D000F0E0EA51F94F80818093BB009091090778
:1055E0008091080729C0809153078093BB0085EC08
:1055F0008093BC0062CF9091520780915107981719
:1056000058F5E091520781E08E0F80935207F0E049
:10561000EF5CF84F8081E9CFE091520781E08E0F77
:10562000809352078091BB00F0E0EF5CF84F8083DD
:1056300090915207809151079817C8F285E8D8CF0A
:10564000E091520781E08E0F809352078091BB005A
:10565000F0E0EF5CF84F80838091300781115CCFE0
:1056600081E080932F0784EA8093BC0010922E077C
:1056700024CF85EC8093BC0010922E0780912C07DC
:10568000803230F4E0912C07F0E0E45FF84F1082B4
:1056900060912C0770E0E0910A07F0910B078CE015
:1056A00097E0199510922C0708CF10922D0734CF50
:1056B000FC011382128215821482178216821386CD
:1056C00012861586148617861686108A85E694E05B
:1056D00091838083F187E0870895CF93DF931092C1
:1056E000DA071092D90788EE93E0A0E0B0E080934B
:1056F000DB079093DC07A093DD07B093DE072CED6A
:1057000034E03093D8072093D70725EC30E030936E
:10571000E4072093E30724EC30E03093E60720937E
:10572000E50720EC30E03093E8072093E70721EC11
:1057300030E03093EA072093E90722EC30E0309321
:10574000EC072093EB0726EC30E03093EE07209334
:10575000ED071092F0071092F1071092F2071092E5
:10576000F307109277081092760880937808909348
:105770007908A0937A08B0937B088EEE94E090931A
:1057800075088093740885EC9DE00E94582B84EB8B
:105790009DE00E94582B83EA9DE00E94582B82E9ED
:1057A0009DE00E94582B1092780D1092770D109268
:1057B0007A0D1092790D10927C0D10927B0D109243
:1057C0007E0D10927D0D1092800D10927F0D109223
:1057D000820D1092810D1092840D1092830D109203
:1057E000850D86E195E09093760D8093750D62E8C6
:1057F00075E086E89DE00E94C01D6CE875E08CE8CD
:105800009DE00E94C01D1092630D1092620D1092D7
:10581000650D1092640D1092670D1092660D109236
:10582000690D1092680D10926B0D10926A0D109216
:105830006D0D10926C0D10926F0D10926E0D1092F6
:10584000700D8CE095E09093610D8093600D109247
:10585000710D1092720D1092730D1092740D8AE6F4
:105860009DE00E940A0780E69DE00E944F1610927C
:10587000560D1092570D1092580D1092590D80EF41
:1058800080935F0DCFB7F89480918C0C811127C065
:10589000EAECF8E08491E4E8F8E09491E82FF0E095
:1058A000EE0FFF1FEB5CF74FA591B491EC91E9234C
:1058B00021F461E085E30E94E60761E085E30E9450
:1058C00014088CB580618CBD8CB580648CBD61E0A2
:1058D00084E30E94140861E083E30E94140880912D
:1058E0008C0C8F5F80938C0CCFBF60E08CE00E94AB
:1058F000E60761E08CE00E94140861E086E00E9407
:10590000E60761E086E00E94140860E085E00E94FE
:10591000E60761E085E00E9414088CE00E944211D5
:105920008DE00E94421185E00E94421110925F0DAD
:1059300060EF70E08FE59DE00E94D11441E253E0FA
:1059400060E070E083E00E948D1470E060E08FE51D
:105950009DE00E94D11485E00E94421140E05AE58A
:1059600062E672E08CE090E00E94C4131092D60CC4
:105970001092D50C8BE996E09093530D8093520DC5
:105980001092540D1092550D1092EF0C80E095E09E
:105990009093D40C8093D30C1092D80C1092D70C07
:1059A0001092EC0C1092E30C1092E40C1092E50CA7
:1059B0001092E60C8FEF8093ED0C8093F10CE5EFE5
:1059C000FCE08BE09DE0CFEFC1938E179F07E1F7DE
:1059D0008AE69CE09093DC0C8093DB0C8FE59DE0E5
:1059E0009093DE0C8093DD0C81E090E19093E00CCD
:1059F0008093DF0C88EA98E09093E20C8093E10CAE
:105A000030E020E040E069E087ED9CE00E946A0C15
:105A10001092230D1092220D85EA96E090930C0DC2
:105A200080930B0D8CE898E09093100D80930F0DF0
:105A300088E08093110D1092120D10922F0D10928C
:105A40004F0DD1E0D093500DD093510D8CE195E0E6
:105A500090930E0D80930D0D87ED9CE00E94B50D87
:105A600010921E0D1092200DC0931F0DC093210D9A
:105A7000E0910D0DF0910E0D0280F381E02D87ED88
:105A80009CE0199588E097E09093250D8093240D74
:105A90001092320DC093000DC093010DC093020D02
:105AA00082E08093C90C1092CA0CD093CB0CD09397
:105AB000CC0C1092CE0C1092CD0C1092BB0C10920C
:105AC000BA0C1092BC0C1092CF0C1092D00C109209
:105AD000D10C1092D20C84E190E0A0E0B0E0809371
