:020000040000FA
:100000000C9439070C94E12A0C94B62A0C948B2A90
:100010000C94602A0C94352A0C940A2A0C94DF293B
:100020000C94B4290C946A070C946A070C946A0720
:100030000C946A070C946A070C946A070C946A077C
:100040000C946A070C946A070C946A070C946A076C
:100050000C946A070C946A070C946A070C946A293A
:100060000C946A070C94362B0C940C2B0C946A0796
:100070000C946A070C946A070C946A070C946A073C
:100080000C946A070C946A070C946A070C946A072C
:100090000C946A070C946A070C946A070C946C2BF6
:1000A0000C946A070C946A070C946A070C946A070C
:1000B0000C946A070C946A070C946A070C946A07FC
:1000C0000C946A070C946A070C946A070C946A07EC
:1000D0000C946A070C946A070C946A070C946A07DC
:1000E0000C946A0707634236B79BD8A71A3968563B
:1000F00018AEBAAB558C1D3CB7CC5763BD6DEDFD4A
:10010000753EF6177231BF000000803F0800000006
:10011000BE922449123EABAAAA2ABECDCCCC4C3EFC
:1001200000000080BEABAAAAAA3E00000000BF00EB
:100130000000803F0000000000084178D3BB4387E7
:10014000D1133D190E3CC3BD4282AD2B3E68EC82FB
:1001500076BED98FE1A93E4C80EFFFBE01C4FF7F80
:100160003F00000000000C9442190C94BA180C9443
:100170007C080C946A080C9453080C949B240C94EF
:10018000500A0C9413190C946E190C942A190C949F
:100190001E290C9486080C9476070C94100F0C946E
:1001A000F9170C9479090C9444190C9480080C9458
:1001B000810A0C9478080C94AA240C945A080C9484
:1001C000AD240C94F0090C9422140C9409190C948D
:1001D00064180C944B080C9430180C9445080C943B
:1001E0003F170C9473150C94300E0C948B180C94D0
:1001F00060080C94A7240C9440190C949A0E0C944B
:10020000B6240C94A4240C94C00B0C9472080C9487
:1002100068140C94A2180C94E90B0C94A52C0C9463
:10022000160C0C94BE0B0C94841B0C94913A0C94F9
:10023000BC180C94B9240C94FC270C94E20B0C947D
:100240006C070C94B3240C94230A0C946E080C9441
:100250008A080C944C180C9481180C9485080C9402
:10026000730A0C94A60E0C943B0D0C94EC180C9491
:100270005F0A0C94060B0C94B0240C9446190C9451
:10028000D9070C9427180C94B90A0C94851B0C946C
:100290006D150C94D4180C9457080C944F080C94BA
:1002A00064080C94F2100C94BD0B0C94CB170C94B6
:1002B000BF0B0C94CF0B0C94B8186364696E6F700D
:1002C000737578585B0045584954005341564500B2
:1002D000204D487A2000436F726520436C6F636B3A
:1002E0003A2000204D487A2000436C6F636B204613
:1002F0007265713A2000436C6F636B205372633AEE
:10030000202020202020202020202020202020000D
:10031000534554555000463320546F6F204C4F576F
:10032000204672657100463220546F6F204C4F5743
:10033000204672657100463120546F6F204C4F5734
:10034000204672657100463020546F6F204C4F5725
:1003500020467265712000463320546F6F20484953
:100360004748204672657100463220546F6F20481E
:10037000494748204672657100463120546F6F200E
:1003800048494748204672657100463020546F6FD7
:1003900020484947482046726571002020202020CF
:1003A0002020202020202020202020007B002E0044
:1003B0002D002E002E004633007B002E002D002E37
:1003C000002E004632007B002E002D002E002E0055
:1003D0004631007B002E002D002E002E00463000FE
:1003E000202020004F4646004752412641464348C0
:1003F00000436820467265712C487A202020202016
:1004000064426D2050686173657D00436F7265437F
:100410006C6F636B0053415645440053455455502F
:10042000004669726D77617265207665722E3A209A
:1004300000202020746F20656E74657220536574EF
:1004400075702E202020005075736820616E642026
:10045000686F6C6420456E636F6465720048696EF6
:10046000743A00535720760048572076322E780091
:100470004444532041443939353920627920475268
:10048000412026204146434800556E6B6E6F776EC3
:1004900020636F6D6D616E643A004320E2809420AA
:1004A000536574207468652063757272656E74207C
:1004B0006F7574707574204368616E6E656C3A2058
:1004C000283020E280942033290A4620E2809420BC
:1004D00053657473204672657175656E6379206922
:1004E0006E20487A202831303030303020E280943D
:1004F00020323235303030303030290A4120E2802D
:100500009420536574732074686520706F776572EA
:100510002028416D706C697475646529206C65765E
:10052000656C206F66207468652073656C65637404
:100530006564206368616E6E656C20696E2064423C
:100540006D20282D363020E28094202D37290A5046
:1005500020E280942053657473207468652050688D
:10056000617365206F66207468652073656C6563D0
:10057000746564206368616E6E656C20696E2064CA
:10058000426D20283020E2809420333630290A4DF5
:1005900020E280942047657473204D6F64656C0A77
:1005A00045202D20456E61626C65204F7574707515
:1005B00074732028414C4C290A44202D204469732F
:1005C00061626C65204F7574707574732028414C9E
:1005D0004C290A5620E280942047657473204669AE
:1005E000726D776172652056657273696F6E0A6805
:1005F00020E2809420546869732048656C700A3B3F
:1006000020E2809420436F6D6D616E6473205365AA
:1006100070617261746F720A4578616D706C653AD1
:100620000A43303B463130303030303B412D3130A1
:100630000A53657473207468652046726571756528
:100640006E637920746F20313030206B487A2C2013
:10065000616E64204F757470757420506F77657289
:100660002028416D706C69747564652920746F2051
:100670002D31302064426D206F6E204368616E6EB4
:10068000656C203020285246204F555430292E0AC0
:10069000416E79206E756D626572206F6620636FA2
:1006A0006D6D616E647320696E20616E79206F726A
:1006B00064657220697320616C6C6F7765642C20AF
:1006C0006275742074686520766572792066697237
:1006D000737420636F6D6D616E64206D757374202B
:1006E0006265202243222E0A4E6F74653A20627999
:1006F0002064656661756C742C20746865206D617A
:1007000078696D756D206C656E677468206F662002
:100710006F6E65206D657373616765206973203640
:100720003420627974657300444453393935392073
:1007300076312E31004F75747075747320456E617B
:10074000626C6564004F75747075747320446973CE
:1007500061626C6564002069732073657420746F36
:100760003A2000546865205068617365206F6620E8
:100770004368616E6E656C20005068617365206926
:1007800073204F5554204F462052414E4745202854
:100790003020E28094203336302900546865206F81
:1007A0007574707574204368616E6E656C20697332
:1007B000206E6F742073656C6563746564212055C9
:1007C00073652022432220636F6D6D616E64207417
:1007D0006F2073656C65637420746865204368617D
:1007E0006E6E656C2E002069732073657420746FC3
:1007F0003A200054686520506F7765722028416D5B
:10080000706C697475646529206F66204368616E39
:100810006E656C2000506F776572206973204F55AC
:1008200054204F462052414E474520282D36302037
:10083000E28094202D372900546865206F7574700C
:100840007574204368616E6E656C206973206E6FED
:10085000742073656C65637465642120557365202D
:1008600022432220636F6D6D616E6420746F20736C
:10087000656C65637420746865204368616E6E659D
:100880006C2E002069732073657420746F3A200009
:10089000546865204672657175656E6379206F6670
:1008A000204368616E6E656C2000467265717565E7
:1008B0006E6379206973204F5554204F4620524172
:1008C0004E4745202800546865206F757470757414
:1008D000204368616E6E656C206973206E6F7420B2
:1008E00073656C65637465642120557365202243CC
:1008F0002220636F6D6D616E6420746F2073656C70
:1009000065637420746865204368616E6E656C2E43
:1009100000546865204368616E6E656C206E756D6D
:10092000626572206973204F5554204F4620524112
:100930004E474520283020E2809420332900546817
:1009400065204368616E6E656C206E756D626572C0
:100950002069732073657420746F3A2000000022B0
:1009600000250028002B002E003100340002010079
:1009700000050108010B0100000A0B02090C0D0E15
:100980000807030401000000000000000000000050
:100990000000000000000000000000000000000057
:1009A0000000001211100000000000000000000014
:1009B0000000000000000000000000000000002017
:1009C000002300260029002C002F00320000010027
:1009D0000003010601090100002100240027002A6C
:1009E000002D003000330001010000040107010A5E
:1009F0000101021020200808102040102040800231
:100A00000102010804020101020408102040808054
:100A100040201008040201800402018040201008D8
:100A200004020108040201010204081020408001B0
:100A30000204081020408005050505070508080880
:100A400008020202020A0A0808040404040101015F
:100A50000101010101030303030303030304070767
:100A6000070C0C0C0C0C0C0C0C0202020206060605
:100A700006060606060B0B0B0B0B0B0B0B6102039A
:100A8000020304010104050800FF06FF06000146F9
:100A9000029603D32006C5FABC022109C5FA40D844
:100AA0000EE500220AC5DA49944449CE00230DC55B
:100AB0003AA5241994CAA0949218240BC55AD95265
:100AC000DB9264CB01250AC5DA619255C21C04266B
:100AD0000DC53A59122559254AB224062708C5FAE8
:100AE000405867012809C5FA4016B6E6002909C52D
:100AF000DA69D89623002A0BC5FA5814494324957D
:100B0000012B0AC5FA68180D5298032C07C5FACCB8
:100B10005A0D2D08C5FAE42127012E07C5FAAC9A13
:100B20000E2F0AC5FA489835E61000300DC5FA4078
:100B300096444994444996033109C5FA4026B6CDF6
:100B400000320AC5DA523192C22106330BC5BA43CC
:100B500096A94914E900340CC5FA402625D19085A0
:100B60003900350BC5BA4312AE4914E900360AC53F
:100B7000DA523855A24807370BC5BA4398855998B9
:100B80002300380AC5DA5249AA44910E390AC5DA57
:100B900052258AC648073A09C5FAA0A6239A0E3BF1
:100BA00009C5FAA8A6235A0D3C09C5FA48564CCBEC
:100BB000003D09C5FA94211E72103E09C5DA69315B
:100BC000AB23003F0BC5FA409684590EE500400C5C
:100BD000C55A52242D8992485505410CC5DA522533
:100BE0004A86244AA218420AC5BA5365AA44C90EC5
:100BF000430AC5DA52252C453A00440CC5BA5325A0
:100C00004AA2244A7600450BC5BA43124E6138C445
:100C100000460AC5BA43124E611D02470BC5DA529F
:100C2000254C9428D201480EC5BA511225431225ED
:100C30005112C5004908C5DA5BD836034A0AC5DA3D
:100C40005B584AB21C014B0CC5BA5152D29228894A
:100C5000CA004C08C5BA61C721064D0EC5BA51324B
:100C6000244312255112C5004E0EC5BA51A2244389
:100C700092288912C5004F0CC5DA52254AA2248A4F
:100C80007400500BC5BA53254AA6308700510CC5D5
:100C9000DA52254A948AA42600520BC5BA53254A33
:100CA000A64A14035309C5DA526B54D2015407C53E
:100CB000DA5BD81D550DC5BA51122551122551A424
:100CC00003560CC5BA5112255112459A0E570EC53E
:100CD000BA5112255132244312C500580CC5BA51DD
:100CE00012459A54896200590AC5BA9996D4C23AF3
:100CF000005A0AC5BA4398350E31005B08C5DA536D
:100D0000D838035C08C5BA61DA18035D07C5DA6331
:100D1000A7195E09C5FA4096E4AC005F08C5FA3C25
:100D20000C09006007C5DA69CE0C610AC5FAA42572
:100D30004AA26806620AC5BA613855A26407630907
:100D4000C5FA34294C6500640CC5FA48182D5112B7
:100D50004533006509C5FA242931EA00660CC5FA55
:100D6000409644D916E60800670AC5FA24A9344615
:100D70001200680BC5BA613855A2248A016909C5F9
:100D8000FA408E88B5196A0BC5FA480E85A5248BE2
:100D9000006B0AC5BA6129992A510C6C07C5DA6241
:100DA000B7196D0BC5FA14A54549942A006E0AC5FA
:100DB000FA94A91225510C6F0AC5FA24A912453AD2
:100DC00000700AC5FA94A932852100710AC5FAA4F7
:100DD000258AC60A00720AC5FA949252CC21007381
:100DE00009C5FA34498D7400740AC5DA61B68549BB
:100DF0009603750BC5FA94288992289A01760BC53B
:100E0000FAA4244AA224CB01770AC5FA944C499447
:100E1000CE00780AC5FA9428D2A43200790CC5FA1B
:100E2000942889A2258A24007A0AC5FA9421AB0D58
:100E300031007B0AC53A52258A7416007C08C5FA2F
:100E400040D83B007D0DC5FA80525112A5B28511E4
:100E5000007E08C5DA493B33007F06C5FABC028034
:100E600006C5FABC0200000004FFFF000000A52C2C
:100E7000913A11241FBECFEFD1E2DEBFCDBF00E01B
:100E80000CBF2CE0ACE4B5E001C01D92AA3EB20755
:100E9000E1F715E0A0E0B2E0E2E2FBE800E00BBF22
:100EA00002C007900D92AC34B107D9F717E0C8E340
:100EB000D7E000E006C021970109802FFE010E94C3
:100EC000243FC733D10780E00807A9F70E949B2F72
:100ED0000C947F450C940000662329F06A3019F0C9
:100EE000862F90E008958FEF9FEF0895CF92DF92C5
:100EF000EF92FF920F931F93CF93DF93EC01842F18
:100F00008770E1E0F0E0082E01C0EE0F0A94EAF7E6
:100F10003E2F7E0199E7E90EF11CD7019C9110E06C
:100F2000923018F41E2F913029F150E0487FE8AD3F
:100F3000F9ADC880D980D60150969C91949F6001EC
:100F4000959FD00C11246C0D7D2D711DDF01A60F16
:100F5000B71F011115C08C91812B83278D932150D0
:100F6000D1F7DF91CF911F910F91FF90EF90DF901C
:100F7000CF90089530E0D9CF110F330F222389F39A
:100F80009C91912B93279C938F5F877021508111A7
:100F9000F3CF9CADA90FB11DF7019081923028F4D9
:100FA000913009F031E011E0E9CF31E0E7CF80E0A6
:100FB000089580E00895CF93DF93EC01E091E00382
:100FC000F091E103EE0FFF1FEE0FFF1FEA52FC4FFF
:100FD000218932894389548960E075E68DEC9DE171
:100FE0000E94363C2531310510F024E130E02430F8
:100FF000310510F424E030E039832883DF91CF916C
:101000000895CF93DF93CDEDDBE08FAFEAADFBAD7D
:101010000190F081E02D81EE9BE01995EAADFBADEA
:101020000280F381E02D81EE9BE0DF91CF91199456
:10103000833018F480935A0C089581E0FBCF9B0114
:10104000DC011896ED91FC9141E067E11994815023
:10105000823108F05AC0E82FF0E08827ED5CF74FA6
:101060008F4F0C94243F5308570845084B084F08EE
:1010700085085A08600864086A086E0872087808CB
:101080007C088508800886088A08809180008F7710
:10109000809380000895809180008F7DF9CF8091AA
:1010A0008000877FF5CF84B58F7784BD089584B5A0
:1010B0008F7DFBCF8091B0008F778093B000089533
:1010C0008091B0008F7DF9CF809190008F778093D1
:1010D00090000895809190008F7DF9CF80919000CD
:1010E000877FF5CF8091A0008F778093A00008952F
:1010F0008091A0008F7DF9CF8091A000877FF5CFF0
:10110000809120018F7780932001089580912001A4
:101110008F7DF9CF80912001877FF5CFCF93DF932B
:10112000282F30E0F901E958F64F8491F901EF508A
:10113000F64FD491F901E95CF54FC491CC23A1F0AD
:1011400081110E942708EC2FF0E0EE0FFF1FE354FF
:10115000F64FA591B491EC91ED2381E090E009F474
:1011600080E0DF91CF91089580E090E0FACF1F9367
:10117000CF93DF93282F30E0F901E958F64F84919F
:10118000F901EF50F64FD491F901E95CF54FC491A4
:10119000CC23A9F0162F81110E942708EC2FF0E034
:1011A000EE0FFF1FE35AF64FA591B4918FB7F89455
:1011B000EC91111108C0D095DE23DC938FBFDF9135
:1011C000CF911F910895DE2BF8CFCF93DF9390E05E
:1011D000FC01EF50F64F2491895C954FFC018491FE
:1011E0008823C9F090E0880F991FFC01E952F64F5F
:1011F000A591B491FC01E35AF64FC591D4916111C8
:101200000DC09FB7F8948C91209582238C93888190
:10121000282328839FBFDF91CF910895623051F436
:101220009FB7F8943C91822F809583238C93E8811B
:101230002E2BEFCF8FB7F894EC912E2B2C938FBFE2
:10124000EACF3FB7F8948091DD069091DE06A09139
:10125000DF06B091E00626B5A89B05C02F3F19F028
:101260000196A11DB11D3FBFBA2FA92F982F882726
:10127000BC01CD01620F711D811D911D42E0660F01
:10128000771F881F991F4A95D1F708958F929F92D3
:10129000AF92BF92CF92DF92EF92FF926B017C01EF
:1012A0000E9421094B015C01C114D104E104F10445
:1012B000B9F00E942109681979098A099B09683ED9
:1012C00073408105910580F321E0C21AD108E1083D
:1012D000F10888EE880E83E0981EA11CB11CE4CFB3
:1012E000FF90EF90DF90CF90BF90AF909F908F9046
:1012F00008950F931F93CF93DF938C01C62F642F14
:10130000CC32E8F4CA3208F041C0C83271F1C932B7
:1013100009F442C080E0C034D0F1CF73F801EC0F83
:10132000F11D868D8F3F91F1C031E0F00E948E0853
:1013300021E0892B09F420E0F801218F27C0CD326C
:1013400089F140F384EB8C0F823020F7CF73C00F0C
:10135000D12FD11D8E8D411133C061E00E94E5086F
:1013600060E08E8D0E94B70811C0025E1F4FD0E072
:10137000F80181918F018F3F31F061E0D03108F0A9
:1013800062E00E94E508DF5FD63191F781E0DF91EE
:10139000CF911F910F91089570E090E080E00E943E
:1013A0004609F4CF85E090E0433010F082E090E011
:1013B000880F991F880F991F05970197F1F7E6CFBE
:1013C00062E00E94E508E2CF2FB7F8946091D90659
:1013D0007091DA068091DB069091DC062FBF0895AC
:1013E0000895DB0114964D915C9115976D917C9158
:1013F000DC01ED91FC910280F381E02D1994EF92D4
:10140000FF920F931F93CF93DF938C017B01D0E06A
:10141000C0E0F701EC0FFD1F6491662361F0D80175
:10142000ED91FC910190F081E02DC8011995892B77
:1014300011F02196EECFCE01DF91CF911F910F9148
:10144000FF90EF900895AF92BF92CF92DF92EF920C
:10145000FF920F931F93CF93DF936C017B018B015E
:10146000040F151FEB015E01AE18BF08C017D107AE
:1014700059F06991D601ED91FC910190F081E02D38
:10148000C6011995892B79F7C501DF91CF911F917D
:101490000F91FF90EF90DF90CF90BF90AF900895A5
:1014A000FC01538D448D252F30E0842F90E0821B6A
:1014B000930B541710F0CF96089501970895FC01EF
:1014C000918D828D981761F0A28DAE0FBF2FB11D47
:1014D0005D968C91928D9F5F9F73928F90E008959F
:1014E0008FEF9FEF0895FC01918D828D981731F059
:1014F000828DE80FF11D858D90E008958FEF9FEFAD
:101500000895FC01918D228D892F90E0805C9F4F82
:10151000821B91098F739927089581EE96E00E94AE
:10152000810A21E0892B09F420E0822F0895FC0133
:10153000A48DA80FB92FB11DA35ABF4F2C91848D34
:1015400090E001968F739927848FA689B7892C9391
:10155000A089B1898C91837080648C93938D848DE4
:10156000981306C00288F389E02D80818F7D8083E7
:101570000895EF92FF920F931F93CF93DF93EC01A7
:1015800081E0888F9B8D8C8D98131AC0E889F9892A
:10159000808185FF15C09FB7F894EE89FF8960832D
:1015A000E889F98980818370806480839FBF81E0AE
:1015B00090E0DF91CF911F910F91FF90EF900895F0
:1015C000F62E0B8D10E00F5F1F4F0F731127E02ECB
:1015D0008C8D8E110CC00FB607FCFACFE889F98903
:1015E000808185FFF5CFCE010E94970AF1CFEB8D68
:1015F000EC0FFD2FF11DE35AFF4FF0829FB7F894D7
:101600000B8FEA89FB8980818062CFCFCF93DF93F4
:10161000EC01888D8823B9F0AA89BB89E889F9890A
:101620008C9185FD03C0808186FD0DC00FB607FC3F
:10163000F7CF8C9185FFF2CF808185FFEDCFCE0172
:101640000E94970AE9CFDF91CF91089580E090E062
:10165000892B29F00E948D0A81110E94000080E0F0
:1016600090E0892B49F080E090E0892B29F00E94DE
:10167000000081110E94000080E090E0892B49F079
:1016800080E090E0892B29F00E94000081110E94E7
:10169000000080E090E0892B49F080E090E0892B09
:1016A00029F00E94000081110C94000008952091FF
:1016B0001106260F3327331F21323105ECF4209118
:1016C0003706FC0190E080E0243069F082E0089564
:1016D000A09111062191AC0141515A4FA40FB52F91
:1016E000B11D2C930196861798F380911106680F0F
:1016F0006093110680E0089581E008951092370606
:1017000081E0809339061092380661E084E10E94FE
:10171000B70861E085E10E94B708E9EBF0E080815D
:101720008E7F808380818D7F808388E48093B80062
:1017300085E48093BC000895CF93DF9391E090936C
:10174000EE058823B9F0C091B800D091BA0080911D
:10175000BC008A7B8093BC0060E084E10E94B708F3
:1017600060E085E10E94B7080E947E0BD093BA002A
:10177000C093B800DF91CF9108950895089508951A
:10178000E091E6058091E505E81730F4F0E0EB53D1
:10179000FA4F808190E008958FEF9FEF0895909128
:1017A000E6058091E5052FEF3FEF981748F4E92F04
:1017B000F0E0EB53FA4F208130E09F5F9093E60515
:1017C000C90108958091E5059091E605891B990B63
:1017D0000895CF92DF92EF92FF920F931F93CF93D2
:1017E000DF937C01CB018A012091C405222389F07B
:1017F000EB016B01C40ED51ECC15DD0569F06991B6
:10180000D701ED91FC910190F081E02DC701199570
:10181000F3CF642F0E94570BC801DF91CF911F9126
:101820000F91FF90EF90DF90CF900895CF93DF93CB
:101830001F92CDB7DEB769832091C4052223F9F04A
:101840002091E705203258F021E030E0FC0133839D
:10185000228390E080E00F90DF91CF9108958091F6
:10186000E805E82FF0E0EC55FA4F998190838F5FFF
:101870008093E8058093E70581E090E0ECCF61E09C
:10188000CE0101960E94570BF7CFCF92DF92EF92D5
:10189000FF92CF93DF93EC010E94E4096B017C017E
:1018A0008F850E948E089C0181E02115310509F485
:1018B00080E0898B8889811105C091E0232B09F094
:1018C00090E0998B29898A89281721F0CD8ADE8AB0
:1018D000EF8AF88E8D899E89AF89B88DB701A601F0
:1018E000481B590B6A0B7B0BDB01CA01CB80DC80E8
:1018F000ED80FE80C816D906EA06FB0664F43A813C
:10190000231749F02A83222349F04B895C894F5FD2
:101910005F4F5C8B4B8B3A81311117C0CF80D884DD
:10192000E984FA84C816D906EA06FB0634F48B89E2
:101930009C89998388831C8A1B8A2A8BDF91CF918B
:10194000FF90EF90DF90CF900895CB84DC84ED84FE
:10195000FE84C816D906EA06FB067CF78B899C89AB
:10196000919581959109E5CFDC011A96ED91FC9155
:1019700030E020E01994DC011496ED91FC9130E008
:1019800020E040E060E11994DC011696ED91FC91B5
:1019900030E020E040E069E11994DC011696ED9119
:1019A000FC9130E020E040E068E119949A01DC010C
:1019B0001696ED91FC91462F67E11994EF92FF92F4
:1019C0000F931F93CF93DF931F92CDB7DEB77C01A8
:1019D0008B01D8016C91673129F150F46531A0F485
:1019E0000F90DF91CF911F910F91FF90EF9008958D
:1019F0006A3118F16E3FA1F7F8014181498369E22C
:101A0000C7010E94B40C0BC0F80141814983D70182
:101A10001696ED91FC9130E020E0C70119950E5F1C
:101A20001F4FD7CFF80181818983AE014F5F5F4F90
:101A300061E0C7010E94D60CF2CF0F5F1F4FD701A4
:101A40001696ED91FC9130E020E040E0C701199539
:101A5000C0CF462FDC011696ED91FC9130E020E0DE
:101A600066E11994462FDC011696ED91FC9130E069
:101A700020E065E11994EF92FF920F931F93CF93AB
:101A8000DF93EC01042F79016D3009F446C050F466
:101A90006B30C9F1693009F49FC06A3009F465C040
:101AA00080E046C06E3009F452C06F3099F70E9452
:101AB000CD0CF7011381110F110F110F6C89160F47
:101AC00060E4CE010E94320D612F62956F706061FB
:101AD000CE010E94320D612F6F70CE010E94290D40
:101AE000F7016481606BCE010E94290DF7014081EE
:101AF00051816281660F660F660FCE010E94D60C7F
:101B00000150A1F72EC066E874E0442311F061E8AB
:101B100074E0CE010E94DE0C0AC0411110C06AE7D9
:101B200074E00E94DE0CE881F98182898C8B81E06F
:101B3000DF91CF911F910F91FF90EF90089563E790
:101B400074E00E94DE0CE881F9818389EFCF0E9466
:101B5000CD0C61E8CE010E94320D602FCE010E94B3
:101B6000290DCE010E94C40CE2CFEA85FB8530E04E
:101B700020E040E068E2CE011995EE81FF8130E07F
:101B800020E040E064E1CE01199541E06BE4CE0134
:101B90000E94B40CE881F981448169E2CE010E947F
:101BA000B40C40E06BE4CE010E94B40CE881F981F2
:101BB000448169E2CE010E94B40C41E06BE4CE01A5
:101BC0000E94B40CE881F981458169E2CE010E944E
:101BD000B40C6BE874E09DCF80EC94E0998388832B
:101BE0001C8AA5CFDC011896ED91FC9130E020E035
:101BF00040E069E11994DC011896ED91FC9130E028
:101C000020E040E068E11994CF93DF931F92CDB7B5
:101C1000DEB76983BE016F5F7F4F0E941F080F9080
:101C2000DF91CF910895EF92FF921F93CF93DF93AF
:101C3000EC01162F7A010E94FB0D60E4CE010E9498
:101C4000040EE885F9859701412F67E1CE011995CA
:101C5000CE01DF91CF911F91FF90EF900C94F20D88
:101C6000EF92FF921F93CF93DF93EC01142F790132
:101C7000663181F138F4643109F44BC0653179F093
:101C800080E022C06831C9F150F16931C9F7809113
:101C9000A305882391F1CE010E94F20D2EC0809100
:101CA000A305882319F0CE010E94F20DCE010E94F7
:101CB000FB0D60E0CE010E94040E612FCE010E9458
:101CC000040E81E08093A305DF91CF911F91FF90D7
:101CD000EF900895642F0E94040E81E0F5CF80916B
:101CE000A305882319F0CE010E94F20DA701193136
:101CF00038F4612FCE010E94130E1092A305EDCF90
:101D000068E1CE010E94130E185188E1E80EF11C23
:101D1000EDCF8E898F3F11F488E78E8BE885F985AA
:101D20009701412F64E1CE01DF91CF911F91FF9088
:101D3000EF9019940F93DC01DE963C91DE97431BE4
:101D4000D496ED91FC9119950F910895CF93DF935F
:101D5000FC01A081B18182AD982F990F990F990F45
:101D600095AF50969C915097903208F09FE1990F53
:101D7000990F990F94AF23AD922F990F990F990F47
:101D800096AF51963C915197682F620F7727771F36
:101D90003617170614F4832F821B97AFEF01C05C30
:101DA000DF4F880F880F880F890F8883219680EF77
:101DB000888354968D919C915597813F910508F4A5
:101DC0008883EE5BFF4F56968C918083DF91CF9195
:101DD00008950F93FC01EB5BFF4F308131965081EA
:101DE000451730F4301738F0041728F080E013C09E
:101DF0003017D0F3FBCFFC01ED5BFF4F30818C5BE4
:101E00009F4FFC018081681740F481E0321718F081
:101E100081E0261758F70F9108953217C8F3E6CFDF
:101E20002F923F924F925F926F927F928F929F92EA
:101E3000AF92BF92CF92DF92EF92FF920F931F93D8
:101E4000CF93DF93EC014C0183E4880E911CF401E5
:101E50001082329720805E01F4E4AF0EB11CF501D0
:101E600020823FAC6E01F5E4CF0ED11CF60130822A
:101E7000359740807E01F6E4EF0EF11CF7014082B9
:101E800034961081329760803196708032975080FE
:101E9000012F262D472D652DCE010E94E90ECD582C
:101EA000DF4F811114C01882DF91CF911F910F91E4
:101EB000FF90EF90DF90CF90BF90AF909F908F906A
:101EC0007F906F905F904F903F902F90089581E0AA
:101ED0008883552011F0F4015082621410F4F5014A
:101EE0006082371410F4F60170821415E8F6F701D9
:101EF0001083DACF0F93DC01802FFD01ED58FF4FE7
:101F000090819923E9F12223D9F1223020F0023087
:101F100079F56F5F621B082F0170FD0180FD32C0F3
:101F2000EB5BFF4F8081481758F13196808148174D
:101F300038F53297908131978081260F2617F0F47B
:101F40006917D8F42FEF290F8217D0F4681708F417
:101F5000682F291708F4922F961BD696ED91FC91C5
:101F6000D7970480F581E02D292FCD01199508C060
:101F7000033089F64F5F421BCECF682F691720F3DD
:101F80000F910895ED5BFF4F80816817C8F331967C
:101F900080816817A8F73296908131978081240F4D
:101FA000241778F4491760F42FEF290F821740F7B0
:101FB000481708F4482F291708F4922F941BCDCF07
:101FC000482F4917E8F6F2CF213039F020F02230BF
:101FD00031F0840F0895860F0895841B0895861BA1
:101FE0000895213039F020F0223031F0861B089519
:101FF000840F0895860F0895841B08955F926F9251
:102000007F928F929F92AF92BF92CF92DF92EF9288
:10201000FF920F931F93CF93DF935C01162F642ED3
:10202000EC01C15BDF4FDC80ED804C0189E7880E5D
:10203000911CFE80FD18C12EF11608F4CF2C5B8098
:102040000C85202F4E2D6D2D8A810E94E40F782E55
:10205000202F4E2D6D2D852D0E94F10F482F6620CB
:1020600071F08A85F40180832C2D672DC5010E94B3
:102070007A0F1F1548F01F19E394D12CDACF898508
:102080008111F7CF8B85EECF1D0D1C83ED82DF9183
:10209000CF911F910F91FF90EF90DF90CF90BF9065
:1020A000AF909F908F907F906F905F900895DC012C
:1020B00018964C911897ED91FC911197249130E06E
:1020C000042E02C0359527950A94E2F7842F860FD7
:1020D000883068F031961196FC93EE93E49198E085
:1020E000941B01C0EE0F9A95EAF72E2B8850189694
:1020F0008C938FEF9FEF01C0880F6A95EAF7809568
:1021000082230895FC01E60FF11D849190E0982F41
:1021100088273196E4918E0F911D0895AF92BF925A
:10212000CF92DF92EF92FF920F931F93CF93DF93A3
:1021300000D01F921F92CDB7DEB78C01DC01DA967A
:10214000AC90DA97DB96EC90DB97ED91FC91B1883F
:10215000FE2CD12CC12CD801ED91FC9111978089D6
:10216000D8962D913C911C82FD828B83B8E08B9F89
:10217000C00111248C9DA0018D9D500D9C9D500D82
:102180001124240F351F3A832983D8011496ED9129
:10219000FC919E012F5F3F4F41E06FE0C801199510
:1021A000F3948F2D8E198A1528F4BFEFCB1ADB0A12
:1021B000FB1488F20F900F900F900F900F90DF910B
:1021C000CF911F910F91FF90EF90DF90CF90BF9034
:1021D000AF90089581EE9BE00E948E1081EE9BE00F
:1021E0000C94BB0CCF92DF92EF92FF920F931F9350
:1021F000CF93DF93EC01962F683109F44BC0B901FE
:10220000993130F49431C9F0973189F080E006C0FB
:10221000993109F461C09032C9F781E0DF91CF9123
:102220001F910F91FF90EF90DF90CF90089550E0B5
:102230008EE797E00E94E90BF0CF8C859D85AE85F7
:10224000BF85892B8A2B8B2B71F4E881F981A585B9
:10225000B0E020EA36E841E050E00E94583C6C874C
:102260007D878E879F871092E6051092E505109274
:10227000E8051092E7050E947E0B8DEB9BE09093A2
:10228000100680930F068EEB9BE0909314068093CC
:102290001306C3CF2C853D854E855F8560E074E2D3
:1022A00084EF90E00E94363C2051310941095109E8
:1022B00056954795379527952093B8008E8990E0DD
:1022C0009595879591E09093C4058093A20510920F
:1022D000E8051092E705A1CFD091E705D13208F0CB
:1022E00093C0C091A2050E9421096B017C018091DD
:1022F0003706811164C082E08093370681E08093C5
:1023000039068FEF8093360610925B06D0935A06FB
:10231000A4EAB5E0EAE3F6E080E0D8137CC01092CE
:102320005C0680915C06CC0FC82BC0935C06809144
:102330003806813009F073C0109238060E942109D6
:102340006B017C0180915C068093BB008091EA0563
:102350009091EB05A091EC05B091ED05892B8A2BAE
:102360008B2B99F00E9421090091EA051091EB0551
:102370002091EC053091ED056C197D098E099F09BE
:102380000617170728073907D8F18091BC0083FD8D
:10239000D9CF85EC8093BC000E9421096B017C01A0
:1023A000809137068230E9F1809136068F3F61F1E6
:1023B00080913606803241F18091360625C08091A9
:1023C000EA059091EB05A091EC05B091ED05892B04
:1023D0008A2B8B2B09F48BCF0E9421090091EA05EF
:1023E0001091EB052091EC053091ED056C197D09FC
:1023F0008E099F09061717072807390708F077CFB6
:102400008091E9050E949C0B1092E8051092E70567
:102410001092C40502CF9D9191938F5F7ECF85EE80
:10242000B9CF8091EA059091EB05A091EC05B091B0
:10243000ED05892B8A2B8B2B09F4B2CF0E94210941
:102440000091EA051091EB052091EC053091ED0526
:102450006C197D098E099F09061717072807390788
:1024600008F09ECFCDCFCF93C82F61E00E94B70870
:1024700060E08C2FCF910C94B7088DE58CBD81E086
:102480008DBD60E086E00C94B70861E086E00C94B6
:10249000B708E091E003F091E103EE0FFF1FEE0FAC
:1024A000FF1FEA52FC4F218932894389548960E039
:1024B00076E483EC93E20E94363CCA01B9010E94A3
:1024C000153B0E94513DCB016531710510F084E14F
:1024D00090E00895E091E003F091E103EE0FFF1F1B
:1024E000EE0FFF1FEA52FC4F21893289438954893C
:1024F00060E074E887ED97E10E94363CCA01B901BB
:102500000E94153B0E94513DCB016430710510F4CF
:1025100084E090E008950F931F93CF93DF93EC0135
:1025200080919A0581110DC00E94E409609396057F
:1025300070939705809398059093990581E0809317
:102540009A058881882359F10E94E4090091960533
:10255000109197052091980530919905601B710B9A
:10256000820B930B6E3471408105910588F0C09108
:1025700004020E94E4096093960570939705809386
:1025800098059093990581E0C11180E08093040241
:1025900080910402DF91CF911F910F91089581E006
:1025A000F9CF4F925F926F927F928F929F92AF92EC
:1025B000BF92CF92DF92EF92FF92CF93DF9300D042
:1025C0001F92CDB7DEB7A0919A03B0919B0320E490
:1025D00032E44FE050E00E94333F2B013C01A091D8
:1025E000AB03B091AC0328EE33E00E942C3F460EC3
:1025F000571E681E791E8091BC039091BD03092E61
:10260000000CAA0BBB0B480E591E6A1E7B1E409283
:102610005E0650925F066092600670926106A0911D
:102620006703B091680320E432E44FE050E00E9479
:10263000333F4B015C01A0917803B091790328EE00
:1026400033E00E942C3F860E971EA81EB91E809173
:10265000890390918A03092E000CAA0BBB0B880EEC
:10266000991EAA1EBB1E8092920590929305A0927D
:102670009405B0929505A0913403B091350320E400
:1026800032E44FE050E00E94333F6B017C01A091A7
:102690004503B091460328EE33E00E942C3FC60E5E
:1026A000D71EE81EF91E8091560390915703092EFC
:1026B000000CAA0BBB0BC80ED91EEA1EFB1EC09253
:1026C0008E05D0928F05E0929005F0929105A09131
:1026D0000103B091020320E432E44FE050E00E9495
:1026E000333F69837A838B839C83A0911203B091DB
:1026F000130328EE33E00E942C3F29813A814B815D
:102700005C81260F371F481F591FDA01C90140910C
:10271000230350912403052E000C660B770B840FC6
:10272000951FA61FB71F80938A0590938B05A093D2
:102730008C05B0938D0540916206509163066091BF
:10274000640670916506441555056605770508F41D
:1027500069C031E443163AE3530639E663063DE0C7
:10276000730608F05FC020EA421626E8520621E010
:102770006206710408F458C0481559056A057B05BE
:1027800008F454C031E483163AE3930639E6A3060D
:102790003DE0B30608F04AC020EA821626E8920619
:1027A00021E0A206B10408F443C04C155D056E0596
:1027B0007F0508F43FC031E4C3163AE3D30639E697
:1027C000E3063DE0F306B0F520EAC21626E8D2069D
:1027D00021E0E206F10480F1481759076A077B07F8
:1027E00068F181343AE3930739E6A3073DE0B30784
:1027F00028F5803A9648A140B10510F180E00F908D
:102800000F900F900F90DF91CF91FF90EF90DF909E
:10281000CF90BF90AF909F908F907F906F905F9080
:102820004F90089581E0EBCF8FEFE9CF82E0E7CFC3
:102830008EEFE5CF83E0E3CF8DEFE1CF84E0DFCF14
:102840008CEFDDCF0F931F938091820581110DC016
:102850000E94E40960937E0570937F058093800554
:102860009093810581E0809382050E94E4090091A4
:102870007E0510917F052091800530918105601BB8
:10288000710B820B930B0091AE0B1091AF0B20914B
:10289000B00B3091B10B6017710782079307A8F056
:1028A00083E00E948E0880930302809102028130AF
:1028B00041F480910302811104C08BEA9BE00E94E5
:1028C000450C80910302809302021F910F9108959D
:1028D0000F931F938091760581110DC00E94E4092A
:1028E00060937205709373058093740590937505DA
:1028F00081E0809376050E94E409009172051091B1
:1029000073052091740530917505601B710B820B66
:10291000930B0091C70B1091C80B2091C90B3091FC
:10292000CA0B6017710782079307A8F082E00E9424
:102930008E088093010280910002813041F48091E1
:102940000102811104C084EC9BE00E94450C80913F
:102950000102809300021F910F910895EF92FF9260
:102960000F931F93CF93DF93EC01A881B9817C81F2
:102970000A811B81FD8020E931E050E040E090E0D9
:1029800080E06C916723E1E0F0E011F4F0E0E0E03A
:102990008E0F9F1FF80160816F21E1E0F0E011F4DC
:1029A000F0E0E0E04E0F5F1F2150310951F721E0C8
:1029B000893C910508F420E081E0493C510508F488
:1029C00080E090917105921305C090917005981761
:1029D00009F460C020937105809370059E81990F62
:1029E000990F922B880F982B9E839B3409F459C022
:1029F000973809F04FC0EE24EA94FE2C0E94E409B7
:102A00000B851C852D853E85DC01CB01801B910B40
:102A1000A20BB30B8F87988BA98BBA8B10E000E0C9
:102A20008A319105A105B10540F405E010E00D974C
:102A3000A105B10510F40AE010E00E94E4096B87DB
:102A40007C878D879E8721E030E0FFEFEF16FF0641
:102A500011F42FEF3FEFC701FF0CAA0BBB0B4F8107
:102A6000588569857A85840F951FA61FB71F029F19
:102A7000A001039F500D129F500D1124052E000C34
:102A8000660B770B840F951FA61FB71F8F83988740
:102A9000A987BA87DF91CF911F910F91FF90EF9097
:102AA0000895EE24E394F12CA9CF80918A079091A8
:102AB0008B070C94AE1480918C0790918D070C9429
:102AC000AE1480918E0790918F070C94AE14809174
:102AD0009007909191070C94AE1480919207909179
:102AE00093070C94AE1480919407909195070C94E1
:102AF000AE148EBD00000DB407FEFDCF8EB5089557
:102B00002F923F924F925F926F927F928F929F92FD
:102B1000AF92BF92CF92DF92EF92FF920F931F93EB
:102B2000CF93DF93EC010497419710F0C1E0D0E020
:102B3000CB01BA0120E03AEC4AE95BE30E943B3F5B
:102B4000A12CEAECBE2EFAE9CF2EABE3DA2EE12C73
:102B5000F12C00E010E00E94683FB22FA32FF42F69
:102B6000E52F9E01DD0F440B550B6B2F7A2F8F2F16
:102B70009E2F0E94263C6093600C7093610C8093A2
:102B8000620C9093630C1B012C017B01182FB52D57
:102B9000E0E0F0E0B12CC12C00E2002309F474C0A5
:102BA000DD24DA94D00E20E030E040E050E06E2FDB
:102BB000617070E080E090E0A0E00E94044009F4C1
:102BC00052C00093680C10E0005E1F4F21E030E01F
:102BD00040E050E060E070E080E090E00E94C53F9F
:102BE00051016201E12CF12C00E010E00E94683FED
:102BF0002093640C3093650C4093660C5093670CE3
:102C00000E943D1281E00E9479158091600C9091A4
:102C1000610CA091620CB091630C893C9105A105F7
:102C2000B105A8F180E8CC0FCC0FC3608C2B0E94BB
:102C3000791580E00E94791580E20E947915DF9174
:102C4000CF911F910F91FF90EF90DF90CF90BF90A9
:102C5000AF909F908F907F906F905F904F903F903C
:102C60002F900C9445129701412F5B2FBF018B2DA4
:102C70009C2D01E00E94C53F7901142FB52FFB0167
:102C8000B82EC92E0D2D89CF1092680C9CCF80E0F4
:102C9000CACF8F929F92AF92BF92CF92DF92EF9264
:102CA000FF92CF93DF93D82F4A015B01E82FF0E02A
:102CB000E559FB4FC0810E943D128D2F0E9479156E
:102CC00028E0C29FE0011124C12CD12C7601289765
:102CD000C83F8FEFD80791F0FE2CED2CDC2CCC24D4
:102CE000D501C4010C2E04C0B695A795979587957C
:102CF0000A94D2F70E947915C82AE9CF0E9445129A
:102D0000C701B601DF91CF91FF90EF90DF90CF9098
:102D1000BF90AF909F908F9008951F93CF93DF93B4
:102D2000EC01162F462F572F88818417150641F086
:102D30004260052E000C660B770B80E00E9449165E
:102D40001883DF91CF911F9108950F931F93CF9315
:102D5000DF938B01EB016130744010F0C0E0D4E0F0
:102D6000BC0189E69CE00E948D160E943D1286E01F
:102D70000E94791580E00E9479150115144070F4C5
:102D8000CE019061892F0E9479158C2F0E947915B0
:102D9000DF91CF911F910F910C94451280E0F3CFFA
:102DA000CF93DF93EB01BC0189E69CE00E948D1676
:102DB000DF73AE0170E060E085E0DF91CF910C94AD
:102DC00049162F923F924F925F926F927F928F920D
:102DD0009F92AF92BF92CF92DF92EF92FF920F93AA
:102DE0001F93CF93DF9300D01F92CDB7DEB79A83A6
:102DF0008983C090640CD090650CE090660CF090D4
:102E0000670CCB01BA01A70196010E943B3FE4E0A9
:102E1000F694E794D794C794EA95D1F756016701E1
:102E2000E12CF12C00E010E00E94FB3F0091680CC7
:102E30000E94E03F79014C835B8369817A8189E656
:102E40009CE00E948D16A7016C817B8184E00F902D
:102E50000F900F900F90DF91CF911F910F91FF90E6
:102E6000EF90DF90CF90BF90AF909F908F907F902A
:102E70006F905F904F903F902F900C94491608955B
:102E8000CF93DF93EC01E091E003F091E103EE0FCB
:102E9000FF1FEE0FFF1FEA52FC4FAA85BB85218959
:102EA0003289438954890E94333F698B7A8B8B8B9B
:102EB0009C8BDF91CF9108958F929F92AF92BF929A
:102EC000CF92DF92EF92FF928091890C90918A0CC1
:102ED000029768F580917B0C90917C0CA0917D0C01
:102EE000B0917E0C81509448A74DB7418F3F914CD3
:102EF000AB4EBB4020F08AE69CE00E9440178090D9
:102F00007B0C90907C0CA0907D0CB0907E0CC12C22
:102F1000D12C76019401A501B601C701FF90EF9075
:102F2000DF90CF90BF90AF909F908F900895A09129
:102F3000CF03B091D00320E432E44FE050E00E9490
:102F4000333F6B017C0124E8D21A27EDE20A27E126
:102F5000F20A812C21E0C21622ECD2062BEEE20608
:102F60002BE0F20668F44B015C01DC01CB01BB0FE6
:102F7000880B982FDC01C82ED82EE82EF82ECACF49
:102F800085E6982E9DECA92E2DE1B22EC12CD12CD8
:102F9000E12CF12CBFCFCF93DF93EC018A859B8589
:102FA00001979B878A87049724F40E9449129B8784
:102FB0008A87E091E003F091E103EE0FFF1FEE0F2F
:102FC000FF1FEA52FC4FAA85BB85218932894389BC
:102FD00054890E94333F61157448874D974120F40E
:102FE0000E9449129B878A87CE01DF91CF910C9472
:102FF0004017CF93DF93EC018A859B8501969B87D1
:103000008A87459724F00E946A129B878A87E091FD
:10301000E003F091E103EE0FFF1FEE0FFF1FEA52F6
:10302000FC4FAA85BB8521893289438954890E9436
:10303000333F61307644834C934220F00E946A1201
:103040009B878A87CE01DF91CF910C944017FC01BA
:10305000868197819093D7068093D60680E0089565
:10306000FC01908981E08927808B0895FC0177FF1E
:1030700003C071956195710982859385861B970BB5
:1030800093878287268537858217930724F4848562
:103090009585938782870895CF93DF93EC010E94F3
:1030A0003618AA85BB8520E432E44FE050E00E9448
:1030B000333F60937B0C70937C0C80937D0C9093DA
:1030C0007E0CDF91CF910895CF93DF93EC0161E007
:1030D00070E00E9436188A859B85029768F486ED19
:1030E00093E09B838A838AE69CE090931B02809303
:1030F0001A02DF91CF91089585EC93E09B838A8338
:10310000F4CF0E94361884E79CE00E94DB078AE631
:103110009CE00C944017CF93DF93EC010E9436188B
:103120008A859B85892B59F0EC81FD818285938569
:103130008836914021F487E691E093878287DF917A
:10314000CF910895CF93DF93EC010E9436188A85C2
:103150009B858836914049F4EA81FB81828593857D
:103160001816190614F413861286DF91CF9108956C
:103170000C9436180C9436180C943618FC0177FF12
:1031800003C071956195710982859385680F791FD8
:1031900073876287848595858617970724F48685CB
:1031A0009785938782870895CF93DF93EC010E94E0
:1031B000BE18AA85BB8520E432E44FE050E00E94AF
:1031C000333F60937B0C70937C0C80937D0C9093C9
:1031D0007E0CDF91CF910895CF93DF93EC0161E0F6
:1031E00070E00E94BE188A859B85029768F486ED80
:1031F00093E09B838A838AE69CE090931B028093F2
:103200001A02DF91CF91089585EC93E09B838A8326
:10321000F4CF0E94BE1884E79CE00E94DB078AE698
:103220009CE00C944017CF93DF93EC010E94BE18F2
:103230008A859B85892B59F0EC81FD818285938558
:103240008836914021F487E691E093878287DF9169
:10325000CF910895CF93DF93EC010E94BE188A8529
:103260009B858836914049F4EA81FB81828593856C
:103270001816190614F413861286DF91CF9108955B
:103280000C94BE180C94BE180C94BE18CF92DF920A
:10329000EF92FF920F931F93CF93DF936C01EB019B
:1032A0007B01E40EF51E10E000E0CE15DF0561F0B5
:1032B0006991D601ED91FC910190F081E02DC6015C
:1032C0001995080F191FF1CFC801DF91CF911F91F8
:1032D0000F91FF90EF90DF90CF9008952F923F9243
:1032E0004F925F926F927F928F929F92AF92BF9216
:1032F000CF92DF92EF92FF920F931F93CF93DF93C2
:1033000000D000D0CDB7DEB77C016C0124E0C20E46
:10331000D11CFC01E158FF4F0190F081E02DC60166
:1033200019958C018E3F9F4F08F05BC0370182E8F2
:10333000680E711CF301F081FB83470121E8820EC6
:10334000911CF401F081FD839701215A3F4F3A838C
:103350002983F9018081813009F46AC008F45CC0D6
:10336000823009F471C0833009F47AC0F701EB5A56
:10337000FF4F2D81208331963B81308337978081A9
:10338000918147969C838B830F3F110511F008F0C4
:1033900015C1B4960136110530F40134110558F009
:1033A000F701EF58FF4F808191812B813C81280FDD
:1033B000391F3C832B838B819C810196FC012491D6
:1033C00021115AC0412CE981FA818081813009F4B0
:1033D00092C108F48BC1823009F48FC1833009F4A3
:1033E00091C181E090E026960FB6F894DEBF0FBE43
:1033F000CDBFDF91CF911F910F91FF90EF90DF90A4
:10340000CF90BF90AF909F908F907F906F905F9084
:103410004F903F902F900895F701EF5AFF4F019082
:10342000F081E02DC6011995FB81F80FFB839ECF3B
:10343000F701EF5AFF4F0190F081E02DC601199579
:103440002D81281B2D8392CFF701EF5AFF4F01905A
:10345000F081E02DC60119953B81381B3B8386CF57
:10346000F701EF5AFF4F0190F081E02DC601199549
:103470009D81980F9D837ACFEB81FC812491201749
:10348000110609F094C0CF010296009709F49ACF73
:10349000F701ED5AFF4FFE83ED8391838083108601
:1034A000719660818D819E810E945710ED81FE8111
:1034B0008683F701EB59FF4F60818D819E810E94C9
:1034C0005710582EED81FE818783970123583F4F77
:1034D0003C832B83F9019081ED81FE81928781E00D
:1034E000911180E0ED81FE818387F701EA59FF4F5A
:1034F000B0806B2D8D819E810E945710382EF70170
:10350000E959FF4F2080622D8D819E810E945710C6
:10351000182FF701E859FF4F0081602F8D819E81A0
:103520000E945710015021E030E0A90101C0440F72
:103530000A95EAF7482E441AED81FE81068110169D
:103540000CF041CFBA94C90101C0880FBA94EAF7D0
:10355000381AB484150D2A9401C0220F2A94EAF770
:10356000A22EA11A2B2D4A2D632D82810E94E40FD9
:10357000182FED81FE8182832B2D4A2D632D8381AF
:103580000E94F10FED81FE818383F1E0BF1609F403
:1035900093C0BF1608F450C022E0B21609F492C0DE
:1035A00033E0B31609F499C0082F212F49C0FC015C
:1035B00084912B813C81280F311DFBCEF701EB5804
:1035C000FF4F80819181EB81FC81E80FF91FFC8323
:1035D000EB835F0160E0C5010E9482102B813C817A
:1035E000280F391F3C832B8362E0C5010E948210A3
:1035F00034E0A30EB11C8017910760F3EB81FC81CE
:10360000849190E0982F88273196E4918E2B009733
:1036100009F4D8CE0817190721F48B819C810396F1
:1036200034CFEB81FC813296E4912B813C812E0FCB
:10363000311D3C832B83E2CF202F210F082F050D56
:10364000482F612FC6010E94E90E882309F4BBCEE2
:10365000ED81FE81148215825701F2E6AF0EB11C96
:1036600023E6E20EF11CF50160818D819E810E94AE
:103670005710082FF70160818D819E810E9457109D
:10368000182F40E0602FC6010E94FE0F41E0612F1D
:10369000C6010E94FE0F61E08D819E810E9457103D
:1036A0008111EFCFED81FE8185818515E4F2828560
:1036B000EB81FC81808387CEB51821E0210F080FB4
:1036C0001B0DBECF91E0392F301B21E0210F951942
:1036D00001E0080F890F130FB3CF212F250D982F6D
:1036E000901B01E0080F81E0890FAACFF4018081CF
:1036F000480E408276CEF301FACFF401808184191E
:1037000080836FCEF301FACF089590E080E00895B2
:10371000CF93DF93EC0188819981009711F00E948B
:10372000B540198218821D821C821B821A82DF9189
:10373000CF910895FC0180819181009711F00C9444
:10374000B5400895FB0101900020E9F73197AF01E2
:10375000461B570BDC01ED91FC910280F381E02DBB
:1037600019948F929F92AF92BF92EF92FF920F9314
:103770001F93CF93DF93CDB7DEB7A1970FB6F89421
:10378000DEBF0FBECDBF7C01FA01CB0119A22230F2
:1037900008F42AE08E010F5D1F4F822E912CB12C70
:1037A000A12CBF01A50194010E94363CF901CA0178
:1037B0006A300CF5605DD8016E938D01232B242BAC
:1037C000252B79F790E080E0109721F0BD01C7012B
:1037D0000E94A21BA1960FB6F894DEBF0FBECDBF0C
:1037E000DF91CF911F910F91FF90EF90BF90AF901D
:1037F0009F908F900895695CDECF4F925F926F9299
:103800007F92AF92BF92CF92DF92EF92FF920F938F
:103810001F93CF935C01162FC0E060E070E080E062
:103820009FE3C11741F020E030E040E251E40E9404
:10383000DF3CCF5FF6CF2CE53FE842E050E40E944A
:10384000733C6B017C010E94513D2B013C012AE03D
:10385000BC01A201C5010E94B11B8C01CC23E9F17E
:10386000C301B2010E94153B9B01AC01C701B60127
:103870000E94723C6B017C01D501ED91FC9101909D
:10388000F081E02D6EE2C5011995080F191FC15096
:1038900020F120E030E040E251E4C701B6010E948F
:1038A000523B2B013C010E94513D6B01F12CE12C5C
:1038B0002AE0B701A601C5010E94B11B080F191F1C
:1038C000C701B6010E94153B9B01AC01C301B201C7
:1038D0000E94723C6B017C01DACFC801CF911F912D
:1038E0000F91FF90EF90DF90CF90BF90AF907F90BF
:1038F0006F905F904F900895CF92DF92EF92FF927A
:103900000F931F93CF93DF93EC016A017B01E88152
:10391000F9810190F081E02D6DE219958C01442729
:103920005527BA014C195D096E097F092AE0CE01BD
:103930000E94B11B800F911FDF91CF911F910F91BA
:10394000FF90EF90DF90CF900895AB01770F660B5B
:10395000770B77FD0C947C1C2AE00C94B11BCF9361
:10396000DF9362E081EE96E00E94FD1BEC0162E2D3
:1039700075E081EE96E00E94A21B8C0F9D1FDF91E7
:10398000CF910895CF93DF93AB01BC0177FF10C0B7
:1039900081EE96E00E947C1CEC0162E275E081EE13
:1039A00096E00E94A21B8C0F9D1FDF91CF9108957E
:1039B0002AE081EE96E00E94B11BEECF0F931F9399
:1039C000CF93DF93EC010E94FF098C0162E275E066
:1039D000CE010E94A21B800F911FDF91CF911F91FA
:1039E0000F9108950F931F93CF93DF938C01EB01F9
:1039F0000E94103C8883C80101960E94103C898374
:103A0000CE01DF91CF911F910F910895FF920F93F7
:103A10001F93CF93DF93EC018B01FB01F0800E9499
:103A2000103CF81621F06F2DCE010E94183CF801D1
:103A3000F1802196CE010E94103CF81621F06F2DE6
:103A4000CE010E94183CC801DF91CF911F910F91C8
:103A5000FF9008956AE973E086E190E00E94061DF8
:103A60006BEA73E088E190E00E94061D6CEB73E066
:103A70008CE190E00E94061D60EF72E080E290E031
:103A80000E94061D6CEA72E084E290E00E94061D2E
:103A900068E672E086E290E00E94061D67E673E049
:103AA00088E290E00E94061D68E773E08AE290E0F9
:103AB0000E94061D69E873E08CE290E00E94061DFA
:103AC0006FED72E08EE290E00E94061D6BE972E0FD
:103AD00080E390E00E94061D67E572E082E390E0DB
:103AE0000E94061D64E373E084E390E00E94061DDB
:103AF00065E473E086E390E00E94061D66E573E0EE
:103B000088E390E00E94061D6EEC72E08AE390E08C
:103B10000E94061D6AE872E08CE390E00E94061D98
:103B200066E472E08EE390E00E94061D61E073E0BF
:103B300080E490E00E94061D62E173E082E490E080
:103B40000E94061D63E273E084E490E00E94061D7B
:103B50006DEB72E086E490E00E94061D69E772E07A
:103B600088E490E00E94061D65E372E08AE490E03C
:103B70000E94061D67E384E690E00C94183C0E94C6
:103B80001F420F931F93CF93DF93EC01888199819C
:103B9000009759F02A813B812617370730F081E0E2
:103BA000DF91CF911F910F9108958B016F5F7F4F30
:103BB0000E943E41009759F0998388831B830A83B2
:103BC0002C813D81232B59F7FC011082E8CF80E046
:103BD000E7CFEF92FF920F931F93CF93DF9361157F
:103BE000710541F480E0DF91CF911F910F91FF901B
:103BF000EF90089541155105B1F07B01EC010C8166
:103C00001D81040F151FB8010E94C11D882351F3A7
:103C1000288139818C819D81B701820F931F0E9479
:103C200034421D830C8381E0DECFCF93DF93EC0120
:103C3000FB0144815581608171810E94E91D8111E0
:103C400003C0CE010E94881BCE01DF91CF91089561
:103C5000EF92FF920F931F93CF93DF93EC017B01C1
:103C60008A01BA010E94C11D81110BC0CE010E94C0
:103C7000881BCE01DF91CF911F910F91FF90EF90A4
:103C800008951D830C83B701888199810E94344275
:103C9000F0CFFB0101900020E9F73197AF01461BFF
:103CA000570B0C94281E0F931F93CF93DF93CDB720
:103CB000DEB762970FB6F894DEBF0FBECDBF8C01A2
:103CC000CB01F801118210821382128215821482B4
:103CD0004AE0BE016F5F7F4F0E94AC3ABE016F5F4A
:103CE0007F4FC8010E94491E62960FB6F894DEBF4E
:103CF0000FBECDBFDF91CF911F910F910895FB01B2
:103D0000DC0111961C921E9213961C921E92129721
:103D100015961C921E9214978617970749F060819A
:103D200071816115710521F0448155810C94281E23
:103D30000895FC011182108213821282158214826E
:103D4000FB0101900020E9F73197AF01461B570BAB
:103D50000C94281E0F931F93CF93DF93CDB7DEB73C
:103D60002C970FB6F894DEBF0FBECDBF8C01433049
:103D700069F5CB010A978A35910538F4CE0107968B
:103D80000E94531E66E275E009C06A3071050CF5A9
:103D9000CE0107960E94531E65E275E0CE010196A2
:103DA0000E94991EBE01695F7F4FCE0101960E945D
:103DB000151EBC01C8010E947F1ECE0101960E9403
:103DC0009A1BCE0107960E949A1B06C06A307105A5
:103DD000ACF2C8010E94531EC8012C960FB6F8948D
:103DE000DEBF0FBECDBFDF91CF911F910F91089520
:103DF000AF92BF92CF92DF92EF92FF920F931F93F9
:103E0000CF93DF9300D000D0CDB7DEB78823A1F0E9
:103E1000813009F4B1C526960FB6F894DEBF0FBE07
:103E2000CDBFDF91CF911F910F91FF90EF90DF9069
:103E3000CF90BF90AF9008958AE380935E0C89E0A5
:103E400080935F0C80915D0664EE73E0811102C087
:103E500060EE73E08DED9BE00E94FF0982E08093AD
:103E60005E0C84E180935F0C8091D6069091D7061A
:103E7000855D9C4009F0F7C480E00E9418086DED54
:103E800073E08DED9BE00E94FF0981E00E9418081D
:103E900081E180935E0C84E180935F0C8091D60673
:103EA0009091D7068059934009F0E1C48091A00316
:103EB000882309F4DAC480EA93E00E948B120E94FE
:103EC000180860919A0370919B0343E0CE0101961C
:103ED0000E94AA1EBE016F5F7F4F8DED9BE00E9486
:103EE000F109CE0101960E949A1B81E00E941808F8
:103EF0006BED73E08DED9BE00E94FF098091D6068B
:103F00009091D706815A934009F0B5C48091B103CE
:103F1000882309F4AEC481EB93E00E948B120E94C7
:103F200018086091AB037091AC0343E0CE01019699
:103F30000E94AA1EBE016F5F7F4F8DED9BE00E9425
:103F4000F109CE0101960E949A1B81E00E94180897
:103F500069ED73E08DED9BE00E94FF098091D6062C
:103F60009091D706825B934009F089C48091C20387
:103F7000882309F482C482EC93E00E948B120E9491
:103F800018086091BC037091BD0343E0CE01019617
:103F90000E94AA1EBE016F5F7F4F8DED9BE00E94C5
:103FA000F109CE0101960E949A1B81E00E94180837
:103FB0008DE480935E0C84E180935F0C8091D60643
:103FC0009091D706865E924009F05DC48091F6021A
:103FD000882309F456C486EF92E00E948B120E9457
:103FE000180867ED73E08DED9BE00E94FF0960917A
:103FF000F0027091F10242E0CE0101960E94AA1EE9
:10400000BE016F5F7F4F8DED9BE00E94F109CE01F5
:1040100001960E949A1B81E00E94180881E6809315
:104020005E0C84E180935F0C8091D6069091D70658
:10403000825A924009F02BC48091B202882309F47D
:1040400024C482EB92E00E948B120E9418086091B7
:10405000AC027091AD0243E0CE0101960E94AA1E0F
:10406000BE016F5F7F4F8DED9BE00E94F109CE0195
:1040700001960E949A1B81E00E94180865ED73E08A
:104080008DED9BE00E94FF098091D6069091D706A6
:104090008E55924009F0FFC380916E02882309F487
:1040A000F8C38EE692E00E948B120E94180860917D
:1040B0006802709169028DED9BE00E94A51C81E071
:1040C0000E94180863ED73E08DED9BE00E94FF09EC
:1040D00082E080935E0C8EE180935F0C8091D60627
:1040E0009091D706845C9C4009F0D7C380E00E9481
:1040F000180860ED73E08DED9BE00E94FF0981E000
:104100000E94180881E180935E0C8EE180935F0C21
:104110008091D6069091D7068D55934009F0C1C382
:1041200080916D03882309F4BAC38DE693E00E9461
:104130008B120E941808609167037091680343E036
:10414000CE0101960E94AA1EBE016F5F7F4F8DEDCA
:104150009BE00E94F109CE0101960E949A1B81E02A
:104160000E9418086EEC73E08DED9BE00E94FF0941
:104170008091D6069091D7068E56934009F095C34C
:1041800080917E03882309F48EC38EE793E00E941A
:104190008B120E941808609178037091790343E0B4
:1041A000CE0101960E94AA1EBE016F5F7F4F8DED6A
:1041B0009BE00E94F109CE0101960E949A1B81E0CA
:1041C0000E9418086CEC73E08DED9BE00E94FF09E3
:1041D0008091D6069091D7068F57934009F069C316
:1041E00080918F03882309F462C38FE893E00E94D3
:1041F0008B120E9418086091890370918A0343E032
:10420000CE0101960E94AA1EBE016F5F7F4F8DED09
:104210009BE00E94F109CE0101960E949A1B81E069
:104220000E9418088DE480935E0C8EE180935F0CF1
:104230008091D6069091D706855D924009F03DC3E6
:104240008091E502882309F436C385EE92E00E944E
:104250008B120E9418086AEC73E08DED9BE00E94BF
:10426000FF096091DF027091E00242E0CE01019609
:104270000E94AA1EBE016F5F7F4F8DED9BE00E94E2
:10428000F109CE0101960E949A1B81E00E94180854
:1042900081E680935E0C8EE180935F0C8091D60660
:1042A0009091D7068159924009F00BC38091A102E9
:1042B000882309F404C381EA92E00E948B120E94D1
:1042C000180860919B0270919C0243E0CE01019618
:1042D0000E94AA1EBE016F5F7F4F8DED9BE00E9482
:1042E000F109CE0101960E949A1B81E00E941808F4
:1042F00068EC73E08DED9BE00E94FF098091D6068B
:104300009091D7068D54924009F0DFC280915D02F2
:10431000882309F4D8C28DE592E00E948B120E9496
:10432000180860915702709158028DED9BE00E9431
:10433000A51C81E00E94180866EC73E08DED9BE0FF
:104340000E94FF0982E080935E0C88E280935F0CFC
:104350008091D6069091D706835B9C4009F0B7C246
:1043600080E00E94180863EC73E08DED9BE00E94F2
:10437000FF0981E00E94180881E180935E0C88E2C9
:1043800080935F0C8091D6069091D7068A52934015
:1043900009F0A1C280913A03882309F49AC28AE302
:1043A00093E00E948B120E94180860913403709170
:1043B000350343E0CE0101960E94AA1EBE016F5F45
:1043C0007F4F8DED9BE00E94F109CE0101960E9486
:1043D0009A1B81E00E94180861EC73E08DED9BE070
:1043E0000E94FF098091D6069091D7068B53934087
:1043F00009F075C280914B03882309F46EC28BE4E7
:1044000093E00E948B120E941808609145037091FE
:10441000460343E0CE0101960E94AA1EBE016F5FD3
:104420007F4F8DED9BE00E94F109CE0101960E9425
:104430009A1B81E00E9418086FEB73E08DED9BE002
:104440000E94FF098091D6069091D7068C54934024
:1044500009F049C280915C03882309F442C28CE5CB
:1044600093E00E948B120E9418086091560370918D
:10447000570343E0CE0101960E94AA1EBE016F5F62
:104480007F4F8DED9BE00E94F109CE0101960E94C5
:104490009A1B81E00E9418088DE480935E0C88E2EC
:1044A00080935F0C8091D6069091D706845C9240F1
:1044B00009F01DC28091D402882309F416C284ED4C
:1044C00092E00E948B120E9418086DEB73E08DED54
:1044D0009BE00E94FF096091CE027091CF0242E002
:1044E000CE0101960E94AA1EBE016F5F7F4F8DED27
:1044F0009BE00E94F109CE0101960E949A1B81E087
:104500000E94180881E680935E0C88E280935F0C1D
:104510008091D6069091D7068058924009F0EBC161
:1045200080919002882309F4E4C180E992E00E941E
:104530008B120E94180860918A0270918B0243E0EE
:10454000CE0101960E94AA1EBE016F5F7F4F8DEDC6
:104550009BE00E94F109CE0101960E949A1B81E026
:104560000E9418086BEB73E08DED9BE00E94FF0941
:104570008091D6069091D7068C53924009F0BFC126
:1045800080914C02882309F4B8C18CE492E00E9427
:104590008B120E94180860914602709147028DEDBF
:1045A0009BE00E94A51C81E00E94180869EB73E063
:1045B0008DED9BE00E94FF0982E080935E0C82E318
:1045C00080935F0C8091D6069091D706825A9C40CA
:1045D00009F097C180E00E94180866EB73E08DED4A
:1045E0009BE00E94FF0981E00E94180881E180930E
:1045F0005E0C82E380935F0C8091D6069091D70683
:10460000875F924009F081C180910703882309F4F4
:104610007AC187E093E00E948B120E941808609193
:1046200001037091020343E0CE0101960E94AA1E8D
:10463000BE016F5F7F4F8DED9BE00E94F109CE01BF
:1046400001960E949A1B81E00E94180864EB73E0B7
:104650008DED9BE00E94FF098091D6069091D706D0
:104660008850934009F055C180911803882309F4BC
:104670004EC188E193E00E948B120E94180860915D
:1046800012037091130343E0CE0101960E94AA1E0B
:10469000BE016F5F7F4F8DED9BE00E94F109CE015F
:1046A00001960E949A1B81E00E94180862EB73E059
:1046B0008DED9BE00E94FF098091D6069091D70670
:1046C0008951934009F029C180912903882309F475
:1046D00022C189E293E00E948B120E941808609127
:1046E00023037091240343E0CE0101960E94AA1E89
:1046F000BE016F5F7F4F8DED9BE00E94F109CE01FF
:1047000001960E949A1B81E00E9418088DE4809314
:104710005E0C82E380935F0C8091D6069091D70661
:10472000835B924009F0FDC08091C302882309F4A5
:10473000F6C083EC92E00E948B120E94180860EB96
:1047400073E08DED9BE00E94FF096091BD027091C6
:10475000BE0242E0CE0101960E94AA1EBE016F5F1A
:104760007F4F8DED9BE00E94F109CE0101960E94E2
:104770009A1B81E00E94180881E680935E0C82E318
:1047800080935F0C8091D6069091D7068F56924009
:1047900009F0CBC080917F02882309F4C4C08FE761
:1047A00092E00E948B120E94180860917902709129
:1047B0007A0243E0CE0101960E94AA1EBE016F5FFD
:1047C0007F4F8DED9BE00E94F109CE0101960E9482
:1047D0009A1B81E00E9418086EEA73E08DED9BE061
:1047E0000E94FF098091D6069091D7068B52924085
:1047F00009F09FC080913B02882309F498C08BE3A5
:1048000092E00E948B120E9418086091350270910C
:1048100036028DED9BE00E94A51C81E00E941808E5
:104820006CEA73E08DED9BE00E94FF0910925E0C34
:104830008DE380935F0C0E94D1128C5F893008F069
:1048400080C0E82F880FFF0B8827E65DFB4D8F4F58
:104850000C94243FB924B624B324B0249B24A4246C
:10486000A724AA24AD2481E008CB80E028CB81E0F6
:1048700026CB80E054CB81E052CB80E080CB81E03E
:104880007ECB80E0ACCB81E0AACB80E0DECB81E0C8
:10489000DCCB80E00ACC81E008CC81E028CC80E051
:1048A00048CC81E046CC80E074CC81E072CC80E0E2
:1048B000A0CC81E09ECC80E0CCCC81E0CACC80E072
:1048C000FECC81E0FCCC80E02ACD81E028CD81E0E7
:1048D00048CD80E068CD81E066CD80E094CD81E078
:1048E00092CD80E0C0CD81E0BECD80E0ECCD81E016
:1048F000EACD80E01ECE81E01CCE80E04ACE81E091
:1049000048CE81E068CE80E088CE81E086CE80E02F
:10491000B4CE81E0B2CE80E0E0CE81E0DECE80E0B9
:104920000CCF81E00ACF80E03ECF81E03CCF80E039
:104930006ACF81E068CF6BE973E08DED9BE00E9468
:10494000FF090E94EA1067CA6AE873E0F6CF69E7D8
:1049500073E0F3CF68E673E0F0CF67E573E0EDCF87
:1049600066E473E0EACF66E373E0E7CF66E273E004
:10497000E4CF66E173E0E1CF83E380935E0C88E0EF
:1049800080935F0C60E173E08DED9BE00E94FF0976
:1049900010925E0C8AE180935F0C66EF72E08DED01
:1049A0009BE00E94FF098091D6069091D7068F5711
:1049B0009C4059F480918F0C882309F4DBC08FE868
:1049C0009CE00E948B120E94180887E380935E0C83
:1049D0008AE180935F0C8091890C90918A0C26E08B
:1049E000289FB001299F700D11246057734F8DEDE2
:1049F0009BE00E94F10981E00E94180810925E0C71
:104A000082E280935F0C69EE72E08DED9BE00E9484
:104A1000FF092091890C30918A0C8091D6069091E3
:104A2000D7062230310508F0A9C0865D934059F4BD
:104A30008091E603882309F49FC086EE93E00E94EC
:104A40008B120E941808E091E003F091E103EE0F51
:104A5000FF1FEE0FFF1FEA52FC4F618972898389A5
:104A6000948920E432E44FE050E00E94363CBA01E1
:104A7000A9012AE08DED9BE00E94B11B81E00E941C
:104A8000180863EE72E08DED9BE00E94FF09109222
:104A90005E0C8AE280935F0C66ED72E08DED9BE028
:104AA0000E94FF0981E00E9418088091D60690912B
:104AB000D7068A569C4059F480917A0C882309F4D1
:104AC00081C08AE79CE00E948B120E9418080E9415
:104AD0005C17E0E4AE2EF2E4BF2EAFE0CA2ED12C7C
:104AE000E12CF12C00E010E00E94683FE22F2AE068
:104AF000BA014E2F532F8DED9BE00E94B11B81E038
:104B00000E94180860ED72E08DED9BE00E94FF09A5
:104B100010925E0C8FE380935F0C8091D60690918B
:104B2000D7068651924019F480E00E9418086BEC79
:104B300072E08DED9BE00E94DE1C81E00E9418086F
:104B400087E680935E0C8FE380935F0C8091D6069E
:104B50009091D7068550924019F480E00E94180881
:104B600066EC72E08DED9BE00E94DE1C81E00E940D
:104B70001808E7CE80E027CF80E063CF855C9340C4
:104B800051F48091D5038823D9F085ED93E00E94FC
:104B90008B120E9418086091CF037091D00343E0FC
:104BA000CE0101960E94AA1EBE016F5F7F4F8DED60
:104BB0009BE00E94F109CE0101960E949A1B5ECFF4
:104BC00080E0E7CF80E081CF85ED8093BC008091CD
:104BD000EA059091EB05A091EC05B091ED050796E3
:104BE000A11DB11D23E0B695A795979587952A95A8
:104BF000D1F72091BC0024FD03C010923706089520
:104C00004091EA055091EB056091EC057091ED053E
:104C1000452B462B472B69F30097A105B10541F0C1
:104C20002AE22A95F1F700C00197A109B109E1CF65
:104C30008091E9050C949C0BFC01A081B1815096F8
:104C40002C9182AD38E0839FC0011124289FA001E0
:104C5000299F500D112470E060E080AD91AD0C945F
:104C60002D42FF920F931F93CF93DF9369E87CE06F
:104C700090E080E00E94061D60EE73E082E090E02C
:104C80000E94061D6FEC73E086E090E00E94061D16
:104C900064E77CE088E090E00E94061D67E385E61B
:104CA00090E00E94183C0E94832681EE9BE00E94C7
:104CB0001C2681E00E9418080EE51CE083E3F82E14
:104CC000F801F082CFE5DCE088E088836BE174E0F6
:104CD0008DED9BE00E94DE1CF801F08288E2888363
:104CE00065E174E08DED9BE00E94FF090E94EA10EF
:104CF00068EE73E080E090E0DF91CF911F910F911B
:104D0000FF900C944609CF92DF92EF92FF9285E6D6
:104D100090E00E94103C873309F4C7C010928A0CBF
:104D20001092890C82E090E09093E1038093E0037D
:104D300084EF91E09093D0038093CF038AE090E0DA
:104D40009093750C8093740C0E9431268091890C8D
:104D5000882309F4C3C0833008F4CDC08091740C5B
:104D60009091750C459734F00E946A129093750CDF
:104D70008093740CE091E003F091E103EE0FFF1FCC
:104D8000EE0FFF1FEA52FC4FC188D288E388F488F7
:104D9000A091740CB091750CA70196010E94333F4D
:104DA00061307644834C934230F00E946A129093B3
:104DB000750C8093740C8091740C9091750C049711
:104DC00034F40E9449129093750C8093740CA09156
:104DD000740CB091750CA70196010E94333F6115C8
:104DE0007448874D974130F40E9449129093750C96
:104DF0008093740C8AE69CE00E9440178091890C95
:104E000090918A0C029708F080C0E091E003F09145
:104E1000E103EE0FFF1FEE0FFF1FEA52FC4F418927
:104E20005289638974898091740C9091750C0E94E9
:104E300080156BE074E081EE96E00E94DE1C8091AC
:104E4000890C90918A0C029708F067C086ED93E078
:104E50009093820C8093810C8AE69CE090931B02D5
:104E600080931A020E945C17B901CA01209327029D
:104E7000709328024093290290932A020E94153BC6
:104E800026E636E646EE5EE30E94523B0E94513D26
:104E90006093620670936306809364069093650640
:104EA000FF90EF90DF90CF90089569E87CE090E06C
:104EB00080E00E94F21C60EE73E082E090E00E94CD
:104EC000F21C6FEC73E086E090E00E94F21C64E755
:104ED0007CE088E090E00E94F21C38CF61E088E03E
:104EE0000E94B70861E080E30E94B70860E081E3B8
:104EF0000E94B70833CF60E088E00E94B70860E006
:104F000080E30E94B70861E0F2CF0E945C17BA010B
:104F1000422F532F90E080E08ACF85EC93E090936E
:104F2000820C8093810C9ACFEF92FF920F93CF93D4
:104F3000DF9381EE9BE00E941C26CEE5DCE082E060
:104F400088838FE5E82E8CE0F82E89E0F7018083D6
:104F500061EF73E08DED9BE00E94FF0900E020E827
:104F600040E060E081EE9BE00E947A0F20E84BE099
:104F700060E081EE9BE00E947A0F01E024E340E0D4
:104F80006EE081EE9BE00E947A0F24E340E06AE449
:104F900081EE9BE00E947A0F24E340E06EE581EE13
:104FA0009BE00E947A0F00E020E844E360E081EE9D
:104FB0009BE00E947A0F01E024E340E060E081EE94
:104FC0009BE00E947A0F24E340E06FE781EE9BE0D4
:104FD0000E947A0F8DE3F701808388E5888368EE6D
:104FE00073E08DED9BE00E94FF09DF91CF910F915F
:104FF000FF90EF900C94EA1085ED9CE09093D7061B
:105000008093D6061092D4060E94942780E00895DB
:1050100063E070E0681B7109072E000C880B990B88
:105020000E94173B22EF32ED40E752E40E94733CAE
:1050300020E030E040EA51E40E94DF3C9B01AC01FB
:1050400060E070E080E291E40E94803D0E94513D6A
:10505000CB010895CF930E94D1128111EDC04091F0
:105060005E0650915F06609160067091610680E176
:1050700090E00E94E1168091F0020E940828BC0195
:1050800080E190E00E94A5168091AC029091AD0263
:10509000CAE0C89FB001C99F700D112480916802B9
:1050A00090916902680F791F90E080E00E94153BA3
:1050B00020E030E041E655E40E94DF3C20E030E0B3
:1050C00040E856E40E94523B0E94513D80E190E04E
:1050D0000E94D016409192055091930560919405DD
:1050E0007091950580E290E00E94E1168091DF02C8
:1050F0000E940828BC0180E290E00E94A5168091E1
:105100009B0290919C02C89FB001C99F700D112411
:105110008091570290915802680F791F90E080E0CB
:105120000E94153B20E030E041E655E40E94DF3C60
:1051300020E030E040E856E40E94523B0E94513D9E
:1051400080E290E00E94D01640918E0550918F052C
:10515000609190057091910580E490E00E94E116C5
:105160008091CE020E940828BC0180E490E00E9459
:10517000A51680918A0290918B02C89FB001C99FA9
:10518000700D11248091460290914702680F791F9B
:1051900090E080E00E94153B20E030E041E655E4DD
:1051A0000E94DF3C20E030E040E856E40E94523BA1
:1051B0000E94513D80E490E00E94D01640918A0503
:1051C00050918B0560918C0570918D0580E890E081
:1051D0000E94E1168091BD020E940828BC0180E86F
:1051E00090E00E94A5168091790290917A02C89F62
:1051F000B001C99F700D1124809135029091360243
:10520000680F791F90E080E00E94153B20E030E0BD
:1052100041E655E40E94DF3C20E030E040E856E4FF
:105220000E94523B0E94513D80E890E00E94D016BF
:1052300085E0CF910C943312CF9108958091890C21
:1052400090918A0C0297F0F5E091E003F091E10370
:10525000EE0FFF1FEE0FFF1FEA52FC4F41895289EC
:10526000638974898091740C9091750C0E948015EB
:105270000E945C17B901CA0120932702709328028B
:105280004093290290932A020E94153B26E636E6B7
:1052900046EE5EE30E94523B0E94513D60936206DF
:1052A0007093630680936406909365060E942A2893
:1052B0000E94312685E092E09093D7068093D6062F
:1052C00080E008950E945C17BA01422F532F90E0AE
:1052D00080E0CCCF1F920F920FB60F9211242F9324
:1052E0003F938F939F93AF93BF938091D9069091F3
:1052F000DA06A091DB06B091DC063091D80623E0F7
:10530000230F2D3758F50196A11DB11D2093D80606
:105310008093D9069093DA06A093DB06B093DC065F
:105320008091DD069091DE06A091DF06B091E00647
:105330000196A11DB11D8093DD069093DE06A0931A
:10534000DF06B093E006BF91AF919F918F913F919F
:105350002F910F900FBE0F901F90189526E8230FE6
:105360000296A11DB11DD2CF1F920F920FB60F92C0
:1053700011240BB60F922F933F934F935F936F932C
:105380007F938F939F93AF93BF93EF93FF93E0919E
:105390000904F0910A041995FF91EF91BF91AF9123
:1053A0009F918F917F916F915F914F913F912F913D
:1053B0000F900BBE0F900FBE0F901F9018951F926D
:1053C0000F920FB60F9211240BB60F922F933F93AB
:1053D0004F935F936F937F938F939F93AF93BF93FD
:1053E000EF93FF93E0910704F09108041995FF9162
:1053F000EF91BF91AF919F918F917F916F915F914D
:105400004F913F912F910F900BBE0F900FBE0F90B9
:105410001F9018951F920F920FB60F9211240BB682
:105420000F922F933F934F935F936F937F938F933D
:105430009F93AF93BF93EF93FF93E091FD03F091A0
:10544000FE031995FF91EF91BF91AF919F918F91BD
:105450007F916F915F914F913F912F910F900BBE74
:105460000F900FBE0F901F9018951F920F920FB6BE
:105470000F9211240BB60F922F933F934F935F938C
:105480006F937F938F939F93AF93BF93EF93FF930C
:10549000E091FB03F091FC031995FF91EF91BF910F
:1054A000AF919F918F917F916F915F914F913F91BC
:1054B0002F910F900BBE0F900FBE0F901F9018955D
:1054C0001F920F920FB60F9211240BB60F922F93CB
:1054D0003F934F935F936F937F938F939F93AF937C
:1054E000BF93EF93FF93E0910504F09106041995A3
:1054F000FF91EF91BF91AF919F918F917F916F91AC
:105500005F914F913F912F910F900BBE0F900FBE67
:105510000F901F9018951F920F920FB60F921124A3
:105520000BB60F922F933F934F935F936F937F939D
:105530008F939F93AF93BF93EF93FF93E0910304F7
:10554000F09104041995FF91EF91BF91AF919F9154
:105550008F917F916F915F914F913F912F910F901C
:105560000BBE0F900FBE0F901F9018951F920F92B9
:105570000FB60F9211240BB60F922F933F934F93B8
:105580005F936F937F938F939F93AF93BF93EF93AB
:10559000FF93E0910104F09102041995FF91EF91BE
:1055A000BF91AF919F918F917F916F915F914F913B
:1055B0003F912F910F900BBE0F900FBE0F901F9039
:1055C00018951F920F920FB60F9211240BB60F92DF
:1055D0002F933F934F935F936F937F938F939F93FB
:1055E000AF93BF93EF93FF93E091FF03F09100041B
:1055F0001995FF91EF91BF91AF919F918F917F91FD
:105600006F915F914F913F912F910F900BBE0F9033
:105610000FBE0F901F9018951F920F920FB60F920A
:1056200011240BB60F922F933F934F935F936F9379
:105630007F938F939F93AF93BF93EF93FF9381EEED
:1056400096E00E94970AFF91EF91BF91AF919F91D1
:105650008F917F916F915F914F913F912F910F901B
:105660000BBE0F900FBE0F901F9018951F920F92B8
:105670000FB60F9211240BB60F922F938F939F9317
:10568000EF93FF93E091F106F091F2068081E091B3
:10569000F706F091F80682FD1DC090818091FA0610
:1056A0008F5F8F732091FB06821741F0E091FA061D
:1056B000F0E0EF51F94F958F8093FA06FF91EF914B
:1056C0009F918F912F910F900BBE0F900FBE0F9057
:1056D0001F9018958081F2CF1F920F920FB60F92F4
:1056E00011240BB60F922F933F934F935F936F93B9
:1056F0007F938F939F93AF93BF93EF93FF9380918B
:10570000B900887F803609F44DC008F040C0883267
:1057100009F4A9C028F5803109F49DC0C8F4882394
:1057200009F4FBC0883009F496C0FF91EF91BF9156
:10573000AF919F918F917F916F915F914F913F9129
:105740002F910F900BBE0F900FBE0F901F901895CA
:10575000883109F488C0803241F78093360614C03E
:10576000803409F49DC040F48033B9F38833E9F6FE
:105770008093360685ECB0C0803509F485C0883545
:1057800009F496C0883489F60E94E425CECF883982
:1057900009F48CC038F5883729F050F4883611F0B8
:1057A000803719F683E0809337061092350657C08C
:1057B000883809F47BC0803919F0803809F0B5CFFA
:1057C00080913506803208F071C0E091350681E0A5
:1057D0008E0F809335068091BB00F0E0EB5EF94FB1
:1057E00080833DC0803B39F0E0F4803A09F479C011
:1057F000883A09F09ACF84E0809337061092120617
:1058000010921106E0910F06F09110061995809103
:10581000110681110FC081E0809311061092EF05EF
:1058200009C0803C09F4A6CF883C09F4A3CF883B8B
:1058300009F07BCFE091120681E08E0F8093120673
:10584000F0E0E151FA4F80818093BB009091120605
:105850008091110629C080915C068093BB0085EC85
:105860008093BC0062CF90915B0680915A06981796
:1058700058F5E0915B0681E08E0F80935B06F0E0C7
:10588000E65CF94F8081E9CFE0915B0681E08E0F05
:1058900080935B068091BB00F0E0E65CF94F80836B
:1058A00090915B0680915A069817C8F285E8D8CF88
:1058B000E0915B0681E08E0F80935B068091BB00D8
:1058C000F0E0E65CF94F80838091390681115CCF6E
:1058D00081E08093380684EA8093BC0010923706FA
:1058E00024CF85EC8093BC0010923706809135065A
:1058F000803230F4E0913506F0E0EB5EF94F108233
:105900006091350670E0E0911306F091140685E190
:1059100096E019951092350608CF1092360634CFCE
:10592000FC0113821282158214821782168213865A
:1059300012861586148617861686108A85E694E0E8
:1059400091838083F187E0870895CF93DF9310924E
:10595000E4061092E30688EE93E0A0E0B0E08093C6
:10596000E5069093E606A093E706B093E8062CEDD3
:1059700034E03093E2062093E10625EC30E03093EA
:10598000EE062093ED0624EC30E03093F0062093F1
:10599000EF0620EC30E03093F2062093F10621EC84
:1059A00030E03093F4062093F30622EC30E030939D
:1059B000F6062093F50626EC30E03093F8062093A7
:1059C000F7061092FA061092FB061092FC0610924F
:1059D000FD061092810710928007809382079093B2
:1059E0008307A0938407B09385078EEE94E090938D
:1059F0007F0780937E0785ED9CE00E94902C84ECCD
:105A00009CE00E94902C83EB9CE00E94902C82EA08
:105A10009CE00E94902C1092820C1092810C1092AB
:105A2000840C1092830C1092860C1092850C1092AC
:105A3000880C1092870C10928A0C1092890C10928C
:105A40008C0C10928B0C10928E0C10928D0C10926C
:105A50008F0C86E195E09093800C80937F0C6DE233
:105A600075E080E99CE00E94991E68E275E086E995
:105A70009CE00E94991E67E375E08CE99CE00E941F
:105A8000991E10926D0C10926C0C10926F0C10926B
:105A90006E0C1092710C1092700C1092730C10928C
:105AA000720C1092750C1092740C1092770C10926C
:105AB000760C1092790C1092780C10927A0C8CE083
:105AC00095E090936B0C80936A0C10927B0C109273
:105AD0007C0C10927D0C10927E0C84E79CE00E945E
